{"contracts/metaTx_Appian/UserContractMetaTx.sol":{"UserContractMetaTx":{"abi":[{"inputs":[{"internalType":"address","name":"_trustedForwarder","type":"address"}],"stateMutability":"nonpayable","type":"constructor"},{"inputs":[],"name":"addressAlreadyRegistered","type":"error"},{"inputs":[],"name":"adminAlreadyExist","type":"error"},{"inputs":[],"name":"approverAlreadyExist","type":"error"},{"inputs":[],"name":"notAdmin","type":"error"},{"inputs":[],"name":"notL1Address","type":"error"},{"inputs":[],"name":"zeroAddressNotSupported","type":"error"},{"anonymous":false,"inputs":[{"indexed":true,"internalType":"address","name":"previousOwner","type":"address"},{"indexed":true,"internalType":"address","name":"newOwner","type":"address"}],"name":"OwnershipTransferred","type":"event"},{"inputs":[],"name":"L1ApproverAddress","outputs":[{"internalType":"address","name":"","type":"address"}],"stateMutability":"view","type":"function"},{"inputs":[{"internalType":"address","name":"_ad","type":"address"}],"name":"addUser","outputs":[],"stateMutability":"nonpayable","type":"function"},{"inputs":[{"components":[{"internalType":"address","name":"_ad","type":"address"}],"internalType":"struct UserContractMetaTx.userBulkData[]","name":"_userData","type":"tuple[]"}],"name":"addUserBulk","outputs":[],"stateMutability":"nonpayable","type":"function"},{"inputs":[],"name":"getAllUserAddress","outputs":[{"internalType":"address[]","name":"","type":"address[]"}],"stateMutability":"view","type":"function"},{"inputs":[{"internalType":"address","name":"forwarder","type":"address"}],"name":"isTrustedForwarder","outputs":[{"internalType":"bool","name":"","type":"bool"}],"stateMutability":"view","type":"function"},{"inputs":[],"name":"owner","outputs":[{"internalType":"address","name":"","type":"address"}],"stateMutability":"view","type":"function"},{"inputs":[],"name":"renounceOwnership","outputs":[],"stateMutability":"nonpayable","type":"function"},{"inputs":[{"internalType":"address","name":"_newForwarder","type":"address"}],"name":"setTrustedForwarder","outputs":[],"stateMutability":"nonpayable","type":"function"},{"inputs":[{"internalType":"address","name":"newOwner","type":"address"}],"name":"transferOwnership","outputs":[],"stateMutability":"nonpayable","type":"function"},{"inputs":[],"name":"trustedForwarder","outputs":[{"internalType":"address","name":"","type":"address"}],"stateMutability":"view","type":"function"},{"inputs":[{"internalType":"address","name":"_ad","type":"address"}],"name":"verifyUser","outputs":[{"internalType":"bool","name":"","type":"bool"}],"stateMutability":"view","type":"function"},{"inputs":[],"name":"versionRecipient","outputs":[{"internalType":"string","name":"","type":"string"}],"stateMutability":"pure","type":"function"},{"inputs":[{"internalType":"address","name":"_approverAd","type":"address"}],"name":"whitelistApproverL1","outputs":[],"stateMutability":"nonpayable","type":"function"}],"evm":{"bytecode":{"linkReferences":{},"object":"60a060405234801561001057600080fd5b50604051610b7e380380610b7e83398101604081905261002f91610113565b6001600160a01b03811660805261004c610047610071565b61008a565b600180546001600160a01b0319166001600160a01b0392909216919091179055610143565b60006100856100da60201b61066c1760201c565b905090565b600080546001600160a01b038381166001600160a01b0319831681178455604051919092169283917f8be0079c531659141344cd1fd0a4f28419497f9722a3daafe3b4186f6b6457e09190a35050565b6080516000906001600160a01b03163314156100fd575060131936013560601c90565b61008561010f60201b6106b61760201c565b3390565b60006020828403121561012557600080fd5b81516001600160a01b038116811461013c57600080fd5b9392505050565b608051610a19610165600039600081816101a801526106700152610a196000f3fe608060405234801561001057600080fd5b50600436106100cf5760003560e01c80634d8131201161008c5780637da0a877116100665780637da0a877146101e05780638da5cb5b146101f3578063da74222814610204578063f2fde38b1461021757600080fd5b80634d81312014610175578063572b6c0514610198578063715018a6146101d857600080fd5b8063149440d9146100d457806315fe58f2146100f257806338878efe14610107578063421b2d8b1461012c578063473e4bca1461013f578063486ff0cd14610152575b600080fd5b6100dc61022a565b6040516100e9919061078d565b60405180910390f35b6101056101003660046107f1565b61028c565b005b6004546001600160a01b03165b6040516001600160a01b0390911681526020016100e9565b61010561013a3660046107f1565b610331565b61010561014d366004610883565b610411565b60408051808201825260018152603160f81b602082015290516100e9919061094f565b6101886101833660046107f1565b61057a565b60405190151581526020016100e9565b6101886101a63660046107f1565b7f00000000000000000000000000000000000000000000000000000000000000006001600160a01b0390811691161490565b6101056105b0565b600154610114906001600160a01b031681565b6000546001600160a01b0316610114565b6101056102123660046107f1565b6105c4565b6101056102253660046107f1565b6105ee565b6060600280548060200260200160405190810160405280929190818152602001828054801561028257602002820191906000526020600020905b81546001600160a01b03168152600190910190602001808311610264575b5050505050905090565b6102946106ba565b6001600160a01b0381166102bb57604051639b15b39560e01b815260040160405180910390fd5b6001600160a01b03811660009081526007602052604090205460ff161515600114156102fa57604051636ad412ed60e11b815260040160405180910390fd5b6001600160a01b03166000818152600760205260409020805460ff19166001179055600480546001600160a01b0319169091179055565b6004546001600160a01b0316610345610733565b6001600160a01b03161461036c576040516306fbf53160e11b815260040160405180910390fd5b6001600160a01b03811660009081526005602052604090205460ff161515600114156103ab576040516394c7406f60e01b815260040160405180910390fd5b6001600160a01b03166000818152600560205260408120805460ff191660019081179091556002805491820181559091527f405787fa12a823e0f2b7631cc41b3ba8828b3321ca811111fa75cd3aa3bb5ace0180546001600160a01b0319169091179055565b6004546001600160a01b0316610425610733565b6001600160a01b03161461044c576040516306fbf53160e11b815260040160405180910390fd5b60005b8151811015610576576005600083838151811061046e5761046e6109a4565b602090810291909101810151516001600160a01b031682528101919091526040016000205460ff161515600114156104b9576040516394c7406f60e01b815260040160405180910390fd5b6001600560008484815181106104d1576104d16109a4565b6020026020010151600001516001600160a01b03166001600160a01b0316815260200190815260200160002060006101000a81548160ff0219169083151502179055506002828281518110610528576105286109a4565b6020908102919091018101515182546001810184556000938452919092200180546001600160a01b0319166001600160a01b039092169190911790558061056e816109ba565b91505061044f565b5050565b6001600160a01b03811660009081526005602052604081205460ff16156105a357506001919050565b506000919050565b919050565b6105b86106ba565b6105c2600061073d565b565b6105cc6106ba565b600180546001600160a01b0319166001600160a01b0392909216919091179055565b6105f66106ba565b6001600160a01b0381166106605760405162461bcd60e51b815260206004820152602660248201527f4f776e61626c653a206e6577206f776e657220697320746865207a65726f206160448201526564647265737360d01b60648201526084015b60405180910390fd5b6106698161073d565b50565b60007f00000000000000000000000000000000000000000000000000000000000000006001600160a01b03163314156106ac575060131936013560601c90565b503390565b905090565b3390565b6106c2610733565b6001600160a01b03166106dd6000546001600160a01b031690565b6001600160a01b0316146105c25760405162461bcd60e51b815260206004820181905260248201527f4f776e61626c653a2063616c6c6572206973206e6f7420746865206f776e65726044820152606401610657565b60006106b161066c565b600080546001600160a01b038381166001600160a01b0319831681178455604051919092169283917f8be0079c531659141344cd1fd0a4f28419497f9722a3daafe3b4186f6b6457e09190a35050565b6020808252825182820181905260009190848201906040850190845b818110156107ce5783516001600160a01b0316835292840192918401916001016107a9565b50909695505050505050565b80356001600160a01b03811681146105ab57600080fd5b60006020828403121561080357600080fd5b61080c826107da565b9392505050565b634e487b7160e01b600052604160045260246000fd5b6040516020810167ffffffffffffffff8111828210171561084c5761084c610813565b60405290565b604051601f8201601f1916810167ffffffffffffffff8111828210171561087b5761087b610813565b604052919050565b6000602080838503121561089657600080fd5b823567ffffffffffffffff808211156108ae57600080fd5b818501915085601f8301126108c257600080fd5b8135818111156108d4576108d4610813565b8060051b91506108e5848301610852565b81815291830184019184810190888411156108ff57600080fd5b938501935b838510156109435785858a03121561091e57600092508283fd5b610926610829565b9250610931856107da565b83528282529385019390850190610904565b98975050505050505050565b600060208083528351808285015260005b8181101561097c57858101830151858201604001528201610960565b8181111561098e576000604083870101525b50601f01601f1916929092016040019392505050565b634e487b7160e01b600052603260045260246000fd5b60006000198214156109dc57634e487b7160e01b600052601160045260246000fd5b506001019056fea2646970667358221220d73de69c77c7d2c7f596ef96e09c3cb505e900e0d06a762e0b63efbc0cee37f864736f6c63430008090033","opcodes":"PUSH1 0xA0 PUSH1 0x40 MSTORE CALLVALUE DUP1 ISZERO PUSH2 0x10 JUMPI PUSH1 0x0 DUP1 REVERT JUMPDEST POP PUSH1 0x40 MLOAD PUSH2 0xB7E CODESIZE SUB DUP1 PUSH2 0xB7E DUP4 CODECOPY DUP2 ADD PUSH1 0x40 DUP2 SWAP1 MSTORE PUSH2 0x2F SWAP2 PUSH2 0x113 JUMP JUMPDEST PUSH1 0x1 PUSH1 0x1 PUSH1 0xA0 SHL SUB DUP2 AND PUSH1 0x80 MSTORE PUSH2 0x4C PUSH2 0x47 PUSH2 0x71 JUMP JUMPDEST PUSH2 0x8A JUMP JUMPDEST PUSH1 0x1 DUP1 SLOAD PUSH1 0x1 PUSH1 0x1 PUSH1 0xA0 SHL SUB NOT AND PUSH1 0x1 PUSH1 0x1 PUSH1 0xA0 SHL SUB SWAP3 SWAP1 SWAP3 AND SWAP2 SWAP1 SWAP2 OR SWAP1 SSTORE PUSH2 0x143 JUMP JUMPDEST PUSH1 0x0 PUSH2 0x85 PUSH2 0xDA PUSH1 0x20 SHL PUSH2 0x66C OR PUSH1 0x20 SHR JUMP JUMPDEST SWAP1 POP SWAP1 JUMP JUMPDEST PUSH1 0x0 DUP1 SLOAD PUSH1 0x1 PUSH1 0x1 PUSH1 0xA0 SHL SUB DUP4 DUP2 AND PUSH1 0x1 PUSH1 0x1 PUSH1 0xA0 SHL SUB NOT DUP4 AND DUP2 OR DUP5 SSTORE PUSH1 0x40 MLOAD SWAP2 SWAP1 SWAP3 AND SWAP3 DUP4 SWAP2 PUSH32 0x8BE0079C531659141344CD1FD0A4F28419497F9722A3DAAFE3B4186F6B6457E0 SWAP2 SWAP1 LOG3 POP POP JUMP JUMPDEST PUSH1 0x80 MLOAD PUSH1 0x0 SWAP1 PUSH1 0x1 PUSH1 0x1 PUSH1 0xA0 SHL SUB AND CALLER EQ ISZERO PUSH2 0xFD JUMPI POP PUSH1 0x13 NOT CALLDATASIZE ADD CALLDATALOAD PUSH1 0x60 SHR SWAP1 JUMP JUMPDEST PUSH2 0x85 PUSH2 0x10F PUSH1 0x20 SHL PUSH2 0x6B6 OR PUSH1 0x20 SHR JUMP JUMPDEST CALLER SWAP1 JUMP JUMPDEST PUSH1 0x0 PUSH1 0x20 DUP3 DUP5 SUB SLT ISZERO PUSH2 0x125 JUMPI PUSH1 0x0 DUP1 REVERT JUMPDEST DUP2 MLOAD PUSH1 0x1 PUSH1 0x1 PUSH1 0xA0 SHL SUB DUP2 AND DUP2 EQ PUSH2 0x13C JUMPI PUSH1 0x0 DUP1 REVERT JUMPDEST SWAP4 SWAP3 POP POP POP JUMP JUMPDEST PUSH1 0x80 MLOAD PUSH2 0xA19 PUSH2 0x165 PUSH1 0x0 CODECOPY PUSH1 0x0 DUP2 DUP2 PUSH2 0x1A8 ADD MSTORE PUSH2 0x670 ADD MSTORE PUSH2 0xA19 PUSH1 0x0 RETURN INVALID PUSH1 0x80 PUSH1 0x40 MSTORE CALLVALUE DUP1 ISZERO PUSH2 0x10 JUMPI PUSH1 0x0 DUP1 REVERT JUMPDEST POP PUSH1 0x4 CALLDATASIZE LT PUSH2 0xCF JUMPI PUSH1 0x0 CALLDATALOAD PUSH1 0xE0 SHR DUP1 PUSH4 0x4D813120 GT PUSH2 0x8C JUMPI DUP1 PUSH4 0x7DA0A877 GT PUSH2 0x66 JUMPI DUP1 PUSH4 0x7DA0A877 EQ PUSH2 0x1E0 JUMPI DUP1 PUSH4 0x8DA5CB5B EQ PUSH2 0x1F3 JUMPI DUP1 PUSH4 0xDA742228 EQ PUSH2 0x204 JUMPI DUP1 PUSH4 0xF2FDE38B EQ PUSH2 0x217 JUMPI PUSH1 0x0 DUP1 REVERT JUMPDEST DUP1 PUSH4 0x4D813120 EQ PUSH2 0x175 JUMPI DUP1 PUSH4 0x572B6C05 EQ PUSH2 0x198 JUMPI DUP1 PUSH4 0x715018A6 EQ PUSH2 0x1D8 JUMPI PUSH1 0x0 DUP1 REVERT JUMPDEST DUP1 PUSH4 0x149440D9 EQ PUSH2 0xD4 JUMPI DUP1 PUSH4 0x15FE58F2 EQ PUSH2 0xF2 JUMPI DUP1 PUSH4 0x38878EFE EQ PUSH2 0x107 JUMPI DUP1 PUSH4 0x421B2D8B EQ PUSH2 0x12C JUMPI DUP1 PUSH4 0x473E4BCA EQ PUSH2 0x13F JUMPI DUP1 PUSH4 0x486FF0CD EQ PUSH2 0x152 JUMPI JUMPDEST PUSH1 0x0 DUP1 REVERT JUMPDEST PUSH2 0xDC PUSH2 0x22A JUMP JUMPDEST PUSH1 0x40 MLOAD PUSH2 0xE9 SWAP2 SWAP1 PUSH2 0x78D JUMP JUMPDEST PUSH1 0x40 MLOAD DUP1 SWAP2 SUB SWAP1 RETURN JUMPDEST PUSH2 0x105 PUSH2 0x100 CALLDATASIZE PUSH1 0x4 PUSH2 0x7F1 JUMP JUMPDEST PUSH2 0x28C JUMP JUMPDEST STOP JUMPDEST PUSH1 0x4 SLOAD PUSH1 0x1 PUSH1 0x1 PUSH1 0xA0 SHL SUB AND JUMPDEST PUSH1 0x40 MLOAD PUSH1 0x1 PUSH1 0x1 PUSH1 0xA0 SHL SUB SWAP1 SWAP2 AND DUP2 MSTORE PUSH1 0x20 ADD PUSH2 0xE9 JUMP JUMPDEST PUSH2 0x105 PUSH2 0x13A CALLDATASIZE PUSH1 0x4 PUSH2 0x7F1 JUMP JUMPDEST PUSH2 0x331 JUMP JUMPDEST PUSH2 0x105 PUSH2 0x14D CALLDATASIZE PUSH1 0x4 PUSH2 0x883 JUMP JUMPDEST PUSH2 0x411 JUMP JUMPDEST PUSH1 0x40 DUP1 MLOAD DUP1 DUP3 ADD DUP3 MSTORE PUSH1 0x1 DUP2 MSTORE PUSH1 0x31 PUSH1 0xF8 SHL PUSH1 0x20 DUP3 ADD MSTORE SWAP1 MLOAD PUSH2 0xE9 SWAP2 SWAP1 PUSH2 0x94F JUMP JUMPDEST PUSH2 0x188 PUSH2 0x183 CALLDATASIZE PUSH1 0x4 PUSH2 0x7F1 JUMP JUMPDEST PUSH2 0x57A JUMP JUMPDEST PUSH1 0x40 MLOAD SWAP1 ISZERO ISZERO DUP2 MSTORE PUSH1 0x20 ADD PUSH2 0xE9 JUMP JUMPDEST PUSH2 0x188 PUSH2 0x1A6 CALLDATASIZE PUSH1 0x4 PUSH2 0x7F1 JUMP JUMPDEST PUSH32 0x0 PUSH1 0x1 PUSH1 0x1 PUSH1 0xA0 SHL SUB SWAP1 DUP2 AND SWAP2 AND EQ SWAP1 JUMP JUMPDEST PUSH2 0x105 PUSH2 0x5B0 JUMP JUMPDEST PUSH1 0x1 SLOAD PUSH2 0x114 SWAP1 PUSH1 0x1 PUSH1 0x1 PUSH1 0xA0 SHL SUB AND DUP2 JUMP JUMPDEST PUSH1 0x0 SLOAD PUSH1 0x1 PUSH1 0x1 PUSH1 0xA0 SHL SUB AND PUSH2 0x114 JUMP JUMPDEST PUSH2 0x105 PUSH2 0x212 CALLDATASIZE PUSH1 0x4 PUSH2 0x7F1 JUMP JUMPDEST PUSH2 0x5C4 JUMP JUMPDEST PUSH2 0x105 PUSH2 0x225 CALLDATASIZE PUSH1 0x4 PUSH2 0x7F1 JUMP JUMPDEST PUSH2 0x5EE JUMP JUMPDEST PUSH1 0x60 PUSH1 0x2 DUP1 SLOAD DUP1 PUSH1 0x20 MUL PUSH1 0x20 ADD PUSH1 0x40 MLOAD SWAP1 DUP2 ADD PUSH1 0x40 MSTORE DUP1 SWAP3 SWAP2 SWAP1 DUP2 DUP2 MSTORE PUSH1 0x20 ADD DUP3 DUP1 SLOAD DUP1 ISZERO PUSH2 0x282 JUMPI PUSH1 0x20 MUL DUP3 ADD SWAP2 SWAP1 PUSH1 0x0 MSTORE PUSH1 0x20 PUSH1 0x0 KECCAK256 SWAP1 JUMPDEST DUP2 SLOAD PUSH1 0x1 PUSH1 0x1 PUSH1 0xA0 SHL SUB AND DUP2 MSTORE PUSH1 0x1 SWAP1 SWAP2 ADD SWAP1 PUSH1 0x20 ADD DUP1 DUP4 GT PUSH2 0x264 JUMPI JUMPDEST POP POP POP POP POP SWAP1 POP SWAP1 JUMP JUMPDEST PUSH2 0x294 PUSH2 0x6BA JUMP JUMPDEST PUSH1 0x1 PUSH1 0x1 PUSH1 0xA0 SHL SUB DUP2 AND PUSH2 0x2BB JUMPI PUSH1 0x40 MLOAD PUSH4 0x9B15B395 PUSH1 0xE0 SHL DUP2 MSTORE PUSH1 0x4 ADD PUSH1 0x40 MLOAD DUP1 SWAP2 SUB SWAP1 REVERT JUMPDEST PUSH1 0x1 PUSH1 0x1 PUSH1 0xA0 SHL SUB DUP2 AND PUSH1 0x0 SWAP1 DUP2 MSTORE PUSH1 0x7 PUSH1 0x20 MSTORE PUSH1 0x40 SWAP1 KECCAK256 SLOAD PUSH1 0xFF AND ISZERO ISZERO PUSH1 0x1 EQ ISZERO PUSH2 0x2FA JUMPI PUSH1 0x40 MLOAD PUSH4 0x6AD412ED PUSH1 0xE1 SHL DUP2 MSTORE PUSH1 0x4 ADD PUSH1 0x40 MLOAD DUP1 SWAP2 SUB SWAP1 REVERT JUMPDEST PUSH1 0x1 PUSH1 0x1 PUSH1 0xA0 SHL SUB AND PUSH1 0x0 DUP2 DUP2 MSTORE PUSH1 0x7 PUSH1 0x20 MSTORE PUSH1 0x40 SWAP1 KECCAK256 DUP1 SLOAD PUSH1 0xFF NOT AND PUSH1 0x1 OR SWAP1 SSTORE PUSH1 0x4 DUP1 SLOAD PUSH1 0x1 PUSH1 0x1 PUSH1 0xA0 SHL SUB NOT AND SWAP1 SWAP2 OR SWAP1 SSTORE JUMP JUMPDEST PUSH1 0x4 SLOAD PUSH1 0x1 PUSH1 0x1 PUSH1 0xA0 SHL SUB AND PUSH2 0x345 PUSH2 0x733 JUMP JUMPDEST PUSH1 0x1 PUSH1 0x1 PUSH1 0xA0 SHL SUB AND EQ PUSH2 0x36C JUMPI PUSH1 0x40 MLOAD PUSH4 0x6FBF531 PUSH1 0xE1 SHL DUP2 MSTORE PUSH1 0x4 ADD PUSH1 0x40 MLOAD DUP1 SWAP2 SUB SWAP1 REVERT JUMPDEST PUSH1 0x1 PUSH1 0x1 PUSH1 0xA0 SHL SUB DUP2 AND PUSH1 0x0 SWAP1 DUP2 MSTORE PUSH1 0x5 PUSH1 0x20 MSTORE PUSH1 0x40 SWAP1 KECCAK256 SLOAD PUSH1 0xFF AND ISZERO ISZERO PUSH1 0x1 EQ ISZERO PUSH2 0x3AB JUMPI PUSH1 0x40 MLOAD PUSH4 0x94C7406F PUSH1 0xE0 SHL DUP2 MSTORE PUSH1 0x4 ADD PUSH1 0x40 MLOAD DUP1 SWAP2 SUB SWAP1 REVERT JUMPDEST PUSH1 0x1 PUSH1 0x1 PUSH1 0xA0 SHL SUB AND PUSH1 0x0 DUP2 DUP2 MSTORE PUSH1 0x5 PUSH1 0x20 MSTORE PUSH1 0x40 DUP2 KECCAK256 DUP1 SLOAD PUSH1 0xFF NOT AND PUSH1 0x1 SWAP1 DUP2 OR SWAP1 SWAP2 SSTORE PUSH1 0x2 DUP1 SLOAD SWAP2 DUP3 ADD DUP2 SSTORE SWAP1 SWAP2 MSTORE PUSH32 0x405787FA12A823E0F2B7631CC41B3BA8828B3321CA811111FA75CD3AA3BB5ACE ADD DUP1 SLOAD PUSH1 0x1 PUSH1 0x1 PUSH1 0xA0 SHL SUB NOT AND SWAP1 SWAP2 OR SWAP1 SSTORE JUMP JUMPDEST PUSH1 0x4 SLOAD PUSH1 0x1 PUSH1 0x1 PUSH1 0xA0 SHL SUB AND PUSH2 0x425 PUSH2 0x733 JUMP JUMPDEST PUSH1 0x1 PUSH1 0x1 PUSH1 0xA0 SHL SUB AND EQ PUSH2 0x44C JUMPI PUSH1 0x40 MLOAD PUSH4 0x6FBF531 PUSH1 0xE1 SHL DUP2 MSTORE PUSH1 0x4 ADD PUSH1 0x40 MLOAD DUP1 SWAP2 SUB SWAP1 REVERT JUMPDEST PUSH1 0x0 JUMPDEST DUP2 MLOAD DUP2 LT ISZERO PUSH2 0x576 JUMPI PUSH1 0x5 PUSH1 0x0 DUP4 DUP4 DUP2 MLOAD DUP2 LT PUSH2 0x46E JUMPI PUSH2 0x46E PUSH2 0x9A4 JUMP JUMPDEST PUSH1 0x20 SWAP1 DUP2 MUL SWAP2 SWAP1 SWAP2 ADD DUP2 ADD MLOAD MLOAD PUSH1 0x1 PUSH1 0x1 PUSH1 0xA0 SHL SUB AND DUP3 MSTORE DUP2 ADD SWAP2 SWAP1 SWAP2 MSTORE PUSH1 0x40 ADD PUSH1 0x0 KECCAK256 SLOAD PUSH1 0xFF AND ISZERO ISZERO PUSH1 0x1 EQ ISZERO PUSH2 0x4B9 JUMPI PUSH1 0x40 MLOAD PUSH4 0x94C7406F PUSH1 0xE0 SHL DUP2 MSTORE PUSH1 0x4 ADD PUSH1 0x40 MLOAD DUP1 SWAP2 SUB SWAP1 REVERT JUMPDEST PUSH1 0x1 PUSH1 0x5 PUSH1 0x0 DUP5 DUP5 DUP2 MLOAD DUP2 LT PUSH2 0x4D1 JUMPI PUSH2 0x4D1 PUSH2 0x9A4 JUMP JUMPDEST PUSH1 0x20 MUL PUSH1 0x20 ADD ADD MLOAD PUSH1 0x0 ADD MLOAD PUSH1 0x1 PUSH1 0x1 PUSH1 0xA0 SHL SUB AND PUSH1 0x1 PUSH1 0x1 PUSH1 0xA0 SHL SUB AND DUP2 MSTORE PUSH1 0x20 ADD SWAP1 DUP2 MSTORE PUSH1 0x20 ADD PUSH1 0x0 KECCAK256 PUSH1 0x0 PUSH2 0x100 EXP DUP2 SLOAD DUP2 PUSH1 0xFF MUL NOT AND SWAP1 DUP4 ISZERO ISZERO MUL OR SWAP1 SSTORE POP PUSH1 0x2 DUP3 DUP3 DUP2 MLOAD DUP2 LT PUSH2 0x528 JUMPI PUSH2 0x528 PUSH2 0x9A4 JUMP JUMPDEST PUSH1 0x20 SWAP1 DUP2 MUL SWAP2 SWAP1 SWAP2 ADD DUP2 ADD MLOAD MLOAD DUP3 SLOAD PUSH1 0x1 DUP2 ADD DUP5 SSTORE PUSH1 0x0 SWAP4 DUP5 MSTORE SWAP2 SWAP1 SWAP3 KECCAK256 ADD DUP1 SLOAD PUSH1 0x1 PUSH1 0x1 PUSH1 0xA0 SHL SUB NOT AND PUSH1 0x1 PUSH1 0x1 PUSH1 0xA0 SHL SUB SWAP1 SWAP3 AND SWAP2 SWAP1 SWAP2 OR SWAP1 SSTORE DUP1 PUSH2 0x56E DUP2 PUSH2 0x9BA JUMP JUMPDEST SWAP2 POP POP PUSH2 0x44F JUMP JUMPDEST POP POP JUMP JUMPDEST PUSH1 0x1 PUSH1 0x1 PUSH1 0xA0 SHL SUB DUP2 AND PUSH1 0x0 SWAP1 DUP2 MSTORE PUSH1 0x5 PUSH1 0x20 MSTORE PUSH1 0x40 DUP2 KECCAK256 SLOAD PUSH1 0xFF AND ISZERO PUSH2 0x5A3 JUMPI POP PUSH1 0x1 SWAP2 SWAP1 POP JUMP JUMPDEST POP PUSH1 0x0 SWAP2 SWAP1 POP JUMP JUMPDEST SWAP2 SWAP1 POP JUMP JUMPDEST PUSH2 0x5B8 PUSH2 0x6BA JUMP JUMPDEST PUSH2 0x5C2 PUSH1 0x0 PUSH2 0x73D JUMP JUMPDEST JUMP JUMPDEST PUSH2 0x5CC PUSH2 0x6BA JUMP JUMPDEST PUSH1 0x1 DUP1 SLOAD PUSH1 0x1 PUSH1 0x1 PUSH1 0xA0 SHL SUB NOT AND PUSH1 0x1 PUSH1 0x1 PUSH1 0xA0 SHL SUB SWAP3 SWAP1 SWAP3 AND SWAP2 SWAP1 SWAP2 OR SWAP1 SSTORE JUMP JUMPDEST PUSH2 0x5F6 PUSH2 0x6BA JUMP JUMPDEST PUSH1 0x1 PUSH1 0x1 PUSH1 0xA0 SHL SUB DUP2 AND PUSH2 0x660 JUMPI PUSH1 0x40 MLOAD PUSH3 0x461BCD PUSH1 0xE5 SHL DUP2 MSTORE PUSH1 0x20 PUSH1 0x4 DUP3 ADD MSTORE PUSH1 0x26 PUSH1 0x24 DUP3 ADD MSTORE PUSH32 0x4F776E61626C653A206E6577206F776E657220697320746865207A65726F2061 PUSH1 0x44 DUP3 ADD MSTORE PUSH6 0x646472657373 PUSH1 0xD0 SHL PUSH1 0x64 DUP3 ADD MSTORE PUSH1 0x84 ADD JUMPDEST PUSH1 0x40 MLOAD DUP1 SWAP2 SUB SWAP1 REVERT JUMPDEST PUSH2 0x669 DUP2 PUSH2 0x73D JUMP JUMPDEST POP JUMP JUMPDEST PUSH1 0x0 PUSH32 0x0 PUSH1 0x1 PUSH1 0x1 PUSH1 0xA0 SHL SUB AND CALLER EQ ISZERO PUSH2 0x6AC JUMPI POP PUSH1 0x13 NOT CALLDATASIZE ADD CALLDATALOAD PUSH1 0x60 SHR SWAP1 JUMP JUMPDEST POP CALLER SWAP1 JUMP JUMPDEST SWAP1 POP SWAP1 JUMP JUMPDEST CALLER SWAP1 JUMP JUMPDEST PUSH2 0x6C2 PUSH2 0x733 JUMP JUMPDEST PUSH1 0x1 PUSH1 0x1 PUSH1 0xA0 SHL SUB AND PUSH2 0x6DD PUSH1 0x0 SLOAD PUSH1 0x1 PUSH1 0x1 PUSH1 0xA0 SHL SUB AND SWAP1 JUMP JUMPDEST PUSH1 0x1 PUSH1 0x1 PUSH1 0xA0 SHL SUB AND EQ PUSH2 0x5C2 JUMPI PUSH1 0x40 MLOAD PUSH3 0x461BCD PUSH1 0xE5 SHL DUP2 MSTORE PUSH1 0x20 PUSH1 0x4 DUP3 ADD DUP2 SWAP1 MSTORE PUSH1 0x24 DUP3 ADD MSTORE PUSH32 0x4F776E61626C653A2063616C6C6572206973206E6F7420746865206F776E6572 PUSH1 0x44 DUP3 ADD MSTORE PUSH1 0x64 ADD PUSH2 0x657 JUMP JUMPDEST PUSH1 0x0 PUSH2 0x6B1 PUSH2 0x66C JUMP JUMPDEST PUSH1 0x0 DUP1 SLOAD PUSH1 0x1 PUSH1 0x1 PUSH1 0xA0 SHL SUB DUP4 DUP2 AND PUSH1 0x1 PUSH1 0x1 PUSH1 0xA0 SHL SUB NOT DUP4 AND DUP2 OR DUP5 SSTORE PUSH1 0x40 MLOAD SWAP2 SWAP1 SWAP3 AND SWAP3 DUP4 SWAP2 PUSH32 0x8BE0079C531659141344CD1FD0A4F28419497F9722A3DAAFE3B4186F6B6457E0 SWAP2 SWAP1 LOG3 POP POP JUMP JUMPDEST PUSH1 0x20 DUP1 DUP3 MSTORE DUP3 MLOAD DUP3 DUP3 ADD DUP2 SWAP1 MSTORE PUSH1 0x0 SWAP2 SWAP1 DUP5 DUP3 ADD SWAP1 PUSH1 0x40 DUP6 ADD SWAP1 DUP5 JUMPDEST DUP2 DUP2 LT ISZERO PUSH2 0x7CE JUMPI DUP4 MLOAD PUSH1 0x1 PUSH1 0x1 PUSH1 0xA0 SHL SUB AND DUP4 MSTORE SWAP3 DUP5 ADD SWAP3 SWAP2 DUP5 ADD SWAP2 PUSH1 0x1 ADD PUSH2 0x7A9 JUMP JUMPDEST POP SWAP1 SWAP7 SWAP6 POP POP POP POP POP POP JUMP JUMPDEST DUP1 CALLDATALOAD PUSH1 0x1 PUSH1 0x1 PUSH1 0xA0 SHL SUB DUP2 AND DUP2 EQ PUSH2 0x5AB JUMPI PUSH1 0x0 DUP1 REVERT JUMPDEST PUSH1 0x0 PUSH1 0x20 DUP3 DUP5 SUB SLT ISZERO PUSH2 0x803 JUMPI PUSH1 0x0 DUP1 REVERT JUMPDEST PUSH2 0x80C DUP3 PUSH2 0x7DA JUMP JUMPDEST SWAP4 SWAP3 POP POP POP JUMP JUMPDEST PUSH4 0x4E487B71 PUSH1 0xE0 SHL PUSH1 0x0 MSTORE PUSH1 0x41 PUSH1 0x4 MSTORE PUSH1 0x24 PUSH1 0x0 REVERT JUMPDEST PUSH1 0x40 MLOAD PUSH1 0x20 DUP2 ADD PUSH8 0xFFFFFFFFFFFFFFFF DUP2 GT DUP3 DUP3 LT OR ISZERO PUSH2 0x84C JUMPI PUSH2 0x84C PUSH2 0x813 JUMP JUMPDEST PUSH1 0x40 MSTORE SWAP1 JUMP JUMPDEST PUSH1 0x40 MLOAD PUSH1 0x1F DUP3 ADD PUSH1 0x1F NOT AND DUP2 ADD PUSH8 0xFFFFFFFFFFFFFFFF DUP2 GT DUP3 DUP3 LT OR ISZERO PUSH2 0x87B JUMPI PUSH2 0x87B PUSH2 0x813 JUMP JUMPDEST PUSH1 0x40 MSTORE SWAP2 SWAP1 POP JUMP JUMPDEST PUSH1 0x0 PUSH1 0x20 DUP1 DUP4 DUP6 SUB SLT ISZERO PUSH2 0x896 JUMPI PUSH1 0x0 DUP1 REVERT JUMPDEST DUP3 CALLDATALOAD PUSH8 0xFFFFFFFFFFFFFFFF DUP1 DUP3 GT ISZERO PUSH2 0x8AE JUMPI PUSH1 0x0 DUP1 REVERT JUMPDEST DUP2 DUP6 ADD SWAP2 POP DUP6 PUSH1 0x1F DUP4 ADD SLT PUSH2 0x8C2 JUMPI PUSH1 0x0 DUP1 REVERT JUMPDEST DUP2 CALLDATALOAD DUP2 DUP2 GT ISZERO PUSH2 0x8D4 JUMPI PUSH2 0x8D4 PUSH2 0x813 JUMP JUMPDEST DUP1 PUSH1 0x5 SHL SWAP2 POP PUSH2 0x8E5 DUP5 DUP4 ADD PUSH2 0x852 JUMP JUMPDEST DUP2 DUP2 MSTORE SWAP2 DUP4 ADD DUP5 ADD SWAP2 DUP5 DUP2 ADD SWAP1 DUP9 DUP5 GT ISZERO PUSH2 0x8FF JUMPI PUSH1 0x0 DUP1 REVERT JUMPDEST SWAP4 DUP6 ADD SWAP4 JUMPDEST DUP4 DUP6 LT ISZERO PUSH2 0x943 JUMPI DUP6 DUP6 DUP11 SUB SLT ISZERO PUSH2 0x91E JUMPI PUSH1 0x0 SWAP3 POP DUP3 DUP4 REVERT JUMPDEST PUSH2 0x926 PUSH2 0x829 JUMP JUMPDEST SWAP3 POP PUSH2 0x931 DUP6 PUSH2 0x7DA JUMP JUMPDEST DUP4 MSTORE DUP3 DUP3 MSTORE SWAP4 DUP6 ADD SWAP4 SWAP1 DUP6 ADD SWAP1 PUSH2 0x904 JUMP JUMPDEST SWAP9 SWAP8 POP POP POP POP POP POP POP POP JUMP JUMPDEST PUSH1 0x0 PUSH1 0x20 DUP1 DUP4 MSTORE DUP4 MLOAD DUP1 DUP3 DUP6 ADD MSTORE PUSH1 0x0 JUMPDEST DUP2 DUP2 LT ISZERO PUSH2 0x97C JUMPI DUP6 DUP2 ADD DUP4 ADD MLOAD DUP6 DUP3 ADD PUSH1 0x40 ADD MSTORE DUP3 ADD PUSH2 0x960 JUMP JUMPDEST DUP2 DUP2 GT ISZERO PUSH2 0x98E JUMPI PUSH1 0x0 PUSH1 0x40 DUP4 DUP8 ADD ADD MSTORE JUMPDEST POP PUSH1 0x1F ADD PUSH1 0x1F NOT AND SWAP3 SWAP1 SWAP3 ADD PUSH1 0x40 ADD SWAP4 SWAP3 POP POP POP JUMP JUMPDEST PUSH4 0x4E487B71 PUSH1 0xE0 SHL PUSH1 0x0 MSTORE PUSH1 0x32 PUSH1 0x4 MSTORE PUSH1 0x24 PUSH1 0x0 REVERT JUMPDEST PUSH1 0x0 PUSH1 0x0 NOT DUP3 EQ ISZERO PUSH2 0x9DC JUMPI PUSH4 0x4E487B71 PUSH1 0xE0 SHL PUSH1 0x0 MSTORE PUSH1 0x11 PUSH1 0x4 MSTORE PUSH1 0x24 PUSH1 0x0 REVERT JUMPDEST POP PUSH1 0x1 ADD SWAP1 JUMP INVALID LOG2 PUSH5 0x6970667358 0x22 SLT KECCAK256 0xD7 RETURNDATASIZE 0xE6 SWAP13 PUSH24 0xC7D2C7F596EF96E09C3CB505E900E0D06A762E0B63EFBC0C 0xEE CALLDATACOPY 0xF8 PUSH5 0x736F6C6343 STOP ADDMOD MULMOD STOP CALLER "},"methodIdentifiers":{"L1ApproverAddress()":"38878efe","addUser(address)":"421b2d8b","addUserBulk((address)[])":"473e4bca","getAllUserAddress()":"149440d9","isTrustedForwarder(address)":"572b6c05","owner()":"8da5cb5b","renounceOwnership()":"715018a6","setTrustedForwarder(address)":"da742228","transferOwnership(address)":"f2fde38b","trustedForwarder()":"7da0a877","verifyUser(address)":"4d813120","versionRecipient()":"486ff0cd","whitelistApproverL1(address)":"15fe58f2"}},"storageLayout":{"storage":[{"astId":7,"contract":"contracts/metaTx_Appian/UserContractMetaTx.sol:UserContractMetaTx","label":"_owner","offset":0,"slot":"0","type":"t_address"},{"astId":3350,"contract":"contracts/metaTx_Appian/UserContractMetaTx.sol:UserContractMetaTx","label":"trustedForwarder","offset":0,"slot":"1","type":"t_address"},{"astId":3353,"contract":"contracts/metaTx_Appian/UserContractMetaTx.sol:UserContractMetaTx","label":"pushUsers","offset":0,"slot":"2","type":"t_array(t_address)dyn_storage"},{"astId":3356,"contract":"contracts/metaTx_Appian/UserContractMetaTx.sol:UserContractMetaTx","label":"adminAddresses","offset":0,"slot":"3","type":"t_array(t_address)dyn_storage"},{"astId":3358,"contract":"contracts/metaTx_Appian/UserContractMetaTx.sol:UserContractMetaTx","label":"L1Approver","offset":0,"slot":"4","type":"t_address"},{"astId":3362,"contract":"contracts/metaTx_Appian/UserContractMetaTx.sol:UserContractMetaTx","label":"isUser","offset":0,"slot":"5","type":"t_mapping(t_address,t_bool)"},{"astId":3366,"contract":"contracts/metaTx_Appian/UserContractMetaTx.sol:UserContractMetaTx","label":"adminAddress","offset":0,"slot":"6","type":"t_mapping(t_address,t_bool)"},{"astId":3370,"contract":"contracts/metaTx_Appian/UserContractMetaTx.sol:UserContractMetaTx","label":"approverAddress","offset":0,"slot":"7","type":"t_mapping(t_address,t_bool)"}],"types":{"t_address":{"encoding":"inplace","label":"address","numberOfBytes":"20"},"t_array(t_address)dyn_storage":{"base":"t_address","encoding":"dynamic_array","label":"address[]","numberOfBytes":"32"},"t_bool":{"encoding":"inplace","label":"bool","numberOfBytes":"1"},"t_mapping(t_address,t_bool)":{"encoding":"mapping","key":"t_address","label":"mapping(address => bool)","numberOfBytes":"32","value":"t_bool"}}}}}}