{"contracts/metaTx_Appian/YexleMetaTx.sol":{"YexleMetaTx":{"abi":[{"inputs":[{"internalType":"string","name":"_metadata","type":"string"},{"internalType":"address","name":"_trustedForwarder","type":"address"}],"stateMutability":"nonpayable","type":"constructor"},{"inputs":[],"name":"L1Rejected","type":"error"},{"inputs":[],"name":"NotAnAdmin","type":"error"},{"inputs":[],"name":"NotOwnerOfID","type":"error"},{"inputs":[],"name":"URIQueryForNonexistentToken","type":"error"},{"inputs":[],"name":"alreadyApproved","type":"error"},{"inputs":[],"name":"approverAlreadyExist","type":"error"},{"inputs":[],"name":"notApproverAddress","type":"error"},{"inputs":[],"name":"notL1Approver","type":"error"},{"inputs":[],"name":"notL2Approver","type":"error"},{"inputs":[],"name":"ownerRejectedTheOffer","type":"error"},{"inputs":[],"name":"userContractError","type":"error"},{"inputs":[],"name":"zeroAddressNotSupported","type":"error"},{"anonymous":false,"inputs":[{"indexed":true,"internalType":"address","name":"Viewer","type":"address"},{"indexed":true,"internalType":"uint256","name":"Token","type":"uint256"}],"name":"AccessGrantedToView","type":"event"},{"anonymous":false,"inputs":[{"indexed":true,"internalType":"address","name":"owner","type":"address"},{"indexed":true,"internalType":"address","name":"approved","type":"address"},{"indexed":true,"internalType":"uint256","name":"tokenId","type":"uint256"}],"name":"Approval","type":"event"},{"anonymous":false,"inputs":[{"indexed":true,"internalType":"address","name":"owner","type":"address"},{"indexed":true,"internalType":"address","name":"operator","type":"address"},{"indexed":false,"internalType":"bool","name":"approved","type":"bool"}],"name":"ApprovalForAll","type":"event"},{"anonymous":false,"inputs":[{"indexed":false,"internalType":"address","name":"to","type":"address"}],"name":"OwnershipGranted","type":"event"},{"anonymous":false,"inputs":[{"indexed":true,"internalType":"address","name":"from","type":"address"},{"indexed":true,"internalType":"address","name":"to","type":"address"},{"indexed":true,"internalType":"uint256","name":"tokenId","type":"uint256"}],"name":"OwnershipTransferOfLand","type":"event"},{"anonymous":false,"inputs":[{"indexed":true,"internalType":"address","name":"previousOwner","type":"address"},{"indexed":true,"internalType":"address","name":"newOwner","type":"address"}],"name":"OwnershipTransferred","type":"event"},{"anonymous":false,"inputs":[{"indexed":true,"internalType":"address","name":"from","type":"address"},{"indexed":true,"internalType":"address","name":"to","type":"address"},{"indexed":true,"internalType":"uint256","name":"tokenId","type":"uint256"}],"name":"Transfer","type":"event"},{"inputs":[],"name":"IID_IERC721","outputs":[{"internalType":"bytes4","name":"","type":"bytes4"}],"stateMutability":"view","type":"function"},{"inputs":[{"internalType":"address","name":"_requester","type":"address"},{"internalType":"uint256","name":"_tokenId","type":"uint256"}],"name":"L2ApproverStatusForL1Approver","outputs":[{"internalType":"bool","name":"","type":"bool"}],"stateMutability":"view","type":"function"},{"inputs":[{"internalType":"address","name":"_requester","type":"address"},{"internalType":"uint256","name":"_tokenId","type":"uint256"}],"name":"LandRequesterStatus","outputs":[{"internalType":"bool","name":"ViewDocumentStatus","type":"bool"},{"internalType":"bool","name":"L1ApproverStatusForRequester","type":"bool"},{"internalType":"bool","name":"L2ApproverstatusForRequester","type":"bool"},{"internalType":"uint256","name":"approveCountForTokenIdByApprovers","type":"uint256"}],"stateMutability":"view","type":"function"},{"inputs":[{"internalType":"address","name":"to","type":"address"},{"internalType":"uint256","name":"tokenId","type":"uint256"}],"name":"approve","outputs":[],"stateMutability":"nonpayable","type":"function"},{"inputs":[{"components":[{"internalType":"address","name":"_sellingTo","type":"address"},{"internalType":"uint256","name":"_tokenId","type":"uint256"},{"internalType":"bool","name":"status","type":"bool"}],"internalType":"struct YexleMetaTx.approverData","name":"_data","type":"tuple"}],"name":"approveAndTransferLand1","outputs":[],"stateMutability":"nonpayable","type":"function"},{"inputs":[{"components":[{"internalType":"address","name":"_sellingTo","type":"address"},{"internalType":"uint256","name":"_tokenId","type":"uint256"},{"internalType":"bool","name":"status","type":"bool"}],"internalType":"struct YexleMetaTx.approverData","name":"_data","type":"tuple"}],"name":"approveByL1","outputs":[],"stateMutability":"nonpayable","type":"function"},{"inputs":[{"components":[{"internalType":"address","name":"_sellingTo","type":"address"},{"internalType":"uint256","name":"_tokenId","type":"uint256"},{"internalType":"bool","name":"status","type":"bool"}],"internalType":"struct YexleMetaTx.approverData","name":"_data","type":"tuple"}],"name":"approveByL2","outputs":[],"stateMutability":"nonpayable","type":"function"},{"inputs":[{"internalType":"address","name":"owner","type":"address"}],"name":"balanceOf","outputs":[{"internalType":"uint256","name":"","type":"uint256"}],"stateMutability":"view","type":"function"},{"inputs":[{"internalType":"uint256","name":"tokenId","type":"uint256"}],"name":"burn","outputs":[],"stateMutability":"nonpayable","type":"function"},{"inputs":[],"name":"contractURI","outputs":[{"internalType":"string","name":"","type":"string"}],"stateMutability":"view","type":"function"},{"inputs":[{"internalType":"uint256","name":"tokenId","type":"uint256"}],"name":"getApproved","outputs":[{"internalType":"address","name":"","type":"address"}],"stateMutability":"view","type":"function"},{"inputs":[{"internalType":"address","name":"owner","type":"address"},{"internalType":"address","name":"operator","type":"address"}],"name":"isApprovedForAll","outputs":[{"internalType":"bool","name":"","type":"bool"}],"stateMutability":"view","type":"function"},{"inputs":[{"internalType":"address","name":"forwarder","type":"address"}],"name":"isTrustedForwarder","outputs":[{"internalType":"bool","name":"","type":"bool"}],"stateMutability":"view","type":"function"},{"inputs":[{"internalType":"address","name":"_requester","type":"address"},{"internalType":"uint256","name":"tokenId","type":"uint256"},{"internalType":"bool","name":"_status","type":"bool"}],"name":"landDocumentViewRequestApprove","outputs":[],"stateMutability":"nonpayable","type":"function"},{"inputs":[],"name":"metadataUri","outputs":[{"internalType":"string","name":"","type":"string"}],"stateMutability":"view","type":"function"},{"inputs":[{"internalType":"address","name":"_to","type":"address"},{"internalType":"uint256","name":"_tokenId","type":"uint256"},{"internalType":"string","name":"_tokenUri","type":"string"}],"name":"mint","outputs":[],"stateMutability":"nonpayable","type":"function"},{"inputs":[],"name":"name","outputs":[{"internalType":"string","name":"","type":"string"}],"stateMutability":"view","type":"function"},{"inputs":[{"internalType":"address","name":"","type":"address"},{"internalType":"address","name":"","type":"address"},{"internalType":"uint256","name":"","type":"uint256"},{"internalType":"bytes","name":"","type":"bytes"}],"name":"onERC721Received","outputs":[{"internalType":"bytes4","name":"","type":"bytes4"}],"stateMutability":"nonpayable","type":"function"},{"inputs":[],"name":"owner","outputs":[{"internalType":"address","name":"","type":"address"}],"stateMutability":"view","type":"function"},{"inputs":[{"internalType":"address","name":"_requester","type":"address"},{"internalType":"uint256","name":"_tokenId","type":"uint256"},{"internalType":"bool","name":"_status","type":"bool"}],"name":"ownerDecisionforRaisedRequest","outputs":[],"stateMutability":"nonpayable","type":"function"},{"inputs":[{"internalType":"uint256","name":"tokenId","type":"uint256"}],"name":"ownerOf","outputs":[{"internalType":"address","name":"","type":"address"}],"stateMutability":"view","type":"function"},{"inputs":[{"internalType":"uint256","name":"tokenId","type":"uint256"},{"internalType":"string","name":"_DocumentUri","type":"string"}],"name":"registrationForLandByBuyer","outputs":[],"stateMutability":"nonpayable","type":"function"},{"inputs":[],"name":"renounceOwnership","outputs":[],"stateMutability":"nonpayable","type":"function"},{"inputs":[{"internalType":"uint256","name":"_tokenId","type":"uint256"}],"name":"requestLandForSale","outputs":[],"stateMutability":"nonpayable","type":"function"},{"inputs":[{"internalType":"address","name":"from","type":"address"},{"internalType":"address","name":"to","type":"address"},{"internalType":"uint256","name":"tokenId","type":"uint256"}],"name":"safeTransferFrom","outputs":[],"stateMutability":"nonpayable","type":"function"},{"inputs":[{"internalType":"address","name":"from","type":"address"},{"internalType":"address","name":"to","type":"address"},{"internalType":"uint256","name":"tokenId","type":"uint256"},{"internalType":"bytes","name":"data","type":"bytes"}],"name":"safeTransferFrom","outputs":[],"stateMutability":"nonpayable","type":"function"},{"inputs":[{"internalType":"address","name":"operator","type":"address"},{"internalType":"bool","name":"approved","type":"bool"}],"name":"setApprovalForAll","outputs":[],"stateMutability":"nonpayable","type":"function"},{"inputs":[{"internalType":"string","name":"_contractURI","type":"string"}],"name":"setContractURI","outputs":[{"internalType":"bool","name":"","type":"bool"}],"stateMutability":"nonpayable","type":"function"},{"inputs":[{"internalType":"uint256","name":"_id","type":"uint256"},{"internalType":"string","name":"_tokenUri","type":"string"}],"name":"setTokenURI","outputs":[],"stateMutability":"nonpayable","type":"function"},{"inputs":[{"internalType":"address","name":"_newForwarder","type":"address"}],"name":"setTrustedForwarder","outputs":[],"stateMutability":"nonpayable","type":"function"},{"inputs":[{"internalType":"bytes4","name":"interfaceId","type":"bytes4"}],"name":"supportsInterface","outputs":[{"internalType":"bool","name":"","type":"bool"}],"stateMutability":"view","type":"function"},{"inputs":[],"name":"symbol","outputs":[{"internalType":"string","name":"","type":"string"}],"stateMutability":"view","type":"function"},{"inputs":[{"internalType":"uint256","name":"tokenId","type":"uint256"}],"name":"tokenURI","outputs":[{"internalType":"string","name":"","type":"string"}],"stateMutability":"view","type":"function"},{"inputs":[{"internalType":"address","name":"from","type":"address"},{"internalType":"address","name":"to","type":"address"},{"internalType":"uint256","name":"tokenId","type":"uint256"}],"name":"transferFrom","outputs":[],"stateMutability":"nonpayable","type":"function"},{"inputs":[{"internalType":"address","name":"newOwner","type":"address"}],"name":"transferOwnership","outputs":[],"stateMutability":"nonpayable","type":"function"},{"inputs":[],"name":"trustedForwarder","outputs":[{"internalType":"address","name":"","type":"address"}],"stateMutability":"view","type":"function"},{"inputs":[],"name":"versionRecipient","outputs":[{"internalType":"string","name":"","type":"string"}],"stateMutability":"pure","type":"function"},{"inputs":[{"internalType":"address","name":"_docViewRequester","type":"address"},{"internalType":"uint256","name":"_tokenId","type":"uint256"}],"name":"viewDocumentByOwnerOrLevelApprovers","outputs":[{"internalType":"string","name":"DocumentUri","type":"string"}],"stateMutability":"view","type":"function"},{"inputs":[{"internalType":"address","name":"_requester","type":"address"},{"internalType":"uint256","name":"_tokenId","type":"uint256"}],"name":"viewDocumentByRequesters","outputs":[{"internalType":"string","name":"DocumentURI","type":"string"}],"stateMutability":"view","type":"function"},{"inputs":[{"internalType":"address","name":"_approverAd","type":"address"}],"name":"whitelistApproverL1","outputs":[],"stateMutability":"nonpayable","type":"function"},{"inputs":[{"internalType":"address","name":"_approverAd","type":"address"}],"name":"whitelistApproverL2","outputs":[],"stateMutability":"nonpayable","type":"function"},{"inputs":[{"internalType":"address","name":"_userContractAd","type":"address"}],"name":"whitelistUserContract","outputs":[],"stateMutability":"nonpayable","type":"function"}],"evm":{"bytecode":{"linkReferences":{},"object":"60a06040523480156200001157600080fd5b50604051620038e5380380620038e58339810160408190526200003491620002be565b604080518082018252600d81526c2cb2bc32b6329020b83834b0b760991b60208083019182528351808501909452600b84526a16595e195b1957d3185b9960aa1b908401526001600160a01b03841660805281519192916200009991600091620001e5565b508051620000af906001906020840190620001e5565b505050620000cc620000c66200013a60201b60201c565b62000156565b600780546001600160a01b0319166001600160a01b0383161790558151620000fc90600c906020850190620001e5565b506000600d5560408051608081019091526043808252620038a2602083013980516200013191600b91602090910190620001e5565b505050620003ec565b600062000151620001a860201b620022d01760201c565b905090565b600680546001600160a01b038381166001600160a01b0319831681179093556040519116919082907f8be0079c531659141344cd1fd0a4f28419497f9722a3daafe3b4186f6b6457e090600090a35050565b6080516000906001600160a01b0316331415620001cc575060131936013560601c90565b62000151620001e160201b6200231a1760201c565b3390565b828054620001f390620003af565b90600052602060002090601f01602090048101928262000217576000855562000262565b82601f106200023257805160ff191683800117855562000262565b8280016001018555821562000262579182015b828111156200026257825182559160200191906001019062000245565b506200027092915062000274565b5090565b5b8082111562000270576000815560010162000275565b634e487b7160e01b600052604160045260246000fd5b80516001600160a01b0381168114620002b957600080fd5b919050565b60008060408385031215620002d257600080fd5b82516001600160401b0380821115620002ea57600080fd5b818501915085601f830112620002ff57600080fd5b8151818111156200031457620003146200028b565b604051601f8201601f19908116603f011681019083821181831017156200033f576200033f6200028b565b816040528281526020935088848487010111156200035c57600080fd5b600091505b8282101562000380578482018401518183018501529083019062000361565b82821115620003925760008484830101525b9550620003a4915050858201620002a1565b925050509250929050565b600181811c90821680620003c457607f821691505b60208210811415620003e657634e487b7160e01b600052602260045260246000fd5b50919050565b6080516134936200040f600039600081816104a601526122d401526134936000f3fe608060405234801561001057600080fd5b506004361061025e5760003560e01c8063715018a611610146578063b88d4fde116100c3578063da74222811610087578063da7422281461062a578063e0966dad1461063d578063e8a3d4851461064b578063e985e9c514610653578063f2fde38b1461068f578063fb39cf52146106a257600080fd5b8063b88d4fde146105cb578063c84c2a80146105de578063c87b56dd146105f1578063caf3be1d14610604578063d3fc98641461061757600080fd5b8063904e6c7c1161010a578063904e6c7c14610577578063938e3d7b1461058a57806395d89b411461059d578063a22cb465146105a5578063a3821b59146105b857600080fd5b8063715018a61461053057806377a4d559146105385780637da0a8771461054057806387c93d06146105535780638da5cb5b1461056657600080fd5b80631d9a6730116101df578063486ff0cd116101a3578063486ff0cd14610479578063572b6c05146104965780635b0b6ead146104d65780636352211e146104e957806363b5648e146104fc57806370a082311461050f57600080fd5b80631d9a673014610391578063229d1a35146103a457806323b872dd1461044057806342842e0e1461045357806342966c681461046657600080fd5b8063150b7a0211610226578063150b7a02146102f357806315fe58f21461031f578063162094c4146103325780631be7fd6f146103455780631c6bab431461037e57600080fd5b80630139ac1e1461026357806301ffc9a71461027857806306fdde03146102a0578063081812fc146102b5578063095ea7b3146102e0575b600080fd5b610276610271366004612cc8565b6106b5565b005b61028b610286366004612cf9565b6107c1565b60405190151581526020015b60405180910390f35b6102a86107ec565b6040516102979190612d6e565b6102c86102c3366004612d81565b61087e565b6040516001600160a01b039091168152602001610297565b6102766102ee366004612d9a565b6108a5565b610306610301366004612e50565b6109d2565b6040516001600160e01b03199091168152602001610297565b61027661032d366004612cc8565b6109e3565b610276610340366004612eec565b610aef565b61028b610353366004612d9a565b6001600160a01b03919091166000908152601d60209081526040808320938352929052205460ff1690565b61027661038c366004612f41565b610bcb565b61027661039f366004612f81565b610dd9565b6104186103b2366004612d9a565b6001600160a01b03919091166000818152601b60209081526040808320858452825280832054848452601a8352818420868552835281842054948452601c83528184209584529482528083205460129092529091205460ff938416949284169390911691565b6040805194151585529215156020850152901515918301919091526060820152608001610297565b61027661044e366004612fe8565b61102a565b610276610461366004612fe8565b611062565b610276610474366004612d81565b61107d565b6040805180820190915260018152603160f81b60208201526102a8565b61028b6104a4366004612cc8565b7f00000000000000000000000000000000000000000000000000000000000000006001600160a01b0390811691161490565b6102766104e4366004612f41565b6110b0565b6102c86104f7366004612d81565b61121f565b6102a861050a366004612d9a565b61127f565b61052261051d366004612cc8565b6113e8565b604051908152602001610297565b61027661146e565b6102a8611482565b6007546102c8906001600160a01b031681565b610276610561366004612d81565b611510565b6006546001600160a01b03166102c8565b610276610585366004612f81565b611683565b61028b610598366004613024565b6119fc565b6102a8611a9a565b6102766105b3366004613059565b611aa9565b6102a86105c6366004612d9a565b611abf565b6102766105d9366004612e50565b611b8f565b6102766105ec366004612f81565b611bce565b6102a86105ff366004612d81565b611dc6565b610276610612366004612eec565b611e57565b610276610625366004613090565b611f67565b610276610638366004612cc8565b612169565b6103066380ac58cd60e01b81565b6102a8612193565b61028b6106613660046130e7565b6001600160a01b03918216600090815260056020908152604080832093909416825291909152205460ff1690565b61027661069d366004612cc8565b6121a2565b6102766106b0366004612cc8565b612218565b6006546001600160a01b03166106c961231e565b6001600160a01b0316141580156107065750600e60006106e761231e565b6001600160a01b0316815260208101919091526040016000205460ff16155b15610724576040516355098f2760e01b815260040160405180910390fd5b6001600160a01b03811661074b57604051639b15b39560e01b815260040160405180910390fd5b6001600160a01b03811660009081526011602052604090205460ff1615156001141561078a57604051636ad412ed60e11b815260040160405180910390fd5b6001600160a01b03166000818152601160205260409020805460ff19166001179055600a80546001600160a01b0319169091179055565b60006001600160e01b031982166380ac58cd60e01b14806107e657506107e682612328565b92915050565b6060600080546107fb9061311a565b80601f01602080910402602001604051908101604052809291908181526020018280546108279061311a565b80156108745780601f1061084957610100808354040283529160200191610874565b820191906000526020600020905b81548152906001019060200180831161085757829003601f168201915b5050505050905090565b600061088982612378565b506000908152600460205260409020546001600160a01b031690565b60006108b08261121f565b9050806001600160a01b0316836001600160a01b031614156109235760405162461bcd60e51b815260206004820152602160248201527f4552433732313a20617070726f76616c20746f2063757272656e74206f776e656044820152603960f91b60648201526084015b60405180910390fd5b806001600160a01b031661093561231e565b6001600160a01b0316148061095157506109518161066161231e565b6109c35760405162461bcd60e51b815260206004820152603e60248201527f4552433732313a20617070726f76652063616c6c6572206973206e6f7420746f60448201527f6b656e206f776e6572206e6f7220617070726f76656420666f7220616c6c0000606482015260840161091a565b6109cd83836123d7565b505050565b630a85bd0160e11b5b949350505050565b6006546001600160a01b03166109f761231e565b6001600160a01b031614158015610a345750600e6000610a1561231e565b6001600160a01b0316815260208101919091526040016000205460ff16155b15610a52576040516355098f2760e01b815260040160405180910390fd5b6001600160a01b038116610a7957604051639b15b39560e01b815260040160405180910390fd5b6001600160a01b03811660009081526011602052604090205460ff16151560011415610ab857604051636ad412ed60e11b815260040160405180910390fd5b6001600160a01b03166000818152601160205260409020805460ff19166001179055600980546001600160a01b0319169091179055565b6000828152601060205260409020546001600160a01b0316610b0f61231e565b6001600160a01b031614610b5d5760405162461bcd60e51b81526020600482015260156024820152743cb7ba9030b932903737ba103a34329037bbb732b960591b604482015260640161091a565b600c8054610b6a9061311a565b15159050610b875760405180602001604052806000815250610ba8565b80604051602001610b989190613155565b6040516020818303038152906040525b6000838152600f6020908152604090912082516109cd9391929190910190612c18565b60085460405163026c098960e51b81526001600160a01b038581166004830152909116906000908290634d8131209060240160206040518083038186803b158015610c1557600080fd5b505afa158015610c29573d6000803e3d6000fd5b505050506040513d601f19601f82011682018060405250810190610c4d9190613171565b905080610c6d57604051637caba7d760e11b815260040160405180910390fd5b6000848152601060205260409020546001600160a01b0316610c8d61231e565b6001600160a01b031614610ce35760405162461bcd60e51b815260206004820152601c60248201527f796f7520617265206e6f7420746865206f776e6572206f66206e667400000000604482015260640161091a565b6001600160a01b0385166000908152601b6020908152604080832087845290915290205460ff168015610d38575060008481526015602090815260408083206001600160a01b038916845290915290205460ff165b8015610d415750825b15610d8a576001600160a01b0385166000908152601660209081526040808320805487151560ff1991821617909155878452601790925290912080549091166001179055610dd2565b60405162461bcd60e51b815260206004820152601860248201527f4f776e65722072656a656374656420746865206f666665720000000000000000604482015260640161091a565b5050505050565b600854815160405163026c098960e51b81526001600160a01b0391821660048201529116906000908290634d8131209060240160206040518083038186803b158015610e2457600080fd5b505afa158015610e38573d6000803e3d6000fd5b505050506040513d601f19601f82011682018060405250810190610e5c9190613171565b905080610e7c57604051637caba7d760e11b815260040160405180910390fd5b6009546001600160a01b0316610e9061231e565b6001600160a01b031614610eb75760405163513bcbe960e01b815260040160405180910390fd5b60136000610ec361231e565b6001600160a01b031681526020808201929092526040908101600090812086840151825290925290205460ff1615610f0e57604051630313d54d60e21b815260040160405180910390fd5b60208084015160009081526019909152604090205460ff168015610f385750604083015115156001145b15610ff8576040838101516020808601516000908152601e909152918220805460ff1916911515919091179055600190601390610f7361231e565b6001600160a01b0390811682526020808301939093526040918201600090812088850180518352908552838220805496151560ff1997881617905588519092168152601a84528281208251825284528281208054909516600190811790955590518152601290925281208054909190610fed9084906131a4565b909155506109cd9050565b505080516001600160a01b03166000908152601a6020908152604080832093820151835292905220805460ff19169055565b61103b61103561231e565b82612445565b6110575760405162461bcd60e51b815260040161091a906131bc565b6109cd8383836124c3565b6109cd83838360405180602001604052806000815250611b8f565b61108861103561231e565b6110a45760405162461bcd60e51b815260040161091a906131bc565b6110ad8161265f565b50565b60085460405163026c098960e51b81526001600160a01b038581166004830152909116906000908290634d8131209060240160206040518083038186803b1580156110fa57600080fd5b505afa15801561110e573d6000803e3d6000fd5b505050506040513d601f19601f820116820180604052508101906111329190613171565b90508061115257604051637caba7d760e11b815260040160405180910390fd5b6009546001600160a01b031661116661231e565b6001600160a01b03161461118d5760405163513bcbe960e01b815260040160405180910390fd5b82156111ee576001600160a01b0385166000818152601b60209081526040808320888452909152808220805460ff19166001179055518692917f3527b92ff88e799233f8c213553a30ea2c9bee572b9252b8e8811968f35000ea91a3610dd2565b5050506001600160a01b03919091166000908152601b6020908152604080832093835292905220805460ff19169055565b6000818152600260205260408120546001600160a01b0316806107e65760405162461bcd60e51b8152602060048201526018602482015277115490cdcc8c4e881a5b9d985b1a59081d1bdad95b88125160421b604482015260640161091a565b6000818152600260205260409020546060906001600160a01b03166112b757604051630a14c4b560e41b815260040160405180910390fd5b6001600160a01b0383166000908152601b6020908152604080832085845290915290205460ff1680156112f9575060008281526017602052604090205460ff16155b1561136f576000828152600260205260409020546001600160a01b031661133357604051630a14c4b560e41b815260040160405180910390fd5b600c600f60008481526020019081526020016000206040516020016113599291906132a4565b60405160208183030381529060405290506107e6565b60405162461bcd60e51b815260206004820152604260248201527f56696577206163636573732069732064656e696564206279204c31417070726f60448201527f766572206f7220546865206c616e64206973206c697374656420666f722073616064820152616c6560f01b608482015260a40161091a565b60006001600160a01b0382166114525760405162461bcd60e51b815260206004820152602960248201527f4552433732313a2061646472657373207a65726f206973206e6f7420612076616044820152683634b21037bbb732b960b91b606482015260840161091a565b506001600160a01b031660009081526003602052604090205490565b6114766126fa565b6114806000612773565b565b600c805461148f9061311a565b80601f01602080910402602001604051908101604052809291908181526020018280546114bb9061311a565b80156115085780601f106114dd57610100808354040283529160200191611508565b820191906000526020600020905b8154815290600101906020018083116114eb57829003601f168201915b505050505081565b6008546001600160a01b0316600081634d81312061152c61231e565b6040516001600160e01b031960e084901b1681526001600160a01b03909116600482015260240160206040518083038186803b15801561156b57600080fd5b505afa15801561157f573d6000803e3d6000fd5b505050506040513d601f19601f820116820180604052508101906115a39190613171565b9050806115c357604051637caba7d760e11b815260040160405180910390fd5b601b60006115cf61231e565b6001600160a01b031681526020808201929092526040908101600090812086825290925290205460ff161561164457600083815260156020526040812060019161161761231e565b6001600160a01b031681526020810191909152604001600020805460ff1916911515919091179055505050565b60405162461bcd60e51b8152602060048201526014602482015273596f7520646f6e7420686176652061636365737360601b604482015260640161091a565b600854815160405163026c098960e51b81526001600160a01b0391821660048201529116906000908290634d8131209060240160206040518083038186803b1580156116ce57600080fd5b505afa1580156116e2573d6000803e3d6000fd5b505050506040513d601f19601f820116820180604052508101906117069190613171565b90508061172657604051637caba7d760e11b815260040160405180910390fd5b600a546001600160a01b031661173a61231e565b6001600160a01b0316146117615760405163201a5f4f60e11b815260040160405180910390fd5b6020808401516000908152601e909152604090205460ff1661179657604051635aee63a760e11b815260040160405180910390fd5b601360006117a261231e565b6001600160a01b031681526020808201929092526040908101600090812086840151825290925290205460ff16156117ed57604051630313d54d60e21b815260040160405180910390fd5b60408301511515600114156118ec5760408084018051602080870180516000908152601f8352858120805494151560ff19958616179055845189516001600160a01b039081168352601c8552878320845184528552878320805492151592871692909217909155945189519095168152601d835285812091518152915292832080549215159290911691909117905560019060139061188a61231e565b6001600160a01b031681526020808201929092526040908101600090812087840180518352908452828220805460ff19169515159590951790945592518352601290915281208054600192906118e19084906131a4565b909155506119569050565b6040808401805185516001600160a01b039081166000908152601c6020908152858220818a0180518452908252868320805495151560ff19968716179055945189519093168252601d81528582209451825293909352929091208054921515929091169190911790555b602080840151600090815260129091526040902054600214801561198e57506020808401516000908152601f909152604090205460ff165b156109cd576119aa61199e61231e565b8451602086015161102a565b602083015183516001600160a01b03166119c261231e565b6001600160a01b03167f986385bea8660b8382c6329a38cc817bc39229f8428d8d6fb4952624a99b75f660405160405180910390a4505050565b6000611a106006546001600160a01b031690565b6001600160a01b0316611a2161231e565b6001600160a01b031614158015611a5e5750600e6000611a3f61231e565b6001600160a01b0316815260208101919091526040016000205460ff16155b15611a7c576040516355098f2760e01b815260040160405180910390fd5b8151611a8f90600b906020850190612c18565b50600190505b919050565b6060600180546107fb9061311a565b611abb611ab461231e565b83836127c5565b5050565b6000818152600260205260409020546060906001600160a01b0316611af757604051630a14c4b560e41b815260040160405180910390fd5b6000828152601060205260409020546001600160a01b0384811691161480611b2c57506009546001600160a01b038481169116145b80611b445750600a546001600160a01b038481169116145b15611b6f57600c600f60008481526020019081526020016000206040516020016113599291906132a4565b60405180608001604052806043815260200161341b6043913990506107e6565b611ba0611b9a61231e565b83612445565b611bbc5760405162461bcd60e51b815260040161091a906131bc565b611bc884848484612894565b50505050565b60116000611bda61231e565b6001600160a01b0316815260208101919091526040016000205460ff16611c1457604051631710613f60e21b815260040160405180910390fd5b60136000611c2061231e565b6001600160a01b031681526020808201929092526040908101600090812084840151825290925290205460ff1615611c6b57604051630313d54d60e21b815260040160405180910390fd5b6040810151151560011415611d4257806040015160146000836020015181526020019081526020016000206000611ca061231e565b6001600160a01b03166001600160a01b0316815260200190815260200160002060006101000a81548160ff021916908315150217905550600160136000611ce561231e565b6001600160a01b031681526020808201929092526040908101600090812085840180518352908452828220805460ff1916951515959095179094559251835260129091528120805460019290611d3c9084906131a4565b90915550505b602080820151600090815260129091526040902054600214156110ad57611d76611d6a61231e565b8251602084015161102a565b602081015181516001600160a01b0316611d8e61231e565b6001600160a01b03167f986385bea8660b8382c6329a38cc817bc39229f8428d8d6fb4952624a99b75f660405160405180910390a450565b6060611dd182612378565b6000611e0560408051808201909152601581527468747470733a2f2f697066732e696f2f697066732f60581b602082015290565b90506000815111611e255760405180602001604052806000815250611e50565b80611e2f846128c7565b604051602001611e409291906132b9565b6040516020818303038152906040525b9392505050565b60166000611e6361231e565b6001600160a01b0316815260208101919091526040016000205460ff161515600114611ed15760405162461bcd60e51b815260206004820152601c60248201527f726567697374726174696f6e206973206e6f7420706f737369626c6500000000604482015260640161091a565b60008281526017602052604090205460ff161515600114611f2b5760405162461bcd60e51b815260206004820152601460248201527373616c65207374617475732069732066616c736560601b604482015260640161091a565b60008281526018602090815260409091208251611f4a92840190612c18565b50506000908152601960205260409020805460ff19166001179055565b60085460405163026c098960e51b81526001600160a01b038581166004830152909116906000908290634d8131209060240160206040518083038186803b158015611fb157600080fd5b505afa158015611fc5573d6000803e3d6000fd5b505050506040513d601f19601f82011682018060405250810190611fe99190613171565b90508061200957604051637caba7d760e11b815260040160405180910390fd5b6009546001600160a01b031661201d61231e565b6001600160a01b0316141561210357600c80546120399061311a565b151590506120565760405180602001604052806000815250612077565b826040516020016120679190613155565b6040516020818303038152906040525b6000858152600f60209081526040909120825161209a9391929190910190612c18565b506120a585856129c5565b600d546120b39060016131a4565b600d55836001600160a01b0386166120c961231e565b6001600160a01b03167f986385bea8660b8382c6329a38cc817bc39229f8428d8d6fb4952624a99b75f660405160405180910390a4610dd2565b60405162461bcd60e51b815260206004820152603560248201527f436f6e6e6563746564206164647265737320646f6573206e6f742068617665206044820152741858d8d95cdcc81d1bc818dc99585d19481b185b99605a1b606482015260840161091a565b6121716126fa565b600780546001600160a01b0319166001600160a01b0392909216919091179055565b6060600b80546107fb9061311a565b6121aa6126fa565b6001600160a01b03811661220f5760405162461bcd60e51b815260206004820152602660248201527f4f776e61626c653a206e6577206f776e657220697320746865207a65726f206160448201526564647265737360d01b606482015260840161091a565b6110ad81612773565b6006546001600160a01b031661222c61231e565b6001600160a01b0316141580156122695750600e600061224a61231e565b6001600160a01b0316815260208101919091526040016000205460ff16155b15612287576040516355098f2760e01b815260040160405180910390fd5b6001600160a01b0381166122ae57604051639b15b39560e01b815260040160405180910390fd5b600880546001600160a01b0319166001600160a01b0392909216919091179055565b60007f00000000000000000000000000000000000000000000000000000000000000006001600160a01b0316331415612310575060131936013560601c90565b503390565b905090565b3390565b60006123156122d0565b60006001600160e01b031982166380ac58cd60e01b148061235957506001600160e01b03198216635b5e139f60e01b145b806107e657506301ffc9a760e01b6001600160e01b03198316146107e6565b6000818152600260205260409020546001600160a01b03166110ad5760405162461bcd60e51b8152602060048201526018602482015277115490cdcc8c4e881a5b9d985b1a59081d1bdad95b88125160421b604482015260640161091a565b600081815260046020526040902080546001600160a01b0319166001600160a01b038416908117909155819061240c8261121f565b6001600160a01b03167f8c5be1e5ebec7d5bd14f71427d1e84f3dd0314c0f7b2291e5b200ac8c7c3b92560405160405180910390a45050565b6000806124518361121f565b9050806001600160a01b0316846001600160a01b0316148061249857506001600160a01b0380821660009081526005602090815260408083209388168352929052205460ff165b806109db5750836001600160a01b03166124b18461087e565b6001600160a01b031614949350505050565b826001600160a01b03166124d68261121f565b6001600160a01b03161461253a5760405162461bcd60e51b815260206004820152602560248201527f4552433732313a207472616e736665722066726f6d20696e636f72726563742060448201526437bbb732b960d91b606482015260840161091a565b6001600160a01b03821661259c5760405162461bcd60e51b8152602060048201526024808201527f4552433732313a207472616e7366657220746f20746865207a65726f206164646044820152637265737360e01b606482015260840161091a565b6125a76000826123d7565b6001600160a01b03831660009081526003602052604081208054600192906125d09084906132e8565b90915550506001600160a01b03821660009081526003602052604081208054600192906125fe9084906131a4565b909155505060008181526002602052604080822080546001600160a01b0319166001600160a01b0386811691821790925591518493918716917fddf252ad1be2c89b69c2b068fc378daa952ba7f163c4a11628f55a4df523b3ef91a4505050565b600061266a8261121f565b90506126776000836123d7565b6001600160a01b03811660009081526003602052604081208054600192906126a09084906132e8565b909155505060008281526002602052604080822080546001600160a01b0319169055518391906001600160a01b038416907fddf252ad1be2c89b69c2b068fc378daa952ba7f163c4a11628f55a4df523b3ef908390a45050565b61270261231e565b6001600160a01b031661271d6006546001600160a01b031690565b6001600160a01b0316146114805760405162461bcd60e51b815260206004820181905260248201527f4f776e61626c653a2063616c6c6572206973206e6f7420746865206f776e6572604482015260640161091a565b600680546001600160a01b038381166001600160a01b0319831681179093556040519116919082907f8be0079c531659141344cd1fd0a4f28419497f9722a3daafe3b4186f6b6457e090600090a35050565b816001600160a01b0316836001600160a01b031614156128275760405162461bcd60e51b815260206004820152601960248201527f4552433732313a20617070726f766520746f2063616c6c657200000000000000604482015260640161091a565b6001600160a01b03838116600081815260056020908152604080832094871680845294825291829020805460ff191686151590811790915591519182527f17307eab39ab6107e8899845ad3d59bd9653f200f220920489ca2b5937696c31910160405180910390a3505050565b61289f8484846124c3565b6128ab84848484612b07565b611bc85760405162461bcd60e51b815260040161091a906132ff565b6060816128eb5750506040805180820190915260018152600360fc1b602082015290565b8160005b811561291557806128ff81613351565b915061290e9050600a83613382565b91506128ef565b60008167ffffffffffffffff81111561293057612930612dc4565b6040519080825280601f01601f19166020018201604052801561295a576020820181803683370190505b5090505b84156109db5761296f6001836132e8565b915061297c600a86613396565b6129879060306131a4565b60f81b81838151811061299c5761299c6133aa565b60200101906001600160f81b031916908160001a9053506129be600a86613382565b945061295e565b6001600160a01b038216612a1b5760405162461bcd60e51b815260206004820181905260248201527f4552433732313a206d696e7420746f20746865207a65726f2061646472657373604482015260640161091a565b6000818152600260205260409020546001600160a01b031615612a805760405162461bcd60e51b815260206004820152601c60248201527f4552433732313a20746f6b656e20616c7265616479206d696e74656400000000604482015260640161091a565b6001600160a01b0382166000908152600360205260408120805460019290612aa99084906131a4565b909155505060008181526002602052604080822080546001600160a01b0319166001600160a01b03861690811790915590518392907fddf252ad1be2c89b69c2b068fc378daa952ba7f163c4a11628f55a4df523b3ef908290a45050565b60006001600160a01b0384163b15612c1057836001600160a01b031663150b7a02612b3061231e565b8786866040518563ffffffff1660e01b8152600401612b5294939291906133c0565b602060405180830381600087803b158015612b6c57600080fd5b505af1925050508015612b9c575060408051601f3d908101601f19168201909252612b99918101906133fd565b60015b612bf6573d808015612bca576040519150601f19603f3d011682016040523d82523d6000602084013e612bcf565b606091505b508051612bee5760405162461bcd60e51b815260040161091a906132ff565b805181602001fd5b6001600160e01b031916630a85bd0160e11b1490506109db565b5060016109db565b828054612c249061311a565b90600052602060002090601f016020900481019282612c465760008555612c8c565b82601f10612c5f57805160ff1916838001178555612c8c565b82800160010185558215612c8c579182015b82811115612c8c578251825591602001919060010190612c71565b50612c98929150612c9c565b5090565b5b80821115612c985760008155600101612c9d565b80356001600160a01b0381168114611a9557600080fd5b600060208284031215612cda57600080fd5b611e5082612cb1565b6001600160e01b0319811681146110ad57600080fd5b600060208284031215612d0b57600080fd5b8135611e5081612ce3565b60005b83811015612d31578181015183820152602001612d19565b83811115611bc85750506000910152565b60008151808452612d5a816020860160208601612d16565b601f01601f19169290920160200192915050565b602081526000611e506020830184612d42565b600060208284031215612d9357600080fd5b5035919050565b60008060408385031215612dad57600080fd5b612db683612cb1565b946020939093013593505050565b634e487b7160e01b600052604160045260246000fd5b600067ffffffffffffffff80841115612df557612df5612dc4565b604051601f8501601f19908116603f01168101908282118183101715612e1d57612e1d612dc4565b81604052809350858152868686011115612e3657600080fd5b858560208301376000602087830101525050509392505050565b60008060008060808587031215612e6657600080fd5b612e6f85612cb1565b9350612e7d60208601612cb1565b925060408501359150606085013567ffffffffffffffff811115612ea057600080fd5b8501601f81018713612eb157600080fd5b612ec087823560208401612dda565b91505092959194509250565b600082601f830112612edd57600080fd5b611e5083833560208501612dda565b60008060408385031215612eff57600080fd5b82359150602083013567ffffffffffffffff811115612f1d57600080fd5b612f2985828601612ecc565b9150509250929050565b80151581146110ad57600080fd5b600080600060608486031215612f5657600080fd5b612f5f84612cb1565b9250602084013591506040840135612f7681612f33565b809150509250925092565b600060608284031215612f9357600080fd5b6040516060810181811067ffffffffffffffff82111715612fb657612fb6612dc4565b604052612fc283612cb1565b8152602083013560208201526040830135612fdc81612f33565b60408201529392505050565b600080600060608486031215612ffd57600080fd5b61300684612cb1565b925061301460208501612cb1565b9150604084013590509250925092565b60006020828403121561303657600080fd5b813567ffffffffffffffff81111561304d57600080fd5b6109db84828501612ecc565b6000806040838503121561306c57600080fd5b61307583612cb1565b9150602083013561308581612f33565b809150509250929050565b6000806000606084860312156130a557600080fd5b6130ae84612cb1565b925060208401359150604084013567ffffffffffffffff8111156130d157600080fd5b6130dd86828701612ecc565b9150509250925092565b600080604083850312156130fa57600080fd5b61310383612cb1565b915061311160208401612cb1565b90509250929050565b600181811c9082168061312e57607f821691505b6020821081141561314f57634e487b7160e01b600052602260045260246000fd5b50919050565b60008251613167818460208701612d16565b9190910192915050565b60006020828403121561318357600080fd5b8151611e5081612f33565b634e487b7160e01b600052601160045260246000fd5b600082198211156131b7576131b761318e565b500190565b6020808252602e908201527f4552433732313a2063616c6c6572206973206e6f7420746f6b656e206f776e6560408201526d1c881b9bdc88185c1c1c9bdd995960921b606082015260800190565b8054600090600181811c908083168061322457607f831692505b602080841082141561324657634e487b7160e01b600052602260045260246000fd5b81801561325a576001811461326b57613298565b60ff19861689528489019650613298565b60008881526020902060005b868110156132905781548b820152908501908301613277565b505084890196505b50505050505092915050565b60006109db6132b3838661320a565b8461320a565b600083516132cb818460208801612d16565b8351908301906132df818360208801612d16565b01949350505050565b6000828210156132fa576132fa61318e565b500390565b60208082526032908201527f4552433732313a207472616e7366657220746f206e6f6e20455243373231526560408201527131b2b4bb32b91034b6b83632b6b2b73a32b960711b606082015260800190565b60006000198214156133655761336561318e565b5060010190565b634e487b7160e01b600052601260045260246000fd5b6000826133915761339161336c565b500490565b6000826133a5576133a561336c565b500690565b634e487b7160e01b600052603260045260246000fd5b6001600160a01b03858116825284166020820152604081018390526080606082018190526000906133f390830184612d42565b9695505050505050565b60006020828403121561340f57600080fd5b8151611e5081612ce356fe61646472657373206973206e6f74206f776e6572206f6620746865206c616e64206e6674206f72207669657720726967687473206973206e6f742070726f7669646564a264697066735822122023904ca338a4ca2c6cca0bb9f846577c3246db006d0a10b8daeaad2078f0f73464736f6c6343000809003368747470733a2f2f697066732e696f2f697066732f516d53663339697a5a3269534865587053574b736644457a716b45664874683666384c7558645731436367653342","opcodes":"PUSH1 0xA0 PUSH1 0x40 MSTORE CALLVALUE DUP1 ISZERO PUSH3 0x11 JUMPI PUSH1 0x0 DUP1 REVERT JUMPDEST POP PUSH1 0x40 MLOAD PUSH3 0x38E5 CODESIZE SUB DUP1 PUSH3 0x38E5 DUP4 CODECOPY DUP2 ADD PUSH1 0x40 DUP2 SWAP1 MSTORE PUSH3 0x34 SWAP2 PUSH3 0x2BE JUMP JUMPDEST PUSH1 0x40 DUP1 MLOAD DUP1 DUP3 ADD DUP3 MSTORE PUSH1 0xD DUP2 MSTORE PUSH13 0x2CB2BC32B6329020B83834B0B7 PUSH1 0x99 SHL PUSH1 0x20 DUP1 DUP4 ADD SWAP2 DUP3 MSTORE DUP4 MLOAD DUP1 DUP6 ADD SWAP1 SWAP5 MSTORE PUSH1 0xB DUP5 MSTORE PUSH11 0x16595E195B1957D3185B99 PUSH1 0xAA SHL SWAP1 DUP5 ADD MSTORE PUSH1 0x1 PUSH1 0x1 PUSH1 0xA0 SHL SUB DUP5 AND PUSH1 0x80 MSTORE DUP2 MLOAD SWAP2 SWAP3 SWAP2 PUSH3 0x99 SWAP2 PUSH1 0x0 SWAP2 PUSH3 0x1E5 JUMP JUMPDEST POP DUP1 MLOAD PUSH3 0xAF SWAP1 PUSH1 0x1 SWAP1 PUSH1 0x20 DUP5 ADD SWAP1 PUSH3 0x1E5 JUMP JUMPDEST POP POP POP PUSH3 0xCC PUSH3 0xC6 PUSH3 0x13A PUSH1 0x20 SHL PUSH1 0x20 SHR JUMP JUMPDEST PUSH3 0x156 JUMP JUMPDEST PUSH1 0x7 DUP1 SLOAD PUSH1 0x1 PUSH1 0x1 PUSH1 0xA0 SHL SUB NOT AND PUSH1 0x1 PUSH1 0x1 PUSH1 0xA0 SHL SUB DUP4 AND OR SWAP1 SSTORE DUP2 MLOAD PUSH3 0xFC SWAP1 PUSH1 0xC SWAP1 PUSH1 0x20 DUP6 ADD SWAP1 PUSH3 0x1E5 JUMP JUMPDEST POP PUSH1 0x0 PUSH1 0xD SSTORE PUSH1 0x40 DUP1 MLOAD PUSH1 0x80 DUP2 ADD SWAP1 SWAP2 MSTORE PUSH1 0x43 DUP1 DUP3 MSTORE PUSH3 0x38A2 PUSH1 0x20 DUP4 ADD CODECOPY DUP1 MLOAD PUSH3 0x131 SWAP2 PUSH1 0xB SWAP2 PUSH1 0x20 SWAP1 SWAP2 ADD SWAP1 PUSH3 0x1E5 JUMP JUMPDEST POP POP POP PUSH3 0x3EC JUMP JUMPDEST PUSH1 0x0 PUSH3 0x151 PUSH3 0x1A8 PUSH1 0x20 SHL PUSH3 0x22D0 OR PUSH1 0x20 SHR JUMP JUMPDEST SWAP1 POP SWAP1 JUMP JUMPDEST PUSH1 0x6 DUP1 SLOAD PUSH1 0x1 PUSH1 0x1 PUSH1 0xA0 SHL SUB DUP4 DUP2 AND PUSH1 0x1 PUSH1 0x1 PUSH1 0xA0 SHL SUB NOT DUP4 AND DUP2 OR SWAP1 SWAP4 SSTORE PUSH1 0x40 MLOAD SWAP2 AND SWAP2 SWAP1 DUP3 SWAP1 PUSH32 0x8BE0079C531659141344CD1FD0A4F28419497F9722A3DAAFE3B4186F6B6457E0 SWAP1 PUSH1 0x0 SWAP1 LOG3 POP POP JUMP JUMPDEST PUSH1 0x80 MLOAD PUSH1 0x0 SWAP1 PUSH1 0x1 PUSH1 0x1 PUSH1 0xA0 SHL SUB AND CALLER EQ ISZERO PUSH3 0x1CC JUMPI POP PUSH1 0x13 NOT CALLDATASIZE ADD CALLDATALOAD PUSH1 0x60 SHR SWAP1 JUMP JUMPDEST PUSH3 0x151 PUSH3 0x1E1 PUSH1 0x20 SHL PUSH3 0x231A OR PUSH1 0x20 SHR JUMP JUMPDEST CALLER SWAP1 JUMP JUMPDEST DUP3 DUP1 SLOAD PUSH3 0x1F3 SWAP1 PUSH3 0x3AF JUMP JUMPDEST SWAP1 PUSH1 0x0 MSTORE PUSH1 0x20 PUSH1 0x0 KECCAK256 SWAP1 PUSH1 0x1F ADD PUSH1 0x20 SWAP1 DIV DUP2 ADD SWAP3 DUP3 PUSH3 0x217 JUMPI PUSH1 0x0 DUP6 SSTORE PUSH3 0x262 JUMP JUMPDEST DUP3 PUSH1 0x1F LT PUSH3 0x232 JUMPI DUP1 MLOAD PUSH1 0xFF NOT AND DUP4 DUP1 ADD OR DUP6 SSTORE PUSH3 0x262 JUMP JUMPDEST DUP3 DUP1 ADD PUSH1 0x1 ADD DUP6 SSTORE DUP3 ISZERO PUSH3 0x262 JUMPI SWAP2 DUP3 ADD JUMPDEST DUP3 DUP2 GT ISZERO PUSH3 0x262 JUMPI DUP3 MLOAD DUP3 SSTORE SWAP2 PUSH1 0x20 ADD SWAP2 SWAP1 PUSH1 0x1 ADD SWAP1 PUSH3 0x245 JUMP JUMPDEST POP PUSH3 0x270 SWAP3 SWAP2 POP PUSH3 0x274 JUMP JUMPDEST POP SWAP1 JUMP JUMPDEST JUMPDEST DUP1 DUP3 GT ISZERO PUSH3 0x270 JUMPI PUSH1 0x0 DUP2 SSTORE PUSH1 0x1 ADD PUSH3 0x275 JUMP JUMPDEST PUSH4 0x4E487B71 PUSH1 0xE0 SHL PUSH1 0x0 MSTORE PUSH1 0x41 PUSH1 0x4 MSTORE PUSH1 0x24 PUSH1 0x0 REVERT JUMPDEST DUP1 MLOAD PUSH1 0x1 PUSH1 0x1 PUSH1 0xA0 SHL SUB DUP2 AND DUP2 EQ PUSH3 0x2B9 JUMPI PUSH1 0x0 DUP1 REVERT JUMPDEST SWAP2 SWAP1 POP JUMP JUMPDEST PUSH1 0x0 DUP1 PUSH1 0x40 DUP4 DUP6 SUB SLT ISZERO PUSH3 0x2D2 JUMPI PUSH1 0x0 DUP1 REVERT JUMPDEST DUP3 MLOAD PUSH1 0x1 PUSH1 0x1 PUSH1 0x40 SHL SUB DUP1 DUP3 GT ISZERO PUSH3 0x2EA JUMPI PUSH1 0x0 DUP1 REVERT JUMPDEST DUP2 DUP6 ADD SWAP2 POP DUP6 PUSH1 0x1F DUP4 ADD SLT PUSH3 0x2FF JUMPI PUSH1 0x0 DUP1 REVERT JUMPDEST DUP2 MLOAD DUP2 DUP2 GT ISZERO PUSH3 0x314 JUMPI PUSH3 0x314 PUSH3 0x28B JUMP JUMPDEST PUSH1 0x40 MLOAD PUSH1 0x1F DUP3 ADD PUSH1 0x1F NOT SWAP1 DUP2 AND PUSH1 0x3F ADD AND DUP2 ADD SWAP1 DUP4 DUP3 GT DUP2 DUP4 LT OR ISZERO PUSH3 0x33F JUMPI PUSH3 0x33F PUSH3 0x28B JUMP JUMPDEST DUP2 PUSH1 0x40 MSTORE DUP3 DUP2 MSTORE PUSH1 0x20 SWAP4 POP DUP9 DUP5 DUP5 DUP8 ADD ADD GT ISZERO PUSH3 0x35C JUMPI PUSH1 0x0 DUP1 REVERT JUMPDEST PUSH1 0x0 SWAP2 POP JUMPDEST DUP3 DUP3 LT ISZERO PUSH3 0x380 JUMPI DUP5 DUP3 ADD DUP5 ADD MLOAD DUP2 DUP4 ADD DUP6 ADD MSTORE SWAP1 DUP4 ADD SWAP1 PUSH3 0x361 JUMP JUMPDEST DUP3 DUP3 GT ISZERO PUSH3 0x392 JUMPI PUSH1 0x0 DUP5 DUP5 DUP4 ADD ADD MSTORE JUMPDEST SWAP6 POP PUSH3 0x3A4 SWAP2 POP POP DUP6 DUP3 ADD PUSH3 0x2A1 JUMP JUMPDEST SWAP3 POP POP POP SWAP3 POP SWAP3 SWAP1 POP JUMP JUMPDEST PUSH1 0x1 DUP2 DUP2 SHR SWAP1 DUP3 AND DUP1 PUSH3 0x3C4 JUMPI PUSH1 0x7F DUP3 AND SWAP2 POP JUMPDEST PUSH1 0x20 DUP3 LT DUP2 EQ ISZERO PUSH3 0x3E6 JUMPI PUSH4 0x4E487B71 PUSH1 0xE0 SHL PUSH1 0x0 MSTORE PUSH1 0x22 PUSH1 0x4 MSTORE PUSH1 0x24 PUSH1 0x0 REVERT JUMPDEST POP SWAP2 SWAP1 POP JUMP JUMPDEST PUSH1 0x80 MLOAD PUSH2 0x3493 PUSH3 0x40F PUSH1 0x0 CODECOPY PUSH1 0x0 DUP2 DUP2 PUSH2 0x4A6 ADD MSTORE PUSH2 0x22D4 ADD MSTORE PUSH2 0x3493 PUSH1 0x0 RETURN INVALID PUSH1 0x80 PUSH1 0x40 MSTORE CALLVALUE DUP1 ISZERO PUSH2 0x10 JUMPI PUSH1 0x0 DUP1 REVERT JUMPDEST POP PUSH1 0x4 CALLDATASIZE LT PUSH2 0x25E JUMPI PUSH1 0x0 CALLDATALOAD PUSH1 0xE0 SHR DUP1 PUSH4 0x715018A6 GT PUSH2 0x146 JUMPI DUP1 PUSH4 0xB88D4FDE GT PUSH2 0xC3 JUMPI DUP1 PUSH4 0xDA742228 GT PUSH2 0x87 JUMPI DUP1 PUSH4 0xDA742228 EQ PUSH2 0x62A JUMPI DUP1 PUSH4 0xE0966DAD EQ PUSH2 0x63D JUMPI DUP1 PUSH4 0xE8A3D485 EQ PUSH2 0x64B JUMPI DUP1 PUSH4 0xE985E9C5 EQ PUSH2 0x653 JUMPI DUP1 PUSH4 0xF2FDE38B EQ PUSH2 0x68F JUMPI DUP1 PUSH4 0xFB39CF52 EQ PUSH2 0x6A2 JUMPI PUSH1 0x0 DUP1 REVERT JUMPDEST DUP1 PUSH4 0xB88D4FDE EQ PUSH2 0x5CB JUMPI DUP1 PUSH4 0xC84C2A80 EQ PUSH2 0x5DE JUMPI DUP1 PUSH4 0xC87B56DD EQ PUSH2 0x5F1 JUMPI DUP1 PUSH4 0xCAF3BE1D EQ PUSH2 0x604 JUMPI DUP1 PUSH4 0xD3FC9864 EQ PUSH2 0x617 JUMPI PUSH1 0x0 DUP1 REVERT JUMPDEST DUP1 PUSH4 0x904E6C7C GT PUSH2 0x10A JUMPI DUP1 PUSH4 0x904E6C7C EQ PUSH2 0x577 JUMPI DUP1 PUSH4 0x938E3D7B EQ PUSH2 0x58A JUMPI DUP1 PUSH4 0x95D89B41 EQ PUSH2 0x59D JUMPI DUP1 PUSH4 0xA22CB465 EQ PUSH2 0x5A5 JUMPI DUP1 PUSH4 0xA3821B59 EQ PUSH2 0x5B8 JUMPI PUSH1 0x0 DUP1 REVERT JUMPDEST DUP1 PUSH4 0x715018A6 EQ PUSH2 0x530 JUMPI DUP1 PUSH4 0x77A4D559 EQ PUSH2 0x538 JUMPI DUP1 PUSH4 0x7DA0A877 EQ PUSH2 0x540 JUMPI DUP1 PUSH4 0x87C93D06 EQ PUSH2 0x553 JUMPI DUP1 PUSH4 0x8DA5CB5B EQ PUSH2 0x566 JUMPI PUSH1 0x0 DUP1 REVERT JUMPDEST DUP1 PUSH4 0x1D9A6730 GT PUSH2 0x1DF JUMPI DUP1 PUSH4 0x486FF0CD GT PUSH2 0x1A3 JUMPI DUP1 PUSH4 0x486FF0CD EQ PUSH2 0x479 JUMPI DUP1 PUSH4 0x572B6C05 EQ PUSH2 0x496 JUMPI DUP1 PUSH4 0x5B0B6EAD EQ PUSH2 0x4D6 JUMPI DUP1 PUSH4 0x6352211E EQ PUSH2 0x4E9 JUMPI DUP1 PUSH4 0x63B5648E EQ PUSH2 0x4FC JUMPI DUP1 PUSH4 0x70A08231 EQ PUSH2 0x50F JUMPI PUSH1 0x0 DUP1 REVERT JUMPDEST DUP1 PUSH4 0x1D9A6730 EQ PUSH2 0x391 JUMPI DUP1 PUSH4 0x229D1A35 EQ PUSH2 0x3A4 JUMPI DUP1 PUSH4 0x23B872DD EQ PUSH2 0x440 JUMPI DUP1 PUSH4 0x42842E0E EQ PUSH2 0x453 JUMPI DUP1 PUSH4 0x42966C68 EQ PUSH2 0x466 JUMPI PUSH1 0x0 DUP1 REVERT JUMPDEST DUP1 PUSH4 0x150B7A02 GT PUSH2 0x226 JUMPI DUP1 PUSH4 0x150B7A02 EQ PUSH2 0x2F3 JUMPI DUP1 PUSH4 0x15FE58F2 EQ PUSH2 0x31F JUMPI DUP1 PUSH4 0x162094C4 EQ PUSH2 0x332 JUMPI DUP1 PUSH4 0x1BE7FD6F EQ PUSH2 0x345 JUMPI DUP1 PUSH4 0x1C6BAB43 EQ PUSH2 0x37E JUMPI PUSH1 0x0 DUP1 REVERT JUMPDEST DUP1 PUSH4 0x139AC1E EQ PUSH2 0x263 JUMPI DUP1 PUSH4 0x1FFC9A7 EQ PUSH2 0x278 JUMPI DUP1 PUSH4 0x6FDDE03 EQ PUSH2 0x2A0 JUMPI DUP1 PUSH4 0x81812FC EQ PUSH2 0x2B5 JUMPI DUP1 PUSH4 0x95EA7B3 EQ PUSH2 0x2E0 JUMPI JUMPDEST PUSH1 0x0 DUP1 REVERT JUMPDEST PUSH2 0x276 PUSH2 0x271 CALLDATASIZE PUSH1 0x4 PUSH2 0x2CC8 JUMP JUMPDEST PUSH2 0x6B5 JUMP JUMPDEST STOP JUMPDEST PUSH2 0x28B PUSH2 0x286 CALLDATASIZE PUSH1 0x4 PUSH2 0x2CF9 JUMP JUMPDEST PUSH2 0x7C1 JUMP JUMPDEST PUSH1 0x40 MLOAD SWAP1 ISZERO ISZERO DUP2 MSTORE PUSH1 0x20 ADD JUMPDEST PUSH1 0x40 MLOAD DUP1 SWAP2 SUB SWAP1 RETURN JUMPDEST PUSH2 0x2A8 PUSH2 0x7EC JUMP JUMPDEST PUSH1 0x40 MLOAD PUSH2 0x297 SWAP2 SWAP1 PUSH2 0x2D6E JUMP JUMPDEST PUSH2 0x2C8 PUSH2 0x2C3 CALLDATASIZE PUSH1 0x4 PUSH2 0x2D81 JUMP JUMPDEST PUSH2 0x87E JUMP JUMPDEST PUSH1 0x40 MLOAD PUSH1 0x1 PUSH1 0x1 PUSH1 0xA0 SHL SUB SWAP1 SWAP2 AND DUP2 MSTORE PUSH1 0x20 ADD PUSH2 0x297 JUMP JUMPDEST PUSH2 0x276 PUSH2 0x2EE CALLDATASIZE PUSH1 0x4 PUSH2 0x2D9A JUMP JUMPDEST PUSH2 0x8A5 JUMP JUMPDEST PUSH2 0x306 PUSH2 0x301 CALLDATASIZE PUSH1 0x4 PUSH2 0x2E50 JUMP JUMPDEST PUSH2 0x9D2 JUMP JUMPDEST PUSH1 0x40 MLOAD PUSH1 0x1 PUSH1 0x1 PUSH1 0xE0 SHL SUB NOT SWAP1 SWAP2 AND DUP2 MSTORE PUSH1 0x20 ADD PUSH2 0x297 JUMP JUMPDEST PUSH2 0x276 PUSH2 0x32D CALLDATASIZE PUSH1 0x4 PUSH2 0x2CC8 JUMP JUMPDEST PUSH2 0x9E3 JUMP JUMPDEST PUSH2 0x276 PUSH2 0x340 CALLDATASIZE PUSH1 0x4 PUSH2 0x2EEC JUMP JUMPDEST PUSH2 0xAEF JUMP JUMPDEST PUSH2 0x28B PUSH2 0x353 CALLDATASIZE PUSH1 0x4 PUSH2 0x2D9A JUMP JUMPDEST PUSH1 0x1 PUSH1 0x1 PUSH1 0xA0 SHL SUB SWAP2 SWAP1 SWAP2 AND PUSH1 0x0 SWAP1 DUP2 MSTORE PUSH1 0x1D PUSH1 0x20 SWAP1 DUP2 MSTORE PUSH1 0x40 DUP1 DUP4 KECCAK256 SWAP4 DUP4 MSTORE SWAP3 SWAP1 MSTORE KECCAK256 SLOAD PUSH1 0xFF AND SWAP1 JUMP JUMPDEST PUSH2 0x276 PUSH2 0x38C CALLDATASIZE PUSH1 0x4 PUSH2 0x2F41 JUMP JUMPDEST PUSH2 0xBCB JUMP JUMPDEST PUSH2 0x276 PUSH2 0x39F CALLDATASIZE PUSH1 0x4 PUSH2 0x2F81 JUMP JUMPDEST PUSH2 0xDD9 JUMP JUMPDEST PUSH2 0x418 PUSH2 0x3B2 CALLDATASIZE PUSH1 0x4 PUSH2 0x2D9A JUMP JUMPDEST PUSH1 0x1 PUSH1 0x1 PUSH1 0xA0 SHL SUB SWAP2 SWAP1 SWAP2 AND PUSH1 0x0 DUP2 DUP2 MSTORE PUSH1 0x1B PUSH1 0x20 SWAP1 DUP2 MSTORE PUSH1 0x40 DUP1 DUP4 KECCAK256 DUP6 DUP5 MSTORE DUP3 MSTORE DUP1 DUP4 KECCAK256 SLOAD DUP5 DUP5 MSTORE PUSH1 0x1A DUP4 MSTORE DUP2 DUP5 KECCAK256 DUP7 DUP6 MSTORE DUP4 MSTORE DUP2 DUP5 KECCAK256 SLOAD SWAP5 DUP5 MSTORE PUSH1 0x1C DUP4 MSTORE DUP2 DUP5 KECCAK256 SWAP6 DUP5 MSTORE SWAP5 DUP3 MSTORE DUP1 DUP4 KECCAK256 SLOAD PUSH1 0x12 SWAP1 SWAP3 MSTORE SWAP1 SWAP2 KECCAK256 SLOAD PUSH1 0xFF SWAP4 DUP5 AND SWAP5 SWAP3 DUP5 AND SWAP4 SWAP1 SWAP2 AND SWAP2 JUMP JUMPDEST PUSH1 0x40 DUP1 MLOAD SWAP5 ISZERO ISZERO DUP6 MSTORE SWAP3 ISZERO ISZERO PUSH1 0x20 DUP6 ADD MSTORE SWAP1 ISZERO ISZERO SWAP2 DUP4 ADD SWAP2 SWAP1 SWAP2 MSTORE PUSH1 0x60 DUP3 ADD MSTORE PUSH1 0x80 ADD PUSH2 0x297 JUMP JUMPDEST PUSH2 0x276 PUSH2 0x44E CALLDATASIZE PUSH1 0x4 PUSH2 0x2FE8 JUMP JUMPDEST PUSH2 0x102A JUMP JUMPDEST PUSH2 0x276 PUSH2 0x461 CALLDATASIZE PUSH1 0x4 PUSH2 0x2FE8 JUMP JUMPDEST PUSH2 0x1062 JUMP JUMPDEST PUSH2 0x276 PUSH2 0x474 CALLDATASIZE PUSH1 0x4 PUSH2 0x2D81 JUMP JUMPDEST PUSH2 0x107D JUMP JUMPDEST PUSH1 0x40 DUP1 MLOAD DUP1 DUP3 ADD SWAP1 SWAP2 MSTORE PUSH1 0x1 DUP2 MSTORE PUSH1 0x31 PUSH1 0xF8 SHL PUSH1 0x20 DUP3 ADD MSTORE PUSH2 0x2A8 JUMP JUMPDEST PUSH2 0x28B PUSH2 0x4A4 CALLDATASIZE PUSH1 0x4 PUSH2 0x2CC8 JUMP JUMPDEST PUSH32 0x0 PUSH1 0x1 PUSH1 0x1 PUSH1 0xA0 SHL SUB SWAP1 DUP2 AND SWAP2 AND EQ SWAP1 JUMP JUMPDEST PUSH2 0x276 PUSH2 0x4E4 CALLDATASIZE PUSH1 0x4 PUSH2 0x2F41 JUMP JUMPDEST PUSH2 0x10B0 JUMP JUMPDEST PUSH2 0x2C8 PUSH2 0x4F7 CALLDATASIZE PUSH1 0x4 PUSH2 0x2D81 JUMP JUMPDEST PUSH2 0x121F JUMP JUMPDEST PUSH2 0x2A8 PUSH2 0x50A CALLDATASIZE PUSH1 0x4 PUSH2 0x2D9A JUMP JUMPDEST PUSH2 0x127F JUMP JUMPDEST PUSH2 0x522 PUSH2 0x51D CALLDATASIZE PUSH1 0x4 PUSH2 0x2CC8 JUMP JUMPDEST PUSH2 0x13E8 JUMP JUMPDEST PUSH1 0x40 MLOAD SWAP1 DUP2 MSTORE PUSH1 0x20 ADD PUSH2 0x297 JUMP JUMPDEST PUSH2 0x276 PUSH2 0x146E JUMP JUMPDEST PUSH2 0x2A8 PUSH2 0x1482 JUMP JUMPDEST PUSH1 0x7 SLOAD PUSH2 0x2C8 SWAP1 PUSH1 0x1 PUSH1 0x1 PUSH1 0xA0 SHL SUB AND DUP2 JUMP JUMPDEST PUSH2 0x276 PUSH2 0x561 CALLDATASIZE PUSH1 0x4 PUSH2 0x2D81 JUMP JUMPDEST PUSH2 0x1510 JUMP JUMPDEST PUSH1 0x6 SLOAD PUSH1 0x1 PUSH1 0x1 PUSH1 0xA0 SHL SUB AND PUSH2 0x2C8 JUMP JUMPDEST PUSH2 0x276 PUSH2 0x585 CALLDATASIZE PUSH1 0x4 PUSH2 0x2F81 JUMP JUMPDEST PUSH2 0x1683 JUMP JUMPDEST PUSH2 0x28B PUSH2 0x598 CALLDATASIZE PUSH1 0x4 PUSH2 0x3024 JUMP JUMPDEST PUSH2 0x19FC JUMP JUMPDEST PUSH2 0x2A8 PUSH2 0x1A9A JUMP JUMPDEST PUSH2 0x276 PUSH2 0x5B3 CALLDATASIZE PUSH1 0x4 PUSH2 0x3059 JUMP JUMPDEST PUSH2 0x1AA9 JUMP JUMPDEST PUSH2 0x2A8 PUSH2 0x5C6 CALLDATASIZE PUSH1 0x4 PUSH2 0x2D9A JUMP JUMPDEST PUSH2 0x1ABF JUMP JUMPDEST PUSH2 0x276 PUSH2 0x5D9 CALLDATASIZE PUSH1 0x4 PUSH2 0x2E50 JUMP JUMPDEST PUSH2 0x1B8F JUMP JUMPDEST PUSH2 0x276 PUSH2 0x5EC CALLDATASIZE PUSH1 0x4 PUSH2 0x2F81 JUMP JUMPDEST PUSH2 0x1BCE JUMP JUMPDEST PUSH2 0x2A8 PUSH2 0x5FF CALLDATASIZE PUSH1 0x4 PUSH2 0x2D81 JUMP JUMPDEST PUSH2 0x1DC6 JUMP JUMPDEST PUSH2 0x276 PUSH2 0x612 CALLDATASIZE PUSH1 0x4 PUSH2 0x2EEC JUMP JUMPDEST PUSH2 0x1E57 JUMP JUMPDEST PUSH2 0x276 PUSH2 0x625 CALLDATASIZE PUSH1 0x4 PUSH2 0x3090 JUMP JUMPDEST PUSH2 0x1F67 JUMP JUMPDEST PUSH2 0x276 PUSH2 0x638 CALLDATASIZE PUSH1 0x4 PUSH2 0x2CC8 JUMP JUMPDEST PUSH2 0x2169 JUMP JUMPDEST PUSH2 0x306 PUSH4 0x80AC58CD PUSH1 0xE0 SHL DUP2 JUMP JUMPDEST PUSH2 0x2A8 PUSH2 0x2193 JUMP JUMPDEST PUSH2 0x28B PUSH2 0x661 CALLDATASIZE PUSH1 0x4 PUSH2 0x30E7 JUMP JUMPDEST PUSH1 0x1 PUSH1 0x1 PUSH1 0xA0 SHL SUB SWAP2 DUP3 AND PUSH1 0x0 SWAP1 DUP2 MSTORE PUSH1 0x5 PUSH1 0x20 SWAP1 DUP2 MSTORE PUSH1 0x40 DUP1 DUP4 KECCAK256 SWAP4 SWAP1 SWAP5 AND DUP3 MSTORE SWAP2 SWAP1 SWAP2 MSTORE KECCAK256 SLOAD PUSH1 0xFF AND SWAP1 JUMP JUMPDEST PUSH2 0x276 PUSH2 0x69D CALLDATASIZE PUSH1 0x4 PUSH2 0x2CC8 JUMP JUMPDEST PUSH2 0x21A2 JUMP JUMPDEST PUSH2 0x276 PUSH2 0x6B0 CALLDATASIZE PUSH1 0x4 PUSH2 0x2CC8 JUMP JUMPDEST PUSH2 0x2218 JUMP JUMPDEST PUSH1 0x6 SLOAD PUSH1 0x1 PUSH1 0x1 PUSH1 0xA0 SHL SUB AND PUSH2 0x6C9 PUSH2 0x231E JUMP JUMPDEST PUSH1 0x1 PUSH1 0x1 PUSH1 0xA0 SHL SUB AND EQ ISZERO DUP1 ISZERO PUSH2 0x706 JUMPI POP PUSH1 0xE PUSH1 0x0 PUSH2 0x6E7 PUSH2 0x231E JUMP JUMPDEST PUSH1 0x1 PUSH1 0x1 PUSH1 0xA0 SHL SUB AND DUP2 MSTORE PUSH1 0x20 DUP2 ADD SWAP2 SWAP1 SWAP2 MSTORE PUSH1 0x40 ADD PUSH1 0x0 KECCAK256 SLOAD PUSH1 0xFF AND ISZERO JUMPDEST ISZERO PUSH2 0x724 JUMPI PUSH1 0x40 MLOAD PUSH4 0x55098F27 PUSH1 0xE0 SHL DUP2 MSTORE PUSH1 0x4 ADD PUSH1 0x40 MLOAD DUP1 SWAP2 SUB SWAP1 REVERT JUMPDEST PUSH1 0x1 PUSH1 0x1 PUSH1 0xA0 SHL SUB DUP2 AND PUSH2 0x74B JUMPI PUSH1 0x40 MLOAD PUSH4 0x9B15B395 PUSH1 0xE0 SHL DUP2 MSTORE PUSH1 0x4 ADD PUSH1 0x40 MLOAD DUP1 SWAP2 SUB SWAP1 REVERT JUMPDEST PUSH1 0x1 PUSH1 0x1 PUSH1 0xA0 SHL SUB DUP2 AND PUSH1 0x0 SWAP1 DUP2 MSTORE PUSH1 0x11 PUSH1 0x20 MSTORE PUSH1 0x40 SWAP1 KECCAK256 SLOAD PUSH1 0xFF AND ISZERO ISZERO PUSH1 0x1 EQ ISZERO PUSH2 0x78A JUMPI PUSH1 0x40 MLOAD PUSH4 0x6AD412ED PUSH1 0xE1 SHL DUP2 MSTORE PUSH1 0x4 ADD PUSH1 0x40 MLOAD DUP1 SWAP2 SUB SWAP1 REVERT JUMPDEST PUSH1 0x1 PUSH1 0x1 PUSH1 0xA0 SHL SUB AND PUSH1 0x0 DUP2 DUP2 MSTORE PUSH1 0x11 PUSH1 0x20 MSTORE PUSH1 0x40 SWAP1 KECCAK256 DUP1 SLOAD PUSH1 0xFF NOT AND PUSH1 0x1 OR SWAP1 SSTORE PUSH1 0xA DUP1 SLOAD PUSH1 0x1 PUSH1 0x1 PUSH1 0xA0 SHL SUB NOT AND SWAP1 SWAP2 OR SWAP1 SSTORE JUMP JUMPDEST PUSH1 0x0 PUSH1 0x1 PUSH1 0x1 PUSH1 0xE0 SHL SUB NOT DUP3 AND PUSH4 0x80AC58CD PUSH1 0xE0 SHL EQ DUP1 PUSH2 0x7E6 JUMPI POP PUSH2 0x7E6 DUP3 PUSH2 0x2328 JUMP JUMPDEST SWAP3 SWAP2 POP POP JUMP JUMPDEST PUSH1 0x60 PUSH1 0x0 DUP1 SLOAD PUSH2 0x7FB SWAP1 PUSH2 0x311A JUMP JUMPDEST DUP1 PUSH1 0x1F ADD PUSH1 0x20 DUP1 SWAP2 DIV MUL PUSH1 0x20 ADD PUSH1 0x40 MLOAD SWAP1 DUP2 ADD PUSH1 0x40 MSTORE DUP1 SWAP3 SWAP2 SWAP1 DUP2 DUP2 MSTORE PUSH1 0x20 ADD DUP3 DUP1 SLOAD PUSH2 0x827 SWAP1 PUSH2 0x311A JUMP JUMPDEST DUP1 ISZERO PUSH2 0x874 JUMPI DUP1 PUSH1 0x1F LT PUSH2 0x849 JUMPI PUSH2 0x100 DUP1 DUP4 SLOAD DIV MUL DUP4 MSTORE SWAP2 PUSH1 0x20 ADD SWAP2 PUSH2 0x874 JUMP JUMPDEST DUP3 ADD SWAP2 SWAP1 PUSH1 0x0 MSTORE PUSH1 0x20 PUSH1 0x0 KECCAK256 SWAP1 JUMPDEST DUP2 SLOAD DUP2 MSTORE SWAP1 PUSH1 0x1 ADD SWAP1 PUSH1 0x20 ADD DUP1 DUP4 GT PUSH2 0x857 JUMPI DUP3 SWAP1 SUB PUSH1 0x1F AND DUP3 ADD SWAP2 JUMPDEST POP POP POP POP POP SWAP1 POP SWAP1 JUMP JUMPDEST PUSH1 0x0 PUSH2 0x889 DUP3 PUSH2 0x2378 JUMP JUMPDEST POP PUSH1 0x0 SWAP1 DUP2 MSTORE PUSH1 0x4 PUSH1 0x20 MSTORE PUSH1 0x40 SWAP1 KECCAK256 SLOAD PUSH1 0x1 PUSH1 0x1 PUSH1 0xA0 SHL SUB AND SWAP1 JUMP JUMPDEST PUSH1 0x0 PUSH2 0x8B0 DUP3 PUSH2 0x121F JUMP JUMPDEST SWAP1 POP DUP1 PUSH1 0x1 PUSH1 0x1 PUSH1 0xA0 SHL SUB AND DUP4 PUSH1 0x1 PUSH1 0x1 PUSH1 0xA0 SHL SUB AND EQ ISZERO PUSH2 0x923 JUMPI PUSH1 0x40 MLOAD PUSH3 0x461BCD PUSH1 0xE5 SHL DUP2 MSTORE PUSH1 0x20 PUSH1 0x4 DUP3 ADD MSTORE PUSH1 0x21 PUSH1 0x24 DUP3 ADD MSTORE PUSH32 0x4552433732313A20617070726F76616C20746F2063757272656E74206F776E65 PUSH1 0x44 DUP3 ADD MSTORE PUSH1 0x39 PUSH1 0xF9 SHL PUSH1 0x64 DUP3 ADD MSTORE PUSH1 0x84 ADD JUMPDEST PUSH1 0x40 MLOAD DUP1 SWAP2 SUB SWAP1 REVERT JUMPDEST DUP1 PUSH1 0x1 PUSH1 0x1 PUSH1 0xA0 SHL SUB AND PUSH2 0x935 PUSH2 0x231E JUMP JUMPDEST PUSH1 0x1 PUSH1 0x1 PUSH1 0xA0 SHL SUB AND EQ DUP1 PUSH2 0x951 JUMPI POP PUSH2 0x951 DUP2 PUSH2 0x661 PUSH2 0x231E JUMP JUMPDEST PUSH2 0x9C3 JUMPI PUSH1 0x40 MLOAD PUSH3 0x461BCD PUSH1 0xE5 SHL DUP2 MSTORE PUSH1 0x20 PUSH1 0x4 DUP3 ADD MSTORE PUSH1 0x3E PUSH1 0x24 DUP3 ADD MSTORE PUSH32 0x4552433732313A20617070726F76652063616C6C6572206973206E6F7420746F PUSH1 0x44 DUP3 ADD MSTORE PUSH32 0x6B656E206F776E6572206E6F7220617070726F76656420666F7220616C6C0000 PUSH1 0x64 DUP3 ADD MSTORE PUSH1 0x84 ADD PUSH2 0x91A JUMP JUMPDEST PUSH2 0x9CD DUP4 DUP4 PUSH2 0x23D7 JUMP JUMPDEST POP POP POP JUMP JUMPDEST PUSH4 0xA85BD01 PUSH1 0xE1 SHL JUMPDEST SWAP5 SWAP4 POP POP POP POP JUMP JUMPDEST PUSH1 0x6 SLOAD PUSH1 0x1 PUSH1 0x1 PUSH1 0xA0 SHL SUB AND PUSH2 0x9F7 PUSH2 0x231E JUMP JUMPDEST PUSH1 0x1 PUSH1 0x1 PUSH1 0xA0 SHL SUB AND EQ ISZERO DUP1 ISZERO PUSH2 0xA34 JUMPI POP PUSH1 0xE PUSH1 0x0 PUSH2 0xA15 PUSH2 0x231E JUMP JUMPDEST PUSH1 0x1 PUSH1 0x1 PUSH1 0xA0 SHL SUB AND DUP2 MSTORE PUSH1 0x20 DUP2 ADD SWAP2 SWAP1 SWAP2 MSTORE PUSH1 0x40 ADD PUSH1 0x0 KECCAK256 SLOAD PUSH1 0xFF AND ISZERO JUMPDEST ISZERO PUSH2 0xA52 JUMPI PUSH1 0x40 MLOAD PUSH4 0x55098F27 PUSH1 0xE0 SHL DUP2 MSTORE PUSH1 0x4 ADD PUSH1 0x40 MLOAD DUP1 SWAP2 SUB SWAP1 REVERT JUMPDEST PUSH1 0x1 PUSH1 0x1 PUSH1 0xA0 SHL SUB DUP2 AND PUSH2 0xA79 JUMPI PUSH1 0x40 MLOAD PUSH4 0x9B15B395 PUSH1 0xE0 SHL DUP2 MSTORE PUSH1 0x4 ADD PUSH1 0x40 MLOAD DUP1 SWAP2 SUB SWAP1 REVERT JUMPDEST PUSH1 0x1 PUSH1 0x1 PUSH1 0xA0 SHL SUB DUP2 AND PUSH1 0x0 SWAP1 DUP2 MSTORE PUSH1 0x11 PUSH1 0x20 MSTORE PUSH1 0x40 SWAP1 KECCAK256 SLOAD PUSH1 0xFF AND ISZERO ISZERO PUSH1 0x1 EQ ISZERO PUSH2 0xAB8 JUMPI PUSH1 0x40 MLOAD PUSH4 0x6AD412ED PUSH1 0xE1 SHL DUP2 MSTORE PUSH1 0x4 ADD PUSH1 0x40 MLOAD DUP1 SWAP2 SUB SWAP1 REVERT JUMPDEST PUSH1 0x1 PUSH1 0x1 PUSH1 0xA0 SHL SUB AND PUSH1 0x0 DUP2 DUP2 MSTORE PUSH1 0x11 PUSH1 0x20 MSTORE PUSH1 0x40 SWAP1 KECCAK256 DUP1 SLOAD PUSH1 0xFF NOT AND PUSH1 0x1 OR SWAP1 SSTORE PUSH1 0x9 DUP1 SLOAD PUSH1 0x1 PUSH1 0x1 PUSH1 0xA0 SHL SUB NOT AND SWAP1 SWAP2 OR SWAP1 SSTORE JUMP JUMPDEST PUSH1 0x0 DUP3 DUP2 MSTORE PUSH1 0x10 PUSH1 0x20 MSTORE PUSH1 0x40 SWAP1 KECCAK256 SLOAD PUSH1 0x1 PUSH1 0x1 PUSH1 0xA0 SHL SUB AND PUSH2 0xB0F PUSH2 0x231E JUMP JUMPDEST PUSH1 0x1 PUSH1 0x1 PUSH1 0xA0 SHL SUB AND EQ PUSH2 0xB5D JUMPI PUSH1 0x40 MLOAD PUSH3 0x461BCD PUSH1 0xE5 SHL DUP2 MSTORE PUSH1 0x20 PUSH1 0x4 DUP3 ADD MSTORE PUSH1 0x15 PUSH1 0x24 DUP3 ADD MSTORE PUSH21 0x3CB7BA9030B932903737BA103A34329037BBB732B9 PUSH1 0x59 SHL PUSH1 0x44 DUP3 ADD MSTORE PUSH1 0x64 ADD PUSH2 0x91A JUMP JUMPDEST PUSH1 0xC DUP1 SLOAD PUSH2 0xB6A SWAP1 PUSH2 0x311A JUMP JUMPDEST ISZERO ISZERO SWAP1 POP PUSH2 0xB87 JUMPI PUSH1 0x40 MLOAD DUP1 PUSH1 0x20 ADD PUSH1 0x40 MSTORE DUP1 PUSH1 0x0 DUP2 MSTORE POP PUSH2 0xBA8 JUMP JUMPDEST DUP1 PUSH1 0x40 MLOAD PUSH1 0x20 ADD PUSH2 0xB98 SWAP2 SWAP1 PUSH2 0x3155 JUMP JUMPDEST PUSH1 0x40 MLOAD PUSH1 0x20 DUP2 DUP4 SUB SUB DUP2 MSTORE SWAP1 PUSH1 0x40 MSTORE JUMPDEST PUSH1 0x0 DUP4 DUP2 MSTORE PUSH1 0xF PUSH1 0x20 SWAP1 DUP2 MSTORE PUSH1 0x40 SWAP1 SWAP2 KECCAK256 DUP3 MLOAD PUSH2 0x9CD SWAP4 SWAP2 SWAP3 SWAP2 SWAP1 SWAP2 ADD SWAP1 PUSH2 0x2C18 JUMP JUMPDEST PUSH1 0x8 SLOAD PUSH1 0x40 MLOAD PUSH4 0x26C0989 PUSH1 0xE5 SHL DUP2 MSTORE PUSH1 0x1 PUSH1 0x1 PUSH1 0xA0 SHL SUB DUP6 DUP2 AND PUSH1 0x4 DUP4 ADD MSTORE SWAP1 SWAP2 AND SWAP1 PUSH1 0x0 SWAP1 DUP3 SWAP1 PUSH4 0x4D813120 SWAP1 PUSH1 0x24 ADD PUSH1 0x20 PUSH1 0x40 MLOAD DUP1 DUP4 SUB DUP2 DUP7 DUP1 EXTCODESIZE ISZERO DUP1 ISZERO PUSH2 0xC15 JUMPI PUSH1 0x0 DUP1 REVERT JUMPDEST POP GAS STATICCALL ISZERO DUP1 ISZERO PUSH2 0xC29 JUMPI RETURNDATASIZE PUSH1 0x0 DUP1 RETURNDATACOPY RETURNDATASIZE PUSH1 0x0 REVERT JUMPDEST POP POP POP POP PUSH1 0x40 MLOAD RETURNDATASIZE PUSH1 0x1F NOT PUSH1 0x1F DUP3 ADD AND DUP3 ADD DUP1 PUSH1 0x40 MSTORE POP DUP2 ADD SWAP1 PUSH2 0xC4D SWAP2 SWAP1 PUSH2 0x3171 JUMP JUMPDEST SWAP1 POP DUP1 PUSH2 0xC6D JUMPI PUSH1 0x40 MLOAD PUSH4 0x7CABA7D7 PUSH1 0xE1 SHL DUP2 MSTORE PUSH1 0x4 ADD PUSH1 0x40 MLOAD DUP1 SWAP2 SUB SWAP1 REVERT JUMPDEST PUSH1 0x0 DUP5 DUP2 MSTORE PUSH1 0x10 PUSH1 0x20 MSTORE PUSH1 0x40 SWAP1 KECCAK256 SLOAD PUSH1 0x1 PUSH1 0x1 PUSH1 0xA0 SHL SUB AND PUSH2 0xC8D PUSH2 0x231E JUMP JUMPDEST PUSH1 0x1 PUSH1 0x1 PUSH1 0xA0 SHL SUB AND EQ PUSH2 0xCE3 JUMPI PUSH1 0x40 MLOAD PUSH3 0x461BCD PUSH1 0xE5 SHL DUP2 MSTORE PUSH1 0x20 PUSH1 0x4 DUP3 ADD MSTORE PUSH1 0x1C PUSH1 0x24 DUP3 ADD MSTORE PUSH32 0x796F7520617265206E6F7420746865206F776E6572206F66206E667400000000 PUSH1 0x44 DUP3 ADD MSTORE PUSH1 0x64 ADD PUSH2 0x91A JUMP JUMPDEST PUSH1 0x1 PUSH1 0x1 PUSH1 0xA0 SHL SUB DUP6 AND PUSH1 0x0 SWAP1 DUP2 MSTORE PUSH1 0x1B PUSH1 0x20 SWAP1 DUP2 MSTORE PUSH1 0x40 DUP1 DUP4 KECCAK256 DUP8 DUP5 MSTORE SWAP1 SWAP2 MSTORE SWAP1 KECCAK256 SLOAD PUSH1 0xFF AND DUP1 ISZERO PUSH2 0xD38 JUMPI POP PUSH1 0x0 DUP5 DUP2 MSTORE PUSH1 0x15 PUSH1 0x20 SWAP1 DUP2 MSTORE PUSH1 0x40 DUP1 DUP4 KECCAK256 PUSH1 0x1 PUSH1 0x1 PUSH1 0xA0 SHL SUB DUP10 AND DUP5 MSTORE SWAP1 SWAP2 MSTORE SWAP1 KECCAK256 SLOAD PUSH1 0xFF AND JUMPDEST DUP1 ISZERO PUSH2 0xD41 JUMPI POP DUP3 JUMPDEST ISZERO PUSH2 0xD8A JUMPI PUSH1 0x1 PUSH1 0x1 PUSH1 0xA0 SHL SUB DUP6 AND PUSH1 0x0 SWAP1 DUP2 MSTORE PUSH1 0x16 PUSH1 0x20 SWAP1 DUP2 MSTORE PUSH1 0x40 DUP1 DUP4 KECCAK256 DUP1 SLOAD DUP8 ISZERO ISZERO PUSH1 0xFF NOT SWAP2 DUP3 AND OR SWAP1 SWAP2 SSTORE DUP8 DUP5 MSTORE PUSH1 0x17 SWAP1 SWAP3 MSTORE SWAP1 SWAP2 KECCAK256 DUP1 SLOAD SWAP1 SWAP2 AND PUSH1 0x1 OR SWAP1 SSTORE PUSH2 0xDD2 JUMP JUMPDEST PUSH1 0x40 MLOAD PUSH3 0x461BCD PUSH1 0xE5 SHL DUP2 MSTORE PUSH1 0x20 PUSH1 0x4 DUP3 ADD MSTORE PUSH1 0x18 PUSH1 0x24 DUP3 ADD MSTORE PUSH32 0x4F776E65722072656A656374656420746865206F666665720000000000000000 PUSH1 0x44 DUP3 ADD MSTORE PUSH1 0x64 ADD PUSH2 0x91A JUMP JUMPDEST POP POP POP POP POP JUMP JUMPDEST PUSH1 0x8 SLOAD DUP2 MLOAD PUSH1 0x40 MLOAD PUSH4 0x26C0989 PUSH1 0xE5 SHL DUP2 MSTORE PUSH1 0x1 PUSH1 0x1 PUSH1 0xA0 SHL SUB SWAP2 DUP3 AND PUSH1 0x4 DUP3 ADD MSTORE SWAP2 AND SWAP1 PUSH1 0x0 SWAP1 DUP3 SWAP1 PUSH4 0x4D813120 SWAP1 PUSH1 0x24 ADD PUSH1 0x20 PUSH1 0x40 MLOAD DUP1 DUP4 SUB DUP2 DUP7 DUP1 EXTCODESIZE ISZERO DUP1 ISZERO PUSH2 0xE24 JUMPI PUSH1 0x0 DUP1 REVERT JUMPDEST POP GAS STATICCALL ISZERO DUP1 ISZERO PUSH2 0xE38 JUMPI RETURNDATASIZE PUSH1 0x0 DUP1 RETURNDATACOPY RETURNDATASIZE PUSH1 0x0 REVERT JUMPDEST POP POP POP POP PUSH1 0x40 MLOAD RETURNDATASIZE PUSH1 0x1F NOT PUSH1 0x1F DUP3 ADD AND DUP3 ADD DUP1 PUSH1 0x40 MSTORE POP DUP2 ADD SWAP1 PUSH2 0xE5C SWAP2 SWAP1 PUSH2 0x3171 JUMP JUMPDEST SWAP1 POP DUP1 PUSH2 0xE7C JUMPI PUSH1 0x40 MLOAD PUSH4 0x7CABA7D7 PUSH1 0xE1 SHL DUP2 MSTORE PUSH1 0x4 ADD PUSH1 0x40 MLOAD DUP1 SWAP2 SUB SWAP1 REVERT JUMPDEST PUSH1 0x9 SLOAD PUSH1 0x1 PUSH1 0x1 PUSH1 0xA0 SHL SUB AND PUSH2 0xE90 PUSH2 0x231E JUMP JUMPDEST PUSH1 0x1 PUSH1 0x1 PUSH1 0xA0 SHL SUB AND EQ PUSH2 0xEB7 JUMPI PUSH1 0x40 MLOAD PUSH4 0x513BCBE9 PUSH1 0xE0 SHL DUP2 MSTORE PUSH1 0x4 ADD PUSH1 0x40 MLOAD DUP1 SWAP2 SUB SWAP1 REVERT JUMPDEST PUSH1 0x13 PUSH1 0x0 PUSH2 0xEC3 PUSH2 0x231E JUMP JUMPDEST PUSH1 0x1 PUSH1 0x1 PUSH1 0xA0 SHL SUB AND DUP2 MSTORE PUSH1 0x20 DUP1 DUP3 ADD SWAP3 SWAP1 SWAP3 MSTORE PUSH1 0x40 SWAP1 DUP2 ADD PUSH1 0x0 SWAP1 DUP2 KECCAK256 DUP7 DUP5 ADD MLOAD DUP3 MSTORE SWAP1 SWAP3 MSTORE SWAP1 KECCAK256 SLOAD PUSH1 0xFF AND ISZERO PUSH2 0xF0E JUMPI PUSH1 0x40 MLOAD PUSH4 0x313D54D PUSH1 0xE2 SHL DUP2 MSTORE PUSH1 0x4 ADD PUSH1 0x40 MLOAD DUP1 SWAP2 SUB SWAP1 REVERT JUMPDEST PUSH1 0x20 DUP1 DUP5 ADD MLOAD PUSH1 0x0 SWAP1 DUP2 MSTORE PUSH1 0x19 SWAP1 SWAP2 MSTORE PUSH1 0x40 SWAP1 KECCAK256 SLOAD PUSH1 0xFF AND DUP1 ISZERO PUSH2 0xF38 JUMPI POP PUSH1 0x40 DUP4 ADD MLOAD ISZERO ISZERO PUSH1 0x1 EQ JUMPDEST ISZERO PUSH2 0xFF8 JUMPI PUSH1 0x40 DUP4 DUP2 ADD MLOAD PUSH1 0x20 DUP1 DUP7 ADD MLOAD PUSH1 0x0 SWAP1 DUP2 MSTORE PUSH1 0x1E SWAP1 SWAP2 MSTORE SWAP2 DUP3 KECCAK256 DUP1 SLOAD PUSH1 0xFF NOT AND SWAP2 ISZERO ISZERO SWAP2 SWAP1 SWAP2 OR SWAP1 SSTORE PUSH1 0x1 SWAP1 PUSH1 0x13 SWAP1 PUSH2 0xF73 PUSH2 0x231E JUMP JUMPDEST PUSH1 0x1 PUSH1 0x1 PUSH1 0xA0 SHL SUB SWAP1 DUP2 AND DUP3 MSTORE PUSH1 0x20 DUP1 DUP4 ADD SWAP4 SWAP1 SWAP4 MSTORE PUSH1 0x40 SWAP2 DUP3 ADD PUSH1 0x0 SWAP1 DUP2 KECCAK256 DUP9 DUP6 ADD DUP1 MLOAD DUP4 MSTORE SWAP1 DUP6 MSTORE DUP4 DUP3 KECCAK256 DUP1 SLOAD SWAP7 ISZERO ISZERO PUSH1 0xFF NOT SWAP8 DUP9 AND OR SWAP1 SSTORE DUP9 MLOAD SWAP1 SWAP3 AND DUP2 MSTORE PUSH1 0x1A DUP5 MSTORE DUP3 DUP2 KECCAK256 DUP3 MLOAD DUP3 MSTORE DUP5 MSTORE DUP3 DUP2 KECCAK256 DUP1 SLOAD SWAP1 SWAP6 AND PUSH1 0x1 SWAP1 DUP2 OR SWAP1 SWAP6 SSTORE SWAP1 MLOAD DUP2 MSTORE PUSH1 0x12 SWAP1 SWAP3 MSTORE DUP2 KECCAK256 DUP1 SLOAD SWAP1 SWAP2 SWAP1 PUSH2 0xFED SWAP1 DUP5 SWAP1 PUSH2 0x31A4 JUMP JUMPDEST SWAP1 SWAP2 SSTORE POP PUSH2 0x9CD SWAP1 POP JUMP JUMPDEST POP POP DUP1 MLOAD PUSH1 0x1 PUSH1 0x1 PUSH1 0xA0 SHL SUB AND PUSH1 0x0 SWAP1 DUP2 MSTORE PUSH1 0x1A PUSH1 0x20 SWAP1 DUP2 MSTORE PUSH1 0x40 DUP1 DUP4 KECCAK256 SWAP4 DUP3 ADD MLOAD DUP4 MSTORE SWAP3 SWAP1 MSTORE KECCAK256 DUP1 SLOAD PUSH1 0xFF NOT AND SWAP1 SSTORE JUMP JUMPDEST PUSH2 0x103B PUSH2 0x1035 PUSH2 0x231E JUMP JUMPDEST DUP3 PUSH2 0x2445 JUMP JUMPDEST PUSH2 0x1057 JUMPI PUSH1 0x40 MLOAD PUSH3 0x461BCD PUSH1 0xE5 SHL DUP2 MSTORE PUSH1 0x4 ADD PUSH2 0x91A SWAP1 PUSH2 0x31BC JUMP JUMPDEST PUSH2 0x9CD DUP4 DUP4 DUP4 PUSH2 0x24C3 JUMP JUMPDEST PUSH2 0x9CD DUP4 DUP4 DUP4 PUSH1 0x40 MLOAD DUP1 PUSH1 0x20 ADD PUSH1 0x40 MSTORE DUP1 PUSH1 0x0 DUP2 MSTORE POP PUSH2 0x1B8F JUMP JUMPDEST PUSH2 0x1088 PUSH2 0x1035 PUSH2 0x231E JUMP JUMPDEST PUSH2 0x10A4 JUMPI PUSH1 0x40 MLOAD PUSH3 0x461BCD PUSH1 0xE5 SHL DUP2 MSTORE PUSH1 0x4 ADD PUSH2 0x91A SWAP1 PUSH2 0x31BC JUMP JUMPDEST PUSH2 0x10AD DUP2 PUSH2 0x265F JUMP JUMPDEST POP JUMP JUMPDEST PUSH1 0x8 SLOAD PUSH1 0x40 MLOAD PUSH4 0x26C0989 PUSH1 0xE5 SHL DUP2 MSTORE PUSH1 0x1 PUSH1 0x1 PUSH1 0xA0 SHL SUB DUP6 DUP2 AND PUSH1 0x4 DUP4 ADD MSTORE SWAP1 SWAP2 AND SWAP1 PUSH1 0x0 SWAP1 DUP3 SWAP1 PUSH4 0x4D813120 SWAP1 PUSH1 0x24 ADD PUSH1 0x20 PUSH1 0x40 MLOAD DUP1 DUP4 SUB DUP2 DUP7 DUP1 EXTCODESIZE ISZERO DUP1 ISZERO PUSH2 0x10FA JUMPI PUSH1 0x0 DUP1 REVERT JUMPDEST POP GAS STATICCALL ISZERO DUP1 ISZERO PUSH2 0x110E JUMPI RETURNDATASIZE PUSH1 0x0 DUP1 RETURNDATACOPY RETURNDATASIZE PUSH1 0x0 REVERT JUMPDEST POP POP POP POP PUSH1 0x40 MLOAD RETURNDATASIZE PUSH1 0x1F NOT PUSH1 0x1F DUP3 ADD AND DUP3 ADD DUP1 PUSH1 0x40 MSTORE POP DUP2 ADD SWAP1 PUSH2 0x1132 SWAP2 SWAP1 PUSH2 0x3171 JUMP JUMPDEST SWAP1 POP DUP1 PUSH2 0x1152 JUMPI PUSH1 0x40 MLOAD PUSH4 0x7CABA7D7 PUSH1 0xE1 SHL DUP2 MSTORE PUSH1 0x4 ADD PUSH1 0x40 MLOAD DUP1 SWAP2 SUB SWAP1 REVERT JUMPDEST PUSH1 0x9 SLOAD PUSH1 0x1 PUSH1 0x1 PUSH1 0xA0 SHL SUB AND PUSH2 0x1166 PUSH2 0x231E JUMP JUMPDEST PUSH1 0x1 PUSH1 0x1 PUSH1 0xA0 SHL SUB AND EQ PUSH2 0x118D JUMPI PUSH1 0x40 MLOAD PUSH4 0x513BCBE9 PUSH1 0xE0 SHL DUP2 MSTORE PUSH1 0x4 ADD PUSH1 0x40 MLOAD DUP1 SWAP2 SUB SWAP1 REVERT JUMPDEST DUP3 ISZERO PUSH2 0x11EE JUMPI PUSH1 0x1 PUSH1 0x1 PUSH1 0xA0 SHL SUB DUP6 AND PUSH1 0x0 DUP2 DUP2 MSTORE PUSH1 0x1B PUSH1 0x20 SWAP1 DUP2 MSTORE PUSH1 0x40 DUP1 DUP4 KECCAK256 DUP9 DUP5 MSTORE SWAP1 SWAP2 MSTORE DUP1 DUP3 KECCAK256 DUP1 SLOAD PUSH1 0xFF NOT AND PUSH1 0x1 OR SWAP1 SSTORE MLOAD DUP7 SWAP3 SWAP2 PUSH32 0x3527B92FF88E799233F8C213553A30EA2C9BEE572B9252B8E8811968F35000EA SWAP2 LOG3 PUSH2 0xDD2 JUMP JUMPDEST POP POP POP PUSH1 0x1 PUSH1 0x1 PUSH1 0xA0 SHL SUB SWAP2 SWAP1 SWAP2 AND PUSH1 0x0 SWAP1 DUP2 MSTORE PUSH1 0x1B PUSH1 0x20 SWAP1 DUP2 MSTORE PUSH1 0x40 DUP1 DUP4 KECCAK256 SWAP4 DUP4 MSTORE SWAP3 SWAP1 MSTORE KECCAK256 DUP1 SLOAD PUSH1 0xFF NOT AND SWAP1 SSTORE JUMP JUMPDEST PUSH1 0x0 DUP2 DUP2 MSTORE PUSH1 0x2 PUSH1 0x20 MSTORE PUSH1 0x40 DUP2 KECCAK256 SLOAD PUSH1 0x1 PUSH1 0x1 PUSH1 0xA0 SHL SUB AND DUP1 PUSH2 0x7E6 JUMPI PUSH1 0x40 MLOAD PUSH3 0x461BCD PUSH1 0xE5 SHL DUP2 MSTORE PUSH1 0x20 PUSH1 0x4 DUP3 ADD MSTORE PUSH1 0x18 PUSH1 0x24 DUP3 ADD MSTORE PUSH24 0x115490CDCC8C4E881A5B9D985B1A59081D1BDAD95B881251 PUSH1 0x42 SHL PUSH1 0x44 DUP3 ADD MSTORE PUSH1 0x64 ADD PUSH2 0x91A JUMP JUMPDEST PUSH1 0x0 DUP2 DUP2 MSTORE PUSH1 0x2 PUSH1 0x20 MSTORE PUSH1 0x40 SWAP1 KECCAK256 SLOAD PUSH1 0x60 SWAP1 PUSH1 0x1 PUSH1 0x1 PUSH1 0xA0 SHL SUB AND PUSH2 0x12B7 JUMPI PUSH1 0x40 MLOAD PUSH4 0xA14C4B5 PUSH1 0xE4 SHL DUP2 MSTORE PUSH1 0x4 ADD PUSH1 0x40 MLOAD DUP1 SWAP2 SUB SWAP1 REVERT JUMPDEST PUSH1 0x1 PUSH1 0x1 PUSH1 0xA0 SHL SUB DUP4 AND PUSH1 0x0 SWAP1 DUP2 MSTORE PUSH1 0x1B PUSH1 0x20 SWAP1 DUP2 MSTORE PUSH1 0x40 DUP1 DUP4 KECCAK256 DUP6 DUP5 MSTORE SWAP1 SWAP2 MSTORE SWAP1 KECCAK256 SLOAD PUSH1 0xFF AND DUP1 ISZERO PUSH2 0x12F9 JUMPI POP PUSH1 0x0 DUP3 DUP2 MSTORE PUSH1 0x17 PUSH1 0x20 MSTORE PUSH1 0x40 SWAP1 KECCAK256 SLOAD PUSH1 0xFF AND ISZERO JUMPDEST ISZERO PUSH2 0x136F JUMPI PUSH1 0x0 DUP3 DUP2 MSTORE PUSH1 0x2 PUSH1 0x20 MSTORE PUSH1 0x40 SWAP1 KECCAK256 SLOAD PUSH1 0x1 PUSH1 0x1 PUSH1 0xA0 SHL SUB AND PUSH2 0x1333 JUMPI PUSH1 0x40 MLOAD PUSH4 0xA14C4B5 PUSH1 0xE4 SHL DUP2 MSTORE PUSH1 0x4 ADD PUSH1 0x40 MLOAD DUP1 SWAP2 SUB SWAP1 REVERT JUMPDEST PUSH1 0xC PUSH1 0xF PUSH1 0x0 DUP5 DUP2 MSTORE PUSH1 0x20 ADD SWAP1 DUP2 MSTORE PUSH1 0x20 ADD PUSH1 0x0 KECCAK256 PUSH1 0x40 MLOAD PUSH1 0x20 ADD PUSH2 0x1359 SWAP3 SWAP2 SWAP1 PUSH2 0x32A4 JUMP JUMPDEST PUSH1 0x40 MLOAD PUSH1 0x20 DUP2 DUP4 SUB SUB DUP2 MSTORE SWAP1 PUSH1 0x40 MSTORE SWAP1 POP PUSH2 0x7E6 JUMP JUMPDEST PUSH1 0x40 MLOAD PUSH3 0x461BCD PUSH1 0xE5 SHL DUP2 MSTORE PUSH1 0x20 PUSH1 0x4 DUP3 ADD MSTORE PUSH1 0x42 PUSH1 0x24 DUP3 ADD MSTORE PUSH32 0x56696577206163636573732069732064656E696564206279204C31417070726F PUSH1 0x44 DUP3 ADD MSTORE PUSH32 0x766572206F7220546865206C616E64206973206C697374656420666F72207361 PUSH1 0x64 DUP3 ADD MSTORE PUSH2 0x6C65 PUSH1 0xF0 SHL PUSH1 0x84 DUP3 ADD MSTORE PUSH1 0xA4 ADD PUSH2 0x91A JUMP JUMPDEST PUSH1 0x0 PUSH1 0x1 PUSH1 0x1 PUSH1 0xA0 SHL SUB DUP3 AND PUSH2 0x1452 JUMPI PUSH1 0x40 MLOAD PUSH3 0x461BCD PUSH1 0xE5 SHL DUP2 MSTORE PUSH1 0x20 PUSH1 0x4 DUP3 ADD MSTORE PUSH1 0x29 PUSH1 0x24 DUP3 ADD MSTORE PUSH32 0x4552433732313A2061646472657373207A65726F206973206E6F742061207661 PUSH1 0x44 DUP3 ADD MSTORE PUSH9 0x3634B21037BBB732B9 PUSH1 0xB9 SHL PUSH1 0x64 DUP3 ADD MSTORE PUSH1 0x84 ADD PUSH2 0x91A JUMP JUMPDEST POP PUSH1 0x1 PUSH1 0x1 PUSH1 0xA0 SHL SUB AND PUSH1 0x0 SWAP1 DUP2 MSTORE PUSH1 0x3 PUSH1 0x20 MSTORE PUSH1 0x40 SWAP1 KECCAK256 SLOAD SWAP1 JUMP JUMPDEST PUSH2 0x1476 PUSH2 0x26FA JUMP JUMPDEST PUSH2 0x1480 PUSH1 0x0 PUSH2 0x2773 JUMP JUMPDEST JUMP JUMPDEST PUSH1 0xC DUP1 SLOAD PUSH2 0x148F SWAP1 PUSH2 0x311A JUMP JUMPDEST DUP1 PUSH1 0x1F ADD PUSH1 0x20 DUP1 SWAP2 DIV MUL PUSH1 0x20 ADD PUSH1 0x40 MLOAD SWAP1 DUP2 ADD PUSH1 0x40 MSTORE DUP1 SWAP3 SWAP2 SWAP1 DUP2 DUP2 MSTORE PUSH1 0x20 ADD DUP3 DUP1 SLOAD PUSH2 0x14BB SWAP1 PUSH2 0x311A JUMP JUMPDEST DUP1 ISZERO PUSH2 0x1508 JUMPI DUP1 PUSH1 0x1F LT PUSH2 0x14DD JUMPI PUSH2 0x100 DUP1 DUP4 SLOAD DIV MUL DUP4 MSTORE SWAP2 PUSH1 0x20 ADD SWAP2 PUSH2 0x1508 JUMP JUMPDEST DUP3 ADD SWAP2 SWAP1 PUSH1 0x0 MSTORE PUSH1 0x20 PUSH1 0x0 KECCAK256 SWAP1 JUMPDEST DUP2 SLOAD DUP2 MSTORE SWAP1 PUSH1 0x1 ADD SWAP1 PUSH1 0x20 ADD DUP1 DUP4 GT PUSH2 0x14EB JUMPI DUP3 SWAP1 SUB PUSH1 0x1F AND DUP3 ADD SWAP2 JUMPDEST POP POP POP POP POP DUP2 JUMP JUMPDEST PUSH1 0x8 SLOAD PUSH1 0x1 PUSH1 0x1 PUSH1 0xA0 SHL SUB AND PUSH1 0x0 DUP2 PUSH4 0x4D813120 PUSH2 0x152C PUSH2 0x231E JUMP JUMPDEST PUSH1 0x40 MLOAD PUSH1 0x1 PUSH1 0x1 PUSH1 0xE0 SHL SUB NOT PUSH1 0xE0 DUP5 SWAP1 SHL AND DUP2 MSTORE PUSH1 0x1 PUSH1 0x1 PUSH1 0xA0 SHL SUB SWAP1 SWAP2 AND PUSH1 0x4 DUP3 ADD MSTORE PUSH1 0x24 ADD PUSH1 0x20 PUSH1 0x40 MLOAD DUP1 DUP4 SUB DUP2 DUP7 DUP1 EXTCODESIZE ISZERO DUP1 ISZERO PUSH2 0x156B JUMPI PUSH1 0x0 DUP1 REVERT JUMPDEST POP GAS STATICCALL ISZERO DUP1 ISZERO PUSH2 0x157F JUMPI RETURNDATASIZE PUSH1 0x0 DUP1 RETURNDATACOPY RETURNDATASIZE PUSH1 0x0 REVERT JUMPDEST POP POP POP POP PUSH1 0x40 MLOAD RETURNDATASIZE PUSH1 0x1F NOT PUSH1 0x1F DUP3 ADD AND DUP3 ADD DUP1 PUSH1 0x40 MSTORE POP DUP2 ADD SWAP1 PUSH2 0x15A3 SWAP2 SWAP1 PUSH2 0x3171 JUMP JUMPDEST SWAP1 POP DUP1 PUSH2 0x15C3 JUMPI PUSH1 0x40 MLOAD PUSH4 0x7CABA7D7 PUSH1 0xE1 SHL DUP2 MSTORE PUSH1 0x4 ADD PUSH1 0x40 MLOAD DUP1 SWAP2 SUB SWAP1 REVERT JUMPDEST PUSH1 0x1B PUSH1 0x0 PUSH2 0x15CF PUSH2 0x231E JUMP JUMPDEST PUSH1 0x1 PUSH1 0x1 PUSH1 0xA0 SHL SUB AND DUP2 MSTORE PUSH1 0x20 DUP1 DUP3 ADD SWAP3 SWAP1 SWAP3 MSTORE PUSH1 0x40 SWAP1 DUP2 ADD PUSH1 0x0 SWAP1 DUP2 KECCAK256 DUP7 DUP3 MSTORE SWAP1 SWAP3 MSTORE SWAP1 KECCAK256 SLOAD PUSH1 0xFF AND ISZERO PUSH2 0x1644 JUMPI PUSH1 0x0 DUP4 DUP2 MSTORE PUSH1 0x15 PUSH1 0x20 MSTORE PUSH1 0x40 DUP2 KECCAK256 PUSH1 0x1 SWAP2 PUSH2 0x1617 PUSH2 0x231E JUMP JUMPDEST PUSH1 0x1 PUSH1 0x1 PUSH1 0xA0 SHL SUB AND DUP2 MSTORE PUSH1 0x20 DUP2 ADD SWAP2 SWAP1 SWAP2 MSTORE PUSH1 0x40 ADD PUSH1 0x0 KECCAK256 DUP1 SLOAD PUSH1 0xFF NOT AND SWAP2 ISZERO ISZERO SWAP2 SWAP1 SWAP2 OR SWAP1 SSTORE POP POP POP JUMP JUMPDEST PUSH1 0x40 MLOAD PUSH3 0x461BCD PUSH1 0xE5 SHL DUP2 MSTORE PUSH1 0x20 PUSH1 0x4 DUP3 ADD MSTORE PUSH1 0x14 PUSH1 0x24 DUP3 ADD MSTORE PUSH20 0x596F7520646F6E74206861766520616363657373 PUSH1 0x60 SHL PUSH1 0x44 DUP3 ADD MSTORE PUSH1 0x64 ADD PUSH2 0x91A JUMP JUMPDEST PUSH1 0x8 SLOAD DUP2 MLOAD PUSH1 0x40 MLOAD PUSH4 0x26C0989 PUSH1 0xE5 SHL DUP2 MSTORE PUSH1 0x1 PUSH1 0x1 PUSH1 0xA0 SHL SUB SWAP2 DUP3 AND PUSH1 0x4 DUP3 ADD MSTORE SWAP2 AND SWAP1 PUSH1 0x0 SWAP1 DUP3 SWAP1 PUSH4 0x4D813120 SWAP1 PUSH1 0x24 ADD PUSH1 0x20 PUSH1 0x40 MLOAD DUP1 DUP4 SUB DUP2 DUP7 DUP1 EXTCODESIZE ISZERO DUP1 ISZERO PUSH2 0x16CE JUMPI PUSH1 0x0 DUP1 REVERT JUMPDEST POP GAS STATICCALL ISZERO DUP1 ISZERO PUSH2 0x16E2 JUMPI RETURNDATASIZE PUSH1 0x0 DUP1 RETURNDATACOPY RETURNDATASIZE PUSH1 0x0 REVERT JUMPDEST POP POP POP POP PUSH1 0x40 MLOAD RETURNDATASIZE PUSH1 0x1F NOT PUSH1 0x1F DUP3 ADD AND DUP3 ADD DUP1 PUSH1 0x40 MSTORE POP DUP2 ADD SWAP1 PUSH2 0x1706 SWAP2 SWAP1 PUSH2 0x3171 JUMP JUMPDEST SWAP1 POP DUP1 PUSH2 0x1726 JUMPI PUSH1 0x40 MLOAD PUSH4 0x7CABA7D7 PUSH1 0xE1 SHL DUP2 MSTORE PUSH1 0x4 ADD PUSH1 0x40 MLOAD DUP1 SWAP2 SUB SWAP1 REVERT JUMPDEST PUSH1 0xA SLOAD PUSH1 0x1 PUSH1 0x1 PUSH1 0xA0 SHL SUB AND PUSH2 0x173A PUSH2 0x231E JUMP JUMPDEST PUSH1 0x1 PUSH1 0x1 PUSH1 0xA0 SHL SUB AND EQ PUSH2 0x1761 JUMPI PUSH1 0x40 MLOAD PUSH4 0x201A5F4F PUSH1 0xE1 SHL DUP2 MSTORE PUSH1 0x4 ADD PUSH1 0x40 MLOAD DUP1 SWAP2 SUB SWAP1 REVERT JUMPDEST PUSH1 0x20 DUP1 DUP5 ADD MLOAD PUSH1 0x0 SWAP1 DUP2 MSTORE PUSH1 0x1E SWAP1 SWAP2 MSTORE PUSH1 0x40 SWAP1 KECCAK256 SLOAD PUSH1 0xFF AND PUSH2 0x1796 JUMPI PUSH1 0x40 MLOAD PUSH4 0x5AEE63A7 PUSH1 0xE1 SHL DUP2 MSTORE PUSH1 0x4 ADD PUSH1 0x40 MLOAD DUP1 SWAP2 SUB SWAP1 REVERT JUMPDEST PUSH1 0x13 PUSH1 0x0 PUSH2 0x17A2 PUSH2 0x231E JUMP JUMPDEST PUSH1 0x1 PUSH1 0x1 PUSH1 0xA0 SHL SUB AND DUP2 MSTORE PUSH1 0x20 DUP1 DUP3 ADD SWAP3 SWAP1 SWAP3 MSTORE PUSH1 0x40 SWAP1 DUP2 ADD PUSH1 0x0 SWAP1 DUP2 KECCAK256 DUP7 DUP5 ADD MLOAD DUP3 MSTORE SWAP1 SWAP3 MSTORE SWAP1 KECCAK256 SLOAD PUSH1 0xFF AND ISZERO PUSH2 0x17ED JUMPI PUSH1 0x40 MLOAD PUSH4 0x313D54D PUSH1 0xE2 SHL DUP2 MSTORE PUSH1 0x4 ADD PUSH1 0x40 MLOAD DUP1 SWAP2 SUB SWAP1 REVERT JUMPDEST PUSH1 0x40 DUP4 ADD MLOAD ISZERO ISZERO PUSH1 0x1 EQ ISZERO PUSH2 0x18EC JUMPI PUSH1 0x40 DUP1 DUP5 ADD DUP1 MLOAD PUSH1 0x20 DUP1 DUP8 ADD DUP1 MLOAD PUSH1 0x0 SWAP1 DUP2 MSTORE PUSH1 0x1F DUP4 MSTORE DUP6 DUP2 KECCAK256 DUP1 SLOAD SWAP5 ISZERO ISZERO PUSH1 0xFF NOT SWAP6 DUP7 AND OR SWAP1 SSTORE DUP5 MLOAD DUP10 MLOAD PUSH1 0x1 PUSH1 0x1 PUSH1 0xA0 SHL SUB SWAP1 DUP2 AND DUP4 MSTORE PUSH1 0x1C DUP6 MSTORE DUP8 DUP4 KECCAK256 DUP5 MLOAD DUP5 MSTORE DUP6 MSTORE DUP8 DUP4 KECCAK256 DUP1 SLOAD SWAP3 ISZERO ISZERO SWAP3 DUP8 AND SWAP3 SWAP1 SWAP3 OR SWAP1 SWAP2 SSTORE SWAP5 MLOAD DUP10 MLOAD SWAP1 SWAP6 AND DUP2 MSTORE PUSH1 0x1D DUP4 MSTORE DUP6 DUP2 KECCAK256 SWAP2 MLOAD DUP2 MSTORE SWAP2 MSTORE SWAP3 DUP4 KECCAK256 DUP1 SLOAD SWAP3 ISZERO ISZERO SWAP3 SWAP1 SWAP2 AND SWAP2 SWAP1 SWAP2 OR SWAP1 SSTORE PUSH1 0x1 SWAP1 PUSH1 0x13 SWAP1 PUSH2 0x188A PUSH2 0x231E JUMP JUMPDEST PUSH1 0x1 PUSH1 0x1 PUSH1 0xA0 SHL SUB AND DUP2 MSTORE PUSH1 0x20 DUP1 DUP3 ADD SWAP3 SWAP1 SWAP3 MSTORE PUSH1 0x40 SWAP1 DUP2 ADD PUSH1 0x0 SWAP1 DUP2 KECCAK256 DUP8 DUP5 ADD DUP1 MLOAD DUP4 MSTORE SWAP1 DUP5 MSTORE DUP3 DUP3 KECCAK256 DUP1 SLOAD PUSH1 0xFF NOT AND SWAP6 ISZERO ISZERO SWAP6 SWAP1 SWAP6 OR SWAP1 SWAP5 SSTORE SWAP3 MLOAD DUP4 MSTORE PUSH1 0x12 SWAP1 SWAP2 MSTORE DUP2 KECCAK256 DUP1 SLOAD PUSH1 0x1 SWAP3 SWAP1 PUSH2 0x18E1 SWAP1 DUP5 SWAP1 PUSH2 0x31A4 JUMP JUMPDEST SWAP1 SWAP2 SSTORE POP PUSH2 0x1956 SWAP1 POP JUMP JUMPDEST PUSH1 0x40 DUP1 DUP5 ADD DUP1 MLOAD DUP6 MLOAD PUSH1 0x1 PUSH1 0x1 PUSH1 0xA0 SHL SUB SWAP1 DUP2 AND PUSH1 0x0 SWAP1 DUP2 MSTORE PUSH1 0x1C PUSH1 0x20 SWAP1 DUP2 MSTORE DUP6 DUP3 KECCAK256 DUP2 DUP11 ADD DUP1 MLOAD DUP5 MSTORE SWAP1 DUP3 MSTORE DUP7 DUP4 KECCAK256 DUP1 SLOAD SWAP6 ISZERO ISZERO PUSH1 0xFF NOT SWAP7 DUP8 AND OR SWAP1 SSTORE SWAP5 MLOAD DUP10 MLOAD SWAP1 SWAP4 AND DUP3 MSTORE PUSH1 0x1D DUP2 MSTORE DUP6 DUP3 KECCAK256 SWAP5 MLOAD DUP3 MSTORE SWAP4 SWAP1 SWAP4 MSTORE SWAP3 SWAP1 SWAP2 KECCAK256 DUP1 SLOAD SWAP3 ISZERO ISZERO SWAP3 SWAP1 SWAP2 AND SWAP2 SWAP1 SWAP2 OR SWAP1 SSTORE JUMPDEST PUSH1 0x20 DUP1 DUP5 ADD MLOAD PUSH1 0x0 SWAP1 DUP2 MSTORE PUSH1 0x12 SWAP1 SWAP2 MSTORE PUSH1 0x40 SWAP1 KECCAK256 SLOAD PUSH1 0x2 EQ DUP1 ISZERO PUSH2 0x198E JUMPI POP PUSH1 0x20 DUP1 DUP5 ADD MLOAD PUSH1 0x0 SWAP1 DUP2 MSTORE PUSH1 0x1F SWAP1 SWAP2 MSTORE PUSH1 0x40 SWAP1 KECCAK256 SLOAD PUSH1 0xFF AND JUMPDEST ISZERO PUSH2 0x9CD JUMPI PUSH2 0x19AA PUSH2 0x199E PUSH2 0x231E JUMP JUMPDEST DUP5 MLOAD PUSH1 0x20 DUP7 ADD MLOAD PUSH2 0x102A JUMP JUMPDEST PUSH1 0x20 DUP4 ADD MLOAD DUP4 MLOAD PUSH1 0x1 PUSH1 0x1 PUSH1 0xA0 SHL SUB AND PUSH2 0x19C2 PUSH2 0x231E JUMP JUMPDEST PUSH1 0x1 PUSH1 0x1 PUSH1 0xA0 SHL SUB AND PUSH32 0x986385BEA8660B8382C6329A38CC817BC39229F8428D8D6FB4952624A99B75F6 PUSH1 0x40 MLOAD PUSH1 0x40 MLOAD DUP1 SWAP2 SUB SWAP1 LOG4 POP POP POP JUMP JUMPDEST PUSH1 0x0 PUSH2 0x1A10 PUSH1 0x6 SLOAD PUSH1 0x1 PUSH1 0x1 PUSH1 0xA0 SHL SUB AND SWAP1 JUMP JUMPDEST PUSH1 0x1 PUSH1 0x1 PUSH1 0xA0 SHL SUB AND PUSH2 0x1A21 PUSH2 0x231E JUMP JUMPDEST PUSH1 0x1 PUSH1 0x1 PUSH1 0xA0 SHL SUB AND EQ ISZERO DUP1 ISZERO PUSH2 0x1A5E JUMPI POP PUSH1 0xE PUSH1 0x0 PUSH2 0x1A3F PUSH2 0x231E JUMP JUMPDEST PUSH1 0x1 PUSH1 0x1 PUSH1 0xA0 SHL SUB AND DUP2 MSTORE PUSH1 0x20 DUP2 ADD SWAP2 SWAP1 SWAP2 MSTORE PUSH1 0x40 ADD PUSH1 0x0 KECCAK256 SLOAD PUSH1 0xFF AND ISZERO JUMPDEST ISZERO PUSH2 0x1A7C JUMPI PUSH1 0x40 MLOAD PUSH4 0x55098F27 PUSH1 0xE0 SHL DUP2 MSTORE PUSH1 0x4 ADD PUSH1 0x40 MLOAD DUP1 SWAP2 SUB SWAP1 REVERT JUMPDEST DUP2 MLOAD PUSH2 0x1A8F SWAP1 PUSH1 0xB SWAP1 PUSH1 0x20 DUP6 ADD SWAP1 PUSH2 0x2C18 JUMP JUMPDEST POP PUSH1 0x1 SWAP1 POP JUMPDEST SWAP2 SWAP1 POP JUMP JUMPDEST PUSH1 0x60 PUSH1 0x1 DUP1 SLOAD PUSH2 0x7FB SWAP1 PUSH2 0x311A JUMP JUMPDEST PUSH2 0x1ABB PUSH2 0x1AB4 PUSH2 0x231E JUMP JUMPDEST DUP4 DUP4 PUSH2 0x27C5 JUMP JUMPDEST POP POP JUMP JUMPDEST PUSH1 0x0 DUP2 DUP2 MSTORE PUSH1 0x2 PUSH1 0x20 MSTORE PUSH1 0x40 SWAP1 KECCAK256 SLOAD PUSH1 0x60 SWAP1 PUSH1 0x1 PUSH1 0x1 PUSH1 0xA0 SHL SUB AND PUSH2 0x1AF7 JUMPI PUSH1 0x40 MLOAD PUSH4 0xA14C4B5 PUSH1 0xE4 SHL DUP2 MSTORE PUSH1 0x4 ADD PUSH1 0x40 MLOAD DUP1 SWAP2 SUB SWAP1 REVERT JUMPDEST PUSH1 0x0 DUP3 DUP2 MSTORE PUSH1 0x10 PUSH1 0x20 MSTORE PUSH1 0x40 SWAP1 KECCAK256 SLOAD PUSH1 0x1 PUSH1 0x1 PUSH1 0xA0 SHL SUB DUP5 DUP2 AND SWAP2 AND EQ DUP1 PUSH2 0x1B2C JUMPI POP PUSH1 0x9 SLOAD PUSH1 0x1 PUSH1 0x1 PUSH1 0xA0 SHL SUB DUP5 DUP2 AND SWAP2 AND EQ JUMPDEST DUP1 PUSH2 0x1B44 JUMPI POP PUSH1 0xA SLOAD PUSH1 0x1 PUSH1 0x1 PUSH1 0xA0 SHL SUB DUP5 DUP2 AND SWAP2 AND EQ JUMPDEST ISZERO PUSH2 0x1B6F JUMPI PUSH1 0xC PUSH1 0xF PUSH1 0x0 DUP5 DUP2 MSTORE PUSH1 0x20 ADD SWAP1 DUP2 MSTORE PUSH1 0x20 ADD PUSH1 0x0 KECCAK256 PUSH1 0x40 MLOAD PUSH1 0x20 ADD PUSH2 0x1359 SWAP3 SWAP2 SWAP1 PUSH2 0x32A4 JUMP JUMPDEST PUSH1 0x40 MLOAD DUP1 PUSH1 0x80 ADD PUSH1 0x40 MSTORE DUP1 PUSH1 0x43 DUP2 MSTORE PUSH1 0x20 ADD PUSH2 0x341B PUSH1 0x43 SWAP2 CODECOPY SWAP1 POP PUSH2 0x7E6 JUMP JUMPDEST PUSH2 0x1BA0 PUSH2 0x1B9A PUSH2 0x231E JUMP JUMPDEST DUP4 PUSH2 0x2445 JUMP JUMPDEST PUSH2 0x1BBC JUMPI PUSH1 0x40 MLOAD PUSH3 0x461BCD PUSH1 0xE5 SHL DUP2 MSTORE PUSH1 0x4 ADD PUSH2 0x91A SWAP1 PUSH2 0x31BC JUMP JUMPDEST PUSH2 0x1BC8 DUP5 DUP5 DUP5 DUP5 PUSH2 0x2894 JUMP JUMPDEST POP POP POP POP JUMP JUMPDEST PUSH1 0x11 PUSH1 0x0 PUSH2 0x1BDA PUSH2 0x231E JUMP JUMPDEST PUSH1 0x1 PUSH1 0x1 PUSH1 0xA0 SHL SUB AND DUP2 MSTORE PUSH1 0x20 DUP2 ADD SWAP2 SWAP1 SWAP2 MSTORE PUSH1 0x40 ADD PUSH1 0x0 KECCAK256 SLOAD PUSH1 0xFF AND PUSH2 0x1C14 JUMPI PUSH1 0x40 MLOAD PUSH4 0x1710613F PUSH1 0xE2 SHL DUP2 MSTORE PUSH1 0x4 ADD PUSH1 0x40 MLOAD DUP1 SWAP2 SUB SWAP1 REVERT JUMPDEST PUSH1 0x13 PUSH1 0x0 PUSH2 0x1C20 PUSH2 0x231E JUMP JUMPDEST PUSH1 0x1 PUSH1 0x1 PUSH1 0xA0 SHL SUB AND DUP2 MSTORE PUSH1 0x20 DUP1 DUP3 ADD SWAP3 SWAP1 SWAP3 MSTORE PUSH1 0x40 SWAP1 DUP2 ADD PUSH1 0x0 SWAP1 DUP2 KECCAK256 DUP5 DUP5 ADD MLOAD DUP3 MSTORE SWAP1 SWAP3 MSTORE SWAP1 KECCAK256 SLOAD PUSH1 0xFF AND ISZERO PUSH2 0x1C6B JUMPI PUSH1 0x40 MLOAD PUSH4 0x313D54D PUSH1 0xE2 SHL DUP2 MSTORE PUSH1 0x4 ADD PUSH1 0x40 MLOAD DUP1 SWAP2 SUB SWAP1 REVERT JUMPDEST PUSH1 0x40 DUP2 ADD MLOAD ISZERO ISZERO PUSH1 0x1 EQ ISZERO PUSH2 0x1D42 JUMPI DUP1 PUSH1 0x40 ADD MLOAD PUSH1 0x14 PUSH1 0x0 DUP4 PUSH1 0x20 ADD MLOAD DUP2 MSTORE PUSH1 0x20 ADD SWAP1 DUP2 MSTORE PUSH1 0x20 ADD PUSH1 0x0 KECCAK256 PUSH1 0x0 PUSH2 0x1CA0 PUSH2 0x231E JUMP JUMPDEST PUSH1 0x1 PUSH1 0x1 PUSH1 0xA0 SHL SUB AND PUSH1 0x1 PUSH1 0x1 PUSH1 0xA0 SHL SUB AND DUP2 MSTORE PUSH1 0x20 ADD SWAP1 DUP2 MSTORE PUSH1 0x20 ADD PUSH1 0x0 KECCAK256 PUSH1 0x0 PUSH2 0x100 EXP DUP2 SLOAD DUP2 PUSH1 0xFF MUL NOT AND SWAP1 DUP4 ISZERO ISZERO MUL OR SWAP1 SSTORE POP PUSH1 0x1 PUSH1 0x13 PUSH1 0x0 PUSH2 0x1CE5 PUSH2 0x231E JUMP JUMPDEST PUSH1 0x1 PUSH1 0x1 PUSH1 0xA0 SHL SUB AND DUP2 MSTORE PUSH1 0x20 DUP1 DUP3 ADD SWAP3 SWAP1 SWAP3 MSTORE PUSH1 0x40 SWAP1 DUP2 ADD PUSH1 0x0 SWAP1 DUP2 KECCAK256 DUP6 DUP5 ADD DUP1 MLOAD DUP4 MSTORE SWAP1 DUP5 MSTORE DUP3 DUP3 KECCAK256 DUP1 SLOAD PUSH1 0xFF NOT AND SWAP6 ISZERO ISZERO SWAP6 SWAP1 SWAP6 OR SWAP1 SWAP5 SSTORE SWAP3 MLOAD DUP4 MSTORE PUSH1 0x12 SWAP1 SWAP2 MSTORE DUP2 KECCAK256 DUP1 SLOAD PUSH1 0x1 SWAP3 SWAP1 PUSH2 0x1D3C SWAP1 DUP5 SWAP1 PUSH2 0x31A4 JUMP JUMPDEST SWAP1 SWAP2 SSTORE POP POP JUMPDEST PUSH1 0x20 DUP1 DUP3 ADD MLOAD PUSH1 0x0 SWAP1 DUP2 MSTORE PUSH1 0x12 SWAP1 SWAP2 MSTORE PUSH1 0x40 SWAP1 KECCAK256 SLOAD PUSH1 0x2 EQ ISZERO PUSH2 0x10AD JUMPI PUSH2 0x1D76 PUSH2 0x1D6A PUSH2 0x231E JUMP JUMPDEST DUP3 MLOAD PUSH1 0x20 DUP5 ADD MLOAD PUSH2 0x102A JUMP JUMPDEST PUSH1 0x20 DUP2 ADD MLOAD DUP2 MLOAD PUSH1 0x1 PUSH1 0x1 PUSH1 0xA0 SHL SUB AND PUSH2 0x1D8E PUSH2 0x231E JUMP JUMPDEST PUSH1 0x1 PUSH1 0x1 PUSH1 0xA0 SHL SUB AND PUSH32 0x986385BEA8660B8382C6329A38CC817BC39229F8428D8D6FB4952624A99B75F6 PUSH1 0x40 MLOAD PUSH1 0x40 MLOAD DUP1 SWAP2 SUB SWAP1 LOG4 POP JUMP JUMPDEST PUSH1 0x60 PUSH2 0x1DD1 DUP3 PUSH2 0x2378 JUMP JUMPDEST PUSH1 0x0 PUSH2 0x1E05 PUSH1 0x40 DUP1 MLOAD DUP1 DUP3 ADD SWAP1 SWAP2 MSTORE PUSH1 0x15 DUP2 MSTORE PUSH21 0x68747470733A2F2F697066732E696F2F697066732F PUSH1 0x58 SHL PUSH1 0x20 DUP3 ADD MSTORE SWAP1 JUMP JUMPDEST SWAP1 POP PUSH1 0x0 DUP2 MLOAD GT PUSH2 0x1E25 JUMPI PUSH1 0x40 MLOAD DUP1 PUSH1 0x20 ADD PUSH1 0x40 MSTORE DUP1 PUSH1 0x0 DUP2 MSTORE POP PUSH2 0x1E50 JUMP JUMPDEST DUP1 PUSH2 0x1E2F DUP5 PUSH2 0x28C7 JUMP JUMPDEST PUSH1 0x40 MLOAD PUSH1 0x20 ADD PUSH2 0x1E40 SWAP3 SWAP2 SWAP1 PUSH2 0x32B9 JUMP JUMPDEST PUSH1 0x40 MLOAD PUSH1 0x20 DUP2 DUP4 SUB SUB DUP2 MSTORE SWAP1 PUSH1 0x40 MSTORE JUMPDEST SWAP4 SWAP3 POP POP POP JUMP JUMPDEST PUSH1 0x16 PUSH1 0x0 PUSH2 0x1E63 PUSH2 0x231E JUMP JUMPDEST PUSH1 0x1 PUSH1 0x1 PUSH1 0xA0 SHL SUB AND DUP2 MSTORE PUSH1 0x20 DUP2 ADD SWAP2 SWAP1 SWAP2 MSTORE PUSH1 0x40 ADD PUSH1 0x0 KECCAK256 SLOAD PUSH1 0xFF AND ISZERO ISZERO PUSH1 0x1 EQ PUSH2 0x1ED1 JUMPI PUSH1 0x40 MLOAD PUSH3 0x461BCD PUSH1 0xE5 SHL DUP2 MSTORE PUSH1 0x20 PUSH1 0x4 DUP3 ADD MSTORE PUSH1 0x1C PUSH1 0x24 DUP3 ADD MSTORE PUSH32 0x726567697374726174696F6E206973206E6F7420706F737369626C6500000000 PUSH1 0x44 DUP3 ADD MSTORE PUSH1 0x64 ADD PUSH2 0x91A JUMP JUMPDEST PUSH1 0x0 DUP3 DUP2 MSTORE PUSH1 0x17 PUSH1 0x20 MSTORE PUSH1 0x40 SWAP1 KECCAK256 SLOAD PUSH1 0xFF AND ISZERO ISZERO PUSH1 0x1 EQ PUSH2 0x1F2B JUMPI PUSH1 0x40 MLOAD PUSH3 0x461BCD PUSH1 0xE5 SHL DUP2 MSTORE PUSH1 0x20 PUSH1 0x4 DUP3 ADD MSTORE PUSH1 0x14 PUSH1 0x24 DUP3 ADD MSTORE PUSH20 0x73616C65207374617475732069732066616C7365 PUSH1 0x60 SHL PUSH1 0x44 DUP3 ADD MSTORE PUSH1 0x64 ADD PUSH2 0x91A JUMP JUMPDEST PUSH1 0x0 DUP3 DUP2 MSTORE PUSH1 0x18 PUSH1 0x20 SWAP1 DUP2 MSTORE PUSH1 0x40 SWAP1 SWAP2 KECCAK256 DUP3 MLOAD PUSH2 0x1F4A SWAP3 DUP5 ADD SWAP1 PUSH2 0x2C18 JUMP JUMPDEST POP POP PUSH1 0x0 SWAP1 DUP2 MSTORE PUSH1 0x19 PUSH1 0x20 MSTORE PUSH1 0x40 SWAP1 KECCAK256 DUP1 SLOAD PUSH1 0xFF NOT AND PUSH1 0x1 OR SWAP1 SSTORE JUMP JUMPDEST PUSH1 0x8 SLOAD PUSH1 0x40 MLOAD PUSH4 0x26C0989 PUSH1 0xE5 SHL DUP2 MSTORE PUSH1 0x1 PUSH1 0x1 PUSH1 0xA0 SHL SUB DUP6 DUP2 AND PUSH1 0x4 DUP4 ADD MSTORE SWAP1 SWAP2 AND SWAP1 PUSH1 0x0 SWAP1 DUP3 SWAP1 PUSH4 0x4D813120 SWAP1 PUSH1 0x24 ADD PUSH1 0x20 PUSH1 0x40 MLOAD DUP1 DUP4 SUB DUP2 DUP7 DUP1 EXTCODESIZE ISZERO DUP1 ISZERO PUSH2 0x1FB1 JUMPI PUSH1 0x0 DUP1 REVERT JUMPDEST POP GAS STATICCALL ISZERO DUP1 ISZERO PUSH2 0x1FC5 JUMPI RETURNDATASIZE PUSH1 0x0 DUP1 RETURNDATACOPY RETURNDATASIZE PUSH1 0x0 REVERT JUMPDEST POP POP POP POP PUSH1 0x40 MLOAD RETURNDATASIZE PUSH1 0x1F NOT PUSH1 0x1F DUP3 ADD AND DUP3 ADD DUP1 PUSH1 0x40 MSTORE POP DUP2 ADD SWAP1 PUSH2 0x1FE9 SWAP2 SWAP1 PUSH2 0x3171 JUMP JUMPDEST SWAP1 POP DUP1 PUSH2 0x2009 JUMPI PUSH1 0x40 MLOAD PUSH4 0x7CABA7D7 PUSH1 0xE1 SHL DUP2 MSTORE PUSH1 0x4 ADD PUSH1 0x40 MLOAD DUP1 SWAP2 SUB SWAP1 REVERT JUMPDEST PUSH1 0x9 SLOAD PUSH1 0x1 PUSH1 0x1 PUSH1 0xA0 SHL SUB AND PUSH2 0x201D PUSH2 0x231E JUMP JUMPDEST PUSH1 0x1 PUSH1 0x1 PUSH1 0xA0 SHL SUB AND EQ ISZERO PUSH2 0x2103 JUMPI PUSH1 0xC DUP1 SLOAD PUSH2 0x2039 SWAP1 PUSH2 0x311A JUMP JUMPDEST ISZERO ISZERO SWAP1 POP PUSH2 0x2056 JUMPI PUSH1 0x40 MLOAD DUP1 PUSH1 0x20 ADD PUSH1 0x40 MSTORE DUP1 PUSH1 0x0 DUP2 MSTORE POP PUSH2 0x2077 JUMP JUMPDEST DUP3 PUSH1 0x40 MLOAD PUSH1 0x20 ADD PUSH2 0x2067 SWAP2 SWAP1 PUSH2 0x3155 JUMP JUMPDEST PUSH1 0x40 MLOAD PUSH1 0x20 DUP2 DUP4 SUB SUB DUP2 MSTORE SWAP1 PUSH1 0x40 MSTORE JUMPDEST PUSH1 0x0 DUP6 DUP2 MSTORE PUSH1 0xF PUSH1 0x20 SWAP1 DUP2 MSTORE PUSH1 0x40 SWAP1 SWAP2 KECCAK256 DUP3 MLOAD PUSH2 0x209A SWAP4 SWAP2 SWAP3 SWAP2 SWAP1 SWAP2 ADD SWAP1 PUSH2 0x2C18 JUMP JUMPDEST POP PUSH2 0x20A5 DUP6 DUP6 PUSH2 0x29C5 JUMP JUMPDEST PUSH1 0xD SLOAD PUSH2 0x20B3 SWAP1 PUSH1 0x1 PUSH2 0x31A4 JUMP JUMPDEST PUSH1 0xD SSTORE DUP4 PUSH1 0x1 PUSH1 0x1 PUSH1 0xA0 SHL SUB DUP7 AND PUSH2 0x20C9 PUSH2 0x231E JUMP JUMPDEST PUSH1 0x1 PUSH1 0x1 PUSH1 0xA0 SHL SUB AND PUSH32 0x986385BEA8660B8382C6329A38CC817BC39229F8428D8D6FB4952624A99B75F6 PUSH1 0x40 MLOAD PUSH1 0x40 MLOAD DUP1 SWAP2 SUB SWAP1 LOG4 PUSH2 0xDD2 JUMP JUMPDEST PUSH1 0x40 MLOAD PUSH3 0x461BCD PUSH1 0xE5 SHL DUP2 MSTORE PUSH1 0x20 PUSH1 0x4 DUP3 ADD MSTORE PUSH1 0x35 PUSH1 0x24 DUP3 ADD MSTORE PUSH32 0x436F6E6E6563746564206164647265737320646F6573206E6F74206861766520 PUSH1 0x44 DUP3 ADD MSTORE PUSH21 0x1858D8D95CDCC81D1BC818DC99585D19481B185B99 PUSH1 0x5A SHL PUSH1 0x64 DUP3 ADD MSTORE PUSH1 0x84 ADD PUSH2 0x91A JUMP JUMPDEST PUSH2 0x2171 PUSH2 0x26FA JUMP JUMPDEST PUSH1 0x7 DUP1 SLOAD PUSH1 0x1 PUSH1 0x1 PUSH1 0xA0 SHL SUB NOT AND PUSH1 0x1 PUSH1 0x1 PUSH1 0xA0 SHL SUB SWAP3 SWAP1 SWAP3 AND SWAP2 SWAP1 SWAP2 OR SWAP1 SSTORE JUMP JUMPDEST PUSH1 0x60 PUSH1 0xB DUP1 SLOAD PUSH2 0x7FB SWAP1 PUSH2 0x311A JUMP JUMPDEST PUSH2 0x21AA PUSH2 0x26FA JUMP JUMPDEST PUSH1 0x1 PUSH1 0x1 PUSH1 0xA0 SHL SUB DUP2 AND PUSH2 0x220F JUMPI PUSH1 0x40 MLOAD PUSH3 0x461BCD PUSH1 0xE5 SHL DUP2 MSTORE PUSH1 0x20 PUSH1 0x4 DUP3 ADD MSTORE PUSH1 0x26 PUSH1 0x24 DUP3 ADD MSTORE PUSH32 0x4F776E61626C653A206E6577206F776E657220697320746865207A65726F2061 PUSH1 0x44 DUP3 ADD MSTORE PUSH6 0x646472657373 PUSH1 0xD0 SHL PUSH1 0x64 DUP3 ADD MSTORE PUSH1 0x84 ADD PUSH2 0x91A JUMP JUMPDEST PUSH2 0x10AD DUP2 PUSH2 0x2773 JUMP JUMPDEST PUSH1 0x6 SLOAD PUSH1 0x1 PUSH1 0x1 PUSH1 0xA0 SHL SUB AND PUSH2 0x222C PUSH2 0x231E JUMP JUMPDEST PUSH1 0x1 PUSH1 0x1 PUSH1 0xA0 SHL SUB AND EQ ISZERO DUP1 ISZERO PUSH2 0x2269 JUMPI POP PUSH1 0xE PUSH1 0x0 PUSH2 0x224A PUSH2 0x231E JUMP JUMPDEST PUSH1 0x1 PUSH1 0x1 PUSH1 0xA0 SHL SUB AND DUP2 MSTORE PUSH1 0x20 DUP2 ADD SWAP2 SWAP1 SWAP2 MSTORE PUSH1 0x40 ADD PUSH1 0x0 KECCAK256 SLOAD PUSH1 0xFF AND ISZERO JUMPDEST ISZERO PUSH2 0x2287 JUMPI PUSH1 0x40 MLOAD PUSH4 0x55098F27 PUSH1 0xE0 SHL DUP2 MSTORE PUSH1 0x4 ADD PUSH1 0x40 MLOAD DUP1 SWAP2 SUB SWAP1 REVERT JUMPDEST PUSH1 0x1 PUSH1 0x1 PUSH1 0xA0 SHL SUB DUP2 AND PUSH2 0x22AE JUMPI PUSH1 0x40 MLOAD PUSH4 0x9B15B395 PUSH1 0xE0 SHL DUP2 MSTORE PUSH1 0x4 ADD PUSH1 0x40 MLOAD DUP1 SWAP2 SUB SWAP1 REVERT JUMPDEST PUSH1 0x8 DUP1 SLOAD PUSH1 0x1 PUSH1 0x1 PUSH1 0xA0 SHL SUB NOT AND PUSH1 0x1 PUSH1 0x1 PUSH1 0xA0 SHL SUB SWAP3 SWAP1 SWAP3 AND SWAP2 SWAP1 SWAP2 OR SWAP1 SSTORE JUMP JUMPDEST PUSH1 0x0 PUSH32 0x0 PUSH1 0x1 PUSH1 0x1 PUSH1 0xA0 SHL SUB AND CALLER EQ ISZERO PUSH2 0x2310 JUMPI POP PUSH1 0x13 NOT CALLDATASIZE ADD CALLDATALOAD PUSH1 0x60 SHR SWAP1 JUMP JUMPDEST POP CALLER SWAP1 JUMP JUMPDEST SWAP1 POP SWAP1 JUMP JUMPDEST CALLER SWAP1 JUMP JUMPDEST PUSH1 0x0 PUSH2 0x2315 PUSH2 0x22D0 JUMP JUMPDEST PUSH1 0x0 PUSH1 0x1 PUSH1 0x1 PUSH1 0xE0 SHL SUB NOT DUP3 AND PUSH4 0x80AC58CD PUSH1 0xE0 SHL EQ DUP1 PUSH2 0x2359 JUMPI POP PUSH1 0x1 PUSH1 0x1 PUSH1 0xE0 SHL SUB NOT DUP3 AND PUSH4 0x5B5E139F PUSH1 0xE0 SHL EQ JUMPDEST DUP1 PUSH2 0x7E6 JUMPI POP PUSH4 0x1FFC9A7 PUSH1 0xE0 SHL PUSH1 0x1 PUSH1 0x1 PUSH1 0xE0 SHL SUB NOT DUP4 AND EQ PUSH2 0x7E6 JUMP JUMPDEST PUSH1 0x0 DUP2 DUP2 MSTORE PUSH1 0x2 PUSH1 0x20 MSTORE PUSH1 0x40 SWAP1 KECCAK256 SLOAD PUSH1 0x1 PUSH1 0x1 PUSH1 0xA0 SHL SUB AND PUSH2 0x10AD JUMPI PUSH1 0x40 MLOAD PUSH3 0x461BCD PUSH1 0xE5 SHL DUP2 MSTORE PUSH1 0x20 PUSH1 0x4 DUP3 ADD MSTORE PUSH1 0x18 PUSH1 0x24 DUP3 ADD MSTORE PUSH24 0x115490CDCC8C4E881A5B9D985B1A59081D1BDAD95B881251 PUSH1 0x42 SHL PUSH1 0x44 DUP3 ADD MSTORE PUSH1 0x64 ADD PUSH2 0x91A JUMP JUMPDEST PUSH1 0x0 DUP2 DUP2 MSTORE PUSH1 0x4 PUSH1 0x20 MSTORE PUSH1 0x40 SWAP1 KECCAK256 DUP1 SLOAD PUSH1 0x1 PUSH1 0x1 PUSH1 0xA0 SHL SUB NOT AND PUSH1 0x1 PUSH1 0x1 PUSH1 0xA0 SHL SUB DUP5 AND SWAP1 DUP2 OR SWAP1 SWAP2 SSTORE DUP2 SWAP1 PUSH2 0x240C DUP3 PUSH2 0x121F JUMP JUMPDEST PUSH1 0x1 PUSH1 0x1 PUSH1 0xA0 SHL SUB AND PUSH32 0x8C5BE1E5EBEC7D5BD14F71427D1E84F3DD0314C0F7B2291E5B200AC8C7C3B925 PUSH1 0x40 MLOAD PUSH1 0x40 MLOAD DUP1 SWAP2 SUB SWAP1 LOG4 POP POP JUMP JUMPDEST PUSH1 0x0 DUP1 PUSH2 0x2451 DUP4 PUSH2 0x121F JUMP JUMPDEST SWAP1 POP DUP1 PUSH1 0x1 PUSH1 0x1 PUSH1 0xA0 SHL SUB AND DUP5 PUSH1 0x1 PUSH1 0x1 PUSH1 0xA0 SHL SUB AND EQ DUP1 PUSH2 0x2498 JUMPI POP PUSH1 0x1 PUSH1 0x1 PUSH1 0xA0 SHL SUB DUP1 DUP3 AND PUSH1 0x0 SWAP1 DUP2 MSTORE PUSH1 0x5 PUSH1 0x20 SWAP1 DUP2 MSTORE PUSH1 0x40 DUP1 DUP4 KECCAK256 SWAP4 DUP9 AND DUP4 MSTORE SWAP3 SWAP1 MSTORE KECCAK256 SLOAD PUSH1 0xFF AND JUMPDEST DUP1 PUSH2 0x9DB JUMPI POP DUP4 PUSH1 0x1 PUSH1 0x1 PUSH1 0xA0 SHL SUB AND PUSH2 0x24B1 DUP5 PUSH2 0x87E JUMP JUMPDEST PUSH1 0x1 PUSH1 0x1 PUSH1 0xA0 SHL SUB AND EQ SWAP5 SWAP4 POP POP POP POP JUMP JUMPDEST DUP3 PUSH1 0x1 PUSH1 0x1 PUSH1 0xA0 SHL SUB AND PUSH2 0x24D6 DUP3 PUSH2 0x121F JUMP JUMPDEST PUSH1 0x1 PUSH1 0x1 PUSH1 0xA0 SHL SUB AND EQ PUSH2 0x253A JUMPI PUSH1 0x40 MLOAD PUSH3 0x461BCD PUSH1 0xE5 SHL DUP2 MSTORE PUSH1 0x20 PUSH1 0x4 DUP3 ADD MSTORE PUSH1 0x25 PUSH1 0x24 DUP3 ADD MSTORE PUSH32 0x4552433732313A207472616E736665722066726F6D20696E636F727265637420 PUSH1 0x44 DUP3 ADD MSTORE PUSH5 0x37BBB732B9 PUSH1 0xD9 SHL PUSH1 0x64 DUP3 ADD MSTORE PUSH1 0x84 ADD PUSH2 0x91A JUMP JUMPDEST PUSH1 0x1 PUSH1 0x1 PUSH1 0xA0 SHL SUB DUP3 AND PUSH2 0x259C JUMPI PUSH1 0x40 MLOAD PUSH3 0x461BCD PUSH1 0xE5 SHL DUP2 MSTORE PUSH1 0x20 PUSH1 0x4 DUP3 ADD MSTORE PUSH1 0x24 DUP1 DUP3 ADD MSTORE PUSH32 0x4552433732313A207472616E7366657220746F20746865207A65726F20616464 PUSH1 0x44 DUP3 ADD MSTORE PUSH4 0x72657373 PUSH1 0xE0 SHL PUSH1 0x64 DUP3 ADD MSTORE PUSH1 0x84 ADD PUSH2 0x91A JUMP JUMPDEST PUSH2 0x25A7 PUSH1 0x0 DUP3 PUSH2 0x23D7 JUMP JUMPDEST PUSH1 0x1 PUSH1 0x1 PUSH1 0xA0 SHL SUB DUP4 AND PUSH1 0x0 SWAP1 DUP2 MSTORE PUSH1 0x3 PUSH1 0x20 MSTORE PUSH1 0x40 DUP2 KECCAK256 DUP1 SLOAD PUSH1 0x1 SWAP3 SWAP1 PUSH2 0x25D0 SWAP1 DUP5 SWAP1 PUSH2 0x32E8 JUMP JUMPDEST SWAP1 SWAP2 SSTORE POP POP PUSH1 0x1 PUSH1 0x1 PUSH1 0xA0 SHL SUB DUP3 AND PUSH1 0x0 SWAP1 DUP2 MSTORE PUSH1 0x3 PUSH1 0x20 MSTORE PUSH1 0x40 DUP2 KECCAK256 DUP1 SLOAD PUSH1 0x1 SWAP3 SWAP1 PUSH2 0x25FE SWAP1 DUP5 SWAP1 PUSH2 0x31A4 JUMP JUMPDEST SWAP1 SWAP2 SSTORE POP POP PUSH1 0x0 DUP2 DUP2 MSTORE PUSH1 0x2 PUSH1 0x20 MSTORE PUSH1 0x40 DUP1 DUP3 KECCAK256 DUP1 SLOAD PUSH1 0x1 PUSH1 0x1 PUSH1 0xA0 SHL SUB NOT AND PUSH1 0x1 PUSH1 0x1 PUSH1 0xA0 SHL SUB DUP7 DUP2 AND SWAP2 DUP3 OR SWAP1 SWAP3 SSTORE SWAP2 MLOAD DUP5 SWAP4 SWAP2 DUP8 AND SWAP2 PUSH32 0xDDF252AD1BE2C89B69C2B068FC378DAA952BA7F163C4A11628F55A4DF523B3EF SWAP2 LOG4 POP POP POP JUMP JUMPDEST PUSH1 0x0 PUSH2 0x266A DUP3 PUSH2 0x121F JUMP JUMPDEST SWAP1 POP PUSH2 0x2677 PUSH1 0x0 DUP4 PUSH2 0x23D7 JUMP JUMPDEST PUSH1 0x1 PUSH1 0x1 PUSH1 0xA0 SHL SUB DUP2 AND PUSH1 0x0 SWAP1 DUP2 MSTORE PUSH1 0x3 PUSH1 0x20 MSTORE PUSH1 0x40 DUP2 KECCAK256 DUP1 SLOAD PUSH1 0x1 SWAP3 SWAP1 PUSH2 0x26A0 SWAP1 DUP5 SWAP1 PUSH2 0x32E8 JUMP JUMPDEST SWAP1 SWAP2 SSTORE POP POP PUSH1 0x0 DUP3 DUP2 MSTORE PUSH1 0x2 PUSH1 0x20 MSTORE PUSH1 0x40 DUP1 DUP3 KECCAK256 DUP1 SLOAD PUSH1 0x1 PUSH1 0x1 PUSH1 0xA0 SHL SUB NOT AND SWAP1 SSTORE MLOAD DUP4 SWAP2 SWAP1 PUSH1 0x1 PUSH1 0x1 PUSH1 0xA0 SHL SUB DUP5 AND SWAP1 PUSH32 0xDDF252AD1BE2C89B69C2B068FC378DAA952BA7F163C4A11628F55A4DF523B3EF SWAP1 DUP4 SWAP1 LOG4 POP POP JUMP JUMPDEST PUSH2 0x2702 PUSH2 0x231E JUMP JUMPDEST PUSH1 0x1 PUSH1 0x1 PUSH1 0xA0 SHL SUB AND PUSH2 0x271D PUSH1 0x6 SLOAD PUSH1 0x1 PUSH1 0x1 PUSH1 0xA0 SHL SUB AND SWAP1 JUMP JUMPDEST PUSH1 0x1 PUSH1 0x1 PUSH1 0xA0 SHL SUB AND EQ PUSH2 0x1480 JUMPI PUSH1 0x40 MLOAD PUSH3 0x461BCD PUSH1 0xE5 SHL DUP2 MSTORE PUSH1 0x20 PUSH1 0x4 DUP3 ADD DUP2 SWAP1 MSTORE PUSH1 0x24 DUP3 ADD MSTORE PUSH32 0x4F776E61626C653A2063616C6C6572206973206E6F7420746865206F776E6572 PUSH1 0x44 DUP3 ADD MSTORE PUSH1 0x64 ADD PUSH2 0x91A JUMP JUMPDEST PUSH1 0x6 DUP1 SLOAD PUSH1 0x1 PUSH1 0x1 PUSH1 0xA0 SHL SUB DUP4 DUP2 AND PUSH1 0x1 PUSH1 0x1 PUSH1 0xA0 SHL SUB NOT DUP4 AND DUP2 OR SWAP1 SWAP4 SSTORE PUSH1 0x40 MLOAD SWAP2 AND SWAP2 SWAP1 DUP3 SWAP1 PUSH32 0x8BE0079C531659141344CD1FD0A4F28419497F9722A3DAAFE3B4186F6B6457E0 SWAP1 PUSH1 0x0 SWAP1 LOG3 POP POP JUMP JUMPDEST DUP2 PUSH1 0x1 PUSH1 0x1 PUSH1 0xA0 SHL SUB AND DUP4 PUSH1 0x1 PUSH1 0x1 PUSH1 0xA0 SHL SUB AND EQ ISZERO PUSH2 0x2827 JUMPI PUSH1 0x40 MLOAD PUSH3 0x461BCD PUSH1 0xE5 SHL DUP2 MSTORE PUSH1 0x20 PUSH1 0x4 DUP3 ADD MSTORE PUSH1 0x19 PUSH1 0x24 DUP3 ADD MSTORE PUSH32 0x4552433732313A20617070726F766520746F2063616C6C657200000000000000 PUSH1 0x44 DUP3 ADD MSTORE PUSH1 0x64 ADD PUSH2 0x91A JUMP JUMPDEST PUSH1 0x1 PUSH1 0x1 PUSH1 0xA0 SHL SUB DUP4 DUP2 AND PUSH1 0x0 DUP2 DUP2 MSTORE PUSH1 0x5 PUSH1 0x20 SWAP1 DUP2 MSTORE PUSH1 0x40 DUP1 DUP4 KECCAK256 SWAP5 DUP8 AND DUP1 DUP5 MSTORE SWAP5 DUP3 MSTORE SWAP2 DUP3 SWAP1 KECCAK256 DUP1 SLOAD PUSH1 0xFF NOT AND DUP7 ISZERO ISZERO SWAP1 DUP2 OR SWAP1 SWAP2 SSTORE SWAP2 MLOAD SWAP2 DUP3 MSTORE PUSH32 0x17307EAB39AB6107E8899845AD3D59BD9653F200F220920489CA2B5937696C31 SWAP2 ADD PUSH1 0x40 MLOAD DUP1 SWAP2 SUB SWAP1 LOG3 POP POP POP JUMP JUMPDEST PUSH2 0x289F DUP5 DUP5 DUP5 PUSH2 0x24C3 JUMP JUMPDEST PUSH2 0x28AB DUP5 DUP5 DUP5 DUP5 PUSH2 0x2B07 JUMP JUMPDEST PUSH2 0x1BC8 JUMPI PUSH1 0x40 MLOAD PUSH3 0x461BCD PUSH1 0xE5 SHL DUP2 MSTORE PUSH1 0x4 ADD PUSH2 0x91A SWAP1 PUSH2 0x32FF JUMP JUMPDEST PUSH1 0x60 DUP2 PUSH2 0x28EB JUMPI POP POP PUSH1 0x40 DUP1 MLOAD DUP1 DUP3 ADD SWAP1 SWAP2 MSTORE PUSH1 0x1 DUP2 MSTORE PUSH1 0x3 PUSH1 0xFC SHL PUSH1 0x20 DUP3 ADD MSTORE SWAP1 JUMP JUMPDEST DUP2 PUSH1 0x0 JUMPDEST DUP2 ISZERO PUSH2 0x2915 JUMPI DUP1 PUSH2 0x28FF DUP2 PUSH2 0x3351 JUMP JUMPDEST SWAP2 POP PUSH2 0x290E SWAP1 POP PUSH1 0xA DUP4 PUSH2 0x3382 JUMP JUMPDEST SWAP2 POP PUSH2 0x28EF JUMP JUMPDEST PUSH1 0x0 DUP2 PUSH8 0xFFFFFFFFFFFFFFFF DUP2 GT ISZERO PUSH2 0x2930 JUMPI PUSH2 0x2930 PUSH2 0x2DC4 JUMP JUMPDEST PUSH1 0x40 MLOAD SWAP1 DUP1 DUP3 MSTORE DUP1 PUSH1 0x1F ADD PUSH1 0x1F NOT AND PUSH1 0x20 ADD DUP3 ADD PUSH1 0x40 MSTORE DUP1 ISZERO PUSH2 0x295A JUMPI PUSH1 0x20 DUP3 ADD DUP2 DUP1 CALLDATASIZE DUP4 CALLDATACOPY ADD SWAP1 POP JUMPDEST POP SWAP1 POP JUMPDEST DUP5 ISZERO PUSH2 0x9DB JUMPI PUSH2 0x296F PUSH1 0x1 DUP4 PUSH2 0x32E8 JUMP JUMPDEST SWAP2 POP PUSH2 0x297C PUSH1 0xA DUP7 PUSH2 0x3396 JUMP JUMPDEST PUSH2 0x2987 SWAP1 PUSH1 0x30 PUSH2 0x31A4 JUMP JUMPDEST PUSH1 0xF8 SHL DUP2 DUP4 DUP2 MLOAD DUP2 LT PUSH2 0x299C JUMPI PUSH2 0x299C PUSH2 0x33AA JUMP JUMPDEST PUSH1 0x20 ADD ADD SWAP1 PUSH1 0x1 PUSH1 0x1 PUSH1 0xF8 SHL SUB NOT AND SWAP1 DUP2 PUSH1 0x0 BYTE SWAP1 MSTORE8 POP PUSH2 0x29BE PUSH1 0xA DUP7 PUSH2 0x3382 JUMP JUMPDEST SWAP5 POP PUSH2 0x295E JUMP JUMPDEST PUSH1 0x1 PUSH1 0x1 PUSH1 0xA0 SHL SUB DUP3 AND PUSH2 0x2A1B JUMPI PUSH1 0x40 MLOAD PUSH3 0x461BCD PUSH1 0xE5 SHL DUP2 MSTORE PUSH1 0x20 PUSH1 0x4 DUP3 ADD DUP2 SWAP1 MSTORE PUSH1 0x24 DUP3 ADD MSTORE PUSH32 0x4552433732313A206D696E7420746F20746865207A65726F2061646472657373 PUSH1 0x44 DUP3 ADD MSTORE PUSH1 0x64 ADD PUSH2 0x91A JUMP JUMPDEST PUSH1 0x0 DUP2 DUP2 MSTORE PUSH1 0x2 PUSH1 0x20 MSTORE PUSH1 0x40 SWAP1 KECCAK256 SLOAD PUSH1 0x1 PUSH1 0x1 PUSH1 0xA0 SHL SUB AND ISZERO PUSH2 0x2A80 JUMPI PUSH1 0x40 MLOAD PUSH3 0x461BCD PUSH1 0xE5 SHL DUP2 MSTORE PUSH1 0x20 PUSH1 0x4 DUP3 ADD MSTORE PUSH1 0x1C PUSH1 0x24 DUP3 ADD MSTORE PUSH32 0x4552433732313A20746F6B656E20616C7265616479206D696E74656400000000 PUSH1 0x44 DUP3 ADD MSTORE PUSH1 0x64 ADD PUSH2 0x91A JUMP JUMPDEST PUSH1 0x1 PUSH1 0x1 PUSH1 0xA0 SHL SUB DUP3 AND PUSH1 0x0 SWAP1 DUP2 MSTORE PUSH1 0x3 PUSH1 0x20 MSTORE PUSH1 0x40 DUP2 KECCAK256 DUP1 SLOAD PUSH1 0x1 SWAP3 SWAP1 PUSH2 0x2AA9 SWAP1 DUP5 SWAP1 PUSH2 0x31A4 JUMP JUMPDEST SWAP1 SWAP2 SSTORE POP POP PUSH1 0x0 DUP2 DUP2 MSTORE PUSH1 0x2 PUSH1 0x20 MSTORE PUSH1 0x40 DUP1 DUP3 KECCAK256 DUP1 SLOAD PUSH1 0x1 PUSH1 0x1 PUSH1 0xA0 SHL SUB NOT AND PUSH1 0x1 PUSH1 0x1 PUSH1 0xA0 SHL SUB DUP7 AND SWAP1 DUP2 OR SWAP1 SWAP2 SSTORE SWAP1 MLOAD DUP4 SWAP3 SWAP1 PUSH32 0xDDF252AD1BE2C89B69C2B068FC378DAA952BA7F163C4A11628F55A4DF523B3EF SWAP1 DUP3 SWAP1 LOG4 POP POP JUMP JUMPDEST PUSH1 0x0 PUSH1 0x1 PUSH1 0x1 PUSH1 0xA0 SHL SUB DUP5 AND EXTCODESIZE ISZERO PUSH2 0x2C10 JUMPI DUP4 PUSH1 0x1 PUSH1 0x1 PUSH1 0xA0 SHL SUB AND PUSH4 0x150B7A02 PUSH2 0x2B30 PUSH2 0x231E JUMP JUMPDEST DUP8 DUP7 DUP7 PUSH1 0x40 MLOAD DUP6 PUSH4 0xFFFFFFFF AND PUSH1 0xE0 SHL DUP2 MSTORE PUSH1 0x4 ADD PUSH2 0x2B52 SWAP5 SWAP4 SWAP3 SWAP2 SWAP1 PUSH2 0x33C0 JUMP JUMPDEST PUSH1 0x20 PUSH1 0x40 MLOAD DUP1 DUP4 SUB DUP2 PUSH1 0x0 DUP8 DUP1 EXTCODESIZE ISZERO DUP1 ISZERO PUSH2 0x2B6C JUMPI PUSH1 0x0 DUP1 REVERT JUMPDEST POP GAS CALL SWAP3 POP POP POP DUP1 ISZERO PUSH2 0x2B9C JUMPI POP PUSH1 0x40 DUP1 MLOAD PUSH1 0x1F RETURNDATASIZE SWAP1 DUP2 ADD PUSH1 0x1F NOT AND DUP3 ADD SWAP1 SWAP3 MSTORE PUSH2 0x2B99 SWAP2 DUP2 ADD SWAP1 PUSH2 0x33FD JUMP JUMPDEST PUSH1 0x1 JUMPDEST PUSH2 0x2BF6 JUMPI RETURNDATASIZE DUP1 DUP1 ISZERO PUSH2 0x2BCA JUMPI PUSH1 0x40 MLOAD SWAP2 POP PUSH1 0x1F NOT PUSH1 0x3F RETURNDATASIZE ADD AND DUP3 ADD PUSH1 0x40 MSTORE RETURNDATASIZE DUP3 MSTORE RETURNDATASIZE PUSH1 0x0 PUSH1 0x20 DUP5 ADD RETURNDATACOPY PUSH2 0x2BCF JUMP JUMPDEST PUSH1 0x60 SWAP2 POP JUMPDEST POP DUP1 MLOAD PUSH2 0x2BEE JUMPI PUSH1 0x40 MLOAD PUSH3 0x461BCD PUSH1 0xE5 SHL DUP2 MSTORE PUSH1 0x4 ADD PUSH2 0x91A SWAP1 PUSH2 0x32FF JUMP JUMPDEST DUP1 MLOAD DUP2 PUSH1 0x20 ADD REVERT JUMPDEST PUSH1 0x1 PUSH1 0x1 PUSH1 0xE0 SHL SUB NOT AND PUSH4 0xA85BD01 PUSH1 0xE1 SHL EQ SWAP1 POP PUSH2 0x9DB JUMP JUMPDEST POP PUSH1 0x1 PUSH2 0x9DB JUMP JUMPDEST DUP3 DUP1 SLOAD PUSH2 0x2C24 SWAP1 PUSH2 0x311A JUMP JUMPDEST SWAP1 PUSH1 0x0 MSTORE PUSH1 0x20 PUSH1 0x0 KECCAK256 SWAP1 PUSH1 0x1F ADD PUSH1 0x20 SWAP1 DIV DUP2 ADD SWAP3 DUP3 PUSH2 0x2C46 JUMPI PUSH1 0x0 DUP6 SSTORE PUSH2 0x2C8C JUMP JUMPDEST DUP3 PUSH1 0x1F LT PUSH2 0x2C5F JUMPI DUP1 MLOAD PUSH1 0xFF NOT AND DUP4 DUP1 ADD OR DUP6 SSTORE PUSH2 0x2C8C JUMP JUMPDEST DUP3 DUP1 ADD PUSH1 0x1 ADD DUP6 SSTORE DUP3 ISZERO PUSH2 0x2C8C JUMPI SWAP2 DUP3 ADD JUMPDEST DUP3 DUP2 GT ISZERO PUSH2 0x2C8C JUMPI DUP3 MLOAD DUP3 SSTORE SWAP2 PUSH1 0x20 ADD SWAP2 SWAP1 PUSH1 0x1 ADD SWAP1 PUSH2 0x2C71 JUMP JUMPDEST POP PUSH2 0x2C98 SWAP3 SWAP2 POP PUSH2 0x2C9C JUMP JUMPDEST POP SWAP1 JUMP JUMPDEST JUMPDEST DUP1 DUP3 GT ISZERO PUSH2 0x2C98 JUMPI PUSH1 0x0 DUP2 SSTORE PUSH1 0x1 ADD PUSH2 0x2C9D JUMP JUMPDEST DUP1 CALLDATALOAD PUSH1 0x1 PUSH1 0x1 PUSH1 0xA0 SHL SUB DUP2 AND DUP2 EQ PUSH2 0x1A95 JUMPI PUSH1 0x0 DUP1 REVERT JUMPDEST PUSH1 0x0 PUSH1 0x20 DUP3 DUP5 SUB SLT ISZERO PUSH2 0x2CDA JUMPI PUSH1 0x0 DUP1 REVERT JUMPDEST PUSH2 0x1E50 DUP3 PUSH2 0x2CB1 JUMP JUMPDEST PUSH1 0x1 PUSH1 0x1 PUSH1 0xE0 SHL SUB NOT DUP2 AND DUP2 EQ PUSH2 0x10AD JUMPI PUSH1 0x0 DUP1 REVERT JUMPDEST PUSH1 0x0 PUSH1 0x20 DUP3 DUP5 SUB SLT ISZERO PUSH2 0x2D0B JUMPI PUSH1 0x0 DUP1 REVERT JUMPDEST DUP2 CALLDATALOAD PUSH2 0x1E50 DUP2 PUSH2 0x2CE3 JUMP JUMPDEST PUSH1 0x0 JUMPDEST DUP4 DUP2 LT ISZERO PUSH2 0x2D31 JUMPI DUP2 DUP2 ADD MLOAD DUP4 DUP3 ADD MSTORE PUSH1 0x20 ADD PUSH2 0x2D19 JUMP JUMPDEST DUP4 DUP2 GT ISZERO PUSH2 0x1BC8 JUMPI POP POP PUSH1 0x0 SWAP2 ADD MSTORE JUMP JUMPDEST PUSH1 0x0 DUP2 MLOAD DUP1 DUP5 MSTORE PUSH2 0x2D5A DUP2 PUSH1 0x20 DUP7 ADD PUSH1 0x20 DUP7 ADD PUSH2 0x2D16 JUMP JUMPDEST PUSH1 0x1F ADD PUSH1 0x1F NOT AND SWAP3 SWAP1 SWAP3 ADD PUSH1 0x20 ADD SWAP3 SWAP2 POP POP JUMP JUMPDEST PUSH1 0x20 DUP2 MSTORE PUSH1 0x0 PUSH2 0x1E50 PUSH1 0x20 DUP4 ADD DUP5 PUSH2 0x2D42 JUMP JUMPDEST PUSH1 0x0 PUSH1 0x20 DUP3 DUP5 SUB SLT ISZERO PUSH2 0x2D93 JUMPI PUSH1 0x0 DUP1 REVERT JUMPDEST POP CALLDATALOAD SWAP2 SWAP1 POP JUMP JUMPDEST PUSH1 0x0 DUP1 PUSH1 0x40 DUP4 DUP6 SUB SLT ISZERO PUSH2 0x2DAD JUMPI PUSH1 0x0 DUP1 REVERT JUMPDEST PUSH2 0x2DB6 DUP4 PUSH2 0x2CB1 JUMP JUMPDEST SWAP5 PUSH1 0x20 SWAP4 SWAP1 SWAP4 ADD CALLDATALOAD SWAP4 POP POP POP JUMP JUMPDEST PUSH4 0x4E487B71 PUSH1 0xE0 SHL PUSH1 0x0 MSTORE PUSH1 0x41 PUSH1 0x4 MSTORE PUSH1 0x24 PUSH1 0x0 REVERT JUMPDEST PUSH1 0x0 PUSH8 0xFFFFFFFFFFFFFFFF DUP1 DUP5 GT ISZERO PUSH2 0x2DF5 JUMPI PUSH2 0x2DF5 PUSH2 0x2DC4 JUMP JUMPDEST PUSH1 0x40 MLOAD PUSH1 0x1F DUP6 ADD PUSH1 0x1F NOT SWAP1 DUP2 AND PUSH1 0x3F ADD AND DUP2 ADD SWAP1 DUP3 DUP3 GT DUP2 DUP4 LT OR ISZERO PUSH2 0x2E1D JUMPI PUSH2 0x2E1D PUSH2 0x2DC4 JUMP JUMPDEST DUP2 PUSH1 0x40 MSTORE DUP1 SWAP4 POP DUP6 DUP2 MSTORE DUP7 DUP7 DUP7 ADD GT ISZERO PUSH2 0x2E36 JUMPI PUSH1 0x0 DUP1 REVERT JUMPDEST DUP6 DUP6 PUSH1 0x20 DUP4 ADD CALLDATACOPY PUSH1 0x0 PUSH1 0x20 DUP8 DUP4 ADD ADD MSTORE POP POP POP SWAP4 SWAP3 POP POP POP JUMP JUMPDEST PUSH1 0x0 DUP1 PUSH1 0x0 DUP1 PUSH1 0x80 DUP6 DUP8 SUB SLT ISZERO PUSH2 0x2E66 JUMPI PUSH1 0x0 DUP1 REVERT JUMPDEST PUSH2 0x2E6F DUP6 PUSH2 0x2CB1 JUMP JUMPDEST SWAP4 POP PUSH2 0x2E7D PUSH1 0x20 DUP7 ADD PUSH2 0x2CB1 JUMP JUMPDEST SWAP3 POP PUSH1 0x40 DUP6 ADD CALLDATALOAD SWAP2 POP PUSH1 0x60 DUP6 ADD CALLDATALOAD PUSH8 0xFFFFFFFFFFFFFFFF DUP2 GT ISZERO PUSH2 0x2EA0 JUMPI PUSH1 0x0 DUP1 REVERT JUMPDEST DUP6 ADD PUSH1 0x1F DUP2 ADD DUP8 SGT PUSH2 0x2EB1 JUMPI PUSH1 0x0 DUP1 REVERT JUMPDEST PUSH2 0x2EC0 DUP8 DUP3 CALLDATALOAD PUSH1 0x20 DUP5 ADD PUSH2 0x2DDA JUMP JUMPDEST SWAP2 POP POP SWAP3 SWAP6 SWAP2 SWAP5 POP SWAP3 POP JUMP JUMPDEST PUSH1 0x0 DUP3 PUSH1 0x1F DUP4 ADD SLT PUSH2 0x2EDD JUMPI PUSH1 0x0 DUP1 REVERT JUMPDEST PUSH2 0x1E50 DUP4 DUP4 CALLDATALOAD PUSH1 0x20 DUP6 ADD PUSH2 0x2DDA JUMP JUMPDEST PUSH1 0x0 DUP1 PUSH1 0x40 DUP4 DUP6 SUB SLT ISZERO PUSH2 0x2EFF JUMPI PUSH1 0x0 DUP1 REVERT JUMPDEST DUP3 CALLDATALOAD SWAP2 POP PUSH1 0x20 DUP4 ADD CALLDATALOAD PUSH8 0xFFFFFFFFFFFFFFFF DUP2 GT ISZERO PUSH2 0x2F1D JUMPI PUSH1 0x0 DUP1 REVERT JUMPDEST PUSH2 0x2F29 DUP6 DUP3 DUP7 ADD PUSH2 0x2ECC JUMP JUMPDEST SWAP2 POP POP SWAP3 POP SWAP3 SWAP1 POP JUMP JUMPDEST DUP1 ISZERO ISZERO DUP2 EQ PUSH2 0x10AD JUMPI PUSH1 0x0 DUP1 REVERT JUMPDEST PUSH1 0x0 DUP1 PUSH1 0x0 PUSH1 0x60 DUP5 DUP7 SUB SLT ISZERO PUSH2 0x2F56 JUMPI PUSH1 0x0 DUP1 REVERT JUMPDEST PUSH2 0x2F5F DUP5 PUSH2 0x2CB1 JUMP JUMPDEST SWAP3 POP PUSH1 0x20 DUP5 ADD CALLDATALOAD SWAP2 POP PUSH1 0x40 DUP5 ADD CALLDATALOAD PUSH2 0x2F76 DUP2 PUSH2 0x2F33 JUMP JUMPDEST DUP1 SWAP2 POP POP SWAP3 POP SWAP3 POP SWAP3 JUMP JUMPDEST PUSH1 0x0 PUSH1 0x60 DUP3 DUP5 SUB SLT ISZERO PUSH2 0x2F93 JUMPI PUSH1 0x0 DUP1 REVERT JUMPDEST PUSH1 0x40 MLOAD PUSH1 0x60 DUP2 ADD DUP2 DUP2 LT PUSH8 0xFFFFFFFFFFFFFFFF DUP3 GT OR ISZERO PUSH2 0x2FB6 JUMPI PUSH2 0x2FB6 PUSH2 0x2DC4 JUMP JUMPDEST PUSH1 0x40 MSTORE PUSH2 0x2FC2 DUP4 PUSH2 0x2CB1 JUMP JUMPDEST DUP2 MSTORE PUSH1 0x20 DUP4 ADD CALLDATALOAD PUSH1 0x20 DUP3 ADD MSTORE PUSH1 0x40 DUP4 ADD CALLDATALOAD PUSH2 0x2FDC DUP2 PUSH2 0x2F33 JUMP JUMPDEST PUSH1 0x40 DUP3 ADD MSTORE SWAP4 SWAP3 POP POP POP JUMP JUMPDEST PUSH1 0x0 DUP1 PUSH1 0x0 PUSH1 0x60 DUP5 DUP7 SUB SLT ISZERO PUSH2 0x2FFD JUMPI PUSH1 0x0 DUP1 REVERT JUMPDEST PUSH2 0x3006 DUP5 PUSH2 0x2CB1 JUMP JUMPDEST SWAP3 POP PUSH2 0x3014 PUSH1 0x20 DUP6 ADD PUSH2 0x2CB1 JUMP JUMPDEST SWAP2 POP PUSH1 0x40 DUP5 ADD CALLDATALOAD SWAP1 POP SWAP3 POP SWAP3 POP SWAP3 JUMP JUMPDEST PUSH1 0x0 PUSH1 0x20 DUP3 DUP5 SUB SLT ISZERO PUSH2 0x3036 JUMPI PUSH1 0x0 DUP1 REVERT JUMPDEST DUP2 CALLDATALOAD PUSH8 0xFFFFFFFFFFFFFFFF DUP2 GT ISZERO PUSH2 0x304D JUMPI PUSH1 0x0 DUP1 REVERT JUMPDEST PUSH2 0x9DB DUP5 DUP3 DUP6 ADD PUSH2 0x2ECC JUMP JUMPDEST PUSH1 0x0 DUP1 PUSH1 0x40 DUP4 DUP6 SUB SLT ISZERO PUSH2 0x306C JUMPI PUSH1 0x0 DUP1 REVERT JUMPDEST PUSH2 0x3075 DUP4 PUSH2 0x2CB1 JUMP JUMPDEST SWAP2 POP PUSH1 0x20 DUP4 ADD CALLDATALOAD PUSH2 0x3085 DUP2 PUSH2 0x2F33 JUMP JUMPDEST DUP1 SWAP2 POP POP SWAP3 POP SWAP3 SWAP1 POP JUMP JUMPDEST PUSH1 0x0 DUP1 PUSH1 0x0 PUSH1 0x60 DUP5 DUP7 SUB SLT ISZERO PUSH2 0x30A5 JUMPI PUSH1 0x0 DUP1 REVERT JUMPDEST PUSH2 0x30AE DUP5 PUSH2 0x2CB1 JUMP JUMPDEST SWAP3 POP PUSH1 0x20 DUP5 ADD CALLDATALOAD SWAP2 POP PUSH1 0x40 DUP5 ADD CALLDATALOAD PUSH8 0xFFFFFFFFFFFFFFFF DUP2 GT ISZERO PUSH2 0x30D1 JUMPI PUSH1 0x0 DUP1 REVERT JUMPDEST PUSH2 0x30DD DUP7 DUP3 DUP8 ADD PUSH2 0x2ECC JUMP JUMPDEST SWAP2 POP POP SWAP3 POP SWAP3 POP SWAP3 JUMP JUMPDEST PUSH1 0x0 DUP1 PUSH1 0x40 DUP4 DUP6 SUB SLT ISZERO PUSH2 0x30FA JUMPI PUSH1 0x0 DUP1 REVERT JUMPDEST PUSH2 0x3103 DUP4 PUSH2 0x2CB1 JUMP JUMPDEST SWAP2 POP PUSH2 0x3111 PUSH1 0x20 DUP5 ADD PUSH2 0x2CB1 JUMP JUMPDEST SWAP1 POP SWAP3 POP SWAP3 SWAP1 POP JUMP JUMPDEST PUSH1 0x1 DUP2 DUP2 SHR SWAP1 DUP3 AND DUP1 PUSH2 0x312E JUMPI PUSH1 0x7F DUP3 AND SWAP2 POP JUMPDEST PUSH1 0x20 DUP3 LT DUP2 EQ ISZERO PUSH2 0x314F JUMPI PUSH4 0x4E487B71 PUSH1 0xE0 SHL PUSH1 0x0 MSTORE PUSH1 0x22 PUSH1 0x4 MSTORE PUSH1 0x24 PUSH1 0x0 REVERT JUMPDEST POP SWAP2 SWAP1 POP JUMP JUMPDEST PUSH1 0x0 DUP3 MLOAD PUSH2 0x3167 DUP2 DUP5 PUSH1 0x20 DUP8 ADD PUSH2 0x2D16 JUMP JUMPDEST SWAP2 SWAP1 SWAP2 ADD SWAP3 SWAP2 POP POP JUMP JUMPDEST PUSH1 0x0 PUSH1 0x20 DUP3 DUP5 SUB SLT ISZERO PUSH2 0x3183 JUMPI PUSH1 0x0 DUP1 REVERT JUMPDEST DUP2 MLOAD PUSH2 0x1E50 DUP2 PUSH2 0x2F33 JUMP JUMPDEST PUSH4 0x4E487B71 PUSH1 0xE0 SHL PUSH1 0x0 MSTORE PUSH1 0x11 PUSH1 0x4 MSTORE PUSH1 0x24 PUSH1 0x0 REVERT JUMPDEST PUSH1 0x0 DUP3 NOT DUP3 GT ISZERO PUSH2 0x31B7 JUMPI PUSH2 0x31B7 PUSH2 0x318E JUMP JUMPDEST POP ADD SWAP1 JUMP JUMPDEST PUSH1 0x20 DUP1 DUP3 MSTORE PUSH1 0x2E SWAP1 DUP3 ADD MSTORE PUSH32 0x4552433732313A2063616C6C6572206973206E6F7420746F6B656E206F776E65 PUSH1 0x40 DUP3 ADD MSTORE PUSH14 0x1C881B9BDC88185C1C1C9BDD9959 PUSH1 0x92 SHL PUSH1 0x60 DUP3 ADD MSTORE PUSH1 0x80 ADD SWAP1 JUMP JUMPDEST DUP1 SLOAD PUSH1 0x0 SWAP1 PUSH1 0x1 DUP2 DUP2 SHR SWAP1 DUP1 DUP4 AND DUP1 PUSH2 0x3224 JUMPI PUSH1 0x7F DUP4 AND SWAP3 POP JUMPDEST PUSH1 0x20 DUP1 DUP5 LT DUP3 EQ ISZERO PUSH2 0x3246 JUMPI PUSH4 0x4E487B71 PUSH1 0xE0 SHL PUSH1 0x0 MSTORE PUSH1 0x22 PUSH1 0x4 MSTORE PUSH1 0x24 PUSH1 0x0 REVERT JUMPDEST DUP2 DUP1 ISZERO PUSH2 0x325A JUMPI PUSH1 0x1 DUP2 EQ PUSH2 0x326B JUMPI PUSH2 0x3298 JUMP JUMPDEST PUSH1 0xFF NOT DUP7 AND DUP10 MSTORE DUP5 DUP10 ADD SWAP7 POP PUSH2 0x3298 JUMP JUMPDEST PUSH1 0x0 DUP9 DUP2 MSTORE PUSH1 0x20 SWAP1 KECCAK256 PUSH1 0x0 JUMPDEST DUP7 DUP2 LT ISZERO PUSH2 0x3290 JUMPI DUP2 SLOAD DUP12 DUP3 ADD MSTORE SWAP1 DUP6 ADD SWAP1 DUP4 ADD PUSH2 0x3277 JUMP JUMPDEST POP POP DUP5 DUP10 ADD SWAP7 POP JUMPDEST POP POP POP POP POP POP SWAP3 SWAP2 POP POP JUMP JUMPDEST PUSH1 0x0 PUSH2 0x9DB PUSH2 0x32B3 DUP4 DUP7 PUSH2 0x320A JUMP JUMPDEST DUP5 PUSH2 0x320A JUMP JUMPDEST PUSH1 0x0 DUP4 MLOAD PUSH2 0x32CB DUP2 DUP5 PUSH1 0x20 DUP9 ADD PUSH2 0x2D16 JUMP JUMPDEST DUP4 MLOAD SWAP1 DUP4 ADD SWAP1 PUSH2 0x32DF DUP2 DUP4 PUSH1 0x20 DUP9 ADD PUSH2 0x2D16 JUMP JUMPDEST ADD SWAP5 SWAP4 POP POP POP POP JUMP JUMPDEST PUSH1 0x0 DUP3 DUP3 LT ISZERO PUSH2 0x32FA JUMPI PUSH2 0x32FA PUSH2 0x318E JUMP JUMPDEST POP SUB SWAP1 JUMP JUMPDEST PUSH1 0x20 DUP1 DUP3 MSTORE PUSH1 0x32 SWAP1 DUP3 ADD MSTORE PUSH32 0x4552433732313A207472616E7366657220746F206E6F6E204552433732315265 PUSH1 0x40 DUP3 ADD MSTORE PUSH18 0x31B2B4BB32B91034B6B83632B6B2B73A32B9 PUSH1 0x71 SHL PUSH1 0x60 DUP3 ADD MSTORE PUSH1 0x80 ADD SWAP1 JUMP JUMPDEST PUSH1 0x0 PUSH1 0x0 NOT DUP3 EQ ISZERO PUSH2 0x3365 JUMPI PUSH2 0x3365 PUSH2 0x318E JUMP JUMPDEST POP PUSH1 0x1 ADD SWAP1 JUMP JUMPDEST PUSH4 0x4E487B71 PUSH1 0xE0 SHL PUSH1 0x0 MSTORE PUSH1 0x12 PUSH1 0x4 MSTORE PUSH1 0x24 PUSH1 0x0 REVERT JUMPDEST PUSH1 0x0 DUP3 PUSH2 0x3391 JUMPI PUSH2 0x3391 PUSH2 0x336C JUMP JUMPDEST POP DIV SWAP1 JUMP JUMPDEST PUSH1 0x0 DUP3 PUSH2 0x33A5 JUMPI PUSH2 0x33A5 PUSH2 0x336C JUMP JUMPDEST POP MOD SWAP1 JUMP JUMPDEST PUSH4 0x4E487B71 PUSH1 0xE0 SHL PUSH1 0x0 MSTORE PUSH1 0x32 PUSH1 0x4 MSTORE PUSH1 0x24 PUSH1 0x0 REVERT JUMPDEST PUSH1 0x1 PUSH1 0x1 PUSH1 0xA0 SHL SUB DUP6 DUP2 AND DUP3 MSTORE DUP5 AND PUSH1 0x20 DUP3 ADD MSTORE PUSH1 0x40 DUP2 ADD DUP4 SWAP1 MSTORE PUSH1 0x80 PUSH1 0x60 DUP3 ADD DUP2 SWAP1 MSTORE PUSH1 0x0 SWAP1 PUSH2 0x33F3 SWAP1 DUP4 ADD DUP5 PUSH2 0x2D42 JUMP JUMPDEST SWAP7 SWAP6 POP POP POP POP POP POP JUMP JUMPDEST PUSH1 0x0 PUSH1 0x20 DUP3 DUP5 SUB SLT ISZERO PUSH2 0x340F JUMPI PUSH1 0x0 DUP1 REVERT JUMPDEST DUP2 MLOAD PUSH2 0x1E50 DUP2 PUSH2 0x2CE3 JUMP INVALID PUSH2 0x6464 PUSH19 0x657373206973206E6F74206F776E6572206F66 KECCAK256 PUSH21 0x6865206C616E64206E6674206F7220766965772072 PUSH10 0x67687473206973206E6F PUSH21 0x2070726F7669646564A26469706673582212202390 0x4C LOG3 CODESIZE LOG4 0xCA 0x2C PUSH13 0xCA0BB9F846577C3246DB006D0A LT 0xB8 0xDA 0xEA 0xAD KECCAK256 PUSH25 0xF0F73464736F6C6343000809003368747470733A2F2F697066 PUSH20 0x2E696F2F697066732F516D53663339697A5A3269 MSTORE8 BASEFEE PUSH6 0x587053574B73 PUSH7 0x44457A716B4566 BASEFEE PUSH21 0x683666384C75586457314363676533420000000000 "},"methodIdentifiers":{"IID_IERC721()":"e0966dad","L2ApproverStatusForL1Approver(address,uint256)":"1be7fd6f","LandRequesterStatus(address,uint256)":"229d1a35","approve(address,uint256)":"095ea7b3","approveAndTransferLand1((address,uint256,bool))":"c84c2a80","approveByL1((address,uint256,bool))":"1d9a6730","approveByL2((address,uint256,bool))":"904e6c7c","balanceOf(address)":"70a08231","burn(uint256)":"42966c68","contractURI()":"e8a3d485","getApproved(uint256)":"081812fc","isApprovedForAll(address,address)":"e985e9c5","isTrustedForwarder(address)":"572b6c05","landDocumentViewRequestApprove(address,uint256,bool)":"5b0b6ead","metadataUri()":"77a4d559","mint(address,uint256,string)":"d3fc9864","name()":"06fdde03","onERC721Received(address,address,uint256,bytes)":"150b7a02","owner()":"8da5cb5b","ownerDecisionforRaisedRequest(address,uint256,bool)":"1c6bab43","ownerOf(uint256)":"6352211e","registrationForLandByBuyer(uint256,string)":"caf3be1d","renounceOwnership()":"715018a6","requestLandForSale(uint256)":"87c93d06","safeTransferFrom(address,address,uint256)":"42842e0e","safeTransferFrom(address,address,uint256,bytes)":"b88d4fde","setApprovalForAll(address,bool)":"a22cb465","setContractURI(string)":"938e3d7b","setTokenURI(uint256,string)":"162094c4","setTrustedForwarder(address)":"da742228","supportsInterface(bytes4)":"01ffc9a7","symbol()":"95d89b41","tokenURI(uint256)":"c87b56dd","transferFrom(address,address,uint256)":"23b872dd","transferOwnership(address)":"f2fde38b","trustedForwarder()":"7da0a877","versionRecipient()":"486ff0cd","viewDocumentByOwnerOrLevelApprovers(address,uint256)":"a3821b59","viewDocumentByRequesters(address,uint256)":"63b5648e","whitelistApproverL1(address)":"15fe58f2","whitelistApproverL2(address)":"0139ac1e","whitelistUserContract(address)":"fb39cf52"}},"storageLayout":{"storage":[{"astId":217,"contract":"contracts/metaTx_Appian/YexleMetaTx.sol:YexleMetaTx","label":"_name","offset":0,"slot":"0","type":"t_string_storage"},{"astId":219,"contract":"contracts/metaTx_Appian/YexleMetaTx.sol:YexleMetaTx","label":"_symbol","offset":0,"slot":"1","type":"t_string_storage"},{"astId":223,"contract":"contracts/metaTx_Appian/YexleMetaTx.sol:YexleMetaTx","label":"_owners","offset":0,"slot":"2","type":"t_mapping(t_uint256,t_address)"},{"astId":227,"contract":"contracts/metaTx_Appian/YexleMetaTx.sol:YexleMetaTx","label":"_balances","offset":0,"slot":"3","type":"t_mapping(t_address,t_uint256)"},{"astId":231,"contract":"contracts/metaTx_Appian/YexleMetaTx.sol:YexleMetaTx","label":"_tokenApprovals","offset":0,"slot":"4","type":"t_mapping(t_uint256,t_address)"},{"astId":237,"contract":"contracts/metaTx_Appian/YexleMetaTx.sol:YexleMetaTx","label":"_operatorApprovals","offset":0,"slot":"5","type":"t_mapping(t_address,t_mapping(t_address,t_bool))"},{"astId":7,"contract":"contracts/metaTx_Appian/YexleMetaTx.sol:YexleMetaTx","label":"_owner","offset":0,"slot":"6","type":"t_address"},{"astId":3653,"contract":"contracts/metaTx_Appian/YexleMetaTx.sol:YexleMetaTx","label":"trustedForwarder","offset":0,"slot":"7","type":"t_address"},{"astId":3655,"contract":"contracts/metaTx_Appian/YexleMetaTx.sol:YexleMetaTx","label":"userContract","offset":0,"slot":"8","type":"t_address"},{"astId":3657,"contract":"contracts/metaTx_Appian/YexleMetaTx.sol:YexleMetaTx","label":"L1Approver","offset":0,"slot":"9","type":"t_address"},{"astId":3659,"contract":"contracts/metaTx_Appian/YexleMetaTx.sol:YexleMetaTx","label":"L2Approver","offset":0,"slot":"10","type":"t_address"},{"astId":3661,"contract":"contracts/metaTx_Appian/YexleMetaTx.sol:YexleMetaTx","label":"contracturi","offset":0,"slot":"11","type":"t_string_storage"},{"astId":3663,"contract":"contracts/metaTx_Appian/YexleMetaTx.sol:YexleMetaTx","label":"metadataUri","offset":0,"slot":"12","type":"t_string_storage"},{"astId":3665,"contract":"contracts/metaTx_Appian/YexleMetaTx.sol:YexleMetaTx","label":"totalLimit","offset":0,"slot":"13","type":"t_uint256"},{"astId":3713,"contract":"contracts/metaTx_Appian/YexleMetaTx.sol:YexleMetaTx","label":"administrators","offset":0,"slot":"14","type":"t_mapping(t_address,t_bool)"},{"astId":3717,"contract":"contracts/metaTx_Appian/YexleMetaTx.sol:YexleMetaTx","label":"holdUri","offset":0,"slot":"15","type":"t_mapping(t_uint256,t_string_storage)"},{"astId":3721,"contract":"contracts/metaTx_Appian/YexleMetaTx.sol:YexleMetaTx","label":"_owners","offset":0,"slot":"16","type":"t_mapping(t_uint256,t_address)"},{"astId":3725,"contract":"contracts/metaTx_Appian/YexleMetaTx.sol:YexleMetaTx","label":"approverAddress","offset":0,"slot":"17","type":"t_mapping(t_address,t_bool)"},{"astId":3729,"contract":"contracts/metaTx_Appian/YexleMetaTx.sol:YexleMetaTx","label":"approvecount","offset":0,"slot":"18","type":"t_mapping(t_uint256,t_uint256)"},{"astId":3735,"contract":"contracts/metaTx_Appian/YexleMetaTx.sol:YexleMetaTx","label":"voteRecord","offset":0,"slot":"19","type":"t_mapping(t_address,t_mapping(t_uint256,t_bool))"},{"astId":3741,"contract":"contracts/metaTx_Appian/YexleMetaTx.sol:YexleMetaTx","label":"approverDecision","offset":0,"slot":"20","type":"t_mapping(t_uint256,t_mapping(t_address,t_bool))"},{"astId":3747,"contract":"contracts/metaTx_Appian/YexleMetaTx.sol:YexleMetaTx","label":"landRequest","offset":0,"slot":"21","type":"t_mapping(t_uint256,t_mapping(t_address,t_bool))"},{"astId":3751,"contract":"contracts/metaTx_Appian/YexleMetaTx.sol:YexleMetaTx","label":"ownerAcceptLandSales","offset":0,"slot":"22","type":"t_mapping(t_address,t_bool)"},{"astId":3755,"contract":"contracts/metaTx_Appian/YexleMetaTx.sol:YexleMetaTx","label":"saleStatus","offset":0,"slot":"23","type":"t_mapping(t_uint256,t_bool)"},{"astId":3759,"contract":"contracts/metaTx_Appian/YexleMetaTx.sol:YexleMetaTx","label":"registrationDocument","offset":0,"slot":"24","type":"t_mapping(t_uint256,t_string_storage)"},{"astId":3763,"contract":"contracts/metaTx_Appian/YexleMetaTx.sol:YexleMetaTx","label":"registrationDocumentStatus","offset":0,"slot":"25","type":"t_mapping(t_uint256,t_bool)"},{"astId":3769,"contract":"contracts/metaTx_Appian/YexleMetaTx.sol:YexleMetaTx","label":"L1statusForRequester","offset":0,"slot":"26","type":"t_mapping(t_address,t_mapping(t_uint256,t_bool))"},{"astId":3775,"contract":"contracts/metaTx_Appian/YexleMetaTx.sol:YexleMetaTx","label":"viewAccessGranted","offset":0,"slot":"27","type":"t_mapping(t_address,t_mapping(t_uint256,t_bool))"},{"astId":3781,"contract":"contracts/metaTx_Appian/YexleMetaTx.sol:YexleMetaTx","label":"L2statusForRequester","offset":0,"slot":"28","type":"t_mapping(t_address,t_mapping(t_uint256,t_bool))"},{"astId":3787,"contract":"contracts/metaTx_Appian/YexleMetaTx.sol:YexleMetaTx","label":"L2statusForL1Approver","offset":0,"slot":"29","type":"t_mapping(t_address,t_mapping(t_uint256,t_bool))"},{"astId":3791,"contract":"contracts/metaTx_Appian/YexleMetaTx.sol:YexleMetaTx","label":"L1approverDecision","offset":0,"slot":"30","type":"t_mapping(t_uint256,t_bool)"},{"astId":3795,"contract":"contracts/metaTx_Appian/YexleMetaTx.sol:YexleMetaTx","label":"L2approverDecision","offset":0,"slot":"31","type":"t_mapping(t_uint256,t_bool)"}],"types":{"t_address":{"encoding":"inplace","label":"address","numberOfBytes":"20"},"t_bool":{"encoding":"inplace","label":"bool","numberOfBytes":"1"},"t_mapping(t_address,t_bool)":{"encoding":"mapping","key":"t_address","label":"mapping(address => bool)","numberOfBytes":"32","value":"t_bool"},"t_mapping(t_address,t_mapping(t_address,t_bool))":{"encoding":"mapping","key":"t_address","label":"mapping(address => mapping(address => bool))","numberOfBytes":"32","value":"t_mapping(t_address,t_bool)"},"t_mapping(t_address,t_mapping(t_uint256,t_bool))":{"encoding":"mapping","key":"t_address","label":"mapping(address => mapping(uint256 => bool))","numberOfBytes":"32","value":"t_mapping(t_uint256,t_bool)"},"t_mapping(t_address,t_uint256)":{"encoding":"mapping","key":"t_address","label":"mapping(address => uint256)","numberOfBytes":"32","value":"t_uint256"},"t_mapping(t_uint256,t_address)":{"encoding":"mapping","key":"t_uint256","label":"mapping(uint256 => address)","numberOfBytes":"32","value":"t_address"},"t_mapping(t_uint256,t_bool)":{"encoding":"mapping","key":"t_uint256","label":"mapping(uint256 => bool)","numberOfBytes":"32","value":"t_bool"},"t_mapping(t_uint256,t_mapping(t_address,t_bool))":{"encoding":"mapping","key":"t_uint256","label":"mapping(uint256 => mapping(address => bool))","numberOfBytes":"32","value":"t_mapping(t_address,t_bool)"},"t_mapping(t_uint256,t_string_storage)":{"encoding":"mapping","key":"t_uint256","label":"mapping(uint256 => string)","numberOfBytes":"32","value":"t_string_storage"},"t_mapping(t_uint256,t_uint256)":{"encoding":"mapping","key":"t_uint256","label":"mapping(uint256 => uint256)","numberOfBytes":"32","value":"t_uint256"},"t_string_storage":{"encoding":"bytes","label":"string","numberOfBytes":"32"},"t_uint256":{"encoding":"inplace","label":"uint256","numberOfBytes":"32"}}}}}}