{"contracts/YexleAppian.sol":{"YexleAppian":{"abi":[{"inputs":[{"internalType":"string","name":"_metadata","type":"string"}],"stateMutability":"nonpayable","type":"constructor"},{"inputs":[],"name":"L1Rejected","type":"error"},{"inputs":[],"name":"NotAnAdmin","type":"error"},{"inputs":[],"name":"NotOwnerOfID","type":"error"},{"inputs":[],"name":"URIQueryForNonexistentToken","type":"error"},{"inputs":[],"name":"alreadyApproved","type":"error"},{"inputs":[],"name":"approverAlreadyExist","type":"error"},{"inputs":[],"name":"notApproverAddress","type":"error"},{"inputs":[],"name":"notL1Approver","type":"error"},{"inputs":[],"name":"notL2Approver","type":"error"},{"inputs":[],"name":"ownerRejectedTheOffer","type":"error"},{"inputs":[],"name":"userContractError","type":"error"},{"inputs":[],"name":"zeroAddressNotSupported","type":"error"},{"anonymous":false,"inputs":[{"indexed":true,"internalType":"address","name":"Viewer","type":"address"},{"indexed":true,"internalType":"uint256","name":"Token","type":"uint256"}],"name":"AccessGrantedToView","type":"event"},{"anonymous":false,"inputs":[{"indexed":true,"internalType":"address","name":"owner","type":"address"},{"indexed":true,"internalType":"address","name":"approved","type":"address"},{"indexed":true,"internalType":"uint256","name":"tokenId","type":"uint256"}],"name":"Approval","type":"event"},{"anonymous":false,"inputs":[{"indexed":true,"internalType":"address","name":"owner","type":"address"},{"indexed":true,"internalType":"address","name":"operator","type":"address"},{"indexed":false,"internalType":"bool","name":"approved","type":"bool"}],"name":"ApprovalForAll","type":"event"},{"anonymous":false,"inputs":[{"indexed":false,"internalType":"address","name":"to","type":"address"}],"name":"OwnershipGranted","type":"event"},{"anonymous":false,"inputs":[{"indexed":true,"internalType":"address","name":"from","type":"address"},{"indexed":true,"internalType":"address","name":"to","type":"address"},{"indexed":true,"internalType":"uint256","name":"tokenId","type":"uint256"}],"name":"OwnershipTransferOfLand","type":"event"},{"anonymous":false,"inputs":[{"indexed":true,"internalType":"address","name":"previousOwner","type":"address"},{"indexed":true,"internalType":"address","name":"newOwner","type":"address"}],"name":"OwnershipTransferred","type":"event"},{"anonymous":false,"inputs":[{"indexed":true,"internalType":"address","name":"from","type":"address"},{"indexed":true,"internalType":"address","name":"to","type":"address"},{"indexed":true,"internalType":"uint256","name":"tokenId","type":"uint256"}],"name":"Transfer","type":"event"},{"inputs":[],"name":"IID_IERC721","outputs":[{"internalType":"bytes4","name":"","type":"bytes4"}],"stateMutability":"view","type":"function"},{"inputs":[{"internalType":"address","name":"_requester","type":"address"},{"internalType":"uint256","name":"_tokenId","type":"uint256"}],"name":"L2ApproverStatusForL1Approver","outputs":[{"internalType":"bool","name":"","type":"bool"}],"stateMutability":"view","type":"function"},{"inputs":[{"internalType":"address","name":"_requester","type":"address"},{"internalType":"uint256","name":"_tokenId","type":"uint256"}],"name":"LandRequesterStatus","outputs":[{"internalType":"bool","name":"ViewDocumentStatus","type":"bool"},{"internalType":"bool","name":"L1ApproverStatusForRequester","type":"bool"},{"internalType":"bool","name":"L2ApproverstatusForRequester","type":"bool"},{"internalType":"uint256","name":"approveCountForTokenIdByApprovers","type":"uint256"}],"stateMutability":"view","type":"function"},{"inputs":[{"internalType":"address","name":"to","type":"address"},{"internalType":"uint256","name":"tokenId","type":"uint256"}],"name":"approve","outputs":[],"stateMutability":"nonpayable","type":"function"},{"inputs":[{"components":[{"internalType":"address","name":"_sellingTo","type":"address"},{"internalType":"uint256","name":"_tokenId","type":"uint256"},{"internalType":"bool","name":"status","type":"bool"}],"internalType":"struct YexleAppian.approverData","name":"_data","type":"tuple"}],"name":"approveAndTransferLand1","outputs":[],"stateMutability":"nonpayable","type":"function"},{"inputs":[{"components":[{"internalType":"address","name":"_sellingTo","type":"address"},{"internalType":"uint256","name":"_tokenId","type":"uint256"},{"internalType":"bool","name":"status","type":"bool"}],"internalType":"struct YexleAppian.approverData","name":"_data","type":"tuple"}],"name":"approveByL1","outputs":[],"stateMutability":"nonpayable","type":"function"},{"inputs":[{"components":[{"internalType":"address","name":"_previousOwner","type":"address"},{"internalType":"address","name":"_sellingTo","type":"address"},{"internalType":"uint256","name":"_tokenId","type":"uint256"},{"internalType":"bool","name":"status","type":"bool"}],"internalType":"struct YexleAppian.approverDataForL2","name":"_data","type":"tuple"}],"name":"approveByL2","outputs":[],"stateMutability":"nonpayable","type":"function"},{"inputs":[{"internalType":"address","name":"owner","type":"address"}],"name":"balanceOf","outputs":[{"internalType":"uint256","name":"","type":"uint256"}],"stateMutability":"view","type":"function"},{"inputs":[{"internalType":"uint256","name":"tokenId","type":"uint256"}],"name":"burn","outputs":[],"stateMutability":"nonpayable","type":"function"},{"inputs":[],"name":"contractURI","outputs":[{"internalType":"string","name":"","type":"string"}],"stateMutability":"view","type":"function"},{"inputs":[{"internalType":"uint256","name":"tokenId","type":"uint256"}],"name":"getApproved","outputs":[{"internalType":"address","name":"","type":"address"}],"stateMutability":"view","type":"function"},{"inputs":[{"internalType":"address","name":"owner","type":"address"},{"internalType":"address","name":"operator","type":"address"}],"name":"isApprovedForAll","outputs":[{"internalType":"bool","name":"","type":"bool"}],"stateMutability":"view","type":"function"},{"inputs":[{"internalType":"address","name":"_requester","type":"address"},{"internalType":"uint256","name":"tokenId","type":"uint256"},{"internalType":"bool","name":"_status","type":"bool"}],"name":"landDocumentViewRequestApprove","outputs":[],"stateMutability":"nonpayable","type":"function"},{"inputs":[],"name":"metadataUri","outputs":[{"internalType":"string","name":"","type":"string"}],"stateMutability":"view","type":"function"},{"inputs":[{"internalType":"address","name":"_to","type":"address"},{"internalType":"uint256","name":"_tokenId","type":"uint256"},{"internalType":"string","name":"_tokenUri","type":"string"}],"name":"mint","outputs":[],"stateMutability":"nonpayable","type":"function"},{"inputs":[],"name":"name","outputs":[{"internalType":"string","name":"","type":"string"}],"stateMutability":"view","type":"function"},{"inputs":[],"name":"owner","outputs":[{"internalType":"address","name":"","type":"address"}],"stateMutability":"view","type":"function"},{"inputs":[{"internalType":"address","name":"_requester","type":"address"},{"internalType":"uint256","name":"_tokenId","type":"uint256"},{"internalType":"bool","name":"_status","type":"bool"}],"name":"ownerDecisionforRaisedRequest","outputs":[],"stateMutability":"nonpayable","type":"function"},{"inputs":[{"internalType":"uint256","name":"tokenId","type":"uint256"}],"name":"ownerOf","outputs":[{"internalType":"address","name":"","type":"address"}],"stateMutability":"view","type":"function"},{"inputs":[{"internalType":"uint256","name":"tokenId","type":"uint256"},{"internalType":"string","name":"_DocumentUri","type":"string"}],"name":"registrationForLandByBuyer","outputs":[],"stateMutability":"nonpayable","type":"function"},{"inputs":[],"name":"renounceOwnership","outputs":[],"stateMutability":"nonpayable","type":"function"},{"inputs":[{"internalType":"uint256","name":"_tokenId","type":"uint256"}],"name":"requestLandForSale","outputs":[],"stateMutability":"nonpayable","type":"function"},{"inputs":[{"internalType":"address","name":"from","type":"address"},{"internalType":"address","name":"to","type":"address"},{"internalType":"uint256","name":"tokenId","type":"uint256"}],"name":"safeTransferFrom","outputs":[],"stateMutability":"nonpayable","type":"function"},{"inputs":[{"internalType":"address","name":"from","type":"address"},{"internalType":"address","name":"to","type":"address"},{"internalType":"uint256","name":"tokenId","type":"uint256"},{"internalType":"bytes","name":"data","type":"bytes"}],"name":"safeTransferFrom","outputs":[],"stateMutability":"nonpayable","type":"function"},{"inputs":[{"internalType":"address","name":"operator","type":"address"},{"internalType":"bool","name":"approved","type":"bool"}],"name":"setApprovalForAll","outputs":[],"stateMutability":"nonpayable","type":"function"},{"inputs":[{"internalType":"string","name":"_contractURI","type":"string"}],"name":"setContractURI","outputs":[{"internalType":"bool","name":"","type":"bool"}],"stateMutability":"nonpayable","type":"function"},{"inputs":[{"internalType":"uint256","name":"_id","type":"uint256"},{"internalType":"string","name":"_tokenUri","type":"string"}],"name":"setTokenURI","outputs":[],"stateMutability":"nonpayable","type":"function"},{"inputs":[{"internalType":"bytes4","name":"interfaceId","type":"bytes4"}],"name":"supportsInterface","outputs":[{"internalType":"bool","name":"","type":"bool"}],"stateMutability":"view","type":"function"},{"inputs":[],"name":"symbol","outputs":[{"internalType":"string","name":"","type":"string"}],"stateMutability":"view","type":"function"},{"inputs":[{"internalType":"uint256","name":"tokenId","type":"uint256"}],"name":"tokenURI","outputs":[{"internalType":"string","name":"","type":"string"}],"stateMutability":"view","type":"function"},{"inputs":[{"internalType":"address","name":"from","type":"address"},{"internalType":"address","name":"to","type":"address"},{"internalType":"uint256","name":"tokenId","type":"uint256"}],"name":"transferFrom","outputs":[],"stateMutability":"nonpayable","type":"function"},{"inputs":[{"internalType":"address","name":"newOwner","type":"address"}],"name":"transferOwnership","outputs":[],"stateMutability":"nonpayable","type":"function"},{"inputs":[{"internalType":"address","name":"_docViewRequester","type":"address"},{"internalType":"uint256","name":"_tokenId","type":"uint256"}],"name":"viewDocumentByOwnerOrLevelApprovers","outputs":[{"internalType":"string","name":"DocumentUri","type":"string"}],"stateMutability":"view","type":"function"},{"inputs":[{"internalType":"address","name":"_requester","type":"address"},{"internalType":"uint256","name":"_tokenId","type":"uint256"}],"name":"viewDocumentByRequesters","outputs":[{"internalType":"string","name":"DocumentURI","type":"string"}],"stateMutability":"view","type":"function"},{"inputs":[{"internalType":"address","name":"_approverAd","type":"address"}],"name":"whitelistApproverL1","outputs":[],"stateMutability":"nonpayable","type":"function"},{"inputs":[{"internalType":"address","name":"_approverAd","type":"address"}],"name":"whitelistApproverL2","outputs":[],"stateMutability":"nonpayable","type":"function"},{"inputs":[{"internalType":"address","name":"_userContractAd","type":"address"}],"name":"whitelistUserContract","outputs":[],"stateMutability":"nonpayable","type":"function"}],"evm":{"bytecode":{"linkReferences":{},"object":"60806040523480156200001157600080fd5b50604051620034b6380380620034b6833981016040819052620000349162000223565b604080518082018252600d81526c2cb2bc32b6329020b83834b0b760991b60208083019182528351808501909452600b84526a16595e195b1957d3185b9960aa1b9084015281519192916200008c9160009162000167565b508051620000a290600190602084019062000167565b505050620000bf620000b96200011160201b60201c565b62000115565b8051620000d490600b90602084019062000167565b506000600c556040805160808101909152604380825262003473602083013980516200010991600a9160209091019062000167565b50506200033c565b3390565b600680546001600160a01b038381166001600160a01b0319831681179093556040519116919082907f8be0079c531659141344cd1fd0a4f28419497f9722a3daafe3b4186f6b6457e090600090a35050565b8280546200017590620002ff565b90600052602060002090601f016020900481019282620001995760008555620001e4565b82601f10620001b457805160ff1916838001178555620001e4565b82800160010185558215620001e4579182015b82811115620001e4578251825591602001919060010190620001c7565b50620001f2929150620001f6565b5090565b5b80821115620001f25760008155600101620001f7565b634e487b7160e01b600052604160045260246000fd5b600060208083850312156200023757600080fd5b82516001600160401b03808211156200024f57600080fd5b818501915085601f8301126200026457600080fd5b8151818111156200027957620002796200020d565b604051601f8201601f19908116603f01168101908382118183101715620002a457620002a46200020d565b816040528281528886848701011115620002bd57600080fd5b600093505b82841015620002e15784840186015181850187015292850192620002c2565b82841115620002f35760008684830101525b98975050505050505050565b600181811c908216806200031457607f821691505b602082108114156200033657634e487b7160e01b600052602260045260246000fd5b50919050565b613127806200034c6000396000f3fe608060405234801561001057600080fd5b50600436106102275760003560e01c806370a0823111610130578063b88d4fde116100b8578063e0966dad1161007c578063e0966dad14610557578063e8a3d4851461057e578063e985e9c514610586578063f2fde38b146105c2578063fb39cf52146105d557600080fd5b8063b88d4fde146104f8578063c84c2a801461050b578063c87b56dd1461051e578063caf3be1d14610531578063d3fc98641461054457600080fd5b80638da5cb5b116100ff5780638da5cb5b146104a6578063938e3d7b146104b757806395d89b41146104ca578063a22cb465146104d2578063a3821b59146104e557600080fd5b806370a0823114610462578063715018a61461048357806377a4d5591461048b57806387c93d061461049357600080fd5b80631c6bab43116101b357806342842e0e1161018257806342842e0e1461040357806342966c68146104165780635b0b6ead146104295780636352211e1461043c57806363b5648e1461044f57600080fd5b80631c6bab431461032e5780631d9a673014610341578063229d1a351461035457806323b872dd146103f057600080fd5b8063095ea7b3116101fa578063095ea7b3146102a957806315fe58f2146102bc578063162094c4146102cf5780631bd036b1146102e25780631be7fd6f146102f557600080fd5b80630139ac1e1461022c57806301ffc9a71461024157806306fdde0314610269578063081812fc1461027e575b600080fd5b61023f61023a3660046128e4565b6105e8565b005b61025461024f366004612915565b6106ce565b60405190151581526020015b60405180910390f35b6102716106f9565b604051610260919061298a565b61029161028c36600461299d565b61078b565b6040516001600160a01b039091168152602001610260565b61023f6102b73660046129b6565b6107b2565b61023f6102ca3660046128e4565b6108cd565b61023f6102dd366004612a8c565b6109b3565b61023f6102f0366004612ae1565b610a7f565b6102546103033660046129b6565b6001600160a01b03919091166000908152601c60209081526040808320938352929052205460ff1690565b61023f61033c366004612b59565b610dbc565b61023f61034f366004612b99565b610fba565b6103c86103623660046129b6565b6001600160a01b03919091166000818152601a6020908152604080832085845282528083205484845260198352818420868552835281842054948452601b83528184209584529482528083205460119092529091205460ff938416949284169390911691565b6040805194151585529215156020850152901515918301919091526060820152608001610260565b61023f6103fe366004612c00565b6111bd565b61023f610411366004612c00565b6111ef565b61023f61042436600461299d565b61120a565b61023f610437366004612b59565b61123b565b61029161044a36600461299d565b61139a565b61027161045d3660046129b6565b6113fa565b6104756104703660046128e4565b611563565b604051908152602001610260565b61023f6115e9565b6102716115fd565b61023f6104a136600461299d565b61168b565b6006546001600160a01b0316610291565b6102546104c5366004612c3c565b6117b6565b610271611837565b61023f6104e0366004612c71565b611846565b6102716104f33660046129b6565b611855565b61023f610506366004612ca8565b611925565b61023f610519366004612b99565b61195d565b61027161052c36600461299d565b611abb565b61023f61053f366004612a8c565b611b4c565b61023f610552366004612d24565b611c46565b6105656380ac58cd60e01b81565b6040516001600160e01b03199091168152602001610260565b610271611e4f565b610254610594366004612d7b565b6001600160a01b03918216600090815260056020908152604080832093909416825291909152205460ff1690565b61023f6105d03660046128e4565b611e5e565b61023f6105e33660046128e4565b611ed4565b6006546001600160a01b031633148015906106135750336000908152600d602052604090205460ff16155b15610631576040516355098f2760e01b815260040160405180910390fd5b6001600160a01b03811661065857604051639b15b39560e01b815260040160405180910390fd5b6001600160a01b03811660009081526010602052604090205460ff1615156001141561069757604051636ad412ed60e11b815260040160405180910390fd5b6001600160a01b03166000818152601060205260409020805460ff19166001179055600980546001600160a01b0319169091179055565b60006001600160e01b031982166380ac58cd60e01b14806106f357506106f382611f66565b92915050565b60606000805461070890612dae565b80601f016020809104026020016040519081016040528092919081815260200182805461073490612dae565b80156107815780601f1061075657610100808354040283529160200191610781565b820191906000526020600020905b81548152906001019060200180831161076457829003601f168201915b5050505050905090565b600061079682611fb6565b506000908152600460205260409020546001600160a01b031690565b60006107bd8261139a565b9050806001600160a01b0316836001600160a01b031614156108305760405162461bcd60e51b815260206004820152602160248201527f4552433732313a20617070726f76616c20746f2063757272656e74206f776e656044820152603960f91b60648201526084015b60405180910390fd5b336001600160a01b038216148061084c575061084c8133610594565b6108be5760405162461bcd60e51b815260206004820152603e60248201527f4552433732313a20617070726f76652063616c6c6572206973206e6f7420746f60448201527f6b656e206f776e6572206e6f7220617070726f76656420666f7220616c6c00006064820152608401610827565b6108c88383612015565b505050565b6006546001600160a01b031633148015906108f85750336000908152600d602052604090205460ff16155b15610916576040516355098f2760e01b815260040160405180910390fd5b6001600160a01b03811661093d57604051639b15b39560e01b815260040160405180910390fd5b6001600160a01b03811660009081526010602052604090205460ff1615156001141561097c57604051636ad412ed60e11b815260040160405180910390fd5b6001600160a01b03166000818152601060205260409020805460ff19166001179055600880546001600160a01b0319169091179055565b6000828152600f60205260409020546001600160a01b03163314610a115760405162461bcd60e51b81526020600482015260156024820152743cb7ba9030b932903737ba103a34329037bbb732b960591b6044820152606401610827565b600b8054610a1e90612dae565b15159050610a3b5760405180602001604052806000815250610a5c565b80604051602001610a4c9190612de9565b6040516020818303038152906040525b6000838152600e6020908152604090912082516108c89391929190910190612834565b600754602082015160405163026c098960e51b81526001600160a01b0391821660048201529116906000908290634d8131209060240160206040518083038186803b158015610acd57600080fd5b505afa158015610ae1573d6000803e3d6000fd5b505050506040513d601f19601f82011682018060405250810190610b059190612e05565b905080610b2557604051637caba7d760e11b815260040160405180910390fd5b6009546001600160a01b03163314610b505760405163201a5f4f60e11b815260040160405180910390fd5b6040808401516000908152601d602052205460ff16610b8257604051635aee63a760e11b815260040160405180910390fd5b33600090815260126020908152604080832086820151845290915290205460ff1615610bc157604051630313d54d60e21b815260040160405180910390fd5b6060830151151560011415610c9a57606083018051604080860180516000908152601e6020908152838220805495151560ff199687161790558551818a0180516001600160a01b039081168552601b845286852086518652845286852080549315159389169390931790925596519651168252601c815283822083518352815283822080549615159686169690961790955533815260128552828120825182528552828120805490941660019081179094559051815260119093528220805491929091610c8f908490612e38565b90915550610d059050565b606083018051602080860180516001600160a01b039081166000908152601b84526040808220818b0180518452908652818320805497151560ff19988916179055965193519092168152601c8452818120955181529490925292208054921515929091169190911790555b6040808401516000908152601160205220546002148015610d3757506040808401516000908152601e602052205460ff165b156108c857610d538360000151846020015185604001516111bd565b60208381018051604080870180516000908152600f90955281852080546001600160a01b0319166001600160a01b039485161790555192519051929391169133917f986385bea8660b8382c6329a38cc817bc39229f8428d8d6fb4952624a99b75f691a4505050565b60075460405163026c098960e51b81526001600160a01b038581166004830152909116906000908290634d8131209060240160206040518083038186803b158015610e0657600080fd5b505afa158015610e1a573d6000803e3d6000fd5b505050506040513d601f19601f82011682018060405250810190610e3e9190612e05565b905080610e5e57604051637caba7d760e11b815260040160405180910390fd5b6000848152600f60205260409020546001600160a01b03163314610ec45760405162461bcd60e51b815260206004820152601c60248201527f796f7520617265206e6f7420746865206f776e6572206f66206e6674000000006044820152606401610827565b6001600160a01b0385166000908152601a6020908152604080832087845290915290205460ff168015610f19575060008481526014602090815260408083206001600160a01b038916845290915290205460ff165b8015610f225750825b15610f6b576001600160a01b0385166000908152601560209081526040808320805487151560ff1991821617909155878452601690925290912080549091166001179055610fb3565b60405162461bcd60e51b815260206004820152601860248201527f4f776e65722072656a656374656420746865206f6666657200000000000000006044820152606401610827565b5050505050565b600754815160405163026c098960e51b81526001600160a01b0391821660048201529116906000908290634d8131209060240160206040518083038186803b15801561100557600080fd5b505afa158015611019573d6000803e3d6000fd5b505050506040513d601f19601f8201168201806040525081019061103d9190612e05565b90508061105d57604051637caba7d760e11b815260040160405180910390fd5b6008546001600160a01b031633146110885760405163513bcbe960e01b815260040160405180910390fd5b33600090815260126020908152604080832086830151845290915290205460ff16156110c757604051630313d54d60e21b815260040160405180910390fd5b60208084015160009081526018909152604090205460ff1680156110f15750604083015115156001145b1561118b57604080840151602080860180516000908152601d8352848120805494151560ff199586161790553381526012835284812082518252835284812080548516600190811790915588516001600160a01b031682526019845285822083518352845285822080549095168117909455905181526011909152918220805491929091611180908490612e38565b909155506108c89050565b505080516001600160a01b0316600090815260196020908152604080832093820151835292905220805460ff19169055565b6111c8335b82612083565b6111e45760405162461bcd60e51b815260040161082790612e50565b6108c8838383612102565b6108c883838360405180602001604052806000815250611925565b611213336111c2565b61122f5760405162461bcd60e51b815260040161082790612e50565b6112388161229e565b50565b60075460405163026c098960e51b81526001600160a01b038581166004830152909116906000908290634d8131209060240160206040518083038186803b15801561128557600080fd5b505afa158015611299573d6000803e3d6000fd5b505050506040513d601f19601f820116820180604052508101906112bd9190612e05565b9050806112dd57604051637caba7d760e11b815260040160405180910390fd5b6008546001600160a01b031633146113085760405163513bcbe960e01b815260040160405180910390fd5b8215611369576001600160a01b0385166000818152601a60209081526040808320888452909152808220805460ff19166001179055518692917f3527b92ff88e799233f8c213553a30ea2c9bee572b9252b8e8811968f35000ea91a3610fb3565b5050506001600160a01b03919091166000908152601a6020908152604080832093835292905220805460ff19169055565b6000818152600260205260408120546001600160a01b0316806106f35760405162461bcd60e51b8152602060048201526018602482015277115490cdcc8c4e881a5b9d985b1a59081d1bdad95b88125160421b6044820152606401610827565b6000818152600260205260409020546060906001600160a01b031661143257604051630a14c4b560e41b815260040160405180910390fd5b6001600160a01b0383166000908152601a6020908152604080832085845290915290205460ff168015611474575060008281526016602052604090205460ff16155b156114ea576000828152600260205260409020546001600160a01b03166114ae57604051630a14c4b560e41b815260040160405180910390fd5b600b600e60008481526020019081526020016000206040516020016114d4929190612f38565b60405160208183030381529060405290506106f3565b60405162461bcd60e51b815260206004820152604260248201527f56696577206163636573732069732064656e696564206279204c31417070726f60448201527f766572206f7220546865206c616e64206973206c697374656420666f722073616064820152616c6560f01b608482015260a401610827565b60006001600160a01b0382166115cd5760405162461bcd60e51b815260206004820152602960248201527f4552433732313a2061646472657373207a65726f206973206e6f7420612076616044820152683634b21037bbb732b960b91b6064820152608401610827565b506001600160a01b031660009081526003602052604090205490565b6115f1612339565b6115fb6000612393565b565b600b805461160a90612dae565b80601f016020809104026020016040519081016040528092919081815260200182805461163690612dae565b80156116835780601f1061165857610100808354040283529160200191611683565b820191906000526020600020905b81548152906001019060200180831161166657829003601f168201915b505050505081565b60075460405163026c098960e51b81523360048201526001600160a01b03909116906000908290634d8131209060240160206040518083038186803b1580156116d357600080fd5b505afa1580156116e7573d6000803e3d6000fd5b505050506040513d601f19601f8201168201806040525081019061170b9190612e05565b90508061172b57604051637caba7d760e11b815260040160405180910390fd5b336000908152601a6020908152604080832086845290915290205460ff16156117775760008381526014602090815260408083203384529091529020805460ff19166001179055505050565b60405162461bcd60e51b8152602060048201526014602482015273596f7520646f6e7420686176652061636365737360601b6044820152606401610827565b60006117ca6006546001600160a01b031690565b6001600160a01b0316336001600160a01b0316141580156117fb5750336000908152600d602052604090205460ff16155b15611819576040516355098f2760e01b815260040160405180910390fd5b815161182c90600a906020850190612834565b50600190505b919050565b60606001805461070890612dae565b6118513383836123e5565b5050565b6000818152600260205260409020546060906001600160a01b031661188d57604051630a14c4b560e41b815260040160405180910390fd5b6000828152600f60205260409020546001600160a01b03848116911614806118c257506008546001600160a01b038481169116145b806118da57506009546001600160a01b038481169116145b1561190557600b600e60008481526020019081526020016000206040516020016114d4929190612f38565b6040518060800160405280604381526020016130af6043913990506106f3565b61192f3383612083565b61194b5760405162461bcd60e51b815260040161082790612e50565b611957848484846124b4565b50505050565b3360009081526010602052604090205460ff1661198d57604051631710613f60e21b815260040160405180910390fd5b33600090815260126020908152604080832084830151845290915290205460ff16156119cc57604051630313d54d60e21b815260040160405180910390fd5b6040810151151560011415611a4a57604080820151602080840180516000908152601383528481203382528352848120805494151560ff199586161790556012835284812082518252835284812080549094166001908117909455905181526011909152918220805491929091611a44908490612e38565b90915550505b6020808201516000908152601190915260409020546002141561123857611a7a33826000015183602001516111bd565b602081015181516040516001600160a01b039091169033907f986385bea8660b8382c6329a38cc817bc39229f8428d8d6fb4952624a99b75f690600090a450565b6060611ac682611fb6565b6000611afa60408051808201909152601581527468747470733a2f2f697066732e696f2f697066732f60581b602082015290565b90506000815111611b1a5760405180602001604052806000815250611b45565b80611b24846124e7565b604051602001611b35929190612f4d565b6040516020818303038152906040525b9392505050565b3360009081526015602052604090205460ff161515600114611bb05760405162461bcd60e51b815260206004820152601c60248201527f726567697374726174696f6e206973206e6f7420706f737369626c65000000006044820152606401610827565b60008281526016602052604090205460ff161515600114611c0a5760405162461bcd60e51b815260206004820152601460248201527373616c65207374617475732069732066616c736560601b6044820152606401610827565b60008281526017602090815260409091208251611c2992840190612834565b50506000908152601860205260409020805460ff19166001179055565b60075460405163026c098960e51b81526001600160a01b038581166004830152909116906000908290634d8131209060240160206040518083038186803b158015611c9057600080fd5b505afa158015611ca4573d6000803e3d6000fd5b505050506040513d601f19601f82011682018060405250810190611cc89190612e05565b905080611ce857604051637caba7d760e11b815260040160405180910390fd5b6008546001600160a01b0316331415611de957600b8054611d0890612dae565b15159050611d255760405180602001604052806000815250611d46565b82604051602001611d369190612de9565b6040516020818303038152906040525b6000858152600e602090815260409091208251611d699391929190910190612834565b50611d7485856125e5565b6000848152600f6020526040902080546001600160a01b0319166001600160a01b038716179055600c54611da9906001612e38565b600c5560405184906001600160a01b0387169033907f986385bea8660b8382c6329a38cc817bc39229f8428d8d6fb4952624a99b75f690600090a4610fb3565b60405162461bcd60e51b815260206004820152603560248201527f436f6e6e6563746564206164647265737320646f6573206e6f742068617665206044820152741858d8d95cdcc81d1bc818dc99585d19481b185b99605a1b6064820152608401610827565b6060600a805461070890612dae565b611e66612339565b6001600160a01b038116611ecb5760405162461bcd60e51b815260206004820152602660248201527f4f776e61626c653a206e6577206f776e657220697320746865207a65726f206160448201526564647265737360d01b6064820152608401610827565b61123881612393565b6006546001600160a01b03163314801590611eff5750336000908152600d602052604090205460ff16155b15611f1d576040516355098f2760e01b815260040160405180910390fd5b6001600160a01b038116611f4457604051639b15b39560e01b815260040160405180910390fd5b600780546001600160a01b0319166001600160a01b0392909216919091179055565b60006001600160e01b031982166380ac58cd60e01b1480611f9757506001600160e01b03198216635b5e139f60e01b145b806106f357506301ffc9a760e01b6001600160e01b03198316146106f3565b6000818152600260205260409020546001600160a01b03166112385760405162461bcd60e51b8152602060048201526018602482015277115490cdcc8c4e881a5b9d985b1a59081d1bdad95b88125160421b6044820152606401610827565b600081815260046020526040902080546001600160a01b0319166001600160a01b038416908117909155819061204a8261139a565b6001600160a01b03167f8c5be1e5ebec7d5bd14f71427d1e84f3dd0314c0f7b2291e5b200ac8c7c3b92560405160405180910390a45050565b60008061208f8361139a565b9050806001600160a01b0316846001600160a01b031614806120d657506001600160a01b0380821660009081526005602090815260408083209388168352929052205460ff165b806120fa5750836001600160a01b03166120ef8461078b565b6001600160a01b0316145b949350505050565b826001600160a01b03166121158261139a565b6001600160a01b0316146121795760405162461bcd60e51b815260206004820152602560248201527f4552433732313a207472616e736665722066726f6d20696e636f72726563742060448201526437bbb732b960d91b6064820152608401610827565b6001600160a01b0382166121db5760405162461bcd60e51b8152602060048201526024808201527f4552433732313a207472616e7366657220746f20746865207a65726f206164646044820152637265737360e01b6064820152608401610827565b6121e6600082612015565b6001600160a01b038316600090815260036020526040812080546001929061220f908490612f7c565b90915550506001600160a01b038216600090815260036020526040812080546001929061223d908490612e38565b909155505060008181526002602052604080822080546001600160a01b0319166001600160a01b0386811691821790925591518493918716917fddf252ad1be2c89b69c2b068fc378daa952ba7f163c4a11628f55a4df523b3ef91a4505050565b60006122a98261139a565b90506122b6600083612015565b6001600160a01b03811660009081526003602052604081208054600192906122df908490612f7c565b909155505060008281526002602052604080822080546001600160a01b0319169055518391906001600160a01b038416907fddf252ad1be2c89b69c2b068fc378daa952ba7f163c4a11628f55a4df523b3ef908390a45050565b6006546001600160a01b031633146115fb5760405162461bcd60e51b815260206004820181905260248201527f4f776e61626c653a2063616c6c6572206973206e6f7420746865206f776e65726044820152606401610827565b600680546001600160a01b038381166001600160a01b0319831681179093556040519116919082907f8be0079c531659141344cd1fd0a4f28419497f9722a3daafe3b4186f6b6457e090600090a35050565b816001600160a01b0316836001600160a01b031614156124475760405162461bcd60e51b815260206004820152601960248201527f4552433732313a20617070726f766520746f2063616c6c6572000000000000006044820152606401610827565b6001600160a01b03838116600081815260056020908152604080832094871680845294825291829020805460ff191686151590811790915591519182527f17307eab39ab6107e8899845ad3d59bd9653f200f220920489ca2b5937696c31910160405180910390a3505050565b6124bf848484612102565b6124cb84848484612727565b6119575760405162461bcd60e51b815260040161082790612f93565b60608161250b5750506040805180820190915260018152600360fc1b602082015290565b8160005b8115612535578061251f81612fe5565b915061252e9050600a83613016565b915061250f565b60008167ffffffffffffffff811115612550576125506129e0565b6040519080825280601f01601f19166020018201604052801561257a576020820181803683370190505b5090505b84156120fa5761258f600183612f7c565b915061259c600a8661302a565b6125a7906030612e38565b60f81b8183815181106125bc576125bc61303e565b60200101906001600160f81b031916908160001a9053506125de600a86613016565b945061257e565b6001600160a01b03821661263b5760405162461bcd60e51b815260206004820181905260248201527f4552433732313a206d696e7420746f20746865207a65726f20616464726573736044820152606401610827565b6000818152600260205260409020546001600160a01b0316156126a05760405162461bcd60e51b815260206004820152601c60248201527f4552433732313a20746f6b656e20616c7265616479206d696e746564000000006044820152606401610827565b6001600160a01b03821660009081526003602052604081208054600192906126c9908490612e38565b909155505060008181526002602052604080822080546001600160a01b0319166001600160a01b03861690811790915590518392907fddf252ad1be2c89b69c2b068fc378daa952ba7f163c4a11628f55a4df523b3ef908290a45050565b60006001600160a01b0384163b1561282957604051630a85bd0160e11b81526001600160a01b0385169063150b7a029061276b903390899088908890600401613054565b602060405180830381600087803b15801561278557600080fd5b505af19250505080156127b5575060408051601f3d908101601f191682019092526127b291810190613091565b60015b61280f573d8080156127e3576040519150601f19603f3d011682016040523d82523d6000602084013e6127e8565b606091505b5080516128075760405162461bcd60e51b815260040161082790612f93565b805181602001fd5b6001600160e01b031916630a85bd0160e11b1490506120fa565b506001949350505050565b82805461284090612dae565b90600052602060002090601f01602090048101928261286257600085556128a8565b82601f1061287b57805160ff19168380011785556128a8565b828001600101855582156128a8579182015b828111156128a857825182559160200191906001019061288d565b506128b49291506128b8565b5090565b5b808211156128b457600081556001016128b9565b80356001600160a01b038116811461183257600080fd5b6000602082840312156128f657600080fd5b611b45826128cd565b6001600160e01b03198116811461123857600080fd5b60006020828403121561292757600080fd5b8135611b45816128ff565b60005b8381101561294d578181015183820152602001612935565b838111156119575750506000910152565b60008151808452612976816020860160208601612932565b601f01601f19169290920160200192915050565b602081526000611b45602083018461295e565b6000602082840312156129af57600080fd5b5035919050565b600080604083850312156129c957600080fd5b6129d2836128cd565b946020939093013593505050565b634e487b7160e01b600052604160045260246000fd5b600067ffffffffffffffff80841115612a1157612a116129e0565b604051601f8501601f19908116603f01168101908282118183101715612a3957612a396129e0565b81604052809350858152868686011115612a5257600080fd5b858560208301376000602087830101525050509392505050565b600082601f830112612a7d57600080fd5b611b45838335602085016129f6565b60008060408385031215612a9f57600080fd5b82359150602083013567ffffffffffffffff811115612abd57600080fd5b612ac985828601612a6c565b9150509250929050565b801515811461123857600080fd5b600060808284031215612af357600080fd5b6040516080810181811067ffffffffffffffff82111715612b1657612b166129e0565b604052612b22836128cd565b8152612b30602084016128cd565b6020820152604083013560408201526060830135612b4d81612ad3565b60608201529392505050565b600080600060608486031215612b6e57600080fd5b612b77846128cd565b9250602084013591506040840135612b8e81612ad3565b809150509250925092565b600060608284031215612bab57600080fd5b6040516060810181811067ffffffffffffffff82111715612bce57612bce6129e0565b604052612bda836128cd565b8152602083013560208201526040830135612bf481612ad3565b60408201529392505050565b600080600060608486031215612c1557600080fd5b612c1e846128cd565b9250612c2c602085016128cd565b9150604084013590509250925092565b600060208284031215612c4e57600080fd5b813567ffffffffffffffff811115612c6557600080fd5b6120fa84828501612a6c565b60008060408385031215612c8457600080fd5b612c8d836128cd565b91506020830135612c9d81612ad3565b809150509250929050565b60008060008060808587031215612cbe57600080fd5b612cc7856128cd565b9350612cd5602086016128cd565b925060408501359150606085013567ffffffffffffffff811115612cf857600080fd5b8501601f81018713612d0957600080fd5b612d18878235602084016129f6565b91505092959194509250565b600080600060608486031215612d3957600080fd5b612d42846128cd565b925060208401359150604084013567ffffffffffffffff811115612d6557600080fd5b612d7186828701612a6c565b9150509250925092565b60008060408385031215612d8e57600080fd5b612d97836128cd565b9150612da5602084016128cd565b90509250929050565b600181811c90821680612dc257607f821691505b60208210811415612de357634e487b7160e01b600052602260045260246000fd5b50919050565b60008251612dfb818460208701612932565b9190910192915050565b600060208284031215612e1757600080fd5b8151611b4581612ad3565b634e487b7160e01b600052601160045260246000fd5b60008219821115612e4b57612e4b612e22565b500190565b6020808252602e908201527f4552433732313a2063616c6c6572206973206e6f7420746f6b656e206f776e6560408201526d1c881b9bdc88185c1c1c9bdd995960921b606082015260800190565b8054600090600181811c9080831680612eb857607f831692505b6020808410821415612eda57634e487b7160e01b600052602260045260246000fd5b818015612eee5760018114612eff57612f2c565b60ff19861689528489019650612f2c565b60008881526020902060005b86811015612f245781548b820152908501908301612f0b565b505084890196505b50505050505092915050565b60006120fa612f478386612e9e565b84612e9e565b60008351612f5f818460208801612932565b835190830190612f73818360208801612932565b01949350505050565b600082821015612f8e57612f8e612e22565b500390565b60208082526032908201527f4552433732313a207472616e7366657220746f206e6f6e20455243373231526560408201527131b2b4bb32b91034b6b83632b6b2b73a32b960711b606082015260800190565b6000600019821415612ff957612ff9612e22565b5060010190565b634e487b7160e01b600052601260045260246000fd5b60008261302557613025613000565b500490565b60008261303957613039613000565b500690565b634e487b7160e01b600052603260045260246000fd5b6001600160a01b03858116825284166020820152604081018390526080606082018190526000906130879083018461295e565b9695505050505050565b6000602082840312156130a357600080fd5b8151611b45816128ff56fe61646472657373206973206e6f74206f776e6572206f6620746865206c616e64206e6674206f72207669657720726967687473206973206e6f742070726f7669646564a2646970667358221220d9de2ffe3509f85e28b07e4b565bc514e754d8ea40c4652da67ae1de97d113a364736f6c6343000809003368747470733a2f2f697066732e696f2f697066732f516d53663339697a5a3269534865587053574b736644457a716b45664874683666384c7558645731436367653342","opcodes":"PUSH1 0x80 PUSH1 0x40 MSTORE CALLVALUE DUP1 ISZERO PUSH3 0x11 JUMPI PUSH1 0x0 DUP1 REVERT JUMPDEST POP PUSH1 0x40 MLOAD PUSH3 0x34B6 CODESIZE SUB DUP1 PUSH3 0x34B6 DUP4 CODECOPY DUP2 ADD PUSH1 0x40 DUP2 SWAP1 MSTORE PUSH3 0x34 SWAP2 PUSH3 0x223 JUMP JUMPDEST PUSH1 0x40 DUP1 MLOAD DUP1 DUP3 ADD DUP3 MSTORE PUSH1 0xD DUP2 MSTORE PUSH13 0x2CB2BC32B6329020B83834B0B7 PUSH1 0x99 SHL PUSH1 0x20 DUP1 DUP4 ADD SWAP2 DUP3 MSTORE DUP4 MLOAD DUP1 DUP6 ADD SWAP1 SWAP5 MSTORE PUSH1 0xB DUP5 MSTORE PUSH11 0x16595E195B1957D3185B99 PUSH1 0xAA SHL SWAP1 DUP5 ADD MSTORE DUP2 MLOAD SWAP2 SWAP3 SWAP2 PUSH3 0x8C SWAP2 PUSH1 0x0 SWAP2 PUSH3 0x167 JUMP JUMPDEST POP DUP1 MLOAD PUSH3 0xA2 SWAP1 PUSH1 0x1 SWAP1 PUSH1 0x20 DUP5 ADD SWAP1 PUSH3 0x167 JUMP JUMPDEST POP POP POP PUSH3 0xBF PUSH3 0xB9 PUSH3 0x111 PUSH1 0x20 SHL PUSH1 0x20 SHR JUMP JUMPDEST PUSH3 0x115 JUMP JUMPDEST DUP1 MLOAD PUSH3 0xD4 SWAP1 PUSH1 0xB SWAP1 PUSH1 0x20 DUP5 ADD SWAP1 PUSH3 0x167 JUMP JUMPDEST POP PUSH1 0x0 PUSH1 0xC SSTORE PUSH1 0x40 DUP1 MLOAD PUSH1 0x80 DUP2 ADD SWAP1 SWAP2 MSTORE PUSH1 0x43 DUP1 DUP3 MSTORE PUSH3 0x3473 PUSH1 0x20 DUP4 ADD CODECOPY DUP1 MLOAD PUSH3 0x109 SWAP2 PUSH1 0xA SWAP2 PUSH1 0x20 SWAP1 SWAP2 ADD SWAP1 PUSH3 0x167 JUMP JUMPDEST POP POP PUSH3 0x33C JUMP JUMPDEST CALLER SWAP1 JUMP JUMPDEST PUSH1 0x6 DUP1 SLOAD PUSH1 0x1 PUSH1 0x1 PUSH1 0xA0 SHL SUB DUP4 DUP2 AND PUSH1 0x1 PUSH1 0x1 PUSH1 0xA0 SHL SUB NOT DUP4 AND DUP2 OR SWAP1 SWAP4 SSTORE PUSH1 0x40 MLOAD SWAP2 AND SWAP2 SWAP1 DUP3 SWAP1 PUSH32 0x8BE0079C531659141344CD1FD0A4F28419497F9722A3DAAFE3B4186F6B6457E0 SWAP1 PUSH1 0x0 SWAP1 LOG3 POP POP JUMP JUMPDEST DUP3 DUP1 SLOAD PUSH3 0x175 SWAP1 PUSH3 0x2FF JUMP JUMPDEST SWAP1 PUSH1 0x0 MSTORE PUSH1 0x20 PUSH1 0x0 KECCAK256 SWAP1 PUSH1 0x1F ADD PUSH1 0x20 SWAP1 DIV DUP2 ADD SWAP3 DUP3 PUSH3 0x199 JUMPI PUSH1 0x0 DUP6 SSTORE PUSH3 0x1E4 JUMP JUMPDEST DUP3 PUSH1 0x1F LT PUSH3 0x1B4 JUMPI DUP1 MLOAD PUSH1 0xFF NOT AND DUP4 DUP1 ADD OR DUP6 SSTORE PUSH3 0x1E4 JUMP JUMPDEST DUP3 DUP1 ADD PUSH1 0x1 ADD DUP6 SSTORE DUP3 ISZERO PUSH3 0x1E4 JUMPI SWAP2 DUP3 ADD JUMPDEST DUP3 DUP2 GT ISZERO PUSH3 0x1E4 JUMPI DUP3 MLOAD DUP3 SSTORE SWAP2 PUSH1 0x20 ADD SWAP2 SWAP1 PUSH1 0x1 ADD SWAP1 PUSH3 0x1C7 JUMP JUMPDEST POP PUSH3 0x1F2 SWAP3 SWAP2 POP PUSH3 0x1F6 JUMP JUMPDEST POP SWAP1 JUMP JUMPDEST JUMPDEST DUP1 DUP3 GT ISZERO PUSH3 0x1F2 JUMPI PUSH1 0x0 DUP2 SSTORE PUSH1 0x1 ADD PUSH3 0x1F7 JUMP JUMPDEST PUSH4 0x4E487B71 PUSH1 0xE0 SHL PUSH1 0x0 MSTORE PUSH1 0x41 PUSH1 0x4 MSTORE PUSH1 0x24 PUSH1 0x0 REVERT JUMPDEST PUSH1 0x0 PUSH1 0x20 DUP1 DUP4 DUP6 SUB SLT ISZERO PUSH3 0x237 JUMPI PUSH1 0x0 DUP1 REVERT JUMPDEST DUP3 MLOAD PUSH1 0x1 PUSH1 0x1 PUSH1 0x40 SHL SUB DUP1 DUP3 GT ISZERO PUSH3 0x24F JUMPI PUSH1 0x0 DUP1 REVERT JUMPDEST DUP2 DUP6 ADD SWAP2 POP DUP6 PUSH1 0x1F DUP4 ADD SLT PUSH3 0x264 JUMPI PUSH1 0x0 DUP1 REVERT JUMPDEST DUP2 MLOAD DUP2 DUP2 GT ISZERO PUSH3 0x279 JUMPI PUSH3 0x279 PUSH3 0x20D JUMP JUMPDEST PUSH1 0x40 MLOAD PUSH1 0x1F DUP3 ADD PUSH1 0x1F NOT SWAP1 DUP2 AND PUSH1 0x3F ADD AND DUP2 ADD SWAP1 DUP4 DUP3 GT DUP2 DUP4 LT OR ISZERO PUSH3 0x2A4 JUMPI PUSH3 0x2A4 PUSH3 0x20D JUMP JUMPDEST DUP2 PUSH1 0x40 MSTORE DUP3 DUP2 MSTORE DUP9 DUP7 DUP5 DUP8 ADD ADD GT ISZERO PUSH3 0x2BD JUMPI PUSH1 0x0 DUP1 REVERT JUMPDEST PUSH1 0x0 SWAP4 POP JUMPDEST DUP3 DUP5 LT ISZERO PUSH3 0x2E1 JUMPI DUP5 DUP5 ADD DUP7 ADD MLOAD DUP2 DUP6 ADD DUP8 ADD MSTORE SWAP3 DUP6 ADD SWAP3 PUSH3 0x2C2 JUMP JUMPDEST DUP3 DUP5 GT ISZERO PUSH3 0x2F3 JUMPI PUSH1 0x0 DUP7 DUP5 DUP4 ADD ADD MSTORE JUMPDEST SWAP9 SWAP8 POP POP POP POP POP POP POP POP JUMP JUMPDEST PUSH1 0x1 DUP2 DUP2 SHR SWAP1 DUP3 AND DUP1 PUSH3 0x314 JUMPI PUSH1 0x7F DUP3 AND SWAP2 POP JUMPDEST PUSH1 0x20 DUP3 LT DUP2 EQ ISZERO PUSH3 0x336 JUMPI PUSH4 0x4E487B71 PUSH1 0xE0 SHL PUSH1 0x0 MSTORE PUSH1 0x22 PUSH1 0x4 MSTORE PUSH1 0x24 PUSH1 0x0 REVERT JUMPDEST POP SWAP2 SWAP1 POP JUMP JUMPDEST PUSH2 0x3127 DUP1 PUSH3 0x34C PUSH1 0x0 CODECOPY PUSH1 0x0 RETURN INVALID PUSH1 0x80 PUSH1 0x40 MSTORE CALLVALUE DUP1 ISZERO PUSH2 0x10 JUMPI PUSH1 0x0 DUP1 REVERT JUMPDEST POP PUSH1 0x4 CALLDATASIZE LT PUSH2 0x227 JUMPI PUSH1 0x0 CALLDATALOAD PUSH1 0xE0 SHR DUP1 PUSH4 0x70A08231 GT PUSH2 0x130 JUMPI DUP1 PUSH4 0xB88D4FDE GT PUSH2 0xB8 JUMPI DUP1 PUSH4 0xE0966DAD GT PUSH2 0x7C JUMPI DUP1 PUSH4 0xE0966DAD EQ PUSH2 0x557 JUMPI DUP1 PUSH4 0xE8A3D485 EQ PUSH2 0x57E JUMPI DUP1 PUSH4 0xE985E9C5 EQ PUSH2 0x586 JUMPI DUP1 PUSH4 0xF2FDE38B EQ PUSH2 0x5C2 JUMPI DUP1 PUSH4 0xFB39CF52 EQ PUSH2 0x5D5 JUMPI PUSH1 0x0 DUP1 REVERT JUMPDEST DUP1 PUSH4 0xB88D4FDE EQ PUSH2 0x4F8 JUMPI DUP1 PUSH4 0xC84C2A80 EQ PUSH2 0x50B JUMPI DUP1 PUSH4 0xC87B56DD EQ PUSH2 0x51E JUMPI DUP1 PUSH4 0xCAF3BE1D EQ PUSH2 0x531 JUMPI DUP1 PUSH4 0xD3FC9864 EQ PUSH2 0x544 JUMPI PUSH1 0x0 DUP1 REVERT JUMPDEST DUP1 PUSH4 0x8DA5CB5B GT PUSH2 0xFF JUMPI DUP1 PUSH4 0x8DA5CB5B EQ PUSH2 0x4A6 JUMPI DUP1 PUSH4 0x938E3D7B EQ PUSH2 0x4B7 JUMPI DUP1 PUSH4 0x95D89B41 EQ PUSH2 0x4CA JUMPI DUP1 PUSH4 0xA22CB465 EQ PUSH2 0x4D2 JUMPI DUP1 PUSH4 0xA3821B59 EQ PUSH2 0x4E5 JUMPI PUSH1 0x0 DUP1 REVERT JUMPDEST DUP1 PUSH4 0x70A08231 EQ PUSH2 0x462 JUMPI DUP1 PUSH4 0x715018A6 EQ PUSH2 0x483 JUMPI DUP1 PUSH4 0x77A4D559 EQ PUSH2 0x48B JUMPI DUP1 PUSH4 0x87C93D06 EQ PUSH2 0x493 JUMPI PUSH1 0x0 DUP1 REVERT JUMPDEST DUP1 PUSH4 0x1C6BAB43 GT PUSH2 0x1B3 JUMPI DUP1 PUSH4 0x42842E0E GT PUSH2 0x182 JUMPI DUP1 PUSH4 0x42842E0E EQ PUSH2 0x403 JUMPI DUP1 PUSH4 0x42966C68 EQ PUSH2 0x416 JUMPI DUP1 PUSH4 0x5B0B6EAD EQ PUSH2 0x429 JUMPI DUP1 PUSH4 0x6352211E EQ PUSH2 0x43C JUMPI DUP1 PUSH4 0x63B5648E EQ PUSH2 0x44F JUMPI PUSH1 0x0 DUP1 REVERT JUMPDEST DUP1 PUSH4 0x1C6BAB43 EQ PUSH2 0x32E JUMPI DUP1 PUSH4 0x1D9A6730 EQ PUSH2 0x341 JUMPI DUP1 PUSH4 0x229D1A35 EQ PUSH2 0x354 JUMPI DUP1 PUSH4 0x23B872DD EQ PUSH2 0x3F0 JUMPI PUSH1 0x0 DUP1 REVERT JUMPDEST DUP1 PUSH4 0x95EA7B3 GT PUSH2 0x1FA JUMPI DUP1 PUSH4 0x95EA7B3 EQ PUSH2 0x2A9 JUMPI DUP1 PUSH4 0x15FE58F2 EQ PUSH2 0x2BC JUMPI DUP1 PUSH4 0x162094C4 EQ PUSH2 0x2CF JUMPI DUP1 PUSH4 0x1BD036B1 EQ PUSH2 0x2E2 JUMPI DUP1 PUSH4 0x1BE7FD6F EQ PUSH2 0x2F5 JUMPI PUSH1 0x0 DUP1 REVERT JUMPDEST DUP1 PUSH4 0x139AC1E EQ PUSH2 0x22C JUMPI DUP1 PUSH4 0x1FFC9A7 EQ PUSH2 0x241 JUMPI DUP1 PUSH4 0x6FDDE03 EQ PUSH2 0x269 JUMPI DUP1 PUSH4 0x81812FC EQ PUSH2 0x27E JUMPI JUMPDEST PUSH1 0x0 DUP1 REVERT JUMPDEST PUSH2 0x23F PUSH2 0x23A CALLDATASIZE PUSH1 0x4 PUSH2 0x28E4 JUMP JUMPDEST PUSH2 0x5E8 JUMP JUMPDEST STOP JUMPDEST PUSH2 0x254 PUSH2 0x24F CALLDATASIZE PUSH1 0x4 PUSH2 0x2915 JUMP JUMPDEST PUSH2 0x6CE JUMP JUMPDEST PUSH1 0x40 MLOAD SWAP1 ISZERO ISZERO DUP2 MSTORE PUSH1 0x20 ADD JUMPDEST PUSH1 0x40 MLOAD DUP1 SWAP2 SUB SWAP1 RETURN JUMPDEST PUSH2 0x271 PUSH2 0x6F9 JUMP JUMPDEST PUSH1 0x40 MLOAD PUSH2 0x260 SWAP2 SWAP1 PUSH2 0x298A JUMP JUMPDEST PUSH2 0x291 PUSH2 0x28C CALLDATASIZE PUSH1 0x4 PUSH2 0x299D JUMP JUMPDEST PUSH2 0x78B JUMP JUMPDEST PUSH1 0x40 MLOAD PUSH1 0x1 PUSH1 0x1 PUSH1 0xA0 SHL SUB SWAP1 SWAP2 AND DUP2 MSTORE PUSH1 0x20 ADD PUSH2 0x260 JUMP JUMPDEST PUSH2 0x23F PUSH2 0x2B7 CALLDATASIZE PUSH1 0x4 PUSH2 0x29B6 JUMP JUMPDEST PUSH2 0x7B2 JUMP JUMPDEST PUSH2 0x23F PUSH2 0x2CA CALLDATASIZE PUSH1 0x4 PUSH2 0x28E4 JUMP JUMPDEST PUSH2 0x8CD JUMP JUMPDEST PUSH2 0x23F PUSH2 0x2DD CALLDATASIZE PUSH1 0x4 PUSH2 0x2A8C JUMP JUMPDEST PUSH2 0x9B3 JUMP JUMPDEST PUSH2 0x23F PUSH2 0x2F0 CALLDATASIZE PUSH1 0x4 PUSH2 0x2AE1 JUMP JUMPDEST PUSH2 0xA7F JUMP JUMPDEST PUSH2 0x254 PUSH2 0x303 CALLDATASIZE PUSH1 0x4 PUSH2 0x29B6 JUMP JUMPDEST PUSH1 0x1 PUSH1 0x1 PUSH1 0xA0 SHL SUB SWAP2 SWAP1 SWAP2 AND PUSH1 0x0 SWAP1 DUP2 MSTORE PUSH1 0x1C PUSH1 0x20 SWAP1 DUP2 MSTORE PUSH1 0x40 DUP1 DUP4 KECCAK256 SWAP4 DUP4 MSTORE SWAP3 SWAP1 MSTORE KECCAK256 SLOAD PUSH1 0xFF AND SWAP1 JUMP JUMPDEST PUSH2 0x23F PUSH2 0x33C CALLDATASIZE PUSH1 0x4 PUSH2 0x2B59 JUMP JUMPDEST PUSH2 0xDBC JUMP JUMPDEST PUSH2 0x23F PUSH2 0x34F CALLDATASIZE PUSH1 0x4 PUSH2 0x2B99 JUMP JUMPDEST PUSH2 0xFBA JUMP JUMPDEST PUSH2 0x3C8 PUSH2 0x362 CALLDATASIZE PUSH1 0x4 PUSH2 0x29B6 JUMP JUMPDEST PUSH1 0x1 PUSH1 0x1 PUSH1 0xA0 SHL SUB SWAP2 SWAP1 SWAP2 AND PUSH1 0x0 DUP2 DUP2 MSTORE PUSH1 0x1A PUSH1 0x20 SWAP1 DUP2 MSTORE PUSH1 0x40 DUP1 DUP4 KECCAK256 DUP6 DUP5 MSTORE DUP3 MSTORE DUP1 DUP4 KECCAK256 SLOAD DUP5 DUP5 MSTORE PUSH1 0x19 DUP4 MSTORE DUP2 DUP5 KECCAK256 DUP7 DUP6 MSTORE DUP4 MSTORE DUP2 DUP5 KECCAK256 SLOAD SWAP5 DUP5 MSTORE PUSH1 0x1B DUP4 MSTORE DUP2 DUP5 KECCAK256 SWAP6 DUP5 MSTORE SWAP5 DUP3 MSTORE DUP1 DUP4 KECCAK256 SLOAD PUSH1 0x11 SWAP1 SWAP3 MSTORE SWAP1 SWAP2 KECCAK256 SLOAD PUSH1 0xFF SWAP4 DUP5 AND SWAP5 SWAP3 DUP5 AND SWAP4 SWAP1 SWAP2 AND SWAP2 JUMP JUMPDEST PUSH1 0x40 DUP1 MLOAD SWAP5 ISZERO ISZERO DUP6 MSTORE SWAP3 ISZERO ISZERO PUSH1 0x20 DUP6 ADD MSTORE SWAP1 ISZERO ISZERO SWAP2 DUP4 ADD SWAP2 SWAP1 SWAP2 MSTORE PUSH1 0x60 DUP3 ADD MSTORE PUSH1 0x80 ADD PUSH2 0x260 JUMP JUMPDEST PUSH2 0x23F PUSH2 0x3FE CALLDATASIZE PUSH1 0x4 PUSH2 0x2C00 JUMP JUMPDEST PUSH2 0x11BD JUMP JUMPDEST PUSH2 0x23F PUSH2 0x411 CALLDATASIZE PUSH1 0x4 PUSH2 0x2C00 JUMP JUMPDEST PUSH2 0x11EF JUMP JUMPDEST PUSH2 0x23F PUSH2 0x424 CALLDATASIZE PUSH1 0x4 PUSH2 0x299D JUMP JUMPDEST PUSH2 0x120A JUMP JUMPDEST PUSH2 0x23F PUSH2 0x437 CALLDATASIZE PUSH1 0x4 PUSH2 0x2B59 JUMP JUMPDEST PUSH2 0x123B JUMP JUMPDEST PUSH2 0x291 PUSH2 0x44A CALLDATASIZE PUSH1 0x4 PUSH2 0x299D JUMP JUMPDEST PUSH2 0x139A JUMP JUMPDEST PUSH2 0x271 PUSH2 0x45D CALLDATASIZE PUSH1 0x4 PUSH2 0x29B6 JUMP JUMPDEST PUSH2 0x13FA JUMP JUMPDEST PUSH2 0x475 PUSH2 0x470 CALLDATASIZE PUSH1 0x4 PUSH2 0x28E4 JUMP JUMPDEST PUSH2 0x1563 JUMP JUMPDEST PUSH1 0x40 MLOAD SWAP1 DUP2 MSTORE PUSH1 0x20 ADD PUSH2 0x260 JUMP JUMPDEST PUSH2 0x23F PUSH2 0x15E9 JUMP JUMPDEST PUSH2 0x271 PUSH2 0x15FD JUMP JUMPDEST PUSH2 0x23F PUSH2 0x4A1 CALLDATASIZE PUSH1 0x4 PUSH2 0x299D JUMP JUMPDEST PUSH2 0x168B JUMP JUMPDEST PUSH1 0x6 SLOAD PUSH1 0x1 PUSH1 0x1 PUSH1 0xA0 SHL SUB AND PUSH2 0x291 JUMP JUMPDEST PUSH2 0x254 PUSH2 0x4C5 CALLDATASIZE PUSH1 0x4 PUSH2 0x2C3C JUMP JUMPDEST PUSH2 0x17B6 JUMP JUMPDEST PUSH2 0x271 PUSH2 0x1837 JUMP JUMPDEST PUSH2 0x23F PUSH2 0x4E0 CALLDATASIZE PUSH1 0x4 PUSH2 0x2C71 JUMP JUMPDEST PUSH2 0x1846 JUMP JUMPDEST PUSH2 0x271 PUSH2 0x4F3 CALLDATASIZE PUSH1 0x4 PUSH2 0x29B6 JUMP JUMPDEST PUSH2 0x1855 JUMP JUMPDEST PUSH2 0x23F PUSH2 0x506 CALLDATASIZE PUSH1 0x4 PUSH2 0x2CA8 JUMP JUMPDEST PUSH2 0x1925 JUMP JUMPDEST PUSH2 0x23F PUSH2 0x519 CALLDATASIZE PUSH1 0x4 PUSH2 0x2B99 JUMP JUMPDEST PUSH2 0x195D JUMP JUMPDEST PUSH2 0x271 PUSH2 0x52C CALLDATASIZE PUSH1 0x4 PUSH2 0x299D JUMP JUMPDEST PUSH2 0x1ABB JUMP JUMPDEST PUSH2 0x23F PUSH2 0x53F CALLDATASIZE PUSH1 0x4 PUSH2 0x2A8C JUMP JUMPDEST PUSH2 0x1B4C JUMP JUMPDEST PUSH2 0x23F PUSH2 0x552 CALLDATASIZE PUSH1 0x4 PUSH2 0x2D24 JUMP JUMPDEST PUSH2 0x1C46 JUMP JUMPDEST PUSH2 0x565 PUSH4 0x80AC58CD PUSH1 0xE0 SHL DUP2 JUMP JUMPDEST PUSH1 0x40 MLOAD PUSH1 0x1 PUSH1 0x1 PUSH1 0xE0 SHL SUB NOT SWAP1 SWAP2 AND DUP2 MSTORE PUSH1 0x20 ADD PUSH2 0x260 JUMP JUMPDEST PUSH2 0x271 PUSH2 0x1E4F JUMP JUMPDEST PUSH2 0x254 PUSH2 0x594 CALLDATASIZE PUSH1 0x4 PUSH2 0x2D7B JUMP JUMPDEST PUSH1 0x1 PUSH1 0x1 PUSH1 0xA0 SHL SUB SWAP2 DUP3 AND PUSH1 0x0 SWAP1 DUP2 MSTORE PUSH1 0x5 PUSH1 0x20 SWAP1 DUP2 MSTORE PUSH1 0x40 DUP1 DUP4 KECCAK256 SWAP4 SWAP1 SWAP5 AND DUP3 MSTORE SWAP2 SWAP1 SWAP2 MSTORE KECCAK256 SLOAD PUSH1 0xFF AND SWAP1 JUMP JUMPDEST PUSH2 0x23F PUSH2 0x5D0 CALLDATASIZE PUSH1 0x4 PUSH2 0x28E4 JUMP JUMPDEST PUSH2 0x1E5E JUMP JUMPDEST PUSH2 0x23F PUSH2 0x5E3 CALLDATASIZE PUSH1 0x4 PUSH2 0x28E4 JUMP JUMPDEST PUSH2 0x1ED4 JUMP JUMPDEST PUSH1 0x6 SLOAD PUSH1 0x1 PUSH1 0x1 PUSH1 0xA0 SHL SUB AND CALLER EQ DUP1 ISZERO SWAP1 PUSH2 0x613 JUMPI POP CALLER PUSH1 0x0 SWAP1 DUP2 MSTORE PUSH1 0xD PUSH1 0x20 MSTORE PUSH1 0x40 SWAP1 KECCAK256 SLOAD PUSH1 0xFF AND ISZERO JUMPDEST ISZERO PUSH2 0x631 JUMPI PUSH1 0x40 MLOAD PUSH4 0x55098F27 PUSH1 0xE0 SHL DUP2 MSTORE PUSH1 0x4 ADD PUSH1 0x40 MLOAD DUP1 SWAP2 SUB SWAP1 REVERT JUMPDEST PUSH1 0x1 PUSH1 0x1 PUSH1 0xA0 SHL SUB DUP2 AND PUSH2 0x658 JUMPI PUSH1 0x40 MLOAD PUSH4 0x9B15B395 PUSH1 0xE0 SHL DUP2 MSTORE PUSH1 0x4 ADD PUSH1 0x40 MLOAD DUP1 SWAP2 SUB SWAP1 REVERT JUMPDEST PUSH1 0x1 PUSH1 0x1 PUSH1 0xA0 SHL SUB DUP2 AND PUSH1 0x0 SWAP1 DUP2 MSTORE PUSH1 0x10 PUSH1 0x20 MSTORE PUSH1 0x40 SWAP1 KECCAK256 SLOAD PUSH1 0xFF AND ISZERO ISZERO PUSH1 0x1 EQ ISZERO PUSH2 0x697 JUMPI PUSH1 0x40 MLOAD PUSH4 0x6AD412ED PUSH1 0xE1 SHL DUP2 MSTORE PUSH1 0x4 ADD PUSH1 0x40 MLOAD DUP1 SWAP2 SUB SWAP1 REVERT JUMPDEST PUSH1 0x1 PUSH1 0x1 PUSH1 0xA0 SHL SUB AND PUSH1 0x0 DUP2 DUP2 MSTORE PUSH1 0x10 PUSH1 0x20 MSTORE PUSH1 0x40 SWAP1 KECCAK256 DUP1 SLOAD PUSH1 0xFF NOT AND PUSH1 0x1 OR SWAP1 SSTORE PUSH1 0x9 DUP1 SLOAD PUSH1 0x1 PUSH1 0x1 PUSH1 0xA0 SHL SUB NOT AND SWAP1 SWAP2 OR SWAP1 SSTORE JUMP JUMPDEST PUSH1 0x0 PUSH1 0x1 PUSH1 0x1 PUSH1 0xE0 SHL SUB NOT DUP3 AND PUSH4 0x80AC58CD PUSH1 0xE0 SHL EQ DUP1 PUSH2 0x6F3 JUMPI POP PUSH2 0x6F3 DUP3 PUSH2 0x1F66 JUMP JUMPDEST SWAP3 SWAP2 POP POP JUMP JUMPDEST PUSH1 0x60 PUSH1 0x0 DUP1 SLOAD PUSH2 0x708 SWAP1 PUSH2 0x2DAE JUMP JUMPDEST DUP1 PUSH1 0x1F ADD PUSH1 0x20 DUP1 SWAP2 DIV MUL PUSH1 0x20 ADD PUSH1 0x40 MLOAD SWAP1 DUP2 ADD PUSH1 0x40 MSTORE DUP1 SWAP3 SWAP2 SWAP1 DUP2 DUP2 MSTORE PUSH1 0x20 ADD DUP3 DUP1 SLOAD PUSH2 0x734 SWAP1 PUSH2 0x2DAE JUMP JUMPDEST DUP1 ISZERO PUSH2 0x781 JUMPI DUP1 PUSH1 0x1F LT PUSH2 0x756 JUMPI PUSH2 0x100 DUP1 DUP4 SLOAD DIV MUL DUP4 MSTORE SWAP2 PUSH1 0x20 ADD SWAP2 PUSH2 0x781 JUMP JUMPDEST DUP3 ADD SWAP2 SWAP1 PUSH1 0x0 MSTORE PUSH1 0x20 PUSH1 0x0 KECCAK256 SWAP1 JUMPDEST DUP2 SLOAD DUP2 MSTORE SWAP1 PUSH1 0x1 ADD SWAP1 PUSH1 0x20 ADD DUP1 DUP4 GT PUSH2 0x764 JUMPI DUP3 SWAP1 SUB PUSH1 0x1F AND DUP3 ADD SWAP2 JUMPDEST POP POP POP POP POP SWAP1 POP SWAP1 JUMP JUMPDEST PUSH1 0x0 PUSH2 0x796 DUP3 PUSH2 0x1FB6 JUMP JUMPDEST POP PUSH1 0x0 SWAP1 DUP2 MSTORE PUSH1 0x4 PUSH1 0x20 MSTORE PUSH1 0x40 SWAP1 KECCAK256 SLOAD PUSH1 0x1 PUSH1 0x1 PUSH1 0xA0 SHL SUB AND SWAP1 JUMP JUMPDEST PUSH1 0x0 PUSH2 0x7BD DUP3 PUSH2 0x139A JUMP JUMPDEST SWAP1 POP DUP1 PUSH1 0x1 PUSH1 0x1 PUSH1 0xA0 SHL SUB AND DUP4 PUSH1 0x1 PUSH1 0x1 PUSH1 0xA0 SHL SUB AND EQ ISZERO PUSH2 0x830 JUMPI PUSH1 0x40 MLOAD PUSH3 0x461BCD PUSH1 0xE5 SHL DUP2 MSTORE PUSH1 0x20 PUSH1 0x4 DUP3 ADD MSTORE PUSH1 0x21 PUSH1 0x24 DUP3 ADD MSTORE PUSH32 0x4552433732313A20617070726F76616C20746F2063757272656E74206F776E65 PUSH1 0x44 DUP3 ADD MSTORE PUSH1 0x39 PUSH1 0xF9 SHL PUSH1 0x64 DUP3 ADD MSTORE PUSH1 0x84 ADD JUMPDEST PUSH1 0x40 MLOAD DUP1 SWAP2 SUB SWAP1 REVERT JUMPDEST CALLER PUSH1 0x1 PUSH1 0x1 PUSH1 0xA0 SHL SUB DUP3 AND EQ DUP1 PUSH2 0x84C JUMPI POP PUSH2 0x84C DUP2 CALLER PUSH2 0x594 JUMP JUMPDEST PUSH2 0x8BE JUMPI PUSH1 0x40 MLOAD PUSH3 0x461BCD PUSH1 0xE5 SHL DUP2 MSTORE PUSH1 0x20 PUSH1 0x4 DUP3 ADD MSTORE PUSH1 0x3E PUSH1 0x24 DUP3 ADD MSTORE PUSH32 0x4552433732313A20617070726F76652063616C6C6572206973206E6F7420746F PUSH1 0x44 DUP3 ADD MSTORE PUSH32 0x6B656E206F776E6572206E6F7220617070726F76656420666F7220616C6C0000 PUSH1 0x64 DUP3 ADD MSTORE PUSH1 0x84 ADD PUSH2 0x827 JUMP JUMPDEST PUSH2 0x8C8 DUP4 DUP4 PUSH2 0x2015 JUMP JUMPDEST POP POP POP JUMP JUMPDEST PUSH1 0x6 SLOAD PUSH1 0x1 PUSH1 0x1 PUSH1 0xA0 SHL SUB AND CALLER EQ DUP1 ISZERO SWAP1 PUSH2 0x8F8 JUMPI POP CALLER PUSH1 0x0 SWAP1 DUP2 MSTORE PUSH1 0xD PUSH1 0x20 MSTORE PUSH1 0x40 SWAP1 KECCAK256 SLOAD PUSH1 0xFF AND ISZERO JUMPDEST ISZERO PUSH2 0x916 JUMPI PUSH1 0x40 MLOAD PUSH4 0x55098F27 PUSH1 0xE0 SHL DUP2 MSTORE PUSH1 0x4 ADD PUSH1 0x40 MLOAD DUP1 SWAP2 SUB SWAP1 REVERT JUMPDEST PUSH1 0x1 PUSH1 0x1 PUSH1 0xA0 SHL SUB DUP2 AND PUSH2 0x93D JUMPI PUSH1 0x40 MLOAD PUSH4 0x9B15B395 PUSH1 0xE0 SHL DUP2 MSTORE PUSH1 0x4 ADD PUSH1 0x40 MLOAD DUP1 SWAP2 SUB SWAP1 REVERT JUMPDEST PUSH1 0x1 PUSH1 0x1 PUSH1 0xA0 SHL SUB DUP2 AND PUSH1 0x0 SWAP1 DUP2 MSTORE PUSH1 0x10 PUSH1 0x20 MSTORE PUSH1 0x40 SWAP1 KECCAK256 SLOAD PUSH1 0xFF AND ISZERO ISZERO PUSH1 0x1 EQ ISZERO PUSH2 0x97C JUMPI PUSH1 0x40 MLOAD PUSH4 0x6AD412ED PUSH1 0xE1 SHL DUP2 MSTORE PUSH1 0x4 ADD PUSH1 0x40 MLOAD DUP1 SWAP2 SUB SWAP1 REVERT JUMPDEST PUSH1 0x1 PUSH1 0x1 PUSH1 0xA0 SHL SUB AND PUSH1 0x0 DUP2 DUP2 MSTORE PUSH1 0x10 PUSH1 0x20 MSTORE PUSH1 0x40 SWAP1 KECCAK256 DUP1 SLOAD PUSH1 0xFF NOT AND PUSH1 0x1 OR SWAP1 SSTORE PUSH1 0x8 DUP1 SLOAD PUSH1 0x1 PUSH1 0x1 PUSH1 0xA0 SHL SUB NOT AND SWAP1 SWAP2 OR SWAP1 SSTORE JUMP JUMPDEST PUSH1 0x0 DUP3 DUP2 MSTORE PUSH1 0xF PUSH1 0x20 MSTORE PUSH1 0x40 SWAP1 KECCAK256 SLOAD PUSH1 0x1 PUSH1 0x1 PUSH1 0xA0 SHL SUB AND CALLER EQ PUSH2 0xA11 JUMPI PUSH1 0x40 MLOAD PUSH3 0x461BCD PUSH1 0xE5 SHL DUP2 MSTORE PUSH1 0x20 PUSH1 0x4 DUP3 ADD MSTORE PUSH1 0x15 PUSH1 0x24 DUP3 ADD MSTORE PUSH21 0x3CB7BA9030B932903737BA103A34329037BBB732B9 PUSH1 0x59 SHL PUSH1 0x44 DUP3 ADD MSTORE PUSH1 0x64 ADD PUSH2 0x827 JUMP JUMPDEST PUSH1 0xB DUP1 SLOAD PUSH2 0xA1E SWAP1 PUSH2 0x2DAE JUMP JUMPDEST ISZERO ISZERO SWAP1 POP PUSH2 0xA3B JUMPI PUSH1 0x40 MLOAD DUP1 PUSH1 0x20 ADD PUSH1 0x40 MSTORE DUP1 PUSH1 0x0 DUP2 MSTORE POP PUSH2 0xA5C JUMP JUMPDEST DUP1 PUSH1 0x40 MLOAD PUSH1 0x20 ADD PUSH2 0xA4C SWAP2 SWAP1 PUSH2 0x2DE9 JUMP JUMPDEST PUSH1 0x40 MLOAD PUSH1 0x20 DUP2 DUP4 SUB SUB DUP2 MSTORE SWAP1 PUSH1 0x40 MSTORE JUMPDEST PUSH1 0x0 DUP4 DUP2 MSTORE PUSH1 0xE PUSH1 0x20 SWAP1 DUP2 MSTORE PUSH1 0x40 SWAP1 SWAP2 KECCAK256 DUP3 MLOAD PUSH2 0x8C8 SWAP4 SWAP2 SWAP3 SWAP2 SWAP1 SWAP2 ADD SWAP1 PUSH2 0x2834 JUMP JUMPDEST PUSH1 0x7 SLOAD PUSH1 0x20 DUP3 ADD MLOAD PUSH1 0x40 MLOAD PUSH4 0x26C0989 PUSH1 0xE5 SHL DUP2 MSTORE PUSH1 0x1 PUSH1 0x1 PUSH1 0xA0 SHL SUB SWAP2 DUP3 AND PUSH1 0x4 DUP3 ADD MSTORE SWAP2 AND SWAP1 PUSH1 0x0 SWAP1 DUP3 SWAP1 PUSH4 0x4D813120 SWAP1 PUSH1 0x24 ADD PUSH1 0x20 PUSH1 0x40 MLOAD DUP1 DUP4 SUB DUP2 DUP7 DUP1 EXTCODESIZE ISZERO DUP1 ISZERO PUSH2 0xACD JUMPI PUSH1 0x0 DUP1 REVERT JUMPDEST POP GAS STATICCALL ISZERO DUP1 ISZERO PUSH2 0xAE1 JUMPI RETURNDATASIZE PUSH1 0x0 DUP1 RETURNDATACOPY RETURNDATASIZE PUSH1 0x0 REVERT JUMPDEST POP POP POP POP PUSH1 0x40 MLOAD RETURNDATASIZE PUSH1 0x1F NOT PUSH1 0x1F DUP3 ADD AND DUP3 ADD DUP1 PUSH1 0x40 MSTORE POP DUP2 ADD SWAP1 PUSH2 0xB05 SWAP2 SWAP1 PUSH2 0x2E05 JUMP JUMPDEST SWAP1 POP DUP1 PUSH2 0xB25 JUMPI PUSH1 0x40 MLOAD PUSH4 0x7CABA7D7 PUSH1 0xE1 SHL DUP2 MSTORE PUSH1 0x4 ADD PUSH1 0x40 MLOAD DUP1 SWAP2 SUB SWAP1 REVERT JUMPDEST PUSH1 0x9 SLOAD PUSH1 0x1 PUSH1 0x1 PUSH1 0xA0 SHL SUB AND CALLER EQ PUSH2 0xB50 JUMPI PUSH1 0x40 MLOAD PUSH4 0x201A5F4F PUSH1 0xE1 SHL DUP2 MSTORE PUSH1 0x4 ADD PUSH1 0x40 MLOAD DUP1 SWAP2 SUB SWAP1 REVERT JUMPDEST PUSH1 0x40 DUP1 DUP5 ADD MLOAD PUSH1 0x0 SWAP1 DUP2 MSTORE PUSH1 0x1D PUSH1 0x20 MSTORE KECCAK256 SLOAD PUSH1 0xFF AND PUSH2 0xB82 JUMPI PUSH1 0x40 MLOAD PUSH4 0x5AEE63A7 PUSH1 0xE1 SHL DUP2 MSTORE PUSH1 0x4 ADD PUSH1 0x40 MLOAD DUP1 SWAP2 SUB SWAP1 REVERT JUMPDEST CALLER PUSH1 0x0 SWAP1 DUP2 MSTORE PUSH1 0x12 PUSH1 0x20 SWAP1 DUP2 MSTORE PUSH1 0x40 DUP1 DUP4 KECCAK256 DUP7 DUP3 ADD MLOAD DUP5 MSTORE SWAP1 SWAP2 MSTORE SWAP1 KECCAK256 SLOAD PUSH1 0xFF AND ISZERO PUSH2 0xBC1 JUMPI PUSH1 0x40 MLOAD PUSH4 0x313D54D PUSH1 0xE2 SHL DUP2 MSTORE PUSH1 0x4 ADD PUSH1 0x40 MLOAD DUP1 SWAP2 SUB SWAP1 REVERT JUMPDEST PUSH1 0x60 DUP4 ADD MLOAD ISZERO ISZERO PUSH1 0x1 EQ ISZERO PUSH2 0xC9A JUMPI PUSH1 0x60 DUP4 ADD DUP1 MLOAD PUSH1 0x40 DUP1 DUP7 ADD DUP1 MLOAD PUSH1 0x0 SWAP1 DUP2 MSTORE PUSH1 0x1E PUSH1 0x20 SWAP1 DUP2 MSTORE DUP4 DUP3 KECCAK256 DUP1 SLOAD SWAP6 ISZERO ISZERO PUSH1 0xFF NOT SWAP7 DUP8 AND OR SWAP1 SSTORE DUP6 MLOAD DUP2 DUP11 ADD DUP1 MLOAD PUSH1 0x1 PUSH1 0x1 PUSH1 0xA0 SHL SUB SWAP1 DUP2 AND DUP6 MSTORE PUSH1 0x1B DUP5 MSTORE DUP7 DUP6 KECCAK256 DUP7 MLOAD DUP7 MSTORE DUP5 MSTORE DUP7 DUP6 KECCAK256 DUP1 SLOAD SWAP4 ISZERO ISZERO SWAP4 DUP10 AND SWAP4 SWAP1 SWAP4 OR SWAP1 SWAP3 SSTORE SWAP7 MLOAD SWAP7 MLOAD AND DUP3 MSTORE PUSH1 0x1C DUP2 MSTORE DUP4 DUP3 KECCAK256 DUP4 MLOAD DUP4 MSTORE DUP2 MSTORE DUP4 DUP3 KECCAK256 DUP1 SLOAD SWAP7 ISZERO ISZERO SWAP7 DUP7 AND SWAP7 SWAP1 SWAP7 OR SWAP1 SWAP6 SSTORE CALLER DUP2 MSTORE PUSH1 0x12 DUP6 MSTORE DUP3 DUP2 KECCAK256 DUP3 MLOAD DUP3 MSTORE DUP6 MSTORE DUP3 DUP2 KECCAK256 DUP1 SLOAD SWAP1 SWAP5 AND PUSH1 0x1 SWAP1 DUP2 OR SWAP1 SWAP5 SSTORE SWAP1 MLOAD DUP2 MSTORE PUSH1 0x11 SWAP1 SWAP4 MSTORE DUP3 KECCAK256 DUP1 SLOAD SWAP2 SWAP3 SWAP1 SWAP2 PUSH2 0xC8F SWAP1 DUP5 SWAP1 PUSH2 0x2E38 JUMP JUMPDEST SWAP1 SWAP2 SSTORE POP PUSH2 0xD05 SWAP1 POP JUMP JUMPDEST PUSH1 0x60 DUP4 ADD DUP1 MLOAD PUSH1 0x20 DUP1 DUP7 ADD DUP1 MLOAD PUSH1 0x1 PUSH1 0x1 PUSH1 0xA0 SHL SUB SWAP1 DUP2 AND PUSH1 0x0 SWAP1 DUP2 MSTORE PUSH1 0x1B DUP5 MSTORE PUSH1 0x40 DUP1 DUP3 KECCAK256 DUP2 DUP12 ADD DUP1 MLOAD DUP5 MSTORE SWAP1 DUP7 MSTORE DUP2 DUP4 KECCAK256 DUP1 SLOAD SWAP8 ISZERO ISZERO PUSH1 0xFF NOT SWAP9 DUP10 AND OR SWAP1 SSTORE SWAP7 MLOAD SWAP4 MLOAD SWAP1 SWAP3 AND DUP2 MSTORE PUSH1 0x1C DUP5 MSTORE DUP2 DUP2 KECCAK256 SWAP6 MLOAD DUP2 MSTORE SWAP5 SWAP1 SWAP3 MSTORE SWAP3 KECCAK256 DUP1 SLOAD SWAP3 ISZERO ISZERO SWAP3 SWAP1 SWAP2 AND SWAP2 SWAP1 SWAP2 OR SWAP1 SSTORE JUMPDEST PUSH1 0x40 DUP1 DUP5 ADD MLOAD PUSH1 0x0 SWAP1 DUP2 MSTORE PUSH1 0x11 PUSH1 0x20 MSTORE KECCAK256 SLOAD PUSH1 0x2 EQ DUP1 ISZERO PUSH2 0xD37 JUMPI POP PUSH1 0x40 DUP1 DUP5 ADD MLOAD PUSH1 0x0 SWAP1 DUP2 MSTORE PUSH1 0x1E PUSH1 0x20 MSTORE KECCAK256 SLOAD PUSH1 0xFF AND JUMPDEST ISZERO PUSH2 0x8C8 JUMPI PUSH2 0xD53 DUP4 PUSH1 0x0 ADD MLOAD DUP5 PUSH1 0x20 ADD MLOAD DUP6 PUSH1 0x40 ADD MLOAD PUSH2 0x11BD JUMP JUMPDEST PUSH1 0x20 DUP4 DUP2 ADD DUP1 MLOAD PUSH1 0x40 DUP1 DUP8 ADD DUP1 MLOAD PUSH1 0x0 SWAP1 DUP2 MSTORE PUSH1 0xF SWAP1 SWAP6 MSTORE DUP2 DUP6 KECCAK256 DUP1 SLOAD PUSH1 0x1 PUSH1 0x1 PUSH1 0xA0 SHL SUB NOT AND PUSH1 0x1 PUSH1 0x1 PUSH1 0xA0 SHL SUB SWAP5 DUP6 AND OR SWAP1 SSTORE MLOAD SWAP3 MLOAD SWAP1 MLOAD SWAP3 SWAP4 SWAP2 AND SWAP2 CALLER SWAP2 PUSH32 0x986385BEA8660B8382C6329A38CC817BC39229F8428D8D6FB4952624A99B75F6 SWAP2 LOG4 POP POP POP JUMP JUMPDEST PUSH1 0x7 SLOAD PUSH1 0x40 MLOAD PUSH4 0x26C0989 PUSH1 0xE5 SHL DUP2 MSTORE PUSH1 0x1 PUSH1 0x1 PUSH1 0xA0 SHL SUB DUP6 DUP2 AND PUSH1 0x4 DUP4 ADD MSTORE SWAP1 SWAP2 AND SWAP1 PUSH1 0x0 SWAP1 DUP3 SWAP1 PUSH4 0x4D813120 SWAP1 PUSH1 0x24 ADD PUSH1 0x20 PUSH1 0x40 MLOAD DUP1 DUP4 SUB DUP2 DUP7 DUP1 EXTCODESIZE ISZERO DUP1 ISZERO PUSH2 0xE06 JUMPI PUSH1 0x0 DUP1 REVERT JUMPDEST POP GAS STATICCALL ISZERO DUP1 ISZERO PUSH2 0xE1A JUMPI RETURNDATASIZE PUSH1 0x0 DUP1 RETURNDATACOPY RETURNDATASIZE PUSH1 0x0 REVERT JUMPDEST POP POP POP POP PUSH1 0x40 MLOAD RETURNDATASIZE PUSH1 0x1F NOT PUSH1 0x1F DUP3 ADD AND DUP3 ADD DUP1 PUSH1 0x40 MSTORE POP DUP2 ADD SWAP1 PUSH2 0xE3E SWAP2 SWAP1 PUSH2 0x2E05 JUMP JUMPDEST SWAP1 POP DUP1 PUSH2 0xE5E JUMPI PUSH1 0x40 MLOAD PUSH4 0x7CABA7D7 PUSH1 0xE1 SHL DUP2 MSTORE PUSH1 0x4 ADD PUSH1 0x40 MLOAD DUP1 SWAP2 SUB SWAP1 REVERT JUMPDEST PUSH1 0x0 DUP5 DUP2 MSTORE PUSH1 0xF PUSH1 0x20 MSTORE PUSH1 0x40 SWAP1 KECCAK256 SLOAD PUSH1 0x1 PUSH1 0x1 PUSH1 0xA0 SHL SUB AND CALLER EQ PUSH2 0xEC4 JUMPI PUSH1 0x40 MLOAD PUSH3 0x461BCD PUSH1 0xE5 SHL DUP2 MSTORE PUSH1 0x20 PUSH1 0x4 DUP3 ADD MSTORE PUSH1 0x1C PUSH1 0x24 DUP3 ADD MSTORE PUSH32 0x796F7520617265206E6F7420746865206F776E6572206F66206E667400000000 PUSH1 0x44 DUP3 ADD MSTORE PUSH1 0x64 ADD PUSH2 0x827 JUMP JUMPDEST PUSH1 0x1 PUSH1 0x1 PUSH1 0xA0 SHL SUB DUP6 AND PUSH1 0x0 SWAP1 DUP2 MSTORE PUSH1 0x1A PUSH1 0x20 SWAP1 DUP2 MSTORE PUSH1 0x40 DUP1 DUP4 KECCAK256 DUP8 DUP5 MSTORE SWAP1 SWAP2 MSTORE SWAP1 KECCAK256 SLOAD PUSH1 0xFF AND DUP1 ISZERO PUSH2 0xF19 JUMPI POP PUSH1 0x0 DUP5 DUP2 MSTORE PUSH1 0x14 PUSH1 0x20 SWAP1 DUP2 MSTORE PUSH1 0x40 DUP1 DUP4 KECCAK256 PUSH1 0x1 PUSH1 0x1 PUSH1 0xA0 SHL SUB DUP10 AND DUP5 MSTORE SWAP1 SWAP2 MSTORE SWAP1 KECCAK256 SLOAD PUSH1 0xFF AND JUMPDEST DUP1 ISZERO PUSH2 0xF22 JUMPI POP DUP3 JUMPDEST ISZERO PUSH2 0xF6B JUMPI PUSH1 0x1 PUSH1 0x1 PUSH1 0xA0 SHL SUB DUP6 AND PUSH1 0x0 SWAP1 DUP2 MSTORE PUSH1 0x15 PUSH1 0x20 SWAP1 DUP2 MSTORE PUSH1 0x40 DUP1 DUP4 KECCAK256 DUP1 SLOAD DUP8 ISZERO ISZERO PUSH1 0xFF NOT SWAP2 DUP3 AND OR SWAP1 SWAP2 SSTORE DUP8 DUP5 MSTORE PUSH1 0x16 SWAP1 SWAP3 MSTORE SWAP1 SWAP2 KECCAK256 DUP1 SLOAD SWAP1 SWAP2 AND PUSH1 0x1 OR SWAP1 SSTORE PUSH2 0xFB3 JUMP JUMPDEST PUSH1 0x40 MLOAD PUSH3 0x461BCD PUSH1 0xE5 SHL DUP2 MSTORE PUSH1 0x20 PUSH1 0x4 DUP3 ADD MSTORE PUSH1 0x18 PUSH1 0x24 DUP3 ADD MSTORE PUSH32 0x4F776E65722072656A656374656420746865206F666665720000000000000000 PUSH1 0x44 DUP3 ADD MSTORE PUSH1 0x64 ADD PUSH2 0x827 JUMP JUMPDEST POP POP POP POP POP JUMP JUMPDEST PUSH1 0x7 SLOAD DUP2 MLOAD PUSH1 0x40 MLOAD PUSH4 0x26C0989 PUSH1 0xE5 SHL DUP2 MSTORE PUSH1 0x1 PUSH1 0x1 PUSH1 0xA0 SHL SUB SWAP2 DUP3 AND PUSH1 0x4 DUP3 ADD MSTORE SWAP2 AND SWAP1 PUSH1 0x0 SWAP1 DUP3 SWAP1 PUSH4 0x4D813120 SWAP1 PUSH1 0x24 ADD PUSH1 0x20 PUSH1 0x40 MLOAD DUP1 DUP4 SUB DUP2 DUP7 DUP1 EXTCODESIZE ISZERO DUP1 ISZERO PUSH2 0x1005 JUMPI PUSH1 0x0 DUP1 REVERT JUMPDEST POP GAS STATICCALL ISZERO DUP1 ISZERO PUSH2 0x1019 JUMPI RETURNDATASIZE PUSH1 0x0 DUP1 RETURNDATACOPY RETURNDATASIZE PUSH1 0x0 REVERT JUMPDEST POP POP POP POP PUSH1 0x40 MLOAD RETURNDATASIZE PUSH1 0x1F NOT PUSH1 0x1F DUP3 ADD AND DUP3 ADD DUP1 PUSH1 0x40 MSTORE POP DUP2 ADD SWAP1 PUSH2 0x103D SWAP2 SWAP1 PUSH2 0x2E05 JUMP JUMPDEST SWAP1 POP DUP1 PUSH2 0x105D JUMPI PUSH1 0x40 MLOAD PUSH4 0x7CABA7D7 PUSH1 0xE1 SHL DUP2 MSTORE PUSH1 0x4 ADD PUSH1 0x40 MLOAD DUP1 SWAP2 SUB SWAP1 REVERT JUMPDEST PUSH1 0x8 SLOAD PUSH1 0x1 PUSH1 0x1 PUSH1 0xA0 SHL SUB AND CALLER EQ PUSH2 0x1088 JUMPI PUSH1 0x40 MLOAD PUSH4 0x513BCBE9 PUSH1 0xE0 SHL DUP2 MSTORE PUSH1 0x4 ADD PUSH1 0x40 MLOAD DUP1 SWAP2 SUB SWAP1 REVERT JUMPDEST CALLER PUSH1 0x0 SWAP1 DUP2 MSTORE PUSH1 0x12 PUSH1 0x20 SWAP1 DUP2 MSTORE PUSH1 0x40 DUP1 DUP4 KECCAK256 DUP7 DUP4 ADD MLOAD DUP5 MSTORE SWAP1 SWAP2 MSTORE SWAP1 KECCAK256 SLOAD PUSH1 0xFF AND ISZERO PUSH2 0x10C7 JUMPI PUSH1 0x40 MLOAD PUSH4 0x313D54D PUSH1 0xE2 SHL DUP2 MSTORE PUSH1 0x4 ADD PUSH1 0x40 MLOAD DUP1 SWAP2 SUB SWAP1 REVERT JUMPDEST PUSH1 0x20 DUP1 DUP5 ADD MLOAD PUSH1 0x0 SWAP1 DUP2 MSTORE PUSH1 0x18 SWAP1 SWAP2 MSTORE PUSH1 0x40 SWAP1 KECCAK256 SLOAD PUSH1 0xFF AND DUP1 ISZERO PUSH2 0x10F1 JUMPI POP PUSH1 0x40 DUP4 ADD MLOAD ISZERO ISZERO PUSH1 0x1 EQ JUMPDEST ISZERO PUSH2 0x118B JUMPI PUSH1 0x40 DUP1 DUP5 ADD MLOAD PUSH1 0x20 DUP1 DUP7 ADD DUP1 MLOAD PUSH1 0x0 SWAP1 DUP2 MSTORE PUSH1 0x1D DUP4 MSTORE DUP5 DUP2 KECCAK256 DUP1 SLOAD SWAP5 ISZERO ISZERO PUSH1 0xFF NOT SWAP6 DUP7 AND OR SWAP1 SSTORE CALLER DUP2 MSTORE PUSH1 0x12 DUP4 MSTORE DUP5 DUP2 KECCAK256 DUP3 MLOAD DUP3 MSTORE DUP4 MSTORE DUP5 DUP2 KECCAK256 DUP1 SLOAD DUP6 AND PUSH1 0x1 SWAP1 DUP2 OR SWAP1 SWAP2 SSTORE DUP9 MLOAD PUSH1 0x1 PUSH1 0x1 PUSH1 0xA0 SHL SUB AND DUP3 MSTORE PUSH1 0x19 DUP5 MSTORE DUP6 DUP3 KECCAK256 DUP4 MLOAD DUP4 MSTORE DUP5 MSTORE DUP6 DUP3 KECCAK256 DUP1 SLOAD SWAP1 SWAP6 AND DUP2 OR SWAP1 SWAP5 SSTORE SWAP1 MLOAD DUP2 MSTORE PUSH1 0x11 SWAP1 SWAP2 MSTORE SWAP2 DUP3 KECCAK256 DUP1 SLOAD SWAP2 SWAP3 SWAP1 SWAP2 PUSH2 0x1180 SWAP1 DUP5 SWAP1 PUSH2 0x2E38 JUMP JUMPDEST SWAP1 SWAP2 SSTORE POP PUSH2 0x8C8 SWAP1 POP JUMP JUMPDEST POP POP DUP1 MLOAD PUSH1 0x1 PUSH1 0x1 PUSH1 0xA0 SHL SUB AND PUSH1 0x0 SWAP1 DUP2 MSTORE PUSH1 0x19 PUSH1 0x20 SWAP1 DUP2 MSTORE PUSH1 0x40 DUP1 DUP4 KECCAK256 SWAP4 DUP3 ADD MLOAD DUP4 MSTORE SWAP3 SWAP1 MSTORE KECCAK256 DUP1 SLOAD PUSH1 0xFF NOT AND SWAP1 SSTORE JUMP JUMPDEST PUSH2 0x11C8 CALLER JUMPDEST DUP3 PUSH2 0x2083 JUMP JUMPDEST PUSH2 0x11E4 JUMPI PUSH1 0x40 MLOAD PUSH3 0x461BCD PUSH1 0xE5 SHL DUP2 MSTORE PUSH1 0x4 ADD PUSH2 0x827 SWAP1 PUSH2 0x2E50 JUMP JUMPDEST PUSH2 0x8C8 DUP4 DUP4 DUP4 PUSH2 0x2102 JUMP JUMPDEST PUSH2 0x8C8 DUP4 DUP4 DUP4 PUSH1 0x40 MLOAD DUP1 PUSH1 0x20 ADD PUSH1 0x40 MSTORE DUP1 PUSH1 0x0 DUP2 MSTORE POP PUSH2 0x1925 JUMP JUMPDEST PUSH2 0x1213 CALLER PUSH2 0x11C2 JUMP JUMPDEST PUSH2 0x122F JUMPI PUSH1 0x40 MLOAD PUSH3 0x461BCD PUSH1 0xE5 SHL DUP2 MSTORE PUSH1 0x4 ADD PUSH2 0x827 SWAP1 PUSH2 0x2E50 JUMP JUMPDEST PUSH2 0x1238 DUP2 PUSH2 0x229E JUMP JUMPDEST POP JUMP JUMPDEST PUSH1 0x7 SLOAD PUSH1 0x40 MLOAD PUSH4 0x26C0989 PUSH1 0xE5 SHL DUP2 MSTORE PUSH1 0x1 PUSH1 0x1 PUSH1 0xA0 SHL SUB DUP6 DUP2 AND PUSH1 0x4 DUP4 ADD MSTORE SWAP1 SWAP2 AND SWAP1 PUSH1 0x0 SWAP1 DUP3 SWAP1 PUSH4 0x4D813120 SWAP1 PUSH1 0x24 ADD PUSH1 0x20 PUSH1 0x40 MLOAD DUP1 DUP4 SUB DUP2 DUP7 DUP1 EXTCODESIZE ISZERO DUP1 ISZERO PUSH2 0x1285 JUMPI PUSH1 0x0 DUP1 REVERT JUMPDEST POP GAS STATICCALL ISZERO DUP1 ISZERO PUSH2 0x1299 JUMPI RETURNDATASIZE PUSH1 0x0 DUP1 RETURNDATACOPY RETURNDATASIZE PUSH1 0x0 REVERT JUMPDEST POP POP POP POP PUSH1 0x40 MLOAD RETURNDATASIZE PUSH1 0x1F NOT PUSH1 0x1F DUP3 ADD AND DUP3 ADD DUP1 PUSH1 0x40 MSTORE POP DUP2 ADD SWAP1 PUSH2 0x12BD SWAP2 SWAP1 PUSH2 0x2E05 JUMP JUMPDEST SWAP1 POP DUP1 PUSH2 0x12DD JUMPI PUSH1 0x40 MLOAD PUSH4 0x7CABA7D7 PUSH1 0xE1 SHL DUP2 MSTORE PUSH1 0x4 ADD PUSH1 0x40 MLOAD DUP1 SWAP2 SUB SWAP1 REVERT JUMPDEST PUSH1 0x8 SLOAD PUSH1 0x1 PUSH1 0x1 PUSH1 0xA0 SHL SUB AND CALLER EQ PUSH2 0x1308 JUMPI PUSH1 0x40 MLOAD PUSH4 0x513BCBE9 PUSH1 0xE0 SHL DUP2 MSTORE PUSH1 0x4 ADD PUSH1 0x40 MLOAD DUP1 SWAP2 SUB SWAP1 REVERT JUMPDEST DUP3 ISZERO PUSH2 0x1369 JUMPI PUSH1 0x1 PUSH1 0x1 PUSH1 0xA0 SHL SUB DUP6 AND PUSH1 0x0 DUP2 DUP2 MSTORE PUSH1 0x1A PUSH1 0x20 SWAP1 DUP2 MSTORE PUSH1 0x40 DUP1 DUP4 KECCAK256 DUP9 DUP5 MSTORE SWAP1 SWAP2 MSTORE DUP1 DUP3 KECCAK256 DUP1 SLOAD PUSH1 0xFF NOT AND PUSH1 0x1 OR SWAP1 SSTORE MLOAD DUP7 SWAP3 SWAP2 PUSH32 0x3527B92FF88E799233F8C213553A30EA2C9BEE572B9252B8E8811968F35000EA SWAP2 LOG3 PUSH2 0xFB3 JUMP JUMPDEST POP POP POP PUSH1 0x1 PUSH1 0x1 PUSH1 0xA0 SHL SUB SWAP2 SWAP1 SWAP2 AND PUSH1 0x0 SWAP1 DUP2 MSTORE PUSH1 0x1A PUSH1 0x20 SWAP1 DUP2 MSTORE PUSH1 0x40 DUP1 DUP4 KECCAK256 SWAP4 DUP4 MSTORE SWAP3 SWAP1 MSTORE KECCAK256 DUP1 SLOAD PUSH1 0xFF NOT AND SWAP1 SSTORE JUMP JUMPDEST PUSH1 0x0 DUP2 DUP2 MSTORE PUSH1 0x2 PUSH1 0x20 MSTORE PUSH1 0x40 DUP2 KECCAK256 SLOAD PUSH1 0x1 PUSH1 0x1 PUSH1 0xA0 SHL SUB AND DUP1 PUSH2 0x6F3 JUMPI PUSH1 0x40 MLOAD PUSH3 0x461BCD PUSH1 0xE5 SHL DUP2 MSTORE PUSH1 0x20 PUSH1 0x4 DUP3 ADD MSTORE PUSH1 0x18 PUSH1 0x24 DUP3 ADD MSTORE PUSH24 0x115490CDCC8C4E881A5B9D985B1A59081D1BDAD95B881251 PUSH1 0x42 SHL PUSH1 0x44 DUP3 ADD MSTORE PUSH1 0x64 ADD PUSH2 0x827 JUMP JUMPDEST PUSH1 0x0 DUP2 DUP2 MSTORE PUSH1 0x2 PUSH1 0x20 MSTORE PUSH1 0x40 SWAP1 KECCAK256 SLOAD PUSH1 0x60 SWAP1 PUSH1 0x1 PUSH1 0x1 PUSH1 0xA0 SHL SUB AND PUSH2 0x1432 JUMPI PUSH1 0x40 MLOAD PUSH4 0xA14C4B5 PUSH1 0xE4 SHL DUP2 MSTORE PUSH1 0x4 ADD PUSH1 0x40 MLOAD DUP1 SWAP2 SUB SWAP1 REVERT JUMPDEST PUSH1 0x1 PUSH1 0x1 PUSH1 0xA0 SHL SUB DUP4 AND PUSH1 0x0 SWAP1 DUP2 MSTORE PUSH1 0x1A PUSH1 0x20 SWAP1 DUP2 MSTORE PUSH1 0x40 DUP1 DUP4 KECCAK256 DUP6 DUP5 MSTORE SWAP1 SWAP2 MSTORE SWAP1 KECCAK256 SLOAD PUSH1 0xFF AND DUP1 ISZERO PUSH2 0x1474 JUMPI POP PUSH1 0x0 DUP3 DUP2 MSTORE PUSH1 0x16 PUSH1 0x20 MSTORE PUSH1 0x40 SWAP1 KECCAK256 SLOAD PUSH1 0xFF AND ISZERO JUMPDEST ISZERO PUSH2 0x14EA JUMPI PUSH1 0x0 DUP3 DUP2 MSTORE PUSH1 0x2 PUSH1 0x20 MSTORE PUSH1 0x40 SWAP1 KECCAK256 SLOAD PUSH1 0x1 PUSH1 0x1 PUSH1 0xA0 SHL SUB AND PUSH2 0x14AE JUMPI PUSH1 0x40 MLOAD PUSH4 0xA14C4B5 PUSH1 0xE4 SHL DUP2 MSTORE PUSH1 0x4 ADD PUSH1 0x40 MLOAD DUP1 SWAP2 SUB SWAP1 REVERT JUMPDEST PUSH1 0xB PUSH1 0xE PUSH1 0x0 DUP5 DUP2 MSTORE PUSH1 0x20 ADD SWAP1 DUP2 MSTORE PUSH1 0x20 ADD PUSH1 0x0 KECCAK256 PUSH1 0x40 MLOAD PUSH1 0x20 ADD PUSH2 0x14D4 SWAP3 SWAP2 SWAP1 PUSH2 0x2F38 JUMP JUMPDEST PUSH1 0x40 MLOAD PUSH1 0x20 DUP2 DUP4 SUB SUB DUP2 MSTORE SWAP1 PUSH1 0x40 MSTORE SWAP1 POP PUSH2 0x6F3 JUMP JUMPDEST PUSH1 0x40 MLOAD PUSH3 0x461BCD PUSH1 0xE5 SHL DUP2 MSTORE PUSH1 0x20 PUSH1 0x4 DUP3 ADD MSTORE PUSH1 0x42 PUSH1 0x24 DUP3 ADD MSTORE PUSH32 0x56696577206163636573732069732064656E696564206279204C31417070726F PUSH1 0x44 DUP3 ADD MSTORE PUSH32 0x766572206F7220546865206C616E64206973206C697374656420666F72207361 PUSH1 0x64 DUP3 ADD MSTORE PUSH2 0x6C65 PUSH1 0xF0 SHL PUSH1 0x84 DUP3 ADD MSTORE PUSH1 0xA4 ADD PUSH2 0x827 JUMP JUMPDEST PUSH1 0x0 PUSH1 0x1 PUSH1 0x1 PUSH1 0xA0 SHL SUB DUP3 AND PUSH2 0x15CD JUMPI PUSH1 0x40 MLOAD PUSH3 0x461BCD PUSH1 0xE5 SHL DUP2 MSTORE PUSH1 0x20 PUSH1 0x4 DUP3 ADD MSTORE PUSH1 0x29 PUSH1 0x24 DUP3 ADD MSTORE PUSH32 0x4552433732313A2061646472657373207A65726F206973206E6F742061207661 PUSH1 0x44 DUP3 ADD MSTORE PUSH9 0x3634B21037BBB732B9 PUSH1 0xB9 SHL PUSH1 0x64 DUP3 ADD MSTORE PUSH1 0x84 ADD PUSH2 0x827 JUMP JUMPDEST POP PUSH1 0x1 PUSH1 0x1 PUSH1 0xA0 SHL SUB AND PUSH1 0x0 SWAP1 DUP2 MSTORE PUSH1 0x3 PUSH1 0x20 MSTORE PUSH1 0x40 SWAP1 KECCAK256 SLOAD SWAP1 JUMP JUMPDEST PUSH2 0x15F1 PUSH2 0x2339 JUMP JUMPDEST PUSH2 0x15FB PUSH1 0x0 PUSH2 0x2393 JUMP JUMPDEST JUMP JUMPDEST PUSH1 0xB DUP1 SLOAD PUSH2 0x160A SWAP1 PUSH2 0x2DAE JUMP JUMPDEST DUP1 PUSH1 0x1F ADD PUSH1 0x20 DUP1 SWAP2 DIV MUL PUSH1 0x20 ADD PUSH1 0x40 MLOAD SWAP1 DUP2 ADD PUSH1 0x40 MSTORE DUP1 SWAP3 SWAP2 SWAP1 DUP2 DUP2 MSTORE PUSH1 0x20 ADD DUP3 DUP1 SLOAD PUSH2 0x1636 SWAP1 PUSH2 0x2DAE JUMP JUMPDEST DUP1 ISZERO PUSH2 0x1683 JUMPI DUP1 PUSH1 0x1F LT PUSH2 0x1658 JUMPI PUSH2 0x100 DUP1 DUP4 SLOAD DIV MUL DUP4 MSTORE SWAP2 PUSH1 0x20 ADD SWAP2 PUSH2 0x1683 JUMP JUMPDEST DUP3 ADD SWAP2 SWAP1 PUSH1 0x0 MSTORE PUSH1 0x20 PUSH1 0x0 KECCAK256 SWAP1 JUMPDEST DUP2 SLOAD DUP2 MSTORE SWAP1 PUSH1 0x1 ADD SWAP1 PUSH1 0x20 ADD DUP1 DUP4 GT PUSH2 0x1666 JUMPI DUP3 SWAP1 SUB PUSH1 0x1F AND DUP3 ADD SWAP2 JUMPDEST POP POP POP POP POP DUP2 JUMP JUMPDEST PUSH1 0x7 SLOAD PUSH1 0x40 MLOAD PUSH4 0x26C0989 PUSH1 0xE5 SHL DUP2 MSTORE CALLER PUSH1 0x4 DUP3 ADD MSTORE PUSH1 0x1 PUSH1 0x1 PUSH1 0xA0 SHL SUB SWAP1 SWAP2 AND SWAP1 PUSH1 0x0 SWAP1 DUP3 SWAP1 PUSH4 0x4D813120 SWAP1 PUSH1 0x24 ADD PUSH1 0x20 PUSH1 0x40 MLOAD DUP1 DUP4 SUB DUP2 DUP7 DUP1 EXTCODESIZE ISZERO DUP1 ISZERO PUSH2 0x16D3 JUMPI PUSH1 0x0 DUP1 REVERT JUMPDEST POP GAS STATICCALL ISZERO DUP1 ISZERO PUSH2 0x16E7 JUMPI RETURNDATASIZE PUSH1 0x0 DUP1 RETURNDATACOPY RETURNDATASIZE PUSH1 0x0 REVERT JUMPDEST POP POP POP POP PUSH1 0x40 MLOAD RETURNDATASIZE PUSH1 0x1F NOT PUSH1 0x1F DUP3 ADD AND DUP3 ADD DUP1 PUSH1 0x40 MSTORE POP DUP2 ADD SWAP1 PUSH2 0x170B SWAP2 SWAP1 PUSH2 0x2E05 JUMP JUMPDEST SWAP1 POP DUP1 PUSH2 0x172B JUMPI PUSH1 0x40 MLOAD PUSH4 0x7CABA7D7 PUSH1 0xE1 SHL DUP2 MSTORE PUSH1 0x4 ADD PUSH1 0x40 MLOAD DUP1 SWAP2 SUB SWAP1 REVERT JUMPDEST CALLER PUSH1 0x0 SWAP1 DUP2 MSTORE PUSH1 0x1A PUSH1 0x20 SWAP1 DUP2 MSTORE PUSH1 0x40 DUP1 DUP4 KECCAK256 DUP7 DUP5 MSTORE SWAP1 SWAP2 MSTORE SWAP1 KECCAK256 SLOAD PUSH1 0xFF AND ISZERO PUSH2 0x1777 JUMPI PUSH1 0x0 DUP4 DUP2 MSTORE PUSH1 0x14 PUSH1 0x20 SWAP1 DUP2 MSTORE PUSH1 0x40 DUP1 DUP4 KECCAK256 CALLER DUP5 MSTORE SWAP1 SWAP2 MSTORE SWAP1 KECCAK256 DUP1 SLOAD PUSH1 0xFF NOT AND PUSH1 0x1 OR SWAP1 SSTORE POP POP POP JUMP JUMPDEST PUSH1 0x40 MLOAD PUSH3 0x461BCD PUSH1 0xE5 SHL DUP2 MSTORE PUSH1 0x20 PUSH1 0x4 DUP3 ADD MSTORE PUSH1 0x14 PUSH1 0x24 DUP3 ADD MSTORE PUSH20 0x596F7520646F6E74206861766520616363657373 PUSH1 0x60 SHL PUSH1 0x44 DUP3 ADD MSTORE PUSH1 0x64 ADD PUSH2 0x827 JUMP JUMPDEST PUSH1 0x0 PUSH2 0x17CA PUSH1 0x6 SLOAD PUSH1 0x1 PUSH1 0x1 PUSH1 0xA0 SHL SUB AND SWAP1 JUMP JUMPDEST PUSH1 0x1 PUSH1 0x1 PUSH1 0xA0 SHL SUB AND CALLER PUSH1 0x1 PUSH1 0x1 PUSH1 0xA0 SHL SUB AND EQ ISZERO DUP1 ISZERO PUSH2 0x17FB JUMPI POP CALLER PUSH1 0x0 SWAP1 DUP2 MSTORE PUSH1 0xD PUSH1 0x20 MSTORE PUSH1 0x40 SWAP1 KECCAK256 SLOAD PUSH1 0xFF AND ISZERO JUMPDEST ISZERO PUSH2 0x1819 JUMPI PUSH1 0x40 MLOAD PUSH4 0x55098F27 PUSH1 0xE0 SHL DUP2 MSTORE PUSH1 0x4 ADD PUSH1 0x40 MLOAD DUP1 SWAP2 SUB SWAP1 REVERT JUMPDEST DUP2 MLOAD PUSH2 0x182C SWAP1 PUSH1 0xA SWAP1 PUSH1 0x20 DUP6 ADD SWAP1 PUSH2 0x2834 JUMP JUMPDEST POP PUSH1 0x1 SWAP1 POP JUMPDEST SWAP2 SWAP1 POP JUMP JUMPDEST PUSH1 0x60 PUSH1 0x1 DUP1 SLOAD PUSH2 0x708 SWAP1 PUSH2 0x2DAE JUMP JUMPDEST PUSH2 0x1851 CALLER DUP4 DUP4 PUSH2 0x23E5 JUMP JUMPDEST POP POP JUMP JUMPDEST PUSH1 0x0 DUP2 DUP2 MSTORE PUSH1 0x2 PUSH1 0x20 MSTORE PUSH1 0x40 SWAP1 KECCAK256 SLOAD PUSH1 0x60 SWAP1 PUSH1 0x1 PUSH1 0x1 PUSH1 0xA0 SHL SUB AND PUSH2 0x188D JUMPI PUSH1 0x40 MLOAD PUSH4 0xA14C4B5 PUSH1 0xE4 SHL DUP2 MSTORE PUSH1 0x4 ADD PUSH1 0x40 MLOAD DUP1 SWAP2 SUB SWAP1 REVERT JUMPDEST PUSH1 0x0 DUP3 DUP2 MSTORE PUSH1 0xF PUSH1 0x20 MSTORE PUSH1 0x40 SWAP1 KECCAK256 SLOAD PUSH1 0x1 PUSH1 0x1 PUSH1 0xA0 SHL SUB DUP5 DUP2 AND SWAP2 AND EQ DUP1 PUSH2 0x18C2 JUMPI POP PUSH1 0x8 SLOAD PUSH1 0x1 PUSH1 0x1 PUSH1 0xA0 SHL SUB DUP5 DUP2 AND SWAP2 AND EQ JUMPDEST DUP1 PUSH2 0x18DA JUMPI POP PUSH1 0x9 SLOAD PUSH1 0x1 PUSH1 0x1 PUSH1 0xA0 SHL SUB DUP5 DUP2 AND SWAP2 AND EQ JUMPDEST ISZERO PUSH2 0x1905 JUMPI PUSH1 0xB PUSH1 0xE PUSH1 0x0 DUP5 DUP2 MSTORE PUSH1 0x20 ADD SWAP1 DUP2 MSTORE PUSH1 0x20 ADD PUSH1 0x0 KECCAK256 PUSH1 0x40 MLOAD PUSH1 0x20 ADD PUSH2 0x14D4 SWAP3 SWAP2 SWAP1 PUSH2 0x2F38 JUMP JUMPDEST PUSH1 0x40 MLOAD DUP1 PUSH1 0x80 ADD PUSH1 0x40 MSTORE DUP1 PUSH1 0x43 DUP2 MSTORE PUSH1 0x20 ADD PUSH2 0x30AF PUSH1 0x43 SWAP2 CODECOPY SWAP1 POP PUSH2 0x6F3 JUMP JUMPDEST PUSH2 0x192F CALLER DUP4 PUSH2 0x2083 JUMP JUMPDEST PUSH2 0x194B JUMPI PUSH1 0x40 MLOAD PUSH3 0x461BCD PUSH1 0xE5 SHL DUP2 MSTORE PUSH1 0x4 ADD PUSH2 0x827 SWAP1 PUSH2 0x2E50 JUMP JUMPDEST PUSH2 0x1957 DUP5 DUP5 DUP5 DUP5 PUSH2 0x24B4 JUMP JUMPDEST POP POP POP POP JUMP JUMPDEST CALLER PUSH1 0x0 SWAP1 DUP2 MSTORE PUSH1 0x10 PUSH1 0x20 MSTORE PUSH1 0x40 SWAP1 KECCAK256 SLOAD PUSH1 0xFF AND PUSH2 0x198D JUMPI PUSH1 0x40 MLOAD PUSH4 0x1710613F PUSH1 0xE2 SHL DUP2 MSTORE PUSH1 0x4 ADD PUSH1 0x40 MLOAD DUP1 SWAP2 SUB SWAP1 REVERT JUMPDEST CALLER PUSH1 0x0 SWAP1 DUP2 MSTORE PUSH1 0x12 PUSH1 0x20 SWAP1 DUP2 MSTORE PUSH1 0x40 DUP1 DUP4 KECCAK256 DUP5 DUP4 ADD MLOAD DUP5 MSTORE SWAP1 SWAP2 MSTORE SWAP1 KECCAK256 SLOAD PUSH1 0xFF AND ISZERO PUSH2 0x19CC JUMPI PUSH1 0x40 MLOAD PUSH4 0x313D54D PUSH1 0xE2 SHL DUP2 MSTORE PUSH1 0x4 ADD PUSH1 0x40 MLOAD DUP1 SWAP2 SUB SWAP1 REVERT JUMPDEST PUSH1 0x40 DUP2 ADD MLOAD ISZERO ISZERO PUSH1 0x1 EQ ISZERO PUSH2 0x1A4A JUMPI PUSH1 0x40 DUP1 DUP3 ADD MLOAD PUSH1 0x20 DUP1 DUP5 ADD DUP1 MLOAD PUSH1 0x0 SWAP1 DUP2 MSTORE PUSH1 0x13 DUP4 MSTORE DUP5 DUP2 KECCAK256 CALLER DUP3 MSTORE DUP4 MSTORE DUP5 DUP2 KECCAK256 DUP1 SLOAD SWAP5 ISZERO ISZERO PUSH1 0xFF NOT SWAP6 DUP7 AND OR SWAP1 SSTORE PUSH1 0x12 DUP4 MSTORE DUP5 DUP2 KECCAK256 DUP3 MLOAD DUP3 MSTORE DUP4 MSTORE DUP5 DUP2 KECCAK256 DUP1 SLOAD SWAP1 SWAP5 AND PUSH1 0x1 SWAP1 DUP2 OR SWAP1 SWAP5 SSTORE SWAP1 MLOAD DUP2 MSTORE PUSH1 0x11 SWAP1 SWAP2 MSTORE SWAP2 DUP3 KECCAK256 DUP1 SLOAD SWAP2 SWAP3 SWAP1 SWAP2 PUSH2 0x1A44 SWAP1 DUP5 SWAP1 PUSH2 0x2E38 JUMP JUMPDEST SWAP1 SWAP2 SSTORE POP POP JUMPDEST PUSH1 0x20 DUP1 DUP3 ADD MLOAD PUSH1 0x0 SWAP1 DUP2 MSTORE PUSH1 0x11 SWAP1 SWAP2 MSTORE PUSH1 0x40 SWAP1 KECCAK256 SLOAD PUSH1 0x2 EQ ISZERO PUSH2 0x1238 JUMPI PUSH2 0x1A7A CALLER DUP3 PUSH1 0x0 ADD MLOAD DUP4 PUSH1 0x20 ADD MLOAD PUSH2 0x11BD JUMP JUMPDEST PUSH1 0x20 DUP2 ADD MLOAD DUP2 MLOAD PUSH1 0x40 MLOAD PUSH1 0x1 PUSH1 0x1 PUSH1 0xA0 SHL SUB SWAP1 SWAP2 AND SWAP1 CALLER SWAP1 PUSH32 0x986385BEA8660B8382C6329A38CC817BC39229F8428D8D6FB4952624A99B75F6 SWAP1 PUSH1 0x0 SWAP1 LOG4 POP JUMP JUMPDEST PUSH1 0x60 PUSH2 0x1AC6 DUP3 PUSH2 0x1FB6 JUMP JUMPDEST PUSH1 0x0 PUSH2 0x1AFA PUSH1 0x40 DUP1 MLOAD DUP1 DUP3 ADD SWAP1 SWAP2 MSTORE PUSH1 0x15 DUP2 MSTORE PUSH21 0x68747470733A2F2F697066732E696F2F697066732F PUSH1 0x58 SHL PUSH1 0x20 DUP3 ADD MSTORE SWAP1 JUMP JUMPDEST SWAP1 POP PUSH1 0x0 DUP2 MLOAD GT PUSH2 0x1B1A JUMPI PUSH1 0x40 MLOAD DUP1 PUSH1 0x20 ADD PUSH1 0x40 MSTORE DUP1 PUSH1 0x0 DUP2 MSTORE POP PUSH2 0x1B45 JUMP JUMPDEST DUP1 PUSH2 0x1B24 DUP5 PUSH2 0x24E7 JUMP JUMPDEST PUSH1 0x40 MLOAD PUSH1 0x20 ADD PUSH2 0x1B35 SWAP3 SWAP2 SWAP1 PUSH2 0x2F4D JUMP JUMPDEST PUSH1 0x40 MLOAD PUSH1 0x20 DUP2 DUP4 SUB SUB DUP2 MSTORE SWAP1 PUSH1 0x40 MSTORE JUMPDEST SWAP4 SWAP3 POP POP POP JUMP JUMPDEST CALLER PUSH1 0x0 SWAP1 DUP2 MSTORE PUSH1 0x15 PUSH1 0x20 MSTORE PUSH1 0x40 SWAP1 KECCAK256 SLOAD PUSH1 0xFF AND ISZERO ISZERO PUSH1 0x1 EQ PUSH2 0x1BB0 JUMPI PUSH1 0x40 MLOAD PUSH3 0x461BCD PUSH1 0xE5 SHL DUP2 MSTORE PUSH1 0x20 PUSH1 0x4 DUP3 ADD MSTORE PUSH1 0x1C PUSH1 0x24 DUP3 ADD MSTORE PUSH32 0x726567697374726174696F6E206973206E6F7420706F737369626C6500000000 PUSH1 0x44 DUP3 ADD MSTORE PUSH1 0x64 ADD PUSH2 0x827 JUMP JUMPDEST PUSH1 0x0 DUP3 DUP2 MSTORE PUSH1 0x16 PUSH1 0x20 MSTORE PUSH1 0x40 SWAP1 KECCAK256 SLOAD PUSH1 0xFF AND ISZERO ISZERO PUSH1 0x1 EQ PUSH2 0x1C0A JUMPI PUSH1 0x40 MLOAD PUSH3 0x461BCD PUSH1 0xE5 SHL DUP2 MSTORE PUSH1 0x20 PUSH1 0x4 DUP3 ADD MSTORE PUSH1 0x14 PUSH1 0x24 DUP3 ADD MSTORE PUSH20 0x73616C65207374617475732069732066616C7365 PUSH1 0x60 SHL PUSH1 0x44 DUP3 ADD MSTORE PUSH1 0x64 ADD PUSH2 0x827 JUMP JUMPDEST PUSH1 0x0 DUP3 DUP2 MSTORE PUSH1 0x17 PUSH1 0x20 SWAP1 DUP2 MSTORE PUSH1 0x40 SWAP1 SWAP2 KECCAK256 DUP3 MLOAD PUSH2 0x1C29 SWAP3 DUP5 ADD SWAP1 PUSH2 0x2834 JUMP JUMPDEST POP POP PUSH1 0x0 SWAP1 DUP2 MSTORE PUSH1 0x18 PUSH1 0x20 MSTORE PUSH1 0x40 SWAP1 KECCAK256 DUP1 SLOAD PUSH1 0xFF NOT AND PUSH1 0x1 OR SWAP1 SSTORE JUMP JUMPDEST PUSH1 0x7 SLOAD PUSH1 0x40 MLOAD PUSH4 0x26C0989 PUSH1 0xE5 SHL DUP2 MSTORE PUSH1 0x1 PUSH1 0x1 PUSH1 0xA0 SHL SUB DUP6 DUP2 AND PUSH1 0x4 DUP4 ADD MSTORE SWAP1 SWAP2 AND SWAP1 PUSH1 0x0 SWAP1 DUP3 SWAP1 PUSH4 0x4D813120 SWAP1 PUSH1 0x24 ADD PUSH1 0x20 PUSH1 0x40 MLOAD DUP1 DUP4 SUB DUP2 DUP7 DUP1 EXTCODESIZE ISZERO DUP1 ISZERO PUSH2 0x1C90 JUMPI PUSH1 0x0 DUP1 REVERT JUMPDEST POP GAS STATICCALL ISZERO DUP1 ISZERO PUSH2 0x1CA4 JUMPI RETURNDATASIZE PUSH1 0x0 DUP1 RETURNDATACOPY RETURNDATASIZE PUSH1 0x0 REVERT JUMPDEST POP POP POP POP PUSH1 0x40 MLOAD RETURNDATASIZE PUSH1 0x1F NOT PUSH1 0x1F DUP3 ADD AND DUP3 ADD DUP1 PUSH1 0x40 MSTORE POP DUP2 ADD SWAP1 PUSH2 0x1CC8 SWAP2 SWAP1 PUSH2 0x2E05 JUMP JUMPDEST SWAP1 POP DUP1 PUSH2 0x1CE8 JUMPI PUSH1 0x40 MLOAD PUSH4 0x7CABA7D7 PUSH1 0xE1 SHL DUP2 MSTORE PUSH1 0x4 ADD PUSH1 0x40 MLOAD DUP1 SWAP2 SUB SWAP1 REVERT JUMPDEST PUSH1 0x8 SLOAD PUSH1 0x1 PUSH1 0x1 PUSH1 0xA0 SHL SUB AND CALLER EQ ISZERO PUSH2 0x1DE9 JUMPI PUSH1 0xB DUP1 SLOAD PUSH2 0x1D08 SWAP1 PUSH2 0x2DAE JUMP JUMPDEST ISZERO ISZERO SWAP1 POP PUSH2 0x1D25 JUMPI PUSH1 0x40 MLOAD DUP1 PUSH1 0x20 ADD PUSH1 0x40 MSTORE DUP1 PUSH1 0x0 DUP2 MSTORE POP PUSH2 0x1D46 JUMP JUMPDEST DUP3 PUSH1 0x40 MLOAD PUSH1 0x20 ADD PUSH2 0x1D36 SWAP2 SWAP1 PUSH2 0x2DE9 JUMP JUMPDEST PUSH1 0x40 MLOAD PUSH1 0x20 DUP2 DUP4 SUB SUB DUP2 MSTORE SWAP1 PUSH1 0x40 MSTORE JUMPDEST PUSH1 0x0 DUP6 DUP2 MSTORE PUSH1 0xE PUSH1 0x20 SWAP1 DUP2 MSTORE PUSH1 0x40 SWAP1 SWAP2 KECCAK256 DUP3 MLOAD PUSH2 0x1D69 SWAP4 SWAP2 SWAP3 SWAP2 SWAP1 SWAP2 ADD SWAP1 PUSH2 0x2834 JUMP JUMPDEST POP PUSH2 0x1D74 DUP6 DUP6 PUSH2 0x25E5 JUMP JUMPDEST PUSH1 0x0 DUP5 DUP2 MSTORE PUSH1 0xF PUSH1 0x20 MSTORE PUSH1 0x40 SWAP1 KECCAK256 DUP1 SLOAD PUSH1 0x1 PUSH1 0x1 PUSH1 0xA0 SHL SUB NOT AND PUSH1 0x1 PUSH1 0x1 PUSH1 0xA0 SHL SUB DUP8 AND OR SWAP1 SSTORE PUSH1 0xC SLOAD PUSH2 0x1DA9 SWAP1 PUSH1 0x1 PUSH2 0x2E38 JUMP JUMPDEST PUSH1 0xC SSTORE PUSH1 0x40 MLOAD DUP5 SWAP1 PUSH1 0x1 PUSH1 0x1 PUSH1 0xA0 SHL SUB DUP8 AND SWAP1 CALLER SWAP1 PUSH32 0x986385BEA8660B8382C6329A38CC817BC39229F8428D8D6FB4952624A99B75F6 SWAP1 PUSH1 0x0 SWAP1 LOG4 PUSH2 0xFB3 JUMP JUMPDEST PUSH1 0x40 MLOAD PUSH3 0x461BCD PUSH1 0xE5 SHL DUP2 MSTORE PUSH1 0x20 PUSH1 0x4 DUP3 ADD MSTORE PUSH1 0x35 PUSH1 0x24 DUP3 ADD MSTORE PUSH32 0x436F6E6E6563746564206164647265737320646F6573206E6F74206861766520 PUSH1 0x44 DUP3 ADD MSTORE PUSH21 0x1858D8D95CDCC81D1BC818DC99585D19481B185B99 PUSH1 0x5A SHL PUSH1 0x64 DUP3 ADD MSTORE PUSH1 0x84 ADD PUSH2 0x827 JUMP JUMPDEST PUSH1 0x60 PUSH1 0xA DUP1 SLOAD PUSH2 0x708 SWAP1 PUSH2 0x2DAE JUMP JUMPDEST PUSH2 0x1E66 PUSH2 0x2339 JUMP JUMPDEST PUSH1 0x1 PUSH1 0x1 PUSH1 0xA0 SHL SUB DUP2 AND PUSH2 0x1ECB JUMPI PUSH1 0x40 MLOAD PUSH3 0x461BCD PUSH1 0xE5 SHL DUP2 MSTORE PUSH1 0x20 PUSH1 0x4 DUP3 ADD MSTORE PUSH1 0x26 PUSH1 0x24 DUP3 ADD MSTORE PUSH32 0x4F776E61626C653A206E6577206F776E657220697320746865207A65726F2061 PUSH1 0x44 DUP3 ADD MSTORE PUSH6 0x646472657373 PUSH1 0xD0 SHL PUSH1 0x64 DUP3 ADD MSTORE PUSH1 0x84 ADD PUSH2 0x827 JUMP JUMPDEST PUSH2 0x1238 DUP2 PUSH2 0x2393 JUMP JUMPDEST PUSH1 0x6 SLOAD PUSH1 0x1 PUSH1 0x1 PUSH1 0xA0 SHL SUB AND CALLER EQ DUP1 ISZERO SWAP1 PUSH2 0x1EFF JUMPI POP CALLER PUSH1 0x0 SWAP1 DUP2 MSTORE PUSH1 0xD PUSH1 0x20 MSTORE PUSH1 0x40 SWAP1 KECCAK256 SLOAD PUSH1 0xFF AND ISZERO JUMPDEST ISZERO PUSH2 0x1F1D JUMPI PUSH1 0x40 MLOAD PUSH4 0x55098F27 PUSH1 0xE0 SHL DUP2 MSTORE PUSH1 0x4 ADD PUSH1 0x40 MLOAD DUP1 SWAP2 SUB SWAP1 REVERT JUMPDEST PUSH1 0x1 PUSH1 0x1 PUSH1 0xA0 SHL SUB DUP2 AND PUSH2 0x1F44 JUMPI PUSH1 0x40 MLOAD PUSH4 0x9B15B395 PUSH1 0xE0 SHL DUP2 MSTORE PUSH1 0x4 ADD PUSH1 0x40 MLOAD DUP1 SWAP2 SUB SWAP1 REVERT JUMPDEST PUSH1 0x7 DUP1 SLOAD PUSH1 0x1 PUSH1 0x1 PUSH1 0xA0 SHL SUB NOT AND PUSH1 0x1 PUSH1 0x1 PUSH1 0xA0 SHL SUB SWAP3 SWAP1 SWAP3 AND SWAP2 SWAP1 SWAP2 OR SWAP1 SSTORE JUMP JUMPDEST PUSH1 0x0 PUSH1 0x1 PUSH1 0x1 PUSH1 0xE0 SHL SUB NOT DUP3 AND PUSH4 0x80AC58CD PUSH1 0xE0 SHL EQ DUP1 PUSH2 0x1F97 JUMPI POP PUSH1 0x1 PUSH1 0x1 PUSH1 0xE0 SHL SUB NOT DUP3 AND PUSH4 0x5B5E139F PUSH1 0xE0 SHL EQ JUMPDEST DUP1 PUSH2 0x6F3 JUMPI POP PUSH4 0x1FFC9A7 PUSH1 0xE0 SHL PUSH1 0x1 PUSH1 0x1 PUSH1 0xE0 SHL SUB NOT DUP4 AND EQ PUSH2 0x6F3 JUMP JUMPDEST PUSH1 0x0 DUP2 DUP2 MSTORE PUSH1 0x2 PUSH1 0x20 MSTORE PUSH1 0x40 SWAP1 KECCAK256 SLOAD PUSH1 0x1 PUSH1 0x1 PUSH1 0xA0 SHL SUB AND PUSH2 0x1238 JUMPI PUSH1 0x40 MLOAD PUSH3 0x461BCD PUSH1 0xE5 SHL DUP2 MSTORE PUSH1 0x20 PUSH1 0x4 DUP3 ADD MSTORE PUSH1 0x18 PUSH1 0x24 DUP3 ADD MSTORE PUSH24 0x115490CDCC8C4E881A5B9D985B1A59081D1BDAD95B881251 PUSH1 0x42 SHL PUSH1 0x44 DUP3 ADD MSTORE PUSH1 0x64 ADD PUSH2 0x827 JUMP JUMPDEST PUSH1 0x0 DUP2 DUP2 MSTORE PUSH1 0x4 PUSH1 0x20 MSTORE PUSH1 0x40 SWAP1 KECCAK256 DUP1 SLOAD PUSH1 0x1 PUSH1 0x1 PUSH1 0xA0 SHL SUB NOT AND PUSH1 0x1 PUSH1 0x1 PUSH1 0xA0 SHL SUB DUP5 AND SWAP1 DUP2 OR SWAP1 SWAP2 SSTORE DUP2 SWAP1 PUSH2 0x204A DUP3 PUSH2 0x139A JUMP JUMPDEST PUSH1 0x1 PUSH1 0x1 PUSH1 0xA0 SHL SUB AND PUSH32 0x8C5BE1E5EBEC7D5BD14F71427D1E84F3DD0314C0F7B2291E5B200AC8C7C3B925 PUSH1 0x40 MLOAD PUSH1 0x40 MLOAD DUP1 SWAP2 SUB SWAP1 LOG4 POP POP JUMP JUMPDEST PUSH1 0x0 DUP1 PUSH2 0x208F DUP4 PUSH2 0x139A JUMP JUMPDEST SWAP1 POP DUP1 PUSH1 0x1 PUSH1 0x1 PUSH1 0xA0 SHL SUB AND DUP5 PUSH1 0x1 PUSH1 0x1 PUSH1 0xA0 SHL SUB AND EQ DUP1 PUSH2 0x20D6 JUMPI POP PUSH1 0x1 PUSH1 0x1 PUSH1 0xA0 SHL SUB DUP1 DUP3 AND PUSH1 0x0 SWAP1 DUP2 MSTORE PUSH1 0x5 PUSH1 0x20 SWAP1 DUP2 MSTORE PUSH1 0x40 DUP1 DUP4 KECCAK256 SWAP4 DUP9 AND DUP4 MSTORE SWAP3 SWAP1 MSTORE KECCAK256 SLOAD PUSH1 0xFF AND JUMPDEST DUP1 PUSH2 0x20FA JUMPI POP DUP4 PUSH1 0x1 PUSH1 0x1 PUSH1 0xA0 SHL SUB AND PUSH2 0x20EF DUP5 PUSH2 0x78B JUMP JUMPDEST PUSH1 0x1 PUSH1 0x1 PUSH1 0xA0 SHL SUB AND EQ JUMPDEST SWAP5 SWAP4 POP POP POP POP JUMP JUMPDEST DUP3 PUSH1 0x1 PUSH1 0x1 PUSH1 0xA0 SHL SUB AND PUSH2 0x2115 DUP3 PUSH2 0x139A JUMP JUMPDEST PUSH1 0x1 PUSH1 0x1 PUSH1 0xA0 SHL SUB AND EQ PUSH2 0x2179 JUMPI PUSH1 0x40 MLOAD PUSH3 0x461BCD PUSH1 0xE5 SHL DUP2 MSTORE PUSH1 0x20 PUSH1 0x4 DUP3 ADD MSTORE PUSH1 0x25 PUSH1 0x24 DUP3 ADD MSTORE PUSH32 0x4552433732313A207472616E736665722066726F6D20696E636F727265637420 PUSH1 0x44 DUP3 ADD MSTORE PUSH5 0x37BBB732B9 PUSH1 0xD9 SHL PUSH1 0x64 DUP3 ADD MSTORE PUSH1 0x84 ADD PUSH2 0x827 JUMP JUMPDEST PUSH1 0x1 PUSH1 0x1 PUSH1 0xA0 SHL SUB DUP3 AND PUSH2 0x21DB JUMPI PUSH1 0x40 MLOAD PUSH3 0x461BCD PUSH1 0xE5 SHL DUP2 MSTORE PUSH1 0x20 PUSH1 0x4 DUP3 ADD MSTORE PUSH1 0x24 DUP1 DUP3 ADD MSTORE PUSH32 0x4552433732313A207472616E7366657220746F20746865207A65726F20616464 PUSH1 0x44 DUP3 ADD MSTORE PUSH4 0x72657373 PUSH1 0xE0 SHL PUSH1 0x64 DUP3 ADD MSTORE PUSH1 0x84 ADD PUSH2 0x827 JUMP JUMPDEST PUSH2 0x21E6 PUSH1 0x0 DUP3 PUSH2 0x2015 JUMP JUMPDEST PUSH1 0x1 PUSH1 0x1 PUSH1 0xA0 SHL SUB DUP4 AND PUSH1 0x0 SWAP1 DUP2 MSTORE PUSH1 0x3 PUSH1 0x20 MSTORE PUSH1 0x40 DUP2 KECCAK256 DUP1 SLOAD PUSH1 0x1 SWAP3 SWAP1 PUSH2 0x220F SWAP1 DUP5 SWAP1 PUSH2 0x2F7C JUMP JUMPDEST SWAP1 SWAP2 SSTORE POP POP PUSH1 0x1 PUSH1 0x1 PUSH1 0xA0 SHL SUB DUP3 AND PUSH1 0x0 SWAP1 DUP2 MSTORE PUSH1 0x3 PUSH1 0x20 MSTORE PUSH1 0x40 DUP2 KECCAK256 DUP1 SLOAD PUSH1 0x1 SWAP3 SWAP1 PUSH2 0x223D SWAP1 DUP5 SWAP1 PUSH2 0x2E38 JUMP JUMPDEST SWAP1 SWAP2 SSTORE POP POP PUSH1 0x0 DUP2 DUP2 MSTORE PUSH1 0x2 PUSH1 0x20 MSTORE PUSH1 0x40 DUP1 DUP3 KECCAK256 DUP1 SLOAD PUSH1 0x1 PUSH1 0x1 PUSH1 0xA0 SHL SUB NOT AND PUSH1 0x1 PUSH1 0x1 PUSH1 0xA0 SHL SUB DUP7 DUP2 AND SWAP2 DUP3 OR SWAP1 SWAP3 SSTORE SWAP2 MLOAD DUP5 SWAP4 SWAP2 DUP8 AND SWAP2 PUSH32 0xDDF252AD1BE2C89B69C2B068FC378DAA952BA7F163C4A11628F55A4DF523B3EF SWAP2 LOG4 POP POP POP JUMP JUMPDEST PUSH1 0x0 PUSH2 0x22A9 DUP3 PUSH2 0x139A JUMP JUMPDEST SWAP1 POP PUSH2 0x22B6 PUSH1 0x0 DUP4 PUSH2 0x2015 JUMP JUMPDEST PUSH1 0x1 PUSH1 0x1 PUSH1 0xA0 SHL SUB DUP2 AND PUSH1 0x0 SWAP1 DUP2 MSTORE PUSH1 0x3 PUSH1 0x20 MSTORE PUSH1 0x40 DUP2 KECCAK256 DUP1 SLOAD PUSH1 0x1 SWAP3 SWAP1 PUSH2 0x22DF SWAP1 DUP5 SWAP1 PUSH2 0x2F7C JUMP JUMPDEST SWAP1 SWAP2 SSTORE POP POP PUSH1 0x0 DUP3 DUP2 MSTORE PUSH1 0x2 PUSH1 0x20 MSTORE PUSH1 0x40 DUP1 DUP3 KECCAK256 DUP1 SLOAD PUSH1 0x1 PUSH1 0x1 PUSH1 0xA0 SHL SUB NOT AND SWAP1 SSTORE MLOAD DUP4 SWAP2 SWAP1 PUSH1 0x1 PUSH1 0x1 PUSH1 0xA0 SHL SUB DUP5 AND SWAP1 PUSH32 0xDDF252AD1BE2C89B69C2B068FC378DAA952BA7F163C4A11628F55A4DF523B3EF SWAP1 DUP4 SWAP1 LOG4 POP POP JUMP JUMPDEST PUSH1 0x6 SLOAD PUSH1 0x1 PUSH1 0x1 PUSH1 0xA0 SHL SUB AND CALLER EQ PUSH2 0x15FB JUMPI PUSH1 0x40 MLOAD PUSH3 0x461BCD PUSH1 0xE5 SHL DUP2 MSTORE PUSH1 0x20 PUSH1 0x4 DUP3 ADD DUP2 SWAP1 MSTORE PUSH1 0x24 DUP3 ADD MSTORE PUSH32 0x4F776E61626C653A2063616C6C6572206973206E6F7420746865206F776E6572 PUSH1 0x44 DUP3 ADD MSTORE PUSH1 0x64 ADD PUSH2 0x827 JUMP JUMPDEST PUSH1 0x6 DUP1 SLOAD PUSH1 0x1 PUSH1 0x1 PUSH1 0xA0 SHL SUB DUP4 DUP2 AND PUSH1 0x1 PUSH1 0x1 PUSH1 0xA0 SHL SUB NOT DUP4 AND DUP2 OR SWAP1 SWAP4 SSTORE PUSH1 0x40 MLOAD SWAP2 AND SWAP2 SWAP1 DUP3 SWAP1 PUSH32 0x8BE0079C531659141344CD1FD0A4F28419497F9722A3DAAFE3B4186F6B6457E0 SWAP1 PUSH1 0x0 SWAP1 LOG3 POP POP JUMP JUMPDEST DUP2 PUSH1 0x1 PUSH1 0x1 PUSH1 0xA0 SHL SUB AND DUP4 PUSH1 0x1 PUSH1 0x1 PUSH1 0xA0 SHL SUB AND EQ ISZERO PUSH2 0x2447 JUMPI PUSH1 0x40 MLOAD PUSH3 0x461BCD PUSH1 0xE5 SHL DUP2 MSTORE PUSH1 0x20 PUSH1 0x4 DUP3 ADD MSTORE PUSH1 0x19 PUSH1 0x24 DUP3 ADD MSTORE PUSH32 0x4552433732313A20617070726F766520746F2063616C6C657200000000000000 PUSH1 0x44 DUP3 ADD MSTORE PUSH1 0x64 ADD PUSH2 0x827 JUMP JUMPDEST PUSH1 0x1 PUSH1 0x1 PUSH1 0xA0 SHL SUB DUP4 DUP2 AND PUSH1 0x0 DUP2 DUP2 MSTORE PUSH1 0x5 PUSH1 0x20 SWAP1 DUP2 MSTORE PUSH1 0x40 DUP1 DUP4 KECCAK256 SWAP5 DUP8 AND DUP1 DUP5 MSTORE SWAP5 DUP3 MSTORE SWAP2 DUP3 SWAP1 KECCAK256 DUP1 SLOAD PUSH1 0xFF NOT AND DUP7 ISZERO ISZERO SWAP1 DUP2 OR SWAP1 SWAP2 SSTORE SWAP2 MLOAD SWAP2 DUP3 MSTORE PUSH32 0x17307EAB39AB6107E8899845AD3D59BD9653F200F220920489CA2B5937696C31 SWAP2 ADD PUSH1 0x40 MLOAD DUP1 SWAP2 SUB SWAP1 LOG3 POP POP POP JUMP JUMPDEST PUSH2 0x24BF DUP5 DUP5 DUP5 PUSH2 0x2102 JUMP JUMPDEST PUSH2 0x24CB DUP5 DUP5 DUP5 DUP5 PUSH2 0x2727 JUMP JUMPDEST PUSH2 0x1957 JUMPI PUSH1 0x40 MLOAD PUSH3 0x461BCD PUSH1 0xE5 SHL DUP2 MSTORE PUSH1 0x4 ADD PUSH2 0x827 SWAP1 PUSH2 0x2F93 JUMP JUMPDEST PUSH1 0x60 DUP2 PUSH2 0x250B JUMPI POP POP PUSH1 0x40 DUP1 MLOAD DUP1 DUP3 ADD SWAP1 SWAP2 MSTORE PUSH1 0x1 DUP2 MSTORE PUSH1 0x3 PUSH1 0xFC SHL PUSH1 0x20 DUP3 ADD MSTORE SWAP1 JUMP JUMPDEST DUP2 PUSH1 0x0 JUMPDEST DUP2 ISZERO PUSH2 0x2535 JUMPI DUP1 PUSH2 0x251F DUP2 PUSH2 0x2FE5 JUMP JUMPDEST SWAP2 POP PUSH2 0x252E SWAP1 POP PUSH1 0xA DUP4 PUSH2 0x3016 JUMP JUMPDEST SWAP2 POP PUSH2 0x250F JUMP JUMPDEST PUSH1 0x0 DUP2 PUSH8 0xFFFFFFFFFFFFFFFF DUP2 GT ISZERO PUSH2 0x2550 JUMPI PUSH2 0x2550 PUSH2 0x29E0 JUMP JUMPDEST PUSH1 0x40 MLOAD SWAP1 DUP1 DUP3 MSTORE DUP1 PUSH1 0x1F ADD PUSH1 0x1F NOT AND PUSH1 0x20 ADD DUP3 ADD PUSH1 0x40 MSTORE DUP1 ISZERO PUSH2 0x257A JUMPI PUSH1 0x20 DUP3 ADD DUP2 DUP1 CALLDATASIZE DUP4 CALLDATACOPY ADD SWAP1 POP JUMPDEST POP SWAP1 POP JUMPDEST DUP5 ISZERO PUSH2 0x20FA JUMPI PUSH2 0x258F PUSH1 0x1 DUP4 PUSH2 0x2F7C JUMP JUMPDEST SWAP2 POP PUSH2 0x259C PUSH1 0xA DUP7 PUSH2 0x302A JUMP JUMPDEST PUSH2 0x25A7 SWAP1 PUSH1 0x30 PUSH2 0x2E38 JUMP JUMPDEST PUSH1 0xF8 SHL DUP2 DUP4 DUP2 MLOAD DUP2 LT PUSH2 0x25BC JUMPI PUSH2 0x25BC PUSH2 0x303E JUMP JUMPDEST PUSH1 0x20 ADD ADD SWAP1 PUSH1 0x1 PUSH1 0x1 PUSH1 0xF8 SHL SUB NOT AND SWAP1 DUP2 PUSH1 0x0 BYTE SWAP1 MSTORE8 POP PUSH2 0x25DE PUSH1 0xA DUP7 PUSH2 0x3016 JUMP JUMPDEST SWAP5 POP PUSH2 0x257E JUMP JUMPDEST PUSH1 0x1 PUSH1 0x1 PUSH1 0xA0 SHL SUB DUP3 AND PUSH2 0x263B JUMPI PUSH1 0x40 MLOAD PUSH3 0x461BCD PUSH1 0xE5 SHL DUP2 MSTORE PUSH1 0x20 PUSH1 0x4 DUP3 ADD DUP2 SWAP1 MSTORE PUSH1 0x24 DUP3 ADD MSTORE PUSH32 0x4552433732313A206D696E7420746F20746865207A65726F2061646472657373 PUSH1 0x44 DUP3 ADD MSTORE PUSH1 0x64 ADD PUSH2 0x827 JUMP JUMPDEST PUSH1 0x0 DUP2 DUP2 MSTORE PUSH1 0x2 PUSH1 0x20 MSTORE PUSH1 0x40 SWAP1 KECCAK256 SLOAD PUSH1 0x1 PUSH1 0x1 PUSH1 0xA0 SHL SUB AND ISZERO PUSH2 0x26A0 JUMPI PUSH1 0x40 MLOAD PUSH3 0x461BCD PUSH1 0xE5 SHL DUP2 MSTORE PUSH1 0x20 PUSH1 0x4 DUP3 ADD MSTORE PUSH1 0x1C PUSH1 0x24 DUP3 ADD MSTORE PUSH32 0x4552433732313A20746F6B656E20616C7265616479206D696E74656400000000 PUSH1 0x44 DUP3 ADD MSTORE PUSH1 0x64 ADD PUSH2 0x827 JUMP JUMPDEST PUSH1 0x1 PUSH1 0x1 PUSH1 0xA0 SHL SUB DUP3 AND PUSH1 0x0 SWAP1 DUP2 MSTORE PUSH1 0x3 PUSH1 0x20 MSTORE PUSH1 0x40 DUP2 KECCAK256 DUP1 SLOAD PUSH1 0x1 SWAP3 SWAP1 PUSH2 0x26C9 SWAP1 DUP5 SWAP1 PUSH2 0x2E38 JUMP JUMPDEST SWAP1 SWAP2 SSTORE POP POP PUSH1 0x0 DUP2 DUP2 MSTORE PUSH1 0x2 PUSH1 0x20 MSTORE PUSH1 0x40 DUP1 DUP3 KECCAK256 DUP1 SLOAD PUSH1 0x1 PUSH1 0x1 PUSH1 0xA0 SHL SUB NOT AND PUSH1 0x1 PUSH1 0x1 PUSH1 0xA0 SHL SUB DUP7 AND SWAP1 DUP2 OR SWAP1 SWAP2 SSTORE SWAP1 MLOAD DUP4 SWAP3 SWAP1 PUSH32 0xDDF252AD1BE2C89B69C2B068FC378DAA952BA7F163C4A11628F55A4DF523B3EF SWAP1 DUP3 SWAP1 LOG4 POP POP JUMP JUMPDEST PUSH1 0x0 PUSH1 0x1 PUSH1 0x1 PUSH1 0xA0 SHL SUB DUP5 AND EXTCODESIZE ISZERO PUSH2 0x2829 JUMPI PUSH1 0x40 MLOAD PUSH4 0xA85BD01 PUSH1 0xE1 SHL DUP2 MSTORE PUSH1 0x1 PUSH1 0x1 PUSH1 0xA0 SHL SUB DUP6 AND SWAP1 PUSH4 0x150B7A02 SWAP1 PUSH2 0x276B SWAP1 CALLER SWAP1 DUP10 SWAP1 DUP9 SWAP1 DUP9 SWAP1 PUSH1 0x4 ADD PUSH2 0x3054 JUMP JUMPDEST PUSH1 0x20 PUSH1 0x40 MLOAD DUP1 DUP4 SUB DUP2 PUSH1 0x0 DUP8 DUP1 EXTCODESIZE ISZERO DUP1 ISZERO PUSH2 0x2785 JUMPI PUSH1 0x0 DUP1 REVERT JUMPDEST POP GAS CALL SWAP3 POP POP POP DUP1 ISZERO PUSH2 0x27B5 JUMPI POP PUSH1 0x40 DUP1 MLOAD PUSH1 0x1F RETURNDATASIZE SWAP1 DUP2 ADD PUSH1 0x1F NOT AND DUP3 ADD SWAP1 SWAP3 MSTORE PUSH2 0x27B2 SWAP2 DUP2 ADD SWAP1 PUSH2 0x3091 JUMP JUMPDEST PUSH1 0x1 JUMPDEST PUSH2 0x280F JUMPI RETURNDATASIZE DUP1 DUP1 ISZERO PUSH2 0x27E3 JUMPI PUSH1 0x40 MLOAD SWAP2 POP PUSH1 0x1F NOT PUSH1 0x3F RETURNDATASIZE ADD AND DUP3 ADD PUSH1 0x40 MSTORE RETURNDATASIZE DUP3 MSTORE RETURNDATASIZE PUSH1 0x0 PUSH1 0x20 DUP5 ADD RETURNDATACOPY PUSH2 0x27E8 JUMP JUMPDEST PUSH1 0x60 SWAP2 POP JUMPDEST POP DUP1 MLOAD PUSH2 0x2807 JUMPI PUSH1 0x40 MLOAD PUSH3 0x461BCD PUSH1 0xE5 SHL DUP2 MSTORE PUSH1 0x4 ADD PUSH2 0x827 SWAP1 PUSH2 0x2F93 JUMP JUMPDEST DUP1 MLOAD DUP2 PUSH1 0x20 ADD REVERT JUMPDEST PUSH1 0x1 PUSH1 0x1 PUSH1 0xE0 SHL SUB NOT AND PUSH4 0xA85BD01 PUSH1 0xE1 SHL EQ SWAP1 POP PUSH2 0x20FA JUMP JUMPDEST POP PUSH1 0x1 SWAP5 SWAP4 POP POP POP POP JUMP JUMPDEST DUP3 DUP1 SLOAD PUSH2 0x2840 SWAP1 PUSH2 0x2DAE JUMP JUMPDEST SWAP1 PUSH1 0x0 MSTORE PUSH1 0x20 PUSH1 0x0 KECCAK256 SWAP1 PUSH1 0x1F ADD PUSH1 0x20 SWAP1 DIV DUP2 ADD SWAP3 DUP3 PUSH2 0x2862 JUMPI PUSH1 0x0 DUP6 SSTORE PUSH2 0x28A8 JUMP JUMPDEST DUP3 PUSH1 0x1F LT PUSH2 0x287B JUMPI DUP1 MLOAD PUSH1 0xFF NOT AND DUP4 DUP1 ADD OR DUP6 SSTORE PUSH2 0x28A8 JUMP JUMPDEST DUP3 DUP1 ADD PUSH1 0x1 ADD DUP6 SSTORE DUP3 ISZERO PUSH2 0x28A8 JUMPI SWAP2 DUP3 ADD JUMPDEST DUP3 DUP2 GT ISZERO PUSH2 0x28A8 JUMPI DUP3 MLOAD DUP3 SSTORE SWAP2 PUSH1 0x20 ADD SWAP2 SWAP1 PUSH1 0x1 ADD SWAP1 PUSH2 0x288D JUMP JUMPDEST POP PUSH2 0x28B4 SWAP3 SWAP2 POP PUSH2 0x28B8 JUMP JUMPDEST POP SWAP1 JUMP JUMPDEST JUMPDEST DUP1 DUP3 GT ISZERO PUSH2 0x28B4 JUMPI PUSH1 0x0 DUP2 SSTORE PUSH1 0x1 ADD PUSH2 0x28B9 JUMP JUMPDEST DUP1 CALLDATALOAD PUSH1 0x1 PUSH1 0x1 PUSH1 0xA0 SHL SUB DUP2 AND DUP2 EQ PUSH2 0x1832 JUMPI PUSH1 0x0 DUP1 REVERT JUMPDEST PUSH1 0x0 PUSH1 0x20 DUP3 DUP5 SUB SLT ISZERO PUSH2 0x28F6 JUMPI PUSH1 0x0 DUP1 REVERT JUMPDEST PUSH2 0x1B45 DUP3 PUSH2 0x28CD JUMP JUMPDEST PUSH1 0x1 PUSH1 0x1 PUSH1 0xE0 SHL SUB NOT DUP2 AND DUP2 EQ PUSH2 0x1238 JUMPI PUSH1 0x0 DUP1 REVERT JUMPDEST PUSH1 0x0 PUSH1 0x20 DUP3 DUP5 SUB SLT ISZERO PUSH2 0x2927 JUMPI PUSH1 0x0 DUP1 REVERT JUMPDEST DUP2 CALLDATALOAD PUSH2 0x1B45 DUP2 PUSH2 0x28FF JUMP JUMPDEST PUSH1 0x0 JUMPDEST DUP4 DUP2 LT ISZERO PUSH2 0x294D JUMPI DUP2 DUP2 ADD MLOAD DUP4 DUP3 ADD MSTORE PUSH1 0x20 ADD PUSH2 0x2935 JUMP JUMPDEST DUP4 DUP2 GT ISZERO PUSH2 0x1957 JUMPI POP POP PUSH1 0x0 SWAP2 ADD MSTORE JUMP JUMPDEST PUSH1 0x0 DUP2 MLOAD DUP1 DUP5 MSTORE PUSH2 0x2976 DUP2 PUSH1 0x20 DUP7 ADD PUSH1 0x20 DUP7 ADD PUSH2 0x2932 JUMP JUMPDEST PUSH1 0x1F ADD PUSH1 0x1F NOT AND SWAP3 SWAP1 SWAP3 ADD PUSH1 0x20 ADD SWAP3 SWAP2 POP POP JUMP JUMPDEST PUSH1 0x20 DUP2 MSTORE PUSH1 0x0 PUSH2 0x1B45 PUSH1 0x20 DUP4 ADD DUP5 PUSH2 0x295E JUMP JUMPDEST PUSH1 0x0 PUSH1 0x20 DUP3 DUP5 SUB SLT ISZERO PUSH2 0x29AF JUMPI PUSH1 0x0 DUP1 REVERT JUMPDEST POP CALLDATALOAD SWAP2 SWAP1 POP JUMP JUMPDEST PUSH1 0x0 DUP1 PUSH1 0x40 DUP4 DUP6 SUB SLT ISZERO PUSH2 0x29C9 JUMPI PUSH1 0x0 DUP1 REVERT JUMPDEST PUSH2 0x29D2 DUP4 PUSH2 0x28CD JUMP JUMPDEST SWAP5 PUSH1 0x20 SWAP4 SWAP1 SWAP4 ADD CALLDATALOAD SWAP4 POP POP POP JUMP JUMPDEST PUSH4 0x4E487B71 PUSH1 0xE0 SHL PUSH1 0x0 MSTORE PUSH1 0x41 PUSH1 0x4 MSTORE PUSH1 0x24 PUSH1 0x0 REVERT JUMPDEST PUSH1 0x0 PUSH8 0xFFFFFFFFFFFFFFFF DUP1 DUP5 GT ISZERO PUSH2 0x2A11 JUMPI PUSH2 0x2A11 PUSH2 0x29E0 JUMP JUMPDEST PUSH1 0x40 MLOAD PUSH1 0x1F DUP6 ADD PUSH1 0x1F NOT SWAP1 DUP2 AND PUSH1 0x3F ADD AND DUP2 ADD SWAP1 DUP3 DUP3 GT DUP2 DUP4 LT OR ISZERO PUSH2 0x2A39 JUMPI PUSH2 0x2A39 PUSH2 0x29E0 JUMP JUMPDEST DUP2 PUSH1 0x40 MSTORE DUP1 SWAP4 POP DUP6 DUP2 MSTORE DUP7 DUP7 DUP7 ADD GT ISZERO PUSH2 0x2A52 JUMPI PUSH1 0x0 DUP1 REVERT JUMPDEST DUP6 DUP6 PUSH1 0x20 DUP4 ADD CALLDATACOPY PUSH1 0x0 PUSH1 0x20 DUP8 DUP4 ADD ADD MSTORE POP POP POP SWAP4 SWAP3 POP POP POP JUMP JUMPDEST PUSH1 0x0 DUP3 PUSH1 0x1F DUP4 ADD SLT PUSH2 0x2A7D JUMPI PUSH1 0x0 DUP1 REVERT JUMPDEST PUSH2 0x1B45 DUP4 DUP4 CALLDATALOAD PUSH1 0x20 DUP6 ADD PUSH2 0x29F6 JUMP JUMPDEST PUSH1 0x0 DUP1 PUSH1 0x40 DUP4 DUP6 SUB SLT ISZERO PUSH2 0x2A9F JUMPI PUSH1 0x0 DUP1 REVERT JUMPDEST DUP3 CALLDATALOAD SWAP2 POP PUSH1 0x20 DUP4 ADD CALLDATALOAD PUSH8 0xFFFFFFFFFFFFFFFF DUP2 GT ISZERO PUSH2 0x2ABD JUMPI PUSH1 0x0 DUP1 REVERT JUMPDEST PUSH2 0x2AC9 DUP6 DUP3 DUP7 ADD PUSH2 0x2A6C JUMP JUMPDEST SWAP2 POP POP SWAP3 POP SWAP3 SWAP1 POP JUMP JUMPDEST DUP1 ISZERO ISZERO DUP2 EQ PUSH2 0x1238 JUMPI PUSH1 0x0 DUP1 REVERT JUMPDEST PUSH1 0x0 PUSH1 0x80 DUP3 DUP5 SUB SLT ISZERO PUSH2 0x2AF3 JUMPI PUSH1 0x0 DUP1 REVERT JUMPDEST PUSH1 0x40 MLOAD PUSH1 0x80 DUP2 ADD DUP2 DUP2 LT PUSH8 0xFFFFFFFFFFFFFFFF DUP3 GT OR ISZERO PUSH2 0x2B16 JUMPI PUSH2 0x2B16 PUSH2 0x29E0 JUMP JUMPDEST PUSH1 0x40 MSTORE PUSH2 0x2B22 DUP4 PUSH2 0x28CD JUMP JUMPDEST DUP2 MSTORE PUSH2 0x2B30 PUSH1 0x20 DUP5 ADD PUSH2 0x28CD JUMP JUMPDEST PUSH1 0x20 DUP3 ADD MSTORE PUSH1 0x40 DUP4 ADD CALLDATALOAD PUSH1 0x40 DUP3 ADD MSTORE PUSH1 0x60 DUP4 ADD CALLDATALOAD PUSH2 0x2B4D DUP2 PUSH2 0x2AD3 JUMP JUMPDEST PUSH1 0x60 DUP3 ADD MSTORE SWAP4 SWAP3 POP POP POP JUMP JUMPDEST PUSH1 0x0 DUP1 PUSH1 0x0 PUSH1 0x60 DUP5 DUP7 SUB SLT ISZERO PUSH2 0x2B6E JUMPI PUSH1 0x0 DUP1 REVERT JUMPDEST PUSH2 0x2B77 DUP5 PUSH2 0x28CD JUMP JUMPDEST SWAP3 POP PUSH1 0x20 DUP5 ADD CALLDATALOAD SWAP2 POP PUSH1 0x40 DUP5 ADD CALLDATALOAD PUSH2 0x2B8E DUP2 PUSH2 0x2AD3 JUMP JUMPDEST DUP1 SWAP2 POP POP SWAP3 POP SWAP3 POP SWAP3 JUMP JUMPDEST PUSH1 0x0 PUSH1 0x60 DUP3 DUP5 SUB SLT ISZERO PUSH2 0x2BAB JUMPI PUSH1 0x0 DUP1 REVERT JUMPDEST PUSH1 0x40 MLOAD PUSH1 0x60 DUP2 ADD DUP2 DUP2 LT PUSH8 0xFFFFFFFFFFFFFFFF DUP3 GT OR ISZERO PUSH2 0x2BCE JUMPI PUSH2 0x2BCE PUSH2 0x29E0 JUMP JUMPDEST PUSH1 0x40 MSTORE PUSH2 0x2BDA DUP4 PUSH2 0x28CD JUMP JUMPDEST DUP2 MSTORE PUSH1 0x20 DUP4 ADD CALLDATALOAD PUSH1 0x20 DUP3 ADD MSTORE PUSH1 0x40 DUP4 ADD CALLDATALOAD PUSH2 0x2BF4 DUP2 PUSH2 0x2AD3 JUMP JUMPDEST PUSH1 0x40 DUP3 ADD MSTORE SWAP4 SWAP3 POP POP POP JUMP JUMPDEST PUSH1 0x0 DUP1 PUSH1 0x0 PUSH1 0x60 DUP5 DUP7 SUB SLT ISZERO PUSH2 0x2C15 JUMPI PUSH1 0x0 DUP1 REVERT JUMPDEST PUSH2 0x2C1E DUP5 PUSH2 0x28CD JUMP JUMPDEST SWAP3 POP PUSH2 0x2C2C PUSH1 0x20 DUP6 ADD PUSH2 0x28CD JUMP JUMPDEST SWAP2 POP PUSH1 0x40 DUP5 ADD CALLDATALOAD SWAP1 POP SWAP3 POP SWAP3 POP SWAP3 JUMP JUMPDEST PUSH1 0x0 PUSH1 0x20 DUP3 DUP5 SUB SLT ISZERO PUSH2 0x2C4E JUMPI PUSH1 0x0 DUP1 REVERT JUMPDEST DUP2 CALLDATALOAD PUSH8 0xFFFFFFFFFFFFFFFF DUP2 GT ISZERO PUSH2 0x2C65 JUMPI PUSH1 0x0 DUP1 REVERT JUMPDEST PUSH2 0x20FA DUP5 DUP3 DUP6 ADD PUSH2 0x2A6C JUMP JUMPDEST PUSH1 0x0 DUP1 PUSH1 0x40 DUP4 DUP6 SUB SLT ISZERO PUSH2 0x2C84 JUMPI PUSH1 0x0 DUP1 REVERT JUMPDEST PUSH2 0x2C8D DUP4 PUSH2 0x28CD JUMP JUMPDEST SWAP2 POP PUSH1 0x20 DUP4 ADD CALLDATALOAD PUSH2 0x2C9D DUP2 PUSH2 0x2AD3 JUMP JUMPDEST DUP1 SWAP2 POP POP SWAP3 POP SWAP3 SWAP1 POP JUMP JUMPDEST PUSH1 0x0 DUP1 PUSH1 0x0 DUP1 PUSH1 0x80 DUP6 DUP8 SUB SLT ISZERO PUSH2 0x2CBE JUMPI PUSH1 0x0 DUP1 REVERT JUMPDEST PUSH2 0x2CC7 DUP6 PUSH2 0x28CD JUMP JUMPDEST SWAP4 POP PUSH2 0x2CD5 PUSH1 0x20 DUP7 ADD PUSH2 0x28CD JUMP JUMPDEST SWAP3 POP PUSH1 0x40 DUP6 ADD CALLDATALOAD SWAP2 POP PUSH1 0x60 DUP6 ADD CALLDATALOAD PUSH8 0xFFFFFFFFFFFFFFFF DUP2 GT ISZERO PUSH2 0x2CF8 JUMPI PUSH1 0x0 DUP1 REVERT JUMPDEST DUP6 ADD PUSH1 0x1F DUP2 ADD DUP8 SGT PUSH2 0x2D09 JUMPI PUSH1 0x0 DUP1 REVERT JUMPDEST PUSH2 0x2D18 DUP8 DUP3 CALLDATALOAD PUSH1 0x20 DUP5 ADD PUSH2 0x29F6 JUMP JUMPDEST SWAP2 POP POP SWAP3 SWAP6 SWAP2 SWAP5 POP SWAP3 POP JUMP JUMPDEST PUSH1 0x0 DUP1 PUSH1 0x0 PUSH1 0x60 DUP5 DUP7 SUB SLT ISZERO PUSH2 0x2D39 JUMPI PUSH1 0x0 DUP1 REVERT JUMPDEST PUSH2 0x2D42 DUP5 PUSH2 0x28CD JUMP JUMPDEST SWAP3 POP PUSH1 0x20 DUP5 ADD CALLDATALOAD SWAP2 POP PUSH1 0x40 DUP5 ADD CALLDATALOAD PUSH8 0xFFFFFFFFFFFFFFFF DUP2 GT ISZERO PUSH2 0x2D65 JUMPI PUSH1 0x0 DUP1 REVERT JUMPDEST PUSH2 0x2D71 DUP7 DUP3 DUP8 ADD PUSH2 0x2A6C JUMP JUMPDEST SWAP2 POP POP SWAP3 POP SWAP3 POP SWAP3 JUMP JUMPDEST PUSH1 0x0 DUP1 PUSH1 0x40 DUP4 DUP6 SUB SLT ISZERO PUSH2 0x2D8E JUMPI PUSH1 0x0 DUP1 REVERT JUMPDEST PUSH2 0x2D97 DUP4 PUSH2 0x28CD JUMP JUMPDEST SWAP2 POP PUSH2 0x2DA5 PUSH1 0x20 DUP5 ADD PUSH2 0x28CD JUMP JUMPDEST SWAP1 POP SWAP3 POP SWAP3 SWAP1 POP JUMP JUMPDEST PUSH1 0x1 DUP2 DUP2 SHR SWAP1 DUP3 AND DUP1 PUSH2 0x2DC2 JUMPI PUSH1 0x7F DUP3 AND SWAP2 POP JUMPDEST PUSH1 0x20 DUP3 LT DUP2 EQ ISZERO PUSH2 0x2DE3 JUMPI PUSH4 0x4E487B71 PUSH1 0xE0 SHL PUSH1 0x0 MSTORE PUSH1 0x22 PUSH1 0x4 MSTORE PUSH1 0x24 PUSH1 0x0 REVERT JUMPDEST POP SWAP2 SWAP1 POP JUMP JUMPDEST PUSH1 0x0 DUP3 MLOAD PUSH2 0x2DFB DUP2 DUP5 PUSH1 0x20 DUP8 ADD PUSH2 0x2932 JUMP JUMPDEST SWAP2 SWAP1 SWAP2 ADD SWAP3 SWAP2 POP POP JUMP JUMPDEST PUSH1 0x0 PUSH1 0x20 DUP3 DUP5 SUB SLT ISZERO PUSH2 0x2E17 JUMPI PUSH1 0x0 DUP1 REVERT JUMPDEST DUP2 MLOAD PUSH2 0x1B45 DUP2 PUSH2 0x2AD3 JUMP JUMPDEST PUSH4 0x4E487B71 PUSH1 0xE0 SHL PUSH1 0x0 MSTORE PUSH1 0x11 PUSH1 0x4 MSTORE PUSH1 0x24 PUSH1 0x0 REVERT JUMPDEST PUSH1 0x0 DUP3 NOT DUP3 GT ISZERO PUSH2 0x2E4B JUMPI PUSH2 0x2E4B PUSH2 0x2E22 JUMP JUMPDEST POP ADD SWAP1 JUMP JUMPDEST PUSH1 0x20 DUP1 DUP3 MSTORE PUSH1 0x2E SWAP1 DUP3 ADD MSTORE PUSH32 0x4552433732313A2063616C6C6572206973206E6F7420746F6B656E206F776E65 PUSH1 0x40 DUP3 ADD MSTORE PUSH14 0x1C881B9BDC88185C1C1C9BDD9959 PUSH1 0x92 SHL PUSH1 0x60 DUP3 ADD MSTORE PUSH1 0x80 ADD SWAP1 JUMP JUMPDEST DUP1 SLOAD PUSH1 0x0 SWAP1 PUSH1 0x1 DUP2 DUP2 SHR SWAP1 DUP1 DUP4 AND DUP1 PUSH2 0x2EB8 JUMPI PUSH1 0x7F DUP4 AND SWAP3 POP JUMPDEST PUSH1 0x20 DUP1 DUP5 LT DUP3 EQ ISZERO PUSH2 0x2EDA JUMPI PUSH4 0x4E487B71 PUSH1 0xE0 SHL PUSH1 0x0 MSTORE PUSH1 0x22 PUSH1 0x4 MSTORE PUSH1 0x24 PUSH1 0x0 REVERT JUMPDEST DUP2 DUP1 ISZERO PUSH2 0x2EEE JUMPI PUSH1 0x1 DUP2 EQ PUSH2 0x2EFF JUMPI PUSH2 0x2F2C JUMP JUMPDEST PUSH1 0xFF NOT DUP7 AND DUP10 MSTORE DUP5 DUP10 ADD SWAP7 POP PUSH2 0x2F2C JUMP JUMPDEST PUSH1 0x0 DUP9 DUP2 MSTORE PUSH1 0x20 SWAP1 KECCAK256 PUSH1 0x0 JUMPDEST DUP7 DUP2 LT ISZERO PUSH2 0x2F24 JUMPI DUP2 SLOAD DUP12 DUP3 ADD MSTORE SWAP1 DUP6 ADD SWAP1 DUP4 ADD PUSH2 0x2F0B JUMP JUMPDEST POP POP DUP5 DUP10 ADD SWAP7 POP JUMPDEST POP POP POP POP POP POP SWAP3 SWAP2 POP POP JUMP JUMPDEST PUSH1 0x0 PUSH2 0x20FA PUSH2 0x2F47 DUP4 DUP7 PUSH2 0x2E9E JUMP JUMPDEST DUP5 PUSH2 0x2E9E JUMP JUMPDEST PUSH1 0x0 DUP4 MLOAD PUSH2 0x2F5F DUP2 DUP5 PUSH1 0x20 DUP9 ADD PUSH2 0x2932 JUMP JUMPDEST DUP4 MLOAD SWAP1 DUP4 ADD SWAP1 PUSH2 0x2F73 DUP2 DUP4 PUSH1 0x20 DUP9 ADD PUSH2 0x2932 JUMP JUMPDEST ADD SWAP5 SWAP4 POP POP POP POP JUMP JUMPDEST PUSH1 0x0 DUP3 DUP3 LT ISZERO PUSH2 0x2F8E JUMPI PUSH2 0x2F8E PUSH2 0x2E22 JUMP JUMPDEST POP SUB SWAP1 JUMP JUMPDEST PUSH1 0x20 DUP1 DUP3 MSTORE PUSH1 0x32 SWAP1 DUP3 ADD MSTORE PUSH32 0x4552433732313A207472616E7366657220746F206E6F6E204552433732315265 PUSH1 0x40 DUP3 ADD MSTORE PUSH18 0x31B2B4BB32B91034B6B83632B6B2B73A32B9 PUSH1 0x71 SHL PUSH1 0x60 DUP3 ADD MSTORE PUSH1 0x80 ADD SWAP1 JUMP JUMPDEST PUSH1 0x0 PUSH1 0x0 NOT DUP3 EQ ISZERO PUSH2 0x2FF9 JUMPI PUSH2 0x2FF9 PUSH2 0x2E22 JUMP JUMPDEST POP PUSH1 0x1 ADD SWAP1 JUMP JUMPDEST PUSH4 0x4E487B71 PUSH1 0xE0 SHL PUSH1 0x0 MSTORE PUSH1 0x12 PUSH1 0x4 MSTORE PUSH1 0x24 PUSH1 0x0 REVERT JUMPDEST PUSH1 0x0 DUP3 PUSH2 0x3025 JUMPI PUSH2 0x3025 PUSH2 0x3000 JUMP JUMPDEST POP DIV SWAP1 JUMP JUMPDEST PUSH1 0x0 DUP3 PUSH2 0x3039 JUMPI PUSH2 0x3039 PUSH2 0x3000 JUMP JUMPDEST POP MOD SWAP1 JUMP JUMPDEST PUSH4 0x4E487B71 PUSH1 0xE0 SHL PUSH1 0x0 MSTORE PUSH1 0x32 PUSH1 0x4 MSTORE PUSH1 0x24 PUSH1 0x0 REVERT JUMPDEST PUSH1 0x1 PUSH1 0x1 PUSH1 0xA0 SHL SUB DUP6 DUP2 AND DUP3 MSTORE DUP5 AND PUSH1 0x20 DUP3 ADD MSTORE PUSH1 0x40 DUP2 ADD DUP4 SWAP1 MSTORE PUSH1 0x80 PUSH1 0x60 DUP3 ADD DUP2 SWAP1 MSTORE PUSH1 0x0 SWAP1 PUSH2 0x3087 SWAP1 DUP4 ADD DUP5 PUSH2 0x295E JUMP JUMPDEST SWAP7 SWAP6 POP POP POP POP POP POP JUMP JUMPDEST PUSH1 0x0 PUSH1 0x20 DUP3 DUP5 SUB SLT ISZERO PUSH2 0x30A3 JUMPI PUSH1 0x0 DUP1 REVERT JUMPDEST DUP2 MLOAD PUSH2 0x1B45 DUP2 PUSH2 0x28FF JUMP INVALID PUSH2 0x6464 PUSH19 0x657373206973206E6F74206F776E6572206F66 KECCAK256 PUSH21 0x6865206C616E64206E6674206F7220766965772072 PUSH10 0x67687473206973206E6F PUSH21 0x2070726F7669646564A2646970667358221220D9DE 0x2F INVALID CALLDATALOAD MULMOD 0xF8 0x5E 0x28 0xB0 PUSH31 0x4B565BC514E754D8EA40C4652DA67AE1DE97D113A364736F6C634300080900 CALLER PUSH9 0x747470733A2F2F6970 PUSH7 0x732E696F2F6970 PUSH7 0x732F516D536633 CODECOPY PUSH10 0x7A5A3269534865587053 JUMPI 0x4B PUSH20 0x6644457A716B45664874683666384C7558645731 NUMBER PUSH4 0x67653342 "},"methodIdentifiers":{"IID_IERC721()":"e0966dad","L2ApproverStatusForL1Approver(address,uint256)":"1be7fd6f","LandRequesterStatus(address,uint256)":"229d1a35","approve(address,uint256)":"095ea7b3","approveAndTransferLand1((address,uint256,bool))":"c84c2a80","approveByL1((address,uint256,bool))":"1d9a6730","approveByL2((address,address,uint256,bool))":"1bd036b1","balanceOf(address)":"70a08231","burn(uint256)":"42966c68","contractURI()":"e8a3d485","getApproved(uint256)":"081812fc","isApprovedForAll(address,address)":"e985e9c5","landDocumentViewRequestApprove(address,uint256,bool)":"5b0b6ead","metadataUri()":"77a4d559","mint(address,uint256,string)":"d3fc9864","name()":"06fdde03","owner()":"8da5cb5b","ownerDecisionforRaisedRequest(address,uint256,bool)":"1c6bab43","ownerOf(uint256)":"6352211e","registrationForLandByBuyer(uint256,string)":"caf3be1d","renounceOwnership()":"715018a6","requestLandForSale(uint256)":"87c93d06","safeTransferFrom(address,address,uint256)":"42842e0e","safeTransferFrom(address,address,uint256,bytes)":"b88d4fde","setApprovalForAll(address,bool)":"a22cb465","setContractURI(string)":"938e3d7b","setTokenURI(uint256,string)":"162094c4","supportsInterface(bytes4)":"01ffc9a7","symbol()":"95d89b41","tokenURI(uint256)":"c87b56dd","transferFrom(address,address,uint256)":"23b872dd","transferOwnership(address)":"f2fde38b","viewDocumentByOwnerOrLevelApprovers(address,uint256)":"a3821b59","viewDocumentByRequesters(address,uint256)":"63b5648e","whitelistApproverL1(address)":"15fe58f2","whitelistApproverL2(address)":"0139ac1e","whitelistUserContract(address)":"fb39cf52"}},"storageLayout":{"storage":[{"astId":138,"contract":"contracts/YexleAppian.sol:YexleAppian","label":"_name","offset":0,"slot":"0","type":"t_string_storage"},{"astId":140,"contract":"contracts/YexleAppian.sol:YexleAppian","label":"_symbol","offset":0,"slot":"1","type":"t_string_storage"},{"astId":144,"contract":"contracts/YexleAppian.sol:YexleAppian","label":"_owners","offset":0,"slot":"2","type":"t_mapping(t_uint256,t_address)"},{"astId":148,"contract":"contracts/YexleAppian.sol:YexleAppian","label":"_balances","offset":0,"slot":"3","type":"t_mapping(t_address,t_uint256)"},{"astId":152,"contract":"contracts/YexleAppian.sol:YexleAppian","label":"_tokenApprovals","offset":0,"slot":"4","type":"t_mapping(t_uint256,t_address)"},{"astId":158,"contract":"contracts/YexleAppian.sol:YexleAppian","label":"_operatorApprovals","offset":0,"slot":"5","type":"t_mapping(t_address,t_mapping(t_address,t_bool))"},{"astId":7,"contract":"contracts/YexleAppian.sol:YexleAppian","label":"_owner","offset":0,"slot":"6","type":"t_address"},{"astId":2024,"contract":"contracts/YexleAppian.sol:YexleAppian","label":"userContract","offset":0,"slot":"7","type":"t_address"},{"astId":2026,"contract":"contracts/YexleAppian.sol:YexleAppian","label":"L1Approver","offset":0,"slot":"8","type":"t_address"},{"astId":2028,"contract":"contracts/YexleAppian.sol:YexleAppian","label":"L2Approver","offset":0,"slot":"9","type":"t_address"},{"astId":2030,"contract":"contracts/YexleAppian.sol:YexleAppian","label":"contracturi","offset":0,"slot":"10","type":"t_string_storage"},{"astId":2032,"contract":"contracts/YexleAppian.sol:YexleAppian","label":"metadataUri","offset":0,"slot":"11","type":"t_string_storage"},{"astId":2034,"contract":"contracts/YexleAppian.sol:YexleAppian","label":"totalLimit","offset":0,"slot":"12","type":"t_uint256"},{"astId":2082,"contract":"contracts/YexleAppian.sol:YexleAppian","label":"administrators","offset":0,"slot":"13","type":"t_mapping(t_address,t_bool)"},{"astId":2086,"contract":"contracts/YexleAppian.sol:YexleAppian","label":"holdUri","offset":0,"slot":"14","type":"t_mapping(t_uint256,t_string_storage)"},{"astId":2090,"contract":"contracts/YexleAppian.sol:YexleAppian","label":"_owners","offset":0,"slot":"15","type":"t_mapping(t_uint256,t_address)"},{"astId":2094,"contract":"contracts/YexleAppian.sol:YexleAppian","label":"approverAddress","offset":0,"slot":"16","type":"t_mapping(t_address,t_bool)"},{"astId":2098,"contract":"contracts/YexleAppian.sol:YexleAppian","label":"approvecount","offset":0,"slot":"17","type":"t_mapping(t_uint256,t_uint256)"},{"astId":2104,"contract":"contracts/YexleAppian.sol:YexleAppian","label":"voteRecord","offset":0,"slot":"18","type":"t_mapping(t_address,t_mapping(t_uint256,t_bool))"},{"astId":2110,"contract":"contracts/YexleAppian.sol:YexleAppian","label":"approverDecision","offset":0,"slot":"19","type":"t_mapping(t_uint256,t_mapping(t_address,t_bool))"},{"astId":2116,"contract":"contracts/YexleAppian.sol:YexleAppian","label":"landRequest","offset":0,"slot":"20","type":"t_mapping(t_uint256,t_mapping(t_address,t_bool))"},{"astId":2120,"contract":"contracts/YexleAppian.sol:YexleAppian","label":"ownerAcceptLandSales","offset":0,"slot":"21","type":"t_mapping(t_address,t_bool)"},{"astId":2124,"contract":"contracts/YexleAppian.sol:YexleAppian","label":"saleStatus","offset":0,"slot":"22","type":"t_mapping(t_uint256,t_bool)"},{"astId":2128,"contract":"contracts/YexleAppian.sol:YexleAppian","label":"registrationDocument","offset":0,"slot":"23","type":"t_mapping(t_uint256,t_string_storage)"},{"astId":2132,"contract":"contracts/YexleAppian.sol:YexleAppian","label":"registrationDocumentStatus","offset":0,"slot":"24","type":"t_mapping(t_uint256,t_bool)"},{"astId":2138,"contract":"contracts/YexleAppian.sol:YexleAppian","label":"L1statusForRequester","offset":0,"slot":"25","type":"t_mapping(t_address,t_mapping(t_uint256,t_bool))"},{"astId":2144,"contract":"contracts/YexleAppian.sol:YexleAppian","label":"viewAccessGranted","offset":0,"slot":"26","type":"t_mapping(t_address,t_mapping(t_uint256,t_bool))"},{"astId":2150,"contract":"contracts/YexleAppian.sol:YexleAppian","label":"L2statusForRequester","offset":0,"slot":"27","type":"t_mapping(t_address,t_mapping(t_uint256,t_bool))"},{"astId":2156,"contract":"contracts/YexleAppian.sol:YexleAppian","label":"L2statusForL1Approver","offset":0,"slot":"28","type":"t_mapping(t_address,t_mapping(t_uint256,t_bool))"},{"astId":2160,"contract":"contracts/YexleAppian.sol:YexleAppian","label":"L1approverDecision","offset":0,"slot":"29","type":"t_mapping(t_uint256,t_bool)"},{"astId":2164,"contract":"contracts/YexleAppian.sol:YexleAppian","label":"L2approverDecision","offset":0,"slot":"30","type":"t_mapping(t_uint256,t_bool)"}],"types":{"t_address":{"encoding":"inplace","label":"address","numberOfBytes":"20"},"t_bool":{"encoding":"inplace","label":"bool","numberOfBytes":"1"},"t_mapping(t_address,t_bool)":{"encoding":"mapping","key":"t_address","label":"mapping(address => bool)","numberOfBytes":"32","value":"t_bool"},"t_mapping(t_address,t_mapping(t_address,t_bool))":{"encoding":"mapping","key":"t_address","label":"mapping(address => mapping(address => bool))","numberOfBytes":"32","value":"t_mapping(t_address,t_bool)"},"t_mapping(t_address,t_mapping(t_uint256,t_bool))":{"encoding":"mapping","key":"t_address","label":"mapping(address => mapping(uint256 => bool))","numberOfBytes":"32","value":"t_mapping(t_uint256,t_bool)"},"t_mapping(t_address,t_uint256)":{"encoding":"mapping","key":"t_address","label":"mapping(address => uint256)","numberOfBytes":"32","value":"t_uint256"},"t_mapping(t_uint256,t_address)":{"encoding":"mapping","key":"t_uint256","label":"mapping(uint256 => address)","numberOfBytes":"32","value":"t_address"},"t_mapping(t_uint256,t_bool)":{"encoding":"mapping","key":"t_uint256","label":"mapping(uint256 => bool)","numberOfBytes":"32","value":"t_bool"},"t_mapping(t_uint256,t_mapping(t_address,t_bool))":{"encoding":"mapping","key":"t_uint256","label":"mapping(uint256 => mapping(address => bool))","numberOfBytes":"32","value":"t_mapping(t_address,t_bool)"},"t_mapping(t_uint256,t_string_storage)":{"encoding":"mapping","key":"t_uint256","label":"mapping(uint256 => string)","numberOfBytes":"32","value":"t_string_storage"},"t_mapping(t_uint256,t_uint256)":{"encoding":"mapping","key":"t_uint256","label":"mapping(uint256 => uint256)","numberOfBytes":"32","value":"t_uint256"},"t_string_storage":{"encoding":"bytes","label":"string","numberOfBytes":"32"},"t_uint256":{"encoding":"inplace","label":"uint256","numberOfBytes":"32"}}}}}}