{
  "_format": "hh-sol-artifact-1",
  "contractName": "UserContractMetaTx",
  "sourceName": "contracts/metaTx_Appian/UserContractMetaTx.sol",
  "abi": [
    {
      "inputs": [
        {
          "internalType": "address",
          "name": "_trustedForwarder",
          "type": "address"
        }
      ],
      "stateMutability": "nonpayable",
      "type": "constructor"
    },
    {
      "inputs": [],
      "name": "addressAlreadyRegistered",
      "type": "error"
    },
    {
      "inputs": [],
      "name": "adminAlreadyExist",
      "type": "error"
    },
    {
      "inputs": [],
      "name": "approverAlreadyExist",
      "type": "error"
    },
    {
      "inputs": [],
      "name": "notAdmin",
      "type": "error"
    },
    {
      "inputs": [],
      "name": "notL1Address",
      "type": "error"
    },
    {
      "inputs": [],
      "name": "zeroAddressNotSupported",
      "type": "error"
    },
    {
      "anonymous": false,
      "inputs": [
        {
          "indexed": true,
          "internalType": "address",
          "name": "previousOwner",
          "type": "address"
        },
        {
          "indexed": true,
          "internalType": "address",
          "name": "newOwner",
          "type": "address"
        }
      ],
      "name": "OwnershipTransferred",
      "type": "event"
    },
    {
      "inputs": [],
      "name": "L1ApproverAddress",
      "outputs": [
        {
          "internalType": "address",
          "name": "",
          "type": "address"
        }
      ],
      "stateMutability": "view",
      "type": "function"
    },
    {
      "inputs": [
        {
          "internalType": "address",
          "name": "_ad",
          "type": "address"
        }
      ],
      "name": "addUser",
      "outputs": [],
      "stateMutability": "nonpayable",
      "type": "function"
    },
    {
      "inputs": [
        {
          "components": [
            {
              "internalType": "address",
              "name": "_ad",
              "type": "address"
            }
          ],
          "internalType": "struct UserContractMetaTx.userBulkData[]",
          "name": "_userData",
          "type": "tuple[]"
        }
      ],
      "name": "addUserBulk",
      "outputs": [],
      "stateMutability": "nonpayable",
      "type": "function"
    },
    {
      "inputs": [],
      "name": "getAllUserAddress",
      "outputs": [
        {
          "internalType": "address[]",
          "name": "",
          "type": "address[]"
        }
      ],
      "stateMutability": "view",
      "type": "function"
    },
    {
      "inputs": [
        {
          "internalType": "address",
          "name": "forwarder",
          "type": "address"
        }
      ],
      "name": "isTrustedForwarder",
      "outputs": [
        {
          "internalType": "bool",
          "name": "",
          "type": "bool"
        }
      ],
      "stateMutability": "view",
      "type": "function"
    },
    {
      "inputs": [],
      "name": "owner",
      "outputs": [
        {
          "internalType": "address",
          "name": "",
          "type": "address"
        }
      ],
      "stateMutability": "view",
      "type": "function"
    },
    {
      "inputs": [],
      "name": "renounceOwnership",
      "outputs": [],
      "stateMutability": "nonpayable",
      "type": "function"
    },
    {
      "inputs": [
        {
          "internalType": "address",
          "name": "_newForwarder",
          "type": "address"
        }
      ],
      "name": "setTrustedForwarder",
      "outputs": [],
      "stateMutability": "nonpayable",
      "type": "function"
    },
    {
      "inputs": [
        {
          "internalType": "address",
          "name": "newOwner",
          "type": "address"
        }
      ],
      "name": "transferOwnership",
      "outputs": [],
      "stateMutability": "nonpayable",
      "type": "function"
    },
    {
      "inputs": [],
      "name": "trustedForwarder",
      "outputs": [
        {
          "internalType": "address",
          "name": "",
          "type": "address"
        }
      ],
      "stateMutability": "view",
      "type": "function"
    },
    {
      "inputs": [
        {
          "internalType": "address",
          "name": "_ad",
          "type": "address"
        }
      ],
      "name": "verifyUser",
      "outputs": [
        {
          "internalType": "bool",
          "name": "",
          "type": "bool"
        }
      ],
      "stateMutability": "view",
      "type": "function"
    },
    {
      "inputs": [],
      "name": "versionRecipient",
      "outputs": [
        {
          "internalType": "string",
          "name": "",
          "type": "string"
        }
      ],
      "stateMutability": "pure",
      "type": "function"
    },
    {
      "inputs": [
        {
          "internalType": "address",
          "name": "_approverAd",
          "type": "address"
        }
      ],
      "name": "whitelistApproverL1",
      "outputs": [],
      "stateMutability": "nonpayable",
      "type": "function"
    }
  ],
  "bytecode": "0x60a060405234801561001057600080fd5b50604051610b7e380380610b7e83398101604081905261002f91610113565b6001600160a01b03811660805261004c610047610071565b61008a565b600180546001600160a01b0319166001600160a01b0392909216919091179055610143565b60006100856100da60201b61066c1760201c565b905090565b600080546001600160a01b038381166001600160a01b0319831681178455604051919092169283917f8be0079c531659141344cd1fd0a4f28419497f9722a3daafe3b4186f6b6457e09190a35050565b6080516000906001600160a01b03163314156100fd575060131936013560601c90565b61008561010f60201b6106b61760201c565b3390565b60006020828403121561012557600080fd5b81516001600160a01b038116811461013c57600080fd5b9392505050565b608051610a19610165600039600081816101a801526106700152610a196000f3fe608060405234801561001057600080fd5b50600436106100cf5760003560e01c80634d8131201161008c5780637da0a877116100665780637da0a877146101e05780638da5cb5b146101f3578063da74222814610204578063f2fde38b1461021757600080fd5b80634d81312014610175578063572b6c0514610198578063715018a6146101d857600080fd5b8063149440d9146100d457806315fe58f2146100f257806338878efe14610107578063421b2d8b1461012c578063473e4bca1461013f578063486ff0cd14610152575b600080fd5b6100dc61022a565b6040516100e9919061078d565b60405180910390f35b6101056101003660046107f1565b61028c565b005b6004546001600160a01b03165b6040516001600160a01b0390911681526020016100e9565b61010561013a3660046107f1565b610331565b61010561014d366004610883565b610411565b60408051808201825260018152603160f81b602082015290516100e9919061094f565b6101886101833660046107f1565b61057a565b60405190151581526020016100e9565b6101886101a63660046107f1565b7f00000000000000000000000000000000000000000000000000000000000000006001600160a01b0390811691161490565b6101056105b0565b600154610114906001600160a01b031681565b6000546001600160a01b0316610114565b6101056102123660046107f1565b6105c4565b6101056102253660046107f1565b6105ee565b6060600280548060200260200160405190810160405280929190818152602001828054801561028257602002820191906000526020600020905b81546001600160a01b03168152600190910190602001808311610264575b5050505050905090565b6102946106ba565b6001600160a01b0381166102bb57604051639b15b39560e01b815260040160405180910390fd5b6001600160a01b03811660009081526007602052604090205460ff161515600114156102fa57604051636ad412ed60e11b815260040160405180910390fd5b6001600160a01b03166000818152600760205260409020805460ff19166001179055600480546001600160a01b0319169091179055565b6004546001600160a01b0316610345610733565b6001600160a01b03161461036c576040516306fbf53160e11b815260040160405180910390fd5b6001600160a01b03811660009081526005602052604090205460ff161515600114156103ab576040516394c7406f60e01b815260040160405180910390fd5b6001600160a01b03166000818152600560205260408120805460ff191660019081179091556002805491820181559091527f405787fa12a823e0f2b7631cc41b3ba8828b3321ca811111fa75cd3aa3bb5ace0180546001600160a01b0319169091179055565b6004546001600160a01b0316610425610733565b6001600160a01b03161461044c576040516306fbf53160e11b815260040160405180910390fd5b60005b8151811015610576576005600083838151811061046e5761046e6109a4565b602090810291909101810151516001600160a01b031682528101919091526040016000205460ff161515600114156104b9576040516394c7406f60e01b815260040160405180910390fd5b6001600560008484815181106104d1576104d16109a4565b6020026020010151600001516001600160a01b03166001600160a01b0316815260200190815260200160002060006101000a81548160ff0219169083151502179055506002828281518110610528576105286109a4565b6020908102919091018101515182546001810184556000938452919092200180546001600160a01b0319166001600160a01b039092169190911790558061056e816109ba565b91505061044f565b5050565b6001600160a01b03811660009081526005602052604081205460ff16156105a357506001919050565b506000919050565b919050565b6105b86106ba565b6105c2600061073d565b565b6105cc6106ba565b600180546001600160a01b0319166001600160a01b0392909216919091179055565b6105f66106ba565b6001600160a01b0381166106605760405162461bcd60e51b815260206004820152602660248201527f4f776e61626c653a206e6577206f776e657220697320746865207a65726f206160448201526564647265737360d01b60648201526084015b60405180910390fd5b6106698161073d565b50565b60007f00000000000000000000000000000000000000000000000000000000000000006001600160a01b03163314156106ac575060131936013560601c90565b503390565b905090565b3390565b6106c2610733565b6001600160a01b03166106dd6000546001600160a01b031690565b6001600160a01b0316146105c25760405162461bcd60e51b815260206004820181905260248201527f4f776e61626c653a2063616c6c6572206973206e6f7420746865206f776e65726044820152606401610657565b60006106b161066c565b600080546001600160a01b038381166001600160a01b0319831681178455604051919092169283917f8be0079c531659141344cd1fd0a4f28419497f9722a3daafe3b4186f6b6457e09190a35050565b6020808252825182820181905260009190848201906040850190845b818110156107ce5783516001600160a01b0316835292840192918401916001016107a9565b50909695505050505050565b80356001600160a01b03811681146105ab57600080fd5b60006020828403121561080357600080fd5b61080c826107da565b9392505050565b634e487b7160e01b600052604160045260246000fd5b6040516020810167ffffffffffffffff8111828210171561084c5761084c610813565b60405290565b604051601f8201601f1916810167ffffffffffffffff8111828210171561087b5761087b610813565b604052919050565b6000602080838503121561089657600080fd5b823567ffffffffffffffff808211156108ae57600080fd5b818501915085601f8301126108c257600080fd5b8135818111156108d4576108d4610813565b8060051b91506108e5848301610852565b81815291830184019184810190888411156108ff57600080fd5b938501935b838510156109435785858a03121561091e57600092508283fd5b610926610829565b9250610931856107da565b83528282529385019390850190610904565b98975050505050505050565b600060208083528351808285015260005b8181101561097c57858101830151858201604001528201610960565b8181111561098e576000604083870101525b50601f01601f1916929092016040019392505050565b634e487b7160e01b600052603260045260246000fd5b60006000198214156109dc57634e487b7160e01b600052601160045260246000fd5b506001019056fea2646970667358221220d73de69c77c7d2c7f596ef96e09c3cb505e900e0d06a762e0b63efbc0cee37f864736f6c63430008090033",
  "linkReferences": {},
  "deployedLinkReferences": {}
}