{
  "_format": "hh-sol-artifact-1",
  "contractName": "YexleMetaTx",
  "sourceName": "contracts/metaTx_Appian/YexleMetaTx.sol",
  "abi": [
    {
      "inputs": [
        {
          "internalType": "string",
          "name": "_metadata",
          "type": "string"
        },
        {
          "internalType": "address",
          "name": "_trustedForwarder",
          "type": "address"
        }
      ],
      "stateMutability": "nonpayable",
      "type": "constructor"
    },
    {
      "inputs": [],
      "name": "L1Rejected",
      "type": "error"
    },
    {
      "inputs": [],
      "name": "NotAnAdmin",
      "type": "error"
    },
    {
      "inputs": [],
      "name": "NotOwnerOfID",
      "type": "error"
    },
    {
      "inputs": [],
      "name": "URIQueryForNonexistentToken",
      "type": "error"
    },
    {
      "inputs": [],
      "name": "alreadyApproved",
      "type": "error"
    },
    {
      "inputs": [],
      "name": "approverAlreadyExist",
      "type": "error"
    },
    {
      "inputs": [],
      "name": "notApproverAddress",
      "type": "error"
    },
    {
      "inputs": [],
      "name": "notL1Approver",
      "type": "error"
    },
    {
      "inputs": [],
      "name": "notL2Approver",
      "type": "error"
    },
    {
      "inputs": [],
      "name": "ownerRejectedTheOffer",
      "type": "error"
    },
    {
      "inputs": [],
      "name": "userContractError",
      "type": "error"
    },
    {
      "inputs": [],
      "name": "zeroAddressNotSupported",
      "type": "error"
    },
    {
      "anonymous": false,
      "inputs": [
        {
          "indexed": true,
          "internalType": "address",
          "name": "Viewer",
          "type": "address"
        },
        {
          "indexed": true,
          "internalType": "uint256",
          "name": "Token",
          "type": "uint256"
        }
      ],
      "name": "AccessGrantedToView",
      "type": "event"
    },
    {
      "anonymous": false,
      "inputs": [
        {
          "indexed": true,
          "internalType": "address",
          "name": "owner",
          "type": "address"
        },
        {
          "indexed": true,
          "internalType": "address",
          "name": "approved",
          "type": "address"
        },
        {
          "indexed": true,
          "internalType": "uint256",
          "name": "tokenId",
          "type": "uint256"
        }
      ],
      "name": "Approval",
      "type": "event"
    },
    {
      "anonymous": false,
      "inputs": [
        {
          "indexed": true,
          "internalType": "address",
          "name": "owner",
          "type": "address"
        },
        {
          "indexed": true,
          "internalType": "address",
          "name": "operator",
          "type": "address"
        },
        {
          "indexed": false,
          "internalType": "bool",
          "name": "approved",
          "type": "bool"
        }
      ],
      "name": "ApprovalForAll",
      "type": "event"
    },
    {
      "anonymous": false,
      "inputs": [
        {
          "indexed": false,
          "internalType": "address",
          "name": "to",
          "type": "address"
        }
      ],
      "name": "OwnershipGranted",
      "type": "event"
    },
    {
      "anonymous": false,
      "inputs": [
        {
          "indexed": true,
          "internalType": "address",
          "name": "from",
          "type": "address"
        },
        {
          "indexed": true,
          "internalType": "address",
          "name": "to",
          "type": "address"
        },
        {
          "indexed": true,
          "internalType": "uint256",
          "name": "tokenId",
          "type": "uint256"
        }
      ],
      "name": "OwnershipTransferOfLand",
      "type": "event"
    },
    {
      "anonymous": false,
      "inputs": [
        {
          "indexed": true,
          "internalType": "address",
          "name": "previousOwner",
          "type": "address"
        },
        {
          "indexed": true,
          "internalType": "address",
          "name": "newOwner",
          "type": "address"
        }
      ],
      "name": "OwnershipTransferred",
      "type": "event"
    },
    {
      "anonymous": false,
      "inputs": [
        {
          "indexed": true,
          "internalType": "address",
          "name": "from",
          "type": "address"
        },
        {
          "indexed": true,
          "internalType": "address",
          "name": "to",
          "type": "address"
        },
        {
          "indexed": true,
          "internalType": "uint256",
          "name": "tokenId",
          "type": "uint256"
        }
      ],
      "name": "Transfer",
      "type": "event"
    },
    {
      "inputs": [],
      "name": "IID_IERC721",
      "outputs": [
        {
          "internalType": "bytes4",
          "name": "",
          "type": "bytes4"
        }
      ],
      "stateMutability": "view",
      "type": "function"
    },
    {
      "inputs": [
        {
          "internalType": "address",
          "name": "_requester",
          "type": "address"
        },
        {
          "internalType": "uint256",
          "name": "_tokenId",
          "type": "uint256"
        }
      ],
      "name": "L2ApproverStatusForL1Approver",
      "outputs": [
        {
          "internalType": "bool",
          "name": "",
          "type": "bool"
        }
      ],
      "stateMutability": "view",
      "type": "function"
    },
    {
      "inputs": [
        {
          "internalType": "address",
          "name": "_requester",
          "type": "address"
        },
        {
          "internalType": "uint256",
          "name": "_tokenId",
          "type": "uint256"
        }
      ],
      "name": "LandRequesterStatus",
      "outputs": [
        {
          "internalType": "bool",
          "name": "ViewDocumentStatus",
          "type": "bool"
        },
        {
          "internalType": "bool",
          "name": "L1ApproverStatusForRequester",
          "type": "bool"
        },
        {
          "internalType": "bool",
          "name": "L2ApproverstatusForRequester",
          "type": "bool"
        },
        {
          "internalType": "uint256",
          "name": "approveCountForTokenIdByApprovers",
          "type": "uint256"
        }
      ],
      "stateMutability": "view",
      "type": "function"
    },
    {
      "inputs": [
        {
          "internalType": "address",
          "name": "to",
          "type": "address"
        },
        {
          "internalType": "uint256",
          "name": "tokenId",
          "type": "uint256"
        }
      ],
      "name": "approve",
      "outputs": [],
      "stateMutability": "nonpayable",
      "type": "function"
    },
    {
      "inputs": [
        {
          "components": [
            {
              "internalType": "address",
              "name": "_sellingTo",
              "type": "address"
            },
            {
              "internalType": "uint256",
              "name": "_tokenId",
              "type": "uint256"
            },
            {
              "internalType": "bool",
              "name": "status",
              "type": "bool"
            }
          ],
          "internalType": "struct YexleMetaTx.approverData",
          "name": "_data",
          "type": "tuple"
        }
      ],
      "name": "approveAndTransferLand1",
      "outputs": [],
      "stateMutability": "nonpayable",
      "type": "function"
    },
    {
      "inputs": [
        {
          "components": [
            {
              "internalType": "address",
              "name": "_sellingTo",
              "type": "address"
            },
            {
              "internalType": "uint256",
              "name": "_tokenId",
              "type": "uint256"
            },
            {
              "internalType": "bool",
              "name": "status",
              "type": "bool"
            }
          ],
          "internalType": "struct YexleMetaTx.approverData",
          "name": "_data",
          "type": "tuple"
        }
      ],
      "name": "approveByL1",
      "outputs": [],
      "stateMutability": "nonpayable",
      "type": "function"
    },
    {
      "inputs": [
        {
          "components": [
            {
              "internalType": "address",
              "name": "_sellingTo",
              "type": "address"
            },
            {
              "internalType": "uint256",
              "name": "_tokenId",
              "type": "uint256"
            },
            {
              "internalType": "bool",
              "name": "status",
              "type": "bool"
            }
          ],
          "internalType": "struct YexleMetaTx.approverData",
          "name": "_data",
          "type": "tuple"
        }
      ],
      "name": "approveByL2",
      "outputs": [],
      "stateMutability": "nonpayable",
      "type": "function"
    },
    {
      "inputs": [
        {
          "internalType": "address",
          "name": "owner",
          "type": "address"
        }
      ],
      "name": "balanceOf",
      "outputs": [
        {
          "internalType": "uint256",
          "name": "",
          "type": "uint256"
        }
      ],
      "stateMutability": "view",
      "type": "function"
    },
    {
      "inputs": [
        {
          "internalType": "uint256",
          "name": "tokenId",
          "type": "uint256"
        }
      ],
      "name": "burn",
      "outputs": [],
      "stateMutability": "nonpayable",
      "type": "function"
    },
    {
      "inputs": [],
      "name": "contractURI",
      "outputs": [
        {
          "internalType": "string",
          "name": "",
          "type": "string"
        }
      ],
      "stateMutability": "view",
      "type": "function"
    },
    {
      "inputs": [
        {
          "internalType": "uint256",
          "name": "tokenId",
          "type": "uint256"
        }
      ],
      "name": "getApproved",
      "outputs": [
        {
          "internalType": "address",
          "name": "",
          "type": "address"
        }
      ],
      "stateMutability": "view",
      "type": "function"
    },
    {
      "inputs": [
        {
          "internalType": "address",
          "name": "owner",
          "type": "address"
        },
        {
          "internalType": "address",
          "name": "operator",
          "type": "address"
        }
      ],
      "name": "isApprovedForAll",
      "outputs": [
        {
          "internalType": "bool",
          "name": "",
          "type": "bool"
        }
      ],
      "stateMutability": "view",
      "type": "function"
    },
    {
      "inputs": [
        {
          "internalType": "address",
          "name": "forwarder",
          "type": "address"
        }
      ],
      "name": "isTrustedForwarder",
      "outputs": [
        {
          "internalType": "bool",
          "name": "",
          "type": "bool"
        }
      ],
      "stateMutability": "view",
      "type": "function"
    },
    {
      "inputs": [
        {
          "internalType": "address",
          "name": "_requester",
          "type": "address"
        },
        {
          "internalType": "uint256",
          "name": "tokenId",
          "type": "uint256"
        },
        {
          "internalType": "bool",
          "name": "_status",
          "type": "bool"
        }
      ],
      "name": "landDocumentViewRequestApprove",
      "outputs": [],
      "stateMutability": "nonpayable",
      "type": "function"
    },
    {
      "inputs": [],
      "name": "metadataUri",
      "outputs": [
        {
          "internalType": "string",
          "name": "",
          "type": "string"
        }
      ],
      "stateMutability": "view",
      "type": "function"
    },
    {
      "inputs": [
        {
          "internalType": "address",
          "name": "_to",
          "type": "address"
        },
        {
          "internalType": "uint256",
          "name": "_tokenId",
          "type": "uint256"
        },
        {
          "internalType": "string",
          "name": "_tokenUri",
          "type": "string"
        }
      ],
      "name": "mint",
      "outputs": [],
      "stateMutability": "nonpayable",
      "type": "function"
    },
    {
      "inputs": [],
      "name": "name",
      "outputs": [
        {
          "internalType": "string",
          "name": "",
          "type": "string"
        }
      ],
      "stateMutability": "view",
      "type": "function"
    },
    {
      "inputs": [
        {
          "internalType": "address",
          "name": "",
          "type": "address"
        },
        {
          "internalType": "address",
          "name": "",
          "type": "address"
        },
        {
          "internalType": "uint256",
          "name": "",
          "type": "uint256"
        },
        {
          "internalType": "bytes",
          "name": "",
          "type": "bytes"
        }
      ],
      "name": "onERC721Received",
      "outputs": [
        {
          "internalType": "bytes4",
          "name": "",
          "type": "bytes4"
        }
      ],
      "stateMutability": "nonpayable",
      "type": "function"
    },
    {
      "inputs": [],
      "name": "owner",
      "outputs": [
        {
          "internalType": "address",
          "name": "",
          "type": "address"
        }
      ],
      "stateMutability": "view",
      "type": "function"
    },
    {
      "inputs": [
        {
          "internalType": "address",
          "name": "_requester",
          "type": "address"
        },
        {
          "internalType": "uint256",
          "name": "_tokenId",
          "type": "uint256"
        },
        {
          "internalType": "bool",
          "name": "_status",
          "type": "bool"
        }
      ],
      "name": "ownerDecisionforRaisedRequest",
      "outputs": [],
      "stateMutability": "nonpayable",
      "type": "function"
    },
    {
      "inputs": [
        {
          "internalType": "uint256",
          "name": "tokenId",
          "type": "uint256"
        }
      ],
      "name": "ownerOf",
      "outputs": [
        {
          "internalType": "address",
          "name": "",
          "type": "address"
        }
      ],
      "stateMutability": "view",
      "type": "function"
    },
    {
      "inputs": [
        {
          "internalType": "uint256",
          "name": "tokenId",
          "type": "uint256"
        },
        {
          "internalType": "string",
          "name": "_DocumentUri",
          "type": "string"
        }
      ],
      "name": "registrationForLandByBuyer",
      "outputs": [],
      "stateMutability": "nonpayable",
      "type": "function"
    },
    {
      "inputs": [],
      "name": "renounceOwnership",
      "outputs": [],
      "stateMutability": "nonpayable",
      "type": "function"
    },
    {
      "inputs": [
        {
          "internalType": "uint256",
          "name": "_tokenId",
          "type": "uint256"
        }
      ],
      "name": "requestLandForSale",
      "outputs": [],
      "stateMutability": "nonpayable",
      "type": "function"
    },
    {
      "inputs": [
        {
          "internalType": "address",
          "name": "from",
          "type": "address"
        },
        {
          "internalType": "address",
          "name": "to",
          "type": "address"
        },
        {
          "internalType": "uint256",
          "name": "tokenId",
          "type": "uint256"
        }
      ],
      "name": "safeTransferFrom",
      "outputs": [],
      "stateMutability": "nonpayable",
      "type": "function"
    },
    {
      "inputs": [
        {
          "internalType": "address",
          "name": "from",
          "type": "address"
        },
        {
          "internalType": "address",
          "name": "to",
          "type": "address"
        },
        {
          "internalType": "uint256",
          "name": "tokenId",
          "type": "uint256"
        },
        {
          "internalType": "bytes",
          "name": "data",
          "type": "bytes"
        }
      ],
      "name": "safeTransferFrom",
      "outputs": [],
      "stateMutability": "nonpayable",
      "type": "function"
    },
    {
      "inputs": [
        {
          "internalType": "address",
          "name": "operator",
          "type": "address"
        },
        {
          "internalType": "bool",
          "name": "approved",
          "type": "bool"
        }
      ],
      "name": "setApprovalForAll",
      "outputs": [],
      "stateMutability": "nonpayable",
      "type": "function"
    },
    {
      "inputs": [
        {
          "internalType": "string",
          "name": "_contractURI",
          "type": "string"
        }
      ],
      "name": "setContractURI",
      "outputs": [
        {
          "internalType": "bool",
          "name": "",
          "type": "bool"
        }
      ],
      "stateMutability": "nonpayable",
      "type": "function"
    },
    {
      "inputs": [
        {
          "internalType": "uint256",
          "name": "_id",
          "type": "uint256"
        },
        {
          "internalType": "string",
          "name": "_tokenUri",
          "type": "string"
        }
      ],
      "name": "setTokenURI",
      "outputs": [],
      "stateMutability": "nonpayable",
      "type": "function"
    },
    {
      "inputs": [
        {
          "internalType": "address",
          "name": "_newForwarder",
          "type": "address"
        }
      ],
      "name": "setTrustedForwarder",
      "outputs": [],
      "stateMutability": "nonpayable",
      "type": "function"
    },
    {
      "inputs": [
        {
          "internalType": "bytes4",
          "name": "interfaceId",
          "type": "bytes4"
        }
      ],
      "name": "supportsInterface",
      "outputs": [
        {
          "internalType": "bool",
          "name": "",
          "type": "bool"
        }
      ],
      "stateMutability": "view",
      "type": "function"
    },
    {
      "inputs": [],
      "name": "symbol",
      "outputs": [
        {
          "internalType": "string",
          "name": "",
          "type": "string"
        }
      ],
      "stateMutability": "view",
      "type": "function"
    },
    {
      "inputs": [
        {
          "internalType": "uint256",
          "name": "tokenId",
          "type": "uint256"
        }
      ],
      "name": "tokenURI",
      "outputs": [
        {
          "internalType": "string",
          "name": "",
          "type": "string"
        }
      ],
      "stateMutability": "view",
      "type": "function"
    },
    {
      "inputs": [
        {
          "internalType": "address",
          "name": "from",
          "type": "address"
        },
        {
          "internalType": "address",
          "name": "to",
          "type": "address"
        },
        {
          "internalType": "uint256",
          "name": "tokenId",
          "type": "uint256"
        }
      ],
      "name": "transferFrom",
      "outputs": [],
      "stateMutability": "nonpayable",
      "type": "function"
    },
    {
      "inputs": [
        {
          "internalType": "address",
          "name": "newOwner",
          "type": "address"
        }
      ],
      "name": "transferOwnership",
      "outputs": [],
      "stateMutability": "nonpayable",
      "type": "function"
    },
    {
      "inputs": [],
      "name": "trustedForwarder",
      "outputs": [
        {
          "internalType": "address",
          "name": "",
          "type": "address"
        }
      ],
      "stateMutability": "view",
      "type": "function"
    },
    {
      "inputs": [],
      "name": "versionRecipient",
      "outputs": [
        {
          "internalType": "string",
          "name": "",
          "type": "string"
        }
      ],
      "stateMutability": "pure",
      "type": "function"
    },
    {
      "inputs": [
        {
          "internalType": "address",
          "name": "_docViewRequester",
          "type": "address"
        },
        {
          "internalType": "uint256",
          "name": "_tokenId",
          "type": "uint256"
        }
      ],
      "name": "viewDocumentByOwnerOrLevelApprovers",
      "outputs": [
        {
          "internalType": "string",
          "name": "DocumentUri",
          "type": "string"
        }
      ],
      "stateMutability": "view",
      "type": "function"
    },
    {
      "inputs": [
        {
          "internalType": "address",
          "name": "_requester",
          "type": "address"
        },
        {
          "internalType": "uint256",
          "name": "_tokenId",
          "type": "uint256"
        }
      ],
      "name": "viewDocumentByRequesters",
      "outputs": [
        {
          "internalType": "string",
          "name": "DocumentURI",
          "type": "string"
        }
      ],
      "stateMutability": "view",
      "type": "function"
    },
    {
      "inputs": [
        {
          "internalType": "address",
          "name": "_approverAd",
          "type": "address"
        }
      ],
      "name": "whitelistApproverL1",
      "outputs": [],
      "stateMutability": "nonpayable",
      "type": "function"
    },
    {
      "inputs": [
        {
          "internalType": "address",
          "name": "_approverAd",
          "type": "address"
        }
      ],
      "name": "whitelistApproverL2",
      "outputs": [],
      "stateMutability": "nonpayable",
      "type": "function"
    },
    {
      "inputs": [
        {
          "internalType": "address",
          "name": "_userContractAd",
          "type": "address"
        }
      ],
      "name": "whitelistUserContract",
      "outputs": [],
      "stateMutability": "nonpayable",
      "type": "function"
    }
  ],
  "bytecode": "0x60a06040523480156200001157600080fd5b50604051620038e5380380620038e58339810160408190526200003491620002be565b604080518082018252600d81526c2cb2bc32b6329020b83834b0b760991b60208083019182528351808501909452600b84526a16595e195b1957d3185b9960aa1b908401526001600160a01b03841660805281519192916200009991600091620001e5565b508051620000af906001906020840190620001e5565b505050620000cc620000c66200013a60201b60201c565b62000156565b600780546001600160a01b0319166001600160a01b0383161790558151620000fc90600c906020850190620001e5565b506000600d5560408051608081019091526043808252620038a2602083013980516200013191600b91602090910190620001e5565b505050620003ec565b600062000151620001a860201b620022d01760201c565b905090565b600680546001600160a01b038381166001600160a01b0319831681179093556040519116919082907f8be0079c531659141344cd1fd0a4f28419497f9722a3daafe3b4186f6b6457e090600090a35050565b6080516000906001600160a01b0316331415620001cc575060131936013560601c90565b62000151620001e160201b6200231a1760201c565b3390565b828054620001f390620003af565b90600052602060002090601f01602090048101928262000217576000855562000262565b82601f106200023257805160ff191683800117855562000262565b8280016001018555821562000262579182015b828111156200026257825182559160200191906001019062000245565b506200027092915062000274565b5090565b5b8082111562000270576000815560010162000275565b634e487b7160e01b600052604160045260246000fd5b80516001600160a01b0381168114620002b957600080fd5b919050565b60008060408385031215620002d257600080fd5b82516001600160401b0380821115620002ea57600080fd5b818501915085601f830112620002ff57600080fd5b8151818111156200031457620003146200028b565b604051601f8201601f19908116603f011681019083821181831017156200033f576200033f6200028b565b816040528281526020935088848487010111156200035c57600080fd5b600091505b8282101562000380578482018401518183018501529083019062000361565b82821115620003925760008484830101525b9550620003a4915050858201620002a1565b925050509250929050565b600181811c90821680620003c457607f821691505b60208210811415620003e657634e487b7160e01b600052602260045260246000fd5b50919050565b6080516134936200040f600039600081816104a601526122d401526134936000f3fe608060405234801561001057600080fd5b506004361061025e5760003560e01c8063715018a611610146578063b88d4fde116100c3578063da74222811610087578063da7422281461062a578063e0966dad1461063d578063e8a3d4851461064b578063e985e9c514610653578063f2fde38b1461068f578063fb39cf52146106a257600080fd5b8063b88d4fde146105cb578063c84c2a80146105de578063c87b56dd146105f1578063caf3be1d14610604578063d3fc98641461061757600080fd5b8063904e6c7c1161010a578063904e6c7c14610577578063938e3d7b1461058a57806395d89b411461059d578063a22cb465146105a5578063a3821b59146105b857600080fd5b8063715018a61461053057806377a4d559146105385780637da0a8771461054057806387c93d06146105535780638da5cb5b1461056657600080fd5b80631d9a6730116101df578063486ff0cd116101a3578063486ff0cd14610479578063572b6c05146104965780635b0b6ead146104d65780636352211e146104e957806363b5648e146104fc57806370a082311461050f57600080fd5b80631d9a673014610391578063229d1a35146103a457806323b872dd1461044057806342842e0e1461045357806342966c681461046657600080fd5b8063150b7a0211610226578063150b7a02146102f357806315fe58f21461031f578063162094c4146103325780631be7fd6f146103455780631c6bab431461037e57600080fd5b80630139ac1e1461026357806301ffc9a71461027857806306fdde03146102a0578063081812fc146102b5578063095ea7b3146102e0575b600080fd5b610276610271366004612cc8565b6106b5565b005b61028b610286366004612cf9565b6107c1565b60405190151581526020015b60405180910390f35b6102a86107ec565b6040516102979190612d6e565b6102c86102c3366004612d81565b61087e565b6040516001600160a01b039091168152602001610297565b6102766102ee366004612d9a565b6108a5565b610306610301366004612e50565b6109d2565b6040516001600160e01b03199091168152602001610297565b61027661032d366004612cc8565b6109e3565b610276610340366004612eec565b610aef565b61028b610353366004612d9a565b6001600160a01b03919091166000908152601d60209081526040808320938352929052205460ff1690565b61027661038c366004612f41565b610bcb565b61027661039f366004612f81565b610dd9565b6104186103b2366004612d9a565b6001600160a01b03919091166000818152601b60209081526040808320858452825280832054848452601a8352818420868552835281842054948452601c83528184209584529482528083205460129092529091205460ff938416949284169390911691565b6040805194151585529215156020850152901515918301919091526060820152608001610297565b61027661044e366004612fe8565b61102a565b610276610461366004612fe8565b611062565b610276610474366004612d81565b61107d565b6040805180820190915260018152603160f81b60208201526102a8565b61028b6104a4366004612cc8565b7f00000000000000000000000000000000000000000000000000000000000000006001600160a01b0390811691161490565b6102766104e4366004612f41565b6110b0565b6102c86104f7366004612d81565b61121f565b6102a861050a366004612d9a565b61127f565b61052261051d366004612cc8565b6113e8565b604051908152602001610297565b61027661146e565b6102a8611482565b6007546102c8906001600160a01b031681565b610276610561366004612d81565b611510565b6006546001600160a01b03166102c8565b610276610585366004612f81565b611683565b61028b610598366004613024565b6119fc565b6102a8611a9a565b6102766105b3366004613059565b611aa9565b6102a86105c6366004612d9a565b611abf565b6102766105d9366004612e50565b611b8f565b6102766105ec366004612f81565b611bce565b6102a86105ff366004612d81565b611dc6565b610276610612366004612eec565b611e57565b610276610625366004613090565b611f67565b610276610638366004612cc8565b612169565b6103066380ac58cd60e01b81565b6102a8612193565b61028b6106613660046130e7565b6001600160a01b03918216600090815260056020908152604080832093909416825291909152205460ff1690565b61027661069d366004612cc8565b6121a2565b6102766106b0366004612cc8565b612218565b6006546001600160a01b03166106c961231e565b6001600160a01b0316141580156107065750600e60006106e761231e565b6001600160a01b0316815260208101919091526040016000205460ff16155b15610724576040516355098f2760e01b815260040160405180910390fd5b6001600160a01b03811661074b57604051639b15b39560e01b815260040160405180910390fd5b6001600160a01b03811660009081526011602052604090205460ff1615156001141561078a57604051636ad412ed60e11b815260040160405180910390fd5b6001600160a01b03166000818152601160205260409020805460ff19166001179055600a80546001600160a01b0319169091179055565b60006001600160e01b031982166380ac58cd60e01b14806107e657506107e682612328565b92915050565b6060600080546107fb9061311a565b80601f01602080910402602001604051908101604052809291908181526020018280546108279061311a565b80156108745780601f1061084957610100808354040283529160200191610874565b820191906000526020600020905b81548152906001019060200180831161085757829003601f168201915b5050505050905090565b600061088982612378565b506000908152600460205260409020546001600160a01b031690565b60006108b08261121f565b9050806001600160a01b0316836001600160a01b031614156109235760405162461bcd60e51b815260206004820152602160248201527f4552433732313a20617070726f76616c20746f2063757272656e74206f776e656044820152603960f91b60648201526084015b60405180910390fd5b806001600160a01b031661093561231e565b6001600160a01b0316148061095157506109518161066161231e565b6109c35760405162461bcd60e51b815260206004820152603e60248201527f4552433732313a20617070726f76652063616c6c6572206973206e6f7420746f60448201527f6b656e206f776e6572206e6f7220617070726f76656420666f7220616c6c0000606482015260840161091a565b6109cd83836123d7565b505050565b630a85bd0160e11b5b949350505050565b6006546001600160a01b03166109f761231e565b6001600160a01b031614158015610a345750600e6000610a1561231e565b6001600160a01b0316815260208101919091526040016000205460ff16155b15610a52576040516355098f2760e01b815260040160405180910390fd5b6001600160a01b038116610a7957604051639b15b39560e01b815260040160405180910390fd5b6001600160a01b03811660009081526011602052604090205460ff16151560011415610ab857604051636ad412ed60e11b815260040160405180910390fd5b6001600160a01b03166000818152601160205260409020805460ff19166001179055600980546001600160a01b0319169091179055565b6000828152601060205260409020546001600160a01b0316610b0f61231e565b6001600160a01b031614610b5d5760405162461bcd60e51b81526020600482015260156024820152743cb7ba9030b932903737ba103a34329037bbb732b960591b604482015260640161091a565b600c8054610b6a9061311a565b15159050610b875760405180602001604052806000815250610ba8565b80604051602001610b989190613155565b6040516020818303038152906040525b6000838152600f6020908152604090912082516109cd9391929190910190612c18565b60085460405163026c098960e51b81526001600160a01b038581166004830152909116906000908290634d8131209060240160206040518083038186803b158015610c1557600080fd5b505afa158015610c29573d6000803e3d6000fd5b505050506040513d601f19601f82011682018060405250810190610c4d9190613171565b905080610c6d57604051637caba7d760e11b815260040160405180910390fd5b6000848152601060205260409020546001600160a01b0316610c8d61231e565b6001600160a01b031614610ce35760405162461bcd60e51b815260206004820152601c60248201527f796f7520617265206e6f7420746865206f776e6572206f66206e667400000000604482015260640161091a565b6001600160a01b0385166000908152601b6020908152604080832087845290915290205460ff168015610d38575060008481526015602090815260408083206001600160a01b038916845290915290205460ff165b8015610d415750825b15610d8a576001600160a01b0385166000908152601660209081526040808320805487151560ff1991821617909155878452601790925290912080549091166001179055610dd2565b60405162461bcd60e51b815260206004820152601860248201527f4f776e65722072656a656374656420746865206f666665720000000000000000604482015260640161091a565b5050505050565b600854815160405163026c098960e51b81526001600160a01b0391821660048201529116906000908290634d8131209060240160206040518083038186803b158015610e2457600080fd5b505afa158015610e38573d6000803e3d6000fd5b505050506040513d601f19601f82011682018060405250810190610e5c9190613171565b905080610e7c57604051637caba7d760e11b815260040160405180910390fd5b6009546001600160a01b0316610e9061231e565b6001600160a01b031614610eb75760405163513bcbe960e01b815260040160405180910390fd5b60136000610ec361231e565b6001600160a01b031681526020808201929092526040908101600090812086840151825290925290205460ff1615610f0e57604051630313d54d60e21b815260040160405180910390fd5b60208084015160009081526019909152604090205460ff168015610f385750604083015115156001145b15610ff8576040838101516020808601516000908152601e909152918220805460ff1916911515919091179055600190601390610f7361231e565b6001600160a01b0390811682526020808301939093526040918201600090812088850180518352908552838220805496151560ff1997881617905588519092168152601a84528281208251825284528281208054909516600190811790955590518152601290925281208054909190610fed9084906131a4565b909155506109cd9050565b505080516001600160a01b03166000908152601a6020908152604080832093820151835292905220805460ff19169055565b61103b61103561231e565b82612445565b6110575760405162461bcd60e51b815260040161091a906131bc565b6109cd8383836124c3565b6109cd83838360405180602001604052806000815250611b8f565b61108861103561231e565b6110a45760405162461bcd60e51b815260040161091a906131bc565b6110ad8161265f565b50565b60085460405163026c098960e51b81526001600160a01b038581166004830152909116906000908290634d8131209060240160206040518083038186803b1580156110fa57600080fd5b505afa15801561110e573d6000803e3d6000fd5b505050506040513d601f19601f820116820180604052508101906111329190613171565b90508061115257604051637caba7d760e11b815260040160405180910390fd5b6009546001600160a01b031661116661231e565b6001600160a01b03161461118d5760405163513bcbe960e01b815260040160405180910390fd5b82156111ee576001600160a01b0385166000818152601b60209081526040808320888452909152808220805460ff19166001179055518692917f3527b92ff88e799233f8c213553a30ea2c9bee572b9252b8e8811968f35000ea91a3610dd2565b5050506001600160a01b03919091166000908152601b6020908152604080832093835292905220805460ff19169055565b6000818152600260205260408120546001600160a01b0316806107e65760405162461bcd60e51b8152602060048201526018602482015277115490cdcc8c4e881a5b9d985b1a59081d1bdad95b88125160421b604482015260640161091a565b6000818152600260205260409020546060906001600160a01b03166112b757604051630a14c4b560e41b815260040160405180910390fd5b6001600160a01b0383166000908152601b6020908152604080832085845290915290205460ff1680156112f9575060008281526017602052604090205460ff16155b1561136f576000828152600260205260409020546001600160a01b031661133357604051630a14c4b560e41b815260040160405180910390fd5b600c600f60008481526020019081526020016000206040516020016113599291906132a4565b60405160208183030381529060405290506107e6565b60405162461bcd60e51b815260206004820152604260248201527f56696577206163636573732069732064656e696564206279204c31417070726f60448201527f766572206f7220546865206c616e64206973206c697374656420666f722073616064820152616c6560f01b608482015260a40161091a565b60006001600160a01b0382166114525760405162461bcd60e51b815260206004820152602960248201527f4552433732313a2061646472657373207a65726f206973206e6f7420612076616044820152683634b21037bbb732b960b91b606482015260840161091a565b506001600160a01b031660009081526003602052604090205490565b6114766126fa565b6114806000612773565b565b600c805461148f9061311a565b80601f01602080910402602001604051908101604052809291908181526020018280546114bb9061311a565b80156115085780601f106114dd57610100808354040283529160200191611508565b820191906000526020600020905b8154815290600101906020018083116114eb57829003601f168201915b505050505081565b6008546001600160a01b0316600081634d81312061152c61231e565b6040516001600160e01b031960e084901b1681526001600160a01b03909116600482015260240160206040518083038186803b15801561156b57600080fd5b505afa15801561157f573d6000803e3d6000fd5b505050506040513d601f19601f820116820180604052508101906115a39190613171565b9050806115c357604051637caba7d760e11b815260040160405180910390fd5b601b60006115cf61231e565b6001600160a01b031681526020808201929092526040908101600090812086825290925290205460ff161561164457600083815260156020526040812060019161161761231e565b6001600160a01b031681526020810191909152604001600020805460ff1916911515919091179055505050565b60405162461bcd60e51b8152602060048201526014602482015273596f7520646f6e7420686176652061636365737360601b604482015260640161091a565b600854815160405163026c098960e51b81526001600160a01b0391821660048201529116906000908290634d8131209060240160206040518083038186803b1580156116ce57600080fd5b505afa1580156116e2573d6000803e3d6000fd5b505050506040513d601f19601f820116820180604052508101906117069190613171565b90508061172657604051637caba7d760e11b815260040160405180910390fd5b600a546001600160a01b031661173a61231e565b6001600160a01b0316146117615760405163201a5f4f60e11b815260040160405180910390fd5b6020808401516000908152601e909152604090205460ff1661179657604051635aee63a760e11b815260040160405180910390fd5b601360006117a261231e565b6001600160a01b031681526020808201929092526040908101600090812086840151825290925290205460ff16156117ed57604051630313d54d60e21b815260040160405180910390fd5b60408301511515600114156118ec5760408084018051602080870180516000908152601f8352858120805494151560ff19958616179055845189516001600160a01b039081168352601c8552878320845184528552878320805492151592871692909217909155945189519095168152601d835285812091518152915292832080549215159290911691909117905560019060139061188a61231e565b6001600160a01b031681526020808201929092526040908101600090812087840180518352908452828220805460ff19169515159590951790945592518352601290915281208054600192906118e19084906131a4565b909155506119569050565b6040808401805185516001600160a01b039081166000908152601c6020908152858220818a0180518452908252868320805495151560ff19968716179055945189519093168252601d81528582209451825293909352929091208054921515929091169190911790555b602080840151600090815260129091526040902054600214801561198e57506020808401516000908152601f909152604090205460ff165b156109cd576119aa61199e61231e565b8451602086015161102a565b602083015183516001600160a01b03166119c261231e565b6001600160a01b03167f986385bea8660b8382c6329a38cc817bc39229f8428d8d6fb4952624a99b75f660405160405180910390a4505050565b6000611a106006546001600160a01b031690565b6001600160a01b0316611a2161231e565b6001600160a01b031614158015611a5e5750600e6000611a3f61231e565b6001600160a01b0316815260208101919091526040016000205460ff16155b15611a7c576040516355098f2760e01b815260040160405180910390fd5b8151611a8f90600b906020850190612c18565b50600190505b919050565b6060600180546107fb9061311a565b611abb611ab461231e565b83836127c5565b5050565b6000818152600260205260409020546060906001600160a01b0316611af757604051630a14c4b560e41b815260040160405180910390fd5b6000828152601060205260409020546001600160a01b0384811691161480611b2c57506009546001600160a01b038481169116145b80611b445750600a546001600160a01b038481169116145b15611b6f57600c600f60008481526020019081526020016000206040516020016113599291906132a4565b60405180608001604052806043815260200161341b6043913990506107e6565b611ba0611b9a61231e565b83612445565b611bbc5760405162461bcd60e51b815260040161091a906131bc565b611bc884848484612894565b50505050565b60116000611bda61231e565b6001600160a01b0316815260208101919091526040016000205460ff16611c1457604051631710613f60e21b815260040160405180910390fd5b60136000611c2061231e565b6001600160a01b031681526020808201929092526040908101600090812084840151825290925290205460ff1615611c6b57604051630313d54d60e21b815260040160405180910390fd5b6040810151151560011415611d4257806040015160146000836020015181526020019081526020016000206000611ca061231e565b6001600160a01b03166001600160a01b0316815260200190815260200160002060006101000a81548160ff021916908315150217905550600160136000611ce561231e565b6001600160a01b031681526020808201929092526040908101600090812085840180518352908452828220805460ff1916951515959095179094559251835260129091528120805460019290611d3c9084906131a4565b90915550505b602080820151600090815260129091526040902054600214156110ad57611d76611d6a61231e565b8251602084015161102a565b602081015181516001600160a01b0316611d8e61231e565b6001600160a01b03167f986385bea8660b8382c6329a38cc817bc39229f8428d8d6fb4952624a99b75f660405160405180910390a450565b6060611dd182612378565b6000611e0560408051808201909152601581527468747470733a2f2f697066732e696f2f697066732f60581b602082015290565b90506000815111611e255760405180602001604052806000815250611e50565b80611e2f846128c7565b604051602001611e409291906132b9565b6040516020818303038152906040525b9392505050565b60166000611e6361231e565b6001600160a01b0316815260208101919091526040016000205460ff161515600114611ed15760405162461bcd60e51b815260206004820152601c60248201527f726567697374726174696f6e206973206e6f7420706f737369626c6500000000604482015260640161091a565b60008281526017602052604090205460ff161515600114611f2b5760405162461bcd60e51b815260206004820152601460248201527373616c65207374617475732069732066616c736560601b604482015260640161091a565b60008281526018602090815260409091208251611f4a92840190612c18565b50506000908152601960205260409020805460ff19166001179055565b60085460405163026c098960e51b81526001600160a01b038581166004830152909116906000908290634d8131209060240160206040518083038186803b158015611fb157600080fd5b505afa158015611fc5573d6000803e3d6000fd5b505050506040513d601f19601f82011682018060405250810190611fe99190613171565b90508061200957604051637caba7d760e11b815260040160405180910390fd5b6009546001600160a01b031661201d61231e565b6001600160a01b0316141561210357600c80546120399061311a565b151590506120565760405180602001604052806000815250612077565b826040516020016120679190613155565b6040516020818303038152906040525b6000858152600f60209081526040909120825161209a9391929190910190612c18565b506120a585856129c5565b600d546120b39060016131a4565b600d55836001600160a01b0386166120c961231e565b6001600160a01b03167f986385bea8660b8382c6329a38cc817bc39229f8428d8d6fb4952624a99b75f660405160405180910390a4610dd2565b60405162461bcd60e51b815260206004820152603560248201527f436f6e6e6563746564206164647265737320646f6573206e6f742068617665206044820152741858d8d95cdcc81d1bc818dc99585d19481b185b99605a1b606482015260840161091a565b6121716126fa565b600780546001600160a01b0319166001600160a01b0392909216919091179055565b6060600b80546107fb9061311a565b6121aa6126fa565b6001600160a01b03811661220f5760405162461bcd60e51b815260206004820152602660248201527f4f776e61626c653a206e6577206f776e657220697320746865207a65726f206160448201526564647265737360d01b606482015260840161091a565b6110ad81612773565b6006546001600160a01b031661222c61231e565b6001600160a01b0316141580156122695750600e600061224a61231e565b6001600160a01b0316815260208101919091526040016000205460ff16155b15612287576040516355098f2760e01b815260040160405180910390fd5b6001600160a01b0381166122ae57604051639b15b39560e01b815260040160405180910390fd5b600880546001600160a01b0319166001600160a01b0392909216919091179055565b60007f00000000000000000000000000000000000000000000000000000000000000006001600160a01b0316331415612310575060131936013560601c90565b503390565b905090565b3390565b60006123156122d0565b60006001600160e01b031982166380ac58cd60e01b148061235957506001600160e01b03198216635b5e139f60e01b145b806107e657506301ffc9a760e01b6001600160e01b03198316146107e6565b6000818152600260205260409020546001600160a01b03166110ad5760405162461bcd60e51b8152602060048201526018602482015277115490cdcc8c4e881a5b9d985b1a59081d1bdad95b88125160421b604482015260640161091a565b600081815260046020526040902080546001600160a01b0319166001600160a01b038416908117909155819061240c8261121f565b6001600160a01b03167f8c5be1e5ebec7d5bd14f71427d1e84f3dd0314c0f7b2291e5b200ac8c7c3b92560405160405180910390a45050565b6000806124518361121f565b9050806001600160a01b0316846001600160a01b0316148061249857506001600160a01b0380821660009081526005602090815260408083209388168352929052205460ff165b806109db5750836001600160a01b03166124b18461087e565b6001600160a01b031614949350505050565b826001600160a01b03166124d68261121f565b6001600160a01b03161461253a5760405162461bcd60e51b815260206004820152602560248201527f4552433732313a207472616e736665722066726f6d20696e636f72726563742060448201526437bbb732b960d91b606482015260840161091a565b6001600160a01b03821661259c5760405162461bcd60e51b8152602060048201526024808201527f4552433732313a207472616e7366657220746f20746865207a65726f206164646044820152637265737360e01b606482015260840161091a565b6125a76000826123d7565b6001600160a01b03831660009081526003602052604081208054600192906125d09084906132e8565b90915550506001600160a01b03821660009081526003602052604081208054600192906125fe9084906131a4565b909155505060008181526002602052604080822080546001600160a01b0319166001600160a01b0386811691821790925591518493918716917fddf252ad1be2c89b69c2b068fc378daa952ba7f163c4a11628f55a4df523b3ef91a4505050565b600061266a8261121f565b90506126776000836123d7565b6001600160a01b03811660009081526003602052604081208054600192906126a09084906132e8565b909155505060008281526002602052604080822080546001600160a01b0319169055518391906001600160a01b038416907fddf252ad1be2c89b69c2b068fc378daa952ba7f163c4a11628f55a4df523b3ef908390a45050565b61270261231e565b6001600160a01b031661271d6006546001600160a01b031690565b6001600160a01b0316146114805760405162461bcd60e51b815260206004820181905260248201527f4f776e61626c653a2063616c6c6572206973206e6f7420746865206f776e6572604482015260640161091a565b600680546001600160a01b038381166001600160a01b0319831681179093556040519116919082907f8be0079c531659141344cd1fd0a4f28419497f9722a3daafe3b4186f6b6457e090600090a35050565b816001600160a01b0316836001600160a01b031614156128275760405162461bcd60e51b815260206004820152601960248201527f4552433732313a20617070726f766520746f2063616c6c657200000000000000604482015260640161091a565b6001600160a01b03838116600081815260056020908152604080832094871680845294825291829020805460ff191686151590811790915591519182527f17307eab39ab6107e8899845ad3d59bd9653f200f220920489ca2b5937696c31910160405180910390a3505050565b61289f8484846124c3565b6128ab84848484612b07565b611bc85760405162461bcd60e51b815260040161091a906132ff565b6060816128eb5750506040805180820190915260018152600360fc1b602082015290565b8160005b811561291557806128ff81613351565b915061290e9050600a83613382565b91506128ef565b60008167ffffffffffffffff81111561293057612930612dc4565b6040519080825280601f01601f19166020018201604052801561295a576020820181803683370190505b5090505b84156109db5761296f6001836132e8565b915061297c600a86613396565b6129879060306131a4565b60f81b81838151811061299c5761299c6133aa565b60200101906001600160f81b031916908160001a9053506129be600a86613382565b945061295e565b6001600160a01b038216612a1b5760405162461bcd60e51b815260206004820181905260248201527f4552433732313a206d696e7420746f20746865207a65726f2061646472657373604482015260640161091a565b6000818152600260205260409020546001600160a01b031615612a805760405162461bcd60e51b815260206004820152601c60248201527f4552433732313a20746f6b656e20616c7265616479206d696e74656400000000604482015260640161091a565b6001600160a01b0382166000908152600360205260408120805460019290612aa99084906131a4565b909155505060008181526002602052604080822080546001600160a01b0319166001600160a01b03861690811790915590518392907fddf252ad1be2c89b69c2b068fc378daa952ba7f163c4a11628f55a4df523b3ef908290a45050565b60006001600160a01b0384163b15612c1057836001600160a01b031663150b7a02612b3061231e565b8786866040518563ffffffff1660e01b8152600401612b5294939291906133c0565b602060405180830381600087803b158015612b6c57600080fd5b505af1925050508015612b9c575060408051601f3d908101601f19168201909252612b99918101906133fd565b60015b612bf6573d808015612bca576040519150601f19603f3d011682016040523d82523d6000602084013e612bcf565b606091505b508051612bee5760405162461bcd60e51b815260040161091a906132ff565b805181602001fd5b6001600160e01b031916630a85bd0160e11b1490506109db565b5060016109db565b828054612c249061311a565b90600052602060002090601f016020900481019282612c465760008555612c8c565b82601f10612c5f57805160ff1916838001178555612c8c565b82800160010185558215612c8c579182015b82811115612c8c578251825591602001919060010190612c71565b50612c98929150612c9c565b5090565b5b80821115612c985760008155600101612c9d565b80356001600160a01b0381168114611a9557600080fd5b600060208284031215612cda57600080fd5b611e5082612cb1565b6001600160e01b0319811681146110ad57600080fd5b600060208284031215612d0b57600080fd5b8135611e5081612ce3565b60005b83811015612d31578181015183820152602001612d19565b83811115611bc85750506000910152565b60008151808452612d5a816020860160208601612d16565b601f01601f19169290920160200192915050565b602081526000611e506020830184612d42565b600060208284031215612d9357600080fd5b5035919050565b60008060408385031215612dad57600080fd5b612db683612cb1565b946020939093013593505050565b634e487b7160e01b600052604160045260246000fd5b600067ffffffffffffffff80841115612df557612df5612dc4565b604051601f8501601f19908116603f01168101908282118183101715612e1d57612e1d612dc4565b81604052809350858152868686011115612e3657600080fd5b858560208301376000602087830101525050509392505050565b60008060008060808587031215612e6657600080fd5b612e6f85612cb1565b9350612e7d60208601612cb1565b925060408501359150606085013567ffffffffffffffff811115612ea057600080fd5b8501601f81018713612eb157600080fd5b612ec087823560208401612dda565b91505092959194509250565b600082601f830112612edd57600080fd5b611e5083833560208501612dda565b60008060408385031215612eff57600080fd5b82359150602083013567ffffffffffffffff811115612f1d57600080fd5b612f2985828601612ecc565b9150509250929050565b80151581146110ad57600080fd5b600080600060608486031215612f5657600080fd5b612f5f84612cb1565b9250602084013591506040840135612f7681612f33565b809150509250925092565b600060608284031215612f9357600080fd5b6040516060810181811067ffffffffffffffff82111715612fb657612fb6612dc4565b604052612fc283612cb1565b8152602083013560208201526040830135612fdc81612f33565b60408201529392505050565b600080600060608486031215612ffd57600080fd5b61300684612cb1565b925061301460208501612cb1565b9150604084013590509250925092565b60006020828403121561303657600080fd5b813567ffffffffffffffff81111561304d57600080fd5b6109db84828501612ecc565b6000806040838503121561306c57600080fd5b61307583612cb1565b9150602083013561308581612f33565b809150509250929050565b6000806000606084860312156130a557600080fd5b6130ae84612cb1565b925060208401359150604084013567ffffffffffffffff8111156130d157600080fd5b6130dd86828701612ecc565b9150509250925092565b600080604083850312156130fa57600080fd5b61310383612cb1565b915061311160208401612cb1565b90509250929050565b600181811c9082168061312e57607f821691505b6020821081141561314f57634e487b7160e01b600052602260045260246000fd5b50919050565b60008251613167818460208701612d16565b9190910192915050565b60006020828403121561318357600080fd5b8151611e5081612f33565b634e487b7160e01b600052601160045260246000fd5b600082198211156131b7576131b761318e565b500190565b6020808252602e908201527f4552433732313a2063616c6c6572206973206e6f7420746f6b656e206f776e6560408201526d1c881b9bdc88185c1c1c9bdd995960921b606082015260800190565b8054600090600181811c908083168061322457607f831692505b602080841082141561324657634e487b7160e01b600052602260045260246000fd5b81801561325a576001811461326b57613298565b60ff19861689528489019650613298565b60008881526020902060005b868110156132905781548b820152908501908301613277565b505084890196505b50505050505092915050565b60006109db6132b3838661320a565b8461320a565b600083516132cb818460208801612d16565b8351908301906132df818360208801612d16565b01949350505050565b6000828210156132fa576132fa61318e565b500390565b60208082526032908201527f4552433732313a207472616e7366657220746f206e6f6e20455243373231526560408201527131b2b4bb32b91034b6b83632b6b2b73a32b960711b606082015260800190565b60006000198214156133655761336561318e565b5060010190565b634e487b7160e01b600052601260045260246000fd5b6000826133915761339161336c565b500490565b6000826133a5576133a561336c565b500690565b634e487b7160e01b600052603260045260246000fd5b6001600160a01b03858116825284166020820152604081018390526080606082018190526000906133f390830184612d42565b9695505050505050565b60006020828403121561340f57600080fd5b8151611e5081612ce356fe61646472657373206973206e6f74206f776e6572206f6620746865206c616e64206e6674206f72207669657720726967687473206973206e6f742070726f7669646564a264697066735822122023904ca338a4ca2c6cca0bb9f846577c3246db006d0a10b8daeaad2078f0f73464736f6c6343000809003368747470733a2f2f697066732e696f2f697066732f516d53663339697a5a3269534865587053574b736644457a716b45664874683666384c7558645731436367653342",
  "linkReferences": {},
  "deployedLinkReferences": {}
}