{
  "_format": "hh-sol-artifact-1",
  "contractName": "UserContract",
  "sourceName": "contracts/UserContract.sol",
  "abi": [
    {
      "inputs": [],
      "stateMutability": "nonpayable",
      "type": "constructor"
    },
    {
      "inputs": [],
      "name": "addressAlreadyRegistered",
      "type": "error"
    },
    {
      "inputs": [],
      "name": "adminAlreadyExist",
      "type": "error"
    },
    {
      "inputs": [],
      "name": "approverAlreadyExist",
      "type": "error"
    },
    {
      "inputs": [],
      "name": "notAdmin",
      "type": "error"
    },
    {
      "inputs": [],
      "name": "notL1Address",
      "type": "error"
    },
    {
      "inputs": [],
      "name": "zeroAddressNotSupported",
      "type": "error"
    },
    {
      "inputs": [],
      "name": "L1ApproverAddress",
      "outputs": [
        {
          "internalType": "address",
          "name": "",
          "type": "address"
        }
      ],
      "stateMutability": "view",
      "type": "function"
    },
    {
      "inputs": [
        {
          "internalType": "address",
          "name": "_ad",
          "type": "address"
        }
      ],
      "name": "addUser",
      "outputs": [],
      "stateMutability": "nonpayable",
      "type": "function"
    },
    {
      "inputs": [
        {
          "components": [
            {
              "internalType": "address",
              "name": "_ad",
              "type": "address"
            }
          ],
          "internalType": "struct UserContract.userBulkData[]",
          "name": "_userData",
          "type": "tuple[]"
        }
      ],
      "name": "addUserBulk",
      "outputs": [],
      "stateMutability": "nonpayable",
      "type": "function"
    },
    {
      "inputs": [],
      "name": "getAllUserAddress",
      "outputs": [
        {
          "internalType": "address[]",
          "name": "",
          "type": "address[]"
        }
      ],
      "stateMutability": "view",
      "type": "function"
    },
    {
      "inputs": [
        {
          "internalType": "address",
          "name": "_ad",
          "type": "address"
        }
      ],
      "name": "verifyUser",
      "outputs": [
        {
          "internalType": "bool",
          "name": "",
          "type": "bool"
        }
      ],
      "stateMutability": "view",
      "type": "function"
    },
    {
      "inputs": [
        {
          "internalType": "address",
          "name": "_approverAd",
          "type": "address"
        }
      ],
      "name": "whitelistApproverL1",
      "outputs": [],
      "stateMutability": "nonpayable",
      "type": "function"
    }
  ],
  "bytecode": "0x608060405234801561001057600080fd5b50600280546001600160a01b031916331790556106e7806100326000396000f3fe608060405234801561001057600080fd5b50600436106100625760003560e01c8063149440d91461006757806315fe58f21461008557806338878efe1461009a578063421b2d8b146100b5578063473e4bca146100c85780634d813120146100db575b600080fd5b61006f6100fe565b60405161007c91906104b0565b60405180910390f35b610098610093366004610514565b610160565b005b6003546040516001600160a01b03909116815260200161007c565b6100986100c3366004610514565b610253565b6100986100d63660046105a6565b610321565b6100ee6100e9366004610514565b61047a565b604051901515815260200161007c565b6060600080548060200260200160405190810160405280929190818152602001828054801561015657602002820191906000526020600020905b81546001600160a01b03168152600190910190602001808311610138575b5050505050905090565b6002546001600160a01b031633146101b65760405162461bcd60e51b81526020600482015260156024820152743cb7ba9030b932903737ba103a34329030b236b4b760591b604482015260640160405180910390fd5b6001600160a01b0381166101dd57604051639b15b39560e01b815260040160405180910390fd5b6001600160a01b03811660009081526006602052604090205460ff1615156001141561021c57604051636ad412ed60e11b815260040160405180910390fd5b6001600160a01b03166000818152600660205260409020805460ff19166001179055600380546001600160a01b0319169091179055565b6003546001600160a01b0316331461027e576040516306fbf53160e11b815260040160405180910390fd5b6001600160a01b03811660009081526004602052604090205460ff161515600114156102bd576040516394c7406f60e01b815260040160405180910390fd5b6001600160a01b03166000818152600460205260408120805460ff19166001908117909155815490810182559080527f290decd9548b62a8d60345a988386fc84ba6bc95484008f6362f93160ef3e5630180546001600160a01b0319169091179055565b6003546001600160a01b0316331461034c576040516306fbf53160e11b815260040160405180910390fd5b60005b8151811015610476576004600083838151811061036e5761036e610672565b602090810291909101810151516001600160a01b031682528101919091526040016000205460ff161515600114156103b9576040516394c7406f60e01b815260040160405180910390fd5b6001600460008484815181106103d1576103d1610672565b6020026020010151600001516001600160a01b03166001600160a01b0316815260200190815260200160002060006101000a81548160ff021916908315150217905550600082828151811061042857610428610672565b6020908102919091018101515182546001810184556000938452919092200180546001600160a01b0319166001600160a01b039092169190911790558061046e81610688565b91505061034f565b5050565b6001600160a01b03811660009081526004602052604081205460ff16156104a357506001919050565b506000919050565b919050565b6020808252825182820181905260009190848201906040850190845b818110156104f15783516001600160a01b0316835292840192918401916001016104cc565b50909695505050505050565b80356001600160a01b03811681146104ab57600080fd5b60006020828403121561052657600080fd5b61052f826104fd565b9392505050565b634e487b7160e01b600052604160045260246000fd5b6040516020810167ffffffffffffffff8111828210171561056f5761056f610536565b60405290565b604051601f8201601f1916810167ffffffffffffffff8111828210171561059e5761059e610536565b604052919050565b600060208083850312156105b957600080fd5b823567ffffffffffffffff808211156105d157600080fd5b818501915085601f8301126105e557600080fd5b8135818111156105f7576105f7610536565b8060051b9150610608848301610575565b818152918301840191848101908884111561062257600080fd5b938501935b838510156106665785858a03121561064157600092508283fd5b61064961054c565b9250610654856104fd565b83528282529385019390850190610627565b98975050505050505050565b634e487b7160e01b600052603260045260246000fd5b60006000198214156106aa57634e487b7160e01b600052601160045260246000fd5b506001019056fea2646970667358221220ec602455d19060041a4bf2eab3583e0d171d386ddf7f2dbd9c6dfd839fa38af464736f6c63430008090033",
  "linkReferences": {},
  "deployedLinkReferences": {}
}