{
  "_format": "hh-sol-artifact-1",
  "contractName": "YexleAppian",
  "sourceName": "contracts/YexleAppian.sol",
  "abi": [
    {
      "inputs": [
        {
          "internalType": "string",
          "name": "_metadata",
          "type": "string"
        }
      ],
      "stateMutability": "nonpayable",
      "type": "constructor"
    },
    {
      "inputs": [],
      "name": "L1Rejected",
      "type": "error"
    },
    {
      "inputs": [],
      "name": "NotAnAdmin",
      "type": "error"
    },
    {
      "inputs": [],
      "name": "NotOwnerOfID",
      "type": "error"
    },
    {
      "inputs": [],
      "name": "URIQueryForNonexistentToken",
      "type": "error"
    },
    {
      "inputs": [],
      "name": "alreadyApproved",
      "type": "error"
    },
    {
      "inputs": [],
      "name": "approverAlreadyExist",
      "type": "error"
    },
    {
      "inputs": [],
      "name": "notApproverAddress",
      "type": "error"
    },
    {
      "inputs": [],
      "name": "notL1Approver",
      "type": "error"
    },
    {
      "inputs": [],
      "name": "notL2Approver",
      "type": "error"
    },
    {
      "inputs": [],
      "name": "ownerRejectedTheOffer",
      "type": "error"
    },
    {
      "inputs": [],
      "name": "userContractError",
      "type": "error"
    },
    {
      "inputs": [],
      "name": "zeroAddressNotSupported",
      "type": "error"
    },
    {
      "anonymous": false,
      "inputs": [
        {
          "indexed": true,
          "internalType": "address",
          "name": "Viewer",
          "type": "address"
        },
        {
          "indexed": true,
          "internalType": "uint256",
          "name": "Token",
          "type": "uint256"
        }
      ],
      "name": "AccessGrantedToView",
      "type": "event"
    },
    {
      "anonymous": false,
      "inputs": [
        {
          "indexed": true,
          "internalType": "address",
          "name": "owner",
          "type": "address"
        },
        {
          "indexed": true,
          "internalType": "address",
          "name": "approved",
          "type": "address"
        },
        {
          "indexed": true,
          "internalType": "uint256",
          "name": "tokenId",
          "type": "uint256"
        }
      ],
      "name": "Approval",
      "type": "event"
    },
    {
      "anonymous": false,
      "inputs": [
        {
          "indexed": true,
          "internalType": "address",
          "name": "owner",
          "type": "address"
        },
        {
          "indexed": true,
          "internalType": "address",
          "name": "operator",
          "type": "address"
        },
        {
          "indexed": false,
          "internalType": "bool",
          "name": "approved",
          "type": "bool"
        }
      ],
      "name": "ApprovalForAll",
      "type": "event"
    },
    {
      "anonymous": false,
      "inputs": [
        {
          "indexed": false,
          "internalType": "address",
          "name": "to",
          "type": "address"
        }
      ],
      "name": "OwnershipGranted",
      "type": "event"
    },
    {
      "anonymous": false,
      "inputs": [
        {
          "indexed": true,
          "internalType": "address",
          "name": "from",
          "type": "address"
        },
        {
          "indexed": true,
          "internalType": "address",
          "name": "to",
          "type": "address"
        },
        {
          "indexed": true,
          "internalType": "uint256",
          "name": "tokenId",
          "type": "uint256"
        }
      ],
      "name": "OwnershipTransferOfLand",
      "type": "event"
    },
    {
      "anonymous": false,
      "inputs": [
        {
          "indexed": true,
          "internalType": "address",
          "name": "previousOwner",
          "type": "address"
        },
        {
          "indexed": true,
          "internalType": "address",
          "name": "newOwner",
          "type": "address"
        }
      ],
      "name": "OwnershipTransferred",
      "type": "event"
    },
    {
      "anonymous": false,
      "inputs": [
        {
          "indexed": true,
          "internalType": "address",
          "name": "from",
          "type": "address"
        },
        {
          "indexed": true,
          "internalType": "address",
          "name": "to",
          "type": "address"
        },
        {
          "indexed": true,
          "internalType": "uint256",
          "name": "tokenId",
          "type": "uint256"
        }
      ],
      "name": "Transfer",
      "type": "event"
    },
    {
      "inputs": [],
      "name": "IID_IERC721",
      "outputs": [
        {
          "internalType": "bytes4",
          "name": "",
          "type": "bytes4"
        }
      ],
      "stateMutability": "view",
      "type": "function"
    },
    {
      "inputs": [
        {
          "internalType": "address",
          "name": "_requester",
          "type": "address"
        },
        {
          "internalType": "uint256",
          "name": "_tokenId",
          "type": "uint256"
        }
      ],
      "name": "L2ApproverStatusForL1Approver",
      "outputs": [
        {
          "internalType": "bool",
          "name": "",
          "type": "bool"
        }
      ],
      "stateMutability": "view",
      "type": "function"
    },
    {
      "inputs": [
        {
          "internalType": "address",
          "name": "_requester",
          "type": "address"
        },
        {
          "internalType": "uint256",
          "name": "_tokenId",
          "type": "uint256"
        }
      ],
      "name": "LandRequesterStatus",
      "outputs": [
        {
          "internalType": "bool",
          "name": "ViewDocumentStatus",
          "type": "bool"
        },
        {
          "internalType": "bool",
          "name": "L1ApproverStatusForRequester",
          "type": "bool"
        },
        {
          "internalType": "bool",
          "name": "L2ApproverstatusForRequester",
          "type": "bool"
        },
        {
          "internalType": "uint256",
          "name": "approveCountForTokenIdByApprovers",
          "type": "uint256"
        }
      ],
      "stateMutability": "view",
      "type": "function"
    },
    {
      "inputs": [
        {
          "internalType": "address",
          "name": "to",
          "type": "address"
        },
        {
          "internalType": "uint256",
          "name": "tokenId",
          "type": "uint256"
        }
      ],
      "name": "approve",
      "outputs": [],
      "stateMutability": "nonpayable",
      "type": "function"
    },
    {
      "inputs": [
        {
          "components": [
            {
              "internalType": "address",
              "name": "_sellingTo",
              "type": "address"
            },
            {
              "internalType": "uint256",
              "name": "_tokenId",
              "type": "uint256"
            },
            {
              "internalType": "bool",
              "name": "status",
              "type": "bool"
            }
          ],
          "internalType": "struct YexleAppian.approverData",
          "name": "_data",
          "type": "tuple"
        }
      ],
      "name": "approveAndTransferLand1",
      "outputs": [],
      "stateMutability": "nonpayable",
      "type": "function"
    },
    {
      "inputs": [
        {
          "components": [
            {
              "internalType": "address",
              "name": "_sellingTo",
              "type": "address"
            },
            {
              "internalType": "uint256",
              "name": "_tokenId",
              "type": "uint256"
            },
            {
              "internalType": "bool",
              "name": "status",
              "type": "bool"
            }
          ],
          "internalType": "struct YexleAppian.approverData",
          "name": "_data",
          "type": "tuple"
        }
      ],
      "name": "approveByL1",
      "outputs": [],
      "stateMutability": "nonpayable",
      "type": "function"
    },
    {
      "inputs": [
        {
          "components": [
            {
              "internalType": "address",
              "name": "_previousOwner",
              "type": "address"
            },
            {
              "internalType": "address",
              "name": "_sellingTo",
              "type": "address"
            },
            {
              "internalType": "uint256",
              "name": "_tokenId",
              "type": "uint256"
            },
            {
              "internalType": "bool",
              "name": "status",
              "type": "bool"
            }
          ],
          "internalType": "struct YexleAppian.approverDataForL2",
          "name": "_data",
          "type": "tuple"
        }
      ],
      "name": "approveByL2",
      "outputs": [],
      "stateMutability": "nonpayable",
      "type": "function"
    },
    {
      "inputs": [
        {
          "internalType": "address",
          "name": "owner",
          "type": "address"
        }
      ],
      "name": "balanceOf",
      "outputs": [
        {
          "internalType": "uint256",
          "name": "",
          "type": "uint256"
        }
      ],
      "stateMutability": "view",
      "type": "function"
    },
    {
      "inputs": [
        {
          "internalType": "uint256",
          "name": "tokenId",
          "type": "uint256"
        }
      ],
      "name": "burn",
      "outputs": [],
      "stateMutability": "nonpayable",
      "type": "function"
    },
    {
      "inputs": [],
      "name": "contractURI",
      "outputs": [
        {
          "internalType": "string",
          "name": "",
          "type": "string"
        }
      ],
      "stateMutability": "view",
      "type": "function"
    },
    {
      "inputs": [
        {
          "internalType": "uint256",
          "name": "tokenId",
          "type": "uint256"
        }
      ],
      "name": "getApproved",
      "outputs": [
        {
          "internalType": "address",
          "name": "",
          "type": "address"
        }
      ],
      "stateMutability": "view",
      "type": "function"
    },
    {
      "inputs": [
        {
          "internalType": "address",
          "name": "owner",
          "type": "address"
        },
        {
          "internalType": "address",
          "name": "operator",
          "type": "address"
        }
      ],
      "name": "isApprovedForAll",
      "outputs": [
        {
          "internalType": "bool",
          "name": "",
          "type": "bool"
        }
      ],
      "stateMutability": "view",
      "type": "function"
    },
    {
      "inputs": [
        {
          "internalType": "address",
          "name": "_requester",
          "type": "address"
        },
        {
          "internalType": "uint256",
          "name": "tokenId",
          "type": "uint256"
        },
        {
          "internalType": "bool",
          "name": "_status",
          "type": "bool"
        }
      ],
      "name": "landDocumentViewRequestApprove",
      "outputs": [],
      "stateMutability": "nonpayable",
      "type": "function"
    },
    {
      "inputs": [],
      "name": "metadataUri",
      "outputs": [
        {
          "internalType": "string",
          "name": "",
          "type": "string"
        }
      ],
      "stateMutability": "view",
      "type": "function"
    },
    {
      "inputs": [
        {
          "internalType": "address",
          "name": "_to",
          "type": "address"
        },
        {
          "internalType": "uint256",
          "name": "_tokenId",
          "type": "uint256"
        },
        {
          "internalType": "string",
          "name": "_tokenUri",
          "type": "string"
        }
      ],
      "name": "mint",
      "outputs": [],
      "stateMutability": "nonpayable",
      "type": "function"
    },
    {
      "inputs": [],
      "name": "name",
      "outputs": [
        {
          "internalType": "string",
          "name": "",
          "type": "string"
        }
      ],
      "stateMutability": "view",
      "type": "function"
    },
    {
      "inputs": [],
      "name": "owner",
      "outputs": [
        {
          "internalType": "address",
          "name": "",
          "type": "address"
        }
      ],
      "stateMutability": "view",
      "type": "function"
    },
    {
      "inputs": [
        {
          "internalType": "address",
          "name": "_requester",
          "type": "address"
        },
        {
          "internalType": "uint256",
          "name": "_tokenId",
          "type": "uint256"
        },
        {
          "internalType": "bool",
          "name": "_status",
          "type": "bool"
        }
      ],
      "name": "ownerDecisionforRaisedRequest",
      "outputs": [],
      "stateMutability": "nonpayable",
      "type": "function"
    },
    {
      "inputs": [
        {
          "internalType": "uint256",
          "name": "tokenId",
          "type": "uint256"
        }
      ],
      "name": "ownerOf",
      "outputs": [
        {
          "internalType": "address",
          "name": "",
          "type": "address"
        }
      ],
      "stateMutability": "view",
      "type": "function"
    },
    {
      "inputs": [
        {
          "internalType": "uint256",
          "name": "tokenId",
          "type": "uint256"
        },
        {
          "internalType": "string",
          "name": "_DocumentUri",
          "type": "string"
        }
      ],
      "name": "registrationForLandByBuyer",
      "outputs": [],
      "stateMutability": "nonpayable",
      "type": "function"
    },
    {
      "inputs": [],
      "name": "renounceOwnership",
      "outputs": [],
      "stateMutability": "nonpayable",
      "type": "function"
    },
    {
      "inputs": [
        {
          "internalType": "uint256",
          "name": "_tokenId",
          "type": "uint256"
        }
      ],
      "name": "requestLandForSale",
      "outputs": [],
      "stateMutability": "nonpayable",
      "type": "function"
    },
    {
      "inputs": [
        {
          "internalType": "address",
          "name": "from",
          "type": "address"
        },
        {
          "internalType": "address",
          "name": "to",
          "type": "address"
        },
        {
          "internalType": "uint256",
          "name": "tokenId",
          "type": "uint256"
        }
      ],
      "name": "safeTransferFrom",
      "outputs": [],
      "stateMutability": "nonpayable",
      "type": "function"
    },
    {
      "inputs": [
        {
          "internalType": "address",
          "name": "from",
          "type": "address"
        },
        {
          "internalType": "address",
          "name": "to",
          "type": "address"
        },
        {
          "internalType": "uint256",
          "name": "tokenId",
          "type": "uint256"
        },
        {
          "internalType": "bytes",
          "name": "data",
          "type": "bytes"
        }
      ],
      "name": "safeTransferFrom",
      "outputs": [],
      "stateMutability": "nonpayable",
      "type": "function"
    },
    {
      "inputs": [
        {
          "internalType": "address",
          "name": "operator",
          "type": "address"
        },
        {
          "internalType": "bool",
          "name": "approved",
          "type": "bool"
        }
      ],
      "name": "setApprovalForAll",
      "outputs": [],
      "stateMutability": "nonpayable",
      "type": "function"
    },
    {
      "inputs": [
        {
          "internalType": "string",
          "name": "_contractURI",
          "type": "string"
        }
      ],
      "name": "setContractURI",
      "outputs": [
        {
          "internalType": "bool",
          "name": "",
          "type": "bool"
        }
      ],
      "stateMutability": "nonpayable",
      "type": "function"
    },
    {
      "inputs": [
        {
          "internalType": "uint256",
          "name": "_id",
          "type": "uint256"
        },
        {
          "internalType": "string",
          "name": "_tokenUri",
          "type": "string"
        }
      ],
      "name": "setTokenURI",
      "outputs": [],
      "stateMutability": "nonpayable",
      "type": "function"
    },
    {
      "inputs": [
        {
          "internalType": "bytes4",
          "name": "interfaceId",
          "type": "bytes4"
        }
      ],
      "name": "supportsInterface",
      "outputs": [
        {
          "internalType": "bool",
          "name": "",
          "type": "bool"
        }
      ],
      "stateMutability": "view",
      "type": "function"
    },
    {
      "inputs": [],
      "name": "symbol",
      "outputs": [
        {
          "internalType": "string",
          "name": "",
          "type": "string"
        }
      ],
      "stateMutability": "view",
      "type": "function"
    },
    {
      "inputs": [
        {
          "internalType": "uint256",
          "name": "tokenId",
          "type": "uint256"
        }
      ],
      "name": "tokenURI",
      "outputs": [
        {
          "internalType": "string",
          "name": "",
          "type": "string"
        }
      ],
      "stateMutability": "view",
      "type": "function"
    },
    {
      "inputs": [
        {
          "internalType": "address",
          "name": "from",
          "type": "address"
        },
        {
          "internalType": "address",
          "name": "to",
          "type": "address"
        },
        {
          "internalType": "uint256",
          "name": "tokenId",
          "type": "uint256"
        }
      ],
      "name": "transferFrom",
      "outputs": [],
      "stateMutability": "nonpayable",
      "type": "function"
    },
    {
      "inputs": [
        {
          "internalType": "address",
          "name": "newOwner",
          "type": "address"
        }
      ],
      "name": "transferOwnership",
      "outputs": [],
      "stateMutability": "nonpayable",
      "type": "function"
    },
    {
      "inputs": [
        {
          "internalType": "address",
          "name": "_docViewRequester",
          "type": "address"
        },
        {
          "internalType": "uint256",
          "name": "_tokenId",
          "type": "uint256"
        }
      ],
      "name": "viewDocumentByOwnerOrLevelApprovers",
      "outputs": [
        {
          "internalType": "string",
          "name": "DocumentUri",
          "type": "string"
        }
      ],
      "stateMutability": "view",
      "type": "function"
    },
    {
      "inputs": [
        {
          "internalType": "address",
          "name": "_requester",
          "type": "address"
        },
        {
          "internalType": "uint256",
          "name": "_tokenId",
          "type": "uint256"
        }
      ],
      "name": "viewDocumentByRequesters",
      "outputs": [
        {
          "internalType": "string",
          "name": "DocumentURI",
          "type": "string"
        }
      ],
      "stateMutability": "view",
      "type": "function"
    },
    {
      "inputs": [
        {
          "internalType": "address",
          "name": "_approverAd",
          "type": "address"
        }
      ],
      "name": "whitelistApproverL1",
      "outputs": [],
      "stateMutability": "nonpayable",
      "type": "function"
    },
    {
      "inputs": [
        {
          "internalType": "address",
          "name": "_approverAd",
          "type": "address"
        }
      ],
      "name": "whitelistApproverL2",
      "outputs": [],
      "stateMutability": "nonpayable",
      "type": "function"
    },
    {
      "inputs": [
        {
          "internalType": "address",
          "name": "_userContractAd",
          "type": "address"
        }
      ],
      "name": "whitelistUserContract",
      "outputs": [],
      "stateMutability": "nonpayable",
      "type": "function"
    }
  ],
  "bytecode": "0x60806040523480156200001157600080fd5b50604051620034b6380380620034b6833981016040819052620000349162000223565b604080518082018252600d81526c2cb2bc32b6329020b83834b0b760991b60208083019182528351808501909452600b84526a16595e195b1957d3185b9960aa1b9084015281519192916200008c9160009162000167565b508051620000a290600190602084019062000167565b505050620000bf620000b96200011160201b60201c565b62000115565b8051620000d490600b90602084019062000167565b506000600c556040805160808101909152604380825262003473602083013980516200010991600a9160209091019062000167565b50506200033c565b3390565b600680546001600160a01b038381166001600160a01b0319831681179093556040519116919082907f8be0079c531659141344cd1fd0a4f28419497f9722a3daafe3b4186f6b6457e090600090a35050565b8280546200017590620002ff565b90600052602060002090601f016020900481019282620001995760008555620001e4565b82601f10620001b457805160ff1916838001178555620001e4565b82800160010185558215620001e4579182015b82811115620001e4578251825591602001919060010190620001c7565b50620001f2929150620001f6565b5090565b5b80821115620001f25760008155600101620001f7565b634e487b7160e01b600052604160045260246000fd5b600060208083850312156200023757600080fd5b82516001600160401b03808211156200024f57600080fd5b818501915085601f8301126200026457600080fd5b8151818111156200027957620002796200020d565b604051601f8201601f19908116603f01168101908382118183101715620002a457620002a46200020d565b816040528281528886848701011115620002bd57600080fd5b600093505b82841015620002e15784840186015181850187015292850192620002c2565b82841115620002f35760008684830101525b98975050505050505050565b600181811c908216806200031457607f821691505b602082108114156200033657634e487b7160e01b600052602260045260246000fd5b50919050565b613127806200034c6000396000f3fe608060405234801561001057600080fd5b50600436106102275760003560e01c806370a0823111610130578063b88d4fde116100b8578063e0966dad1161007c578063e0966dad14610557578063e8a3d4851461057e578063e985e9c514610586578063f2fde38b146105c2578063fb39cf52146105d557600080fd5b8063b88d4fde146104f8578063c84c2a801461050b578063c87b56dd1461051e578063caf3be1d14610531578063d3fc98641461054457600080fd5b80638da5cb5b116100ff5780638da5cb5b146104a6578063938e3d7b146104b757806395d89b41146104ca578063a22cb465146104d2578063a3821b59146104e557600080fd5b806370a0823114610462578063715018a61461048357806377a4d5591461048b57806387c93d061461049357600080fd5b80631c6bab43116101b357806342842e0e1161018257806342842e0e1461040357806342966c68146104165780635b0b6ead146104295780636352211e1461043c57806363b5648e1461044f57600080fd5b80631c6bab431461032e5780631d9a673014610341578063229d1a351461035457806323b872dd146103f057600080fd5b8063095ea7b3116101fa578063095ea7b3146102a957806315fe58f2146102bc578063162094c4146102cf5780631bd036b1146102e25780631be7fd6f146102f557600080fd5b80630139ac1e1461022c57806301ffc9a71461024157806306fdde0314610269578063081812fc1461027e575b600080fd5b61023f61023a3660046128e4565b6105e8565b005b61025461024f366004612915565b6106ce565b60405190151581526020015b60405180910390f35b6102716106f9565b604051610260919061298a565b61029161028c36600461299d565b61078b565b6040516001600160a01b039091168152602001610260565b61023f6102b73660046129b6565b6107b2565b61023f6102ca3660046128e4565b6108cd565b61023f6102dd366004612a8c565b6109b3565b61023f6102f0366004612ae1565b610a7f565b6102546103033660046129b6565b6001600160a01b03919091166000908152601c60209081526040808320938352929052205460ff1690565b61023f61033c366004612b59565b610dbc565b61023f61034f366004612b99565b610fba565b6103c86103623660046129b6565b6001600160a01b03919091166000818152601a6020908152604080832085845282528083205484845260198352818420868552835281842054948452601b83528184209584529482528083205460119092529091205460ff938416949284169390911691565b6040805194151585529215156020850152901515918301919091526060820152608001610260565b61023f6103fe366004612c00565b6111bd565b61023f610411366004612c00565b6111ef565b61023f61042436600461299d565b61120a565b61023f610437366004612b59565b61123b565b61029161044a36600461299d565b61139a565b61027161045d3660046129b6565b6113fa565b6104756104703660046128e4565b611563565b604051908152602001610260565b61023f6115e9565b6102716115fd565b61023f6104a136600461299d565b61168b565b6006546001600160a01b0316610291565b6102546104c5366004612c3c565b6117b6565b610271611837565b61023f6104e0366004612c71565b611846565b6102716104f33660046129b6565b611855565b61023f610506366004612ca8565b611925565b61023f610519366004612b99565b61195d565b61027161052c36600461299d565b611abb565b61023f61053f366004612a8c565b611b4c565b61023f610552366004612d24565b611c46565b6105656380ac58cd60e01b81565b6040516001600160e01b03199091168152602001610260565b610271611e4f565b610254610594366004612d7b565b6001600160a01b03918216600090815260056020908152604080832093909416825291909152205460ff1690565b61023f6105d03660046128e4565b611e5e565b61023f6105e33660046128e4565b611ed4565b6006546001600160a01b031633148015906106135750336000908152600d602052604090205460ff16155b15610631576040516355098f2760e01b815260040160405180910390fd5b6001600160a01b03811661065857604051639b15b39560e01b815260040160405180910390fd5b6001600160a01b03811660009081526010602052604090205460ff1615156001141561069757604051636ad412ed60e11b815260040160405180910390fd5b6001600160a01b03166000818152601060205260409020805460ff19166001179055600980546001600160a01b0319169091179055565b60006001600160e01b031982166380ac58cd60e01b14806106f357506106f382611f66565b92915050565b60606000805461070890612dae565b80601f016020809104026020016040519081016040528092919081815260200182805461073490612dae565b80156107815780601f1061075657610100808354040283529160200191610781565b820191906000526020600020905b81548152906001019060200180831161076457829003601f168201915b5050505050905090565b600061079682611fb6565b506000908152600460205260409020546001600160a01b031690565b60006107bd8261139a565b9050806001600160a01b0316836001600160a01b031614156108305760405162461bcd60e51b815260206004820152602160248201527f4552433732313a20617070726f76616c20746f2063757272656e74206f776e656044820152603960f91b60648201526084015b60405180910390fd5b336001600160a01b038216148061084c575061084c8133610594565b6108be5760405162461bcd60e51b815260206004820152603e60248201527f4552433732313a20617070726f76652063616c6c6572206973206e6f7420746f60448201527f6b656e206f776e6572206e6f7220617070726f76656420666f7220616c6c00006064820152608401610827565b6108c88383612015565b505050565b6006546001600160a01b031633148015906108f85750336000908152600d602052604090205460ff16155b15610916576040516355098f2760e01b815260040160405180910390fd5b6001600160a01b03811661093d57604051639b15b39560e01b815260040160405180910390fd5b6001600160a01b03811660009081526010602052604090205460ff1615156001141561097c57604051636ad412ed60e11b815260040160405180910390fd5b6001600160a01b03166000818152601060205260409020805460ff19166001179055600880546001600160a01b0319169091179055565b6000828152600f60205260409020546001600160a01b03163314610a115760405162461bcd60e51b81526020600482015260156024820152743cb7ba9030b932903737ba103a34329037bbb732b960591b6044820152606401610827565b600b8054610a1e90612dae565b15159050610a3b5760405180602001604052806000815250610a5c565b80604051602001610a4c9190612de9565b6040516020818303038152906040525b6000838152600e6020908152604090912082516108c89391929190910190612834565b600754602082015160405163026c098960e51b81526001600160a01b0391821660048201529116906000908290634d8131209060240160206040518083038186803b158015610acd57600080fd5b505afa158015610ae1573d6000803e3d6000fd5b505050506040513d601f19601f82011682018060405250810190610b059190612e05565b905080610b2557604051637caba7d760e11b815260040160405180910390fd5b6009546001600160a01b03163314610b505760405163201a5f4f60e11b815260040160405180910390fd5b6040808401516000908152601d602052205460ff16610b8257604051635aee63a760e11b815260040160405180910390fd5b33600090815260126020908152604080832086820151845290915290205460ff1615610bc157604051630313d54d60e21b815260040160405180910390fd5b6060830151151560011415610c9a57606083018051604080860180516000908152601e6020908152838220805495151560ff199687161790558551818a0180516001600160a01b039081168552601b845286852086518652845286852080549315159389169390931790925596519651168252601c815283822083518352815283822080549615159686169690961790955533815260128552828120825182528552828120805490941660019081179094559051815260119093528220805491929091610c8f908490612e38565b90915550610d059050565b606083018051602080860180516001600160a01b039081166000908152601b84526040808220818b0180518452908652818320805497151560ff19988916179055965193519092168152601c8452818120955181529490925292208054921515929091169190911790555b6040808401516000908152601160205220546002148015610d3757506040808401516000908152601e602052205460ff165b156108c857610d538360000151846020015185604001516111bd565b60208381018051604080870180516000908152600f90955281852080546001600160a01b0319166001600160a01b039485161790555192519051929391169133917f986385bea8660b8382c6329a38cc817bc39229f8428d8d6fb4952624a99b75f691a4505050565b60075460405163026c098960e51b81526001600160a01b038581166004830152909116906000908290634d8131209060240160206040518083038186803b158015610e0657600080fd5b505afa158015610e1a573d6000803e3d6000fd5b505050506040513d601f19601f82011682018060405250810190610e3e9190612e05565b905080610e5e57604051637caba7d760e11b815260040160405180910390fd5b6000848152600f60205260409020546001600160a01b03163314610ec45760405162461bcd60e51b815260206004820152601c60248201527f796f7520617265206e6f7420746865206f776e6572206f66206e6674000000006044820152606401610827565b6001600160a01b0385166000908152601a6020908152604080832087845290915290205460ff168015610f19575060008481526014602090815260408083206001600160a01b038916845290915290205460ff165b8015610f225750825b15610f6b576001600160a01b0385166000908152601560209081526040808320805487151560ff1991821617909155878452601690925290912080549091166001179055610fb3565b60405162461bcd60e51b815260206004820152601860248201527f4f776e65722072656a656374656420746865206f6666657200000000000000006044820152606401610827565b5050505050565b600754815160405163026c098960e51b81526001600160a01b0391821660048201529116906000908290634d8131209060240160206040518083038186803b15801561100557600080fd5b505afa158015611019573d6000803e3d6000fd5b505050506040513d601f19601f8201168201806040525081019061103d9190612e05565b90508061105d57604051637caba7d760e11b815260040160405180910390fd5b6008546001600160a01b031633146110885760405163513bcbe960e01b815260040160405180910390fd5b33600090815260126020908152604080832086830151845290915290205460ff16156110c757604051630313d54d60e21b815260040160405180910390fd5b60208084015160009081526018909152604090205460ff1680156110f15750604083015115156001145b1561118b57604080840151602080860180516000908152601d8352848120805494151560ff199586161790553381526012835284812082518252835284812080548516600190811790915588516001600160a01b031682526019845285822083518352845285822080549095168117909455905181526011909152918220805491929091611180908490612e38565b909155506108c89050565b505080516001600160a01b0316600090815260196020908152604080832093820151835292905220805460ff19169055565b6111c8335b82612083565b6111e45760405162461bcd60e51b815260040161082790612e50565b6108c8838383612102565b6108c883838360405180602001604052806000815250611925565b611213336111c2565b61122f5760405162461bcd60e51b815260040161082790612e50565b6112388161229e565b50565b60075460405163026c098960e51b81526001600160a01b038581166004830152909116906000908290634d8131209060240160206040518083038186803b15801561128557600080fd5b505afa158015611299573d6000803e3d6000fd5b505050506040513d601f19601f820116820180604052508101906112bd9190612e05565b9050806112dd57604051637caba7d760e11b815260040160405180910390fd5b6008546001600160a01b031633146113085760405163513bcbe960e01b815260040160405180910390fd5b8215611369576001600160a01b0385166000818152601a60209081526040808320888452909152808220805460ff19166001179055518692917f3527b92ff88e799233f8c213553a30ea2c9bee572b9252b8e8811968f35000ea91a3610fb3565b5050506001600160a01b03919091166000908152601a6020908152604080832093835292905220805460ff19169055565b6000818152600260205260408120546001600160a01b0316806106f35760405162461bcd60e51b8152602060048201526018602482015277115490cdcc8c4e881a5b9d985b1a59081d1bdad95b88125160421b6044820152606401610827565b6000818152600260205260409020546060906001600160a01b031661143257604051630a14c4b560e41b815260040160405180910390fd5b6001600160a01b0383166000908152601a6020908152604080832085845290915290205460ff168015611474575060008281526016602052604090205460ff16155b156114ea576000828152600260205260409020546001600160a01b03166114ae57604051630a14c4b560e41b815260040160405180910390fd5b600b600e60008481526020019081526020016000206040516020016114d4929190612f38565b60405160208183030381529060405290506106f3565b60405162461bcd60e51b815260206004820152604260248201527f56696577206163636573732069732064656e696564206279204c31417070726f60448201527f766572206f7220546865206c616e64206973206c697374656420666f722073616064820152616c6560f01b608482015260a401610827565b60006001600160a01b0382166115cd5760405162461bcd60e51b815260206004820152602960248201527f4552433732313a2061646472657373207a65726f206973206e6f7420612076616044820152683634b21037bbb732b960b91b6064820152608401610827565b506001600160a01b031660009081526003602052604090205490565b6115f1612339565b6115fb6000612393565b565b600b805461160a90612dae565b80601f016020809104026020016040519081016040528092919081815260200182805461163690612dae565b80156116835780601f1061165857610100808354040283529160200191611683565b820191906000526020600020905b81548152906001019060200180831161166657829003601f168201915b505050505081565b60075460405163026c098960e51b81523360048201526001600160a01b03909116906000908290634d8131209060240160206040518083038186803b1580156116d357600080fd5b505afa1580156116e7573d6000803e3d6000fd5b505050506040513d601f19601f8201168201806040525081019061170b9190612e05565b90508061172b57604051637caba7d760e11b815260040160405180910390fd5b336000908152601a6020908152604080832086845290915290205460ff16156117775760008381526014602090815260408083203384529091529020805460ff19166001179055505050565b60405162461bcd60e51b8152602060048201526014602482015273596f7520646f6e7420686176652061636365737360601b6044820152606401610827565b60006117ca6006546001600160a01b031690565b6001600160a01b0316336001600160a01b0316141580156117fb5750336000908152600d602052604090205460ff16155b15611819576040516355098f2760e01b815260040160405180910390fd5b815161182c90600a906020850190612834565b50600190505b919050565b60606001805461070890612dae565b6118513383836123e5565b5050565b6000818152600260205260409020546060906001600160a01b031661188d57604051630a14c4b560e41b815260040160405180910390fd5b6000828152600f60205260409020546001600160a01b03848116911614806118c257506008546001600160a01b038481169116145b806118da57506009546001600160a01b038481169116145b1561190557600b600e60008481526020019081526020016000206040516020016114d4929190612f38565b6040518060800160405280604381526020016130af6043913990506106f3565b61192f3383612083565b61194b5760405162461bcd60e51b815260040161082790612e50565b611957848484846124b4565b50505050565b3360009081526010602052604090205460ff1661198d57604051631710613f60e21b815260040160405180910390fd5b33600090815260126020908152604080832084830151845290915290205460ff16156119cc57604051630313d54d60e21b815260040160405180910390fd5b6040810151151560011415611a4a57604080820151602080840180516000908152601383528481203382528352848120805494151560ff199586161790556012835284812082518252835284812080549094166001908117909455905181526011909152918220805491929091611a44908490612e38565b90915550505b6020808201516000908152601190915260409020546002141561123857611a7a33826000015183602001516111bd565b602081015181516040516001600160a01b039091169033907f986385bea8660b8382c6329a38cc817bc39229f8428d8d6fb4952624a99b75f690600090a450565b6060611ac682611fb6565b6000611afa60408051808201909152601581527468747470733a2f2f697066732e696f2f697066732f60581b602082015290565b90506000815111611b1a5760405180602001604052806000815250611b45565b80611b24846124e7565b604051602001611b35929190612f4d565b6040516020818303038152906040525b9392505050565b3360009081526015602052604090205460ff161515600114611bb05760405162461bcd60e51b815260206004820152601c60248201527f726567697374726174696f6e206973206e6f7420706f737369626c65000000006044820152606401610827565b60008281526016602052604090205460ff161515600114611c0a5760405162461bcd60e51b815260206004820152601460248201527373616c65207374617475732069732066616c736560601b6044820152606401610827565b60008281526017602090815260409091208251611c2992840190612834565b50506000908152601860205260409020805460ff19166001179055565b60075460405163026c098960e51b81526001600160a01b038581166004830152909116906000908290634d8131209060240160206040518083038186803b158015611c9057600080fd5b505afa158015611ca4573d6000803e3d6000fd5b505050506040513d601f19601f82011682018060405250810190611cc89190612e05565b905080611ce857604051637caba7d760e11b815260040160405180910390fd5b6008546001600160a01b0316331415611de957600b8054611d0890612dae565b15159050611d255760405180602001604052806000815250611d46565b82604051602001611d369190612de9565b6040516020818303038152906040525b6000858152600e602090815260409091208251611d699391929190910190612834565b50611d7485856125e5565b6000848152600f6020526040902080546001600160a01b0319166001600160a01b038716179055600c54611da9906001612e38565b600c5560405184906001600160a01b0387169033907f986385bea8660b8382c6329a38cc817bc39229f8428d8d6fb4952624a99b75f690600090a4610fb3565b60405162461bcd60e51b815260206004820152603560248201527f436f6e6e6563746564206164647265737320646f6573206e6f742068617665206044820152741858d8d95cdcc81d1bc818dc99585d19481b185b99605a1b6064820152608401610827565b6060600a805461070890612dae565b611e66612339565b6001600160a01b038116611ecb5760405162461bcd60e51b815260206004820152602660248201527f4f776e61626c653a206e6577206f776e657220697320746865207a65726f206160448201526564647265737360d01b6064820152608401610827565b61123881612393565b6006546001600160a01b03163314801590611eff5750336000908152600d602052604090205460ff16155b15611f1d576040516355098f2760e01b815260040160405180910390fd5b6001600160a01b038116611f4457604051639b15b39560e01b815260040160405180910390fd5b600780546001600160a01b0319166001600160a01b0392909216919091179055565b60006001600160e01b031982166380ac58cd60e01b1480611f9757506001600160e01b03198216635b5e139f60e01b145b806106f357506301ffc9a760e01b6001600160e01b03198316146106f3565b6000818152600260205260409020546001600160a01b03166112385760405162461bcd60e51b8152602060048201526018602482015277115490cdcc8c4e881a5b9d985b1a59081d1bdad95b88125160421b6044820152606401610827565b600081815260046020526040902080546001600160a01b0319166001600160a01b038416908117909155819061204a8261139a565b6001600160a01b03167f8c5be1e5ebec7d5bd14f71427d1e84f3dd0314c0f7b2291e5b200ac8c7c3b92560405160405180910390a45050565b60008061208f8361139a565b9050806001600160a01b0316846001600160a01b031614806120d657506001600160a01b0380821660009081526005602090815260408083209388168352929052205460ff165b806120fa5750836001600160a01b03166120ef8461078b565b6001600160a01b0316145b949350505050565b826001600160a01b03166121158261139a565b6001600160a01b0316146121795760405162461bcd60e51b815260206004820152602560248201527f4552433732313a207472616e736665722066726f6d20696e636f72726563742060448201526437bbb732b960d91b6064820152608401610827565b6001600160a01b0382166121db5760405162461bcd60e51b8152602060048201526024808201527f4552433732313a207472616e7366657220746f20746865207a65726f206164646044820152637265737360e01b6064820152608401610827565b6121e6600082612015565b6001600160a01b038316600090815260036020526040812080546001929061220f908490612f7c565b90915550506001600160a01b038216600090815260036020526040812080546001929061223d908490612e38565b909155505060008181526002602052604080822080546001600160a01b0319166001600160a01b0386811691821790925591518493918716917fddf252ad1be2c89b69c2b068fc378daa952ba7f163c4a11628f55a4df523b3ef91a4505050565b60006122a98261139a565b90506122b6600083612015565b6001600160a01b03811660009081526003602052604081208054600192906122df908490612f7c565b909155505060008281526002602052604080822080546001600160a01b0319169055518391906001600160a01b038416907fddf252ad1be2c89b69c2b068fc378daa952ba7f163c4a11628f55a4df523b3ef908390a45050565b6006546001600160a01b031633146115fb5760405162461bcd60e51b815260206004820181905260248201527f4f776e61626c653a2063616c6c6572206973206e6f7420746865206f776e65726044820152606401610827565b600680546001600160a01b038381166001600160a01b0319831681179093556040519116919082907f8be0079c531659141344cd1fd0a4f28419497f9722a3daafe3b4186f6b6457e090600090a35050565b816001600160a01b0316836001600160a01b031614156124475760405162461bcd60e51b815260206004820152601960248201527f4552433732313a20617070726f766520746f2063616c6c6572000000000000006044820152606401610827565b6001600160a01b03838116600081815260056020908152604080832094871680845294825291829020805460ff191686151590811790915591519182527f17307eab39ab6107e8899845ad3d59bd9653f200f220920489ca2b5937696c31910160405180910390a3505050565b6124bf848484612102565b6124cb84848484612727565b6119575760405162461bcd60e51b815260040161082790612f93565b60608161250b5750506040805180820190915260018152600360fc1b602082015290565b8160005b8115612535578061251f81612fe5565b915061252e9050600a83613016565b915061250f565b60008167ffffffffffffffff811115612550576125506129e0565b6040519080825280601f01601f19166020018201604052801561257a576020820181803683370190505b5090505b84156120fa5761258f600183612f7c565b915061259c600a8661302a565b6125a7906030612e38565b60f81b8183815181106125bc576125bc61303e565b60200101906001600160f81b031916908160001a9053506125de600a86613016565b945061257e565b6001600160a01b03821661263b5760405162461bcd60e51b815260206004820181905260248201527f4552433732313a206d696e7420746f20746865207a65726f20616464726573736044820152606401610827565b6000818152600260205260409020546001600160a01b0316156126a05760405162461bcd60e51b815260206004820152601c60248201527f4552433732313a20746f6b656e20616c7265616479206d696e746564000000006044820152606401610827565b6001600160a01b03821660009081526003602052604081208054600192906126c9908490612e38565b909155505060008181526002602052604080822080546001600160a01b0319166001600160a01b03861690811790915590518392907fddf252ad1be2c89b69c2b068fc378daa952ba7f163c4a11628f55a4df523b3ef908290a45050565b60006001600160a01b0384163b1561282957604051630a85bd0160e11b81526001600160a01b0385169063150b7a029061276b903390899088908890600401613054565b602060405180830381600087803b15801561278557600080fd5b505af19250505080156127b5575060408051601f3d908101601f191682019092526127b291810190613091565b60015b61280f573d8080156127e3576040519150601f19603f3d011682016040523d82523d6000602084013e6127e8565b606091505b5080516128075760405162461bcd60e51b815260040161082790612f93565b805181602001fd5b6001600160e01b031916630a85bd0160e11b1490506120fa565b506001949350505050565b82805461284090612dae565b90600052602060002090601f01602090048101928261286257600085556128a8565b82601f1061287b57805160ff19168380011785556128a8565b828001600101855582156128a8579182015b828111156128a857825182559160200191906001019061288d565b506128b49291506128b8565b5090565b5b808211156128b457600081556001016128b9565b80356001600160a01b038116811461183257600080fd5b6000602082840312156128f657600080fd5b611b45826128cd565b6001600160e01b03198116811461123857600080fd5b60006020828403121561292757600080fd5b8135611b45816128ff565b60005b8381101561294d578181015183820152602001612935565b838111156119575750506000910152565b60008151808452612976816020860160208601612932565b601f01601f19169290920160200192915050565b602081526000611b45602083018461295e565b6000602082840312156129af57600080fd5b5035919050565b600080604083850312156129c957600080fd5b6129d2836128cd565b946020939093013593505050565b634e487b7160e01b600052604160045260246000fd5b600067ffffffffffffffff80841115612a1157612a116129e0565b604051601f8501601f19908116603f01168101908282118183101715612a3957612a396129e0565b81604052809350858152868686011115612a5257600080fd5b858560208301376000602087830101525050509392505050565b600082601f830112612a7d57600080fd5b611b45838335602085016129f6565b60008060408385031215612a9f57600080fd5b82359150602083013567ffffffffffffffff811115612abd57600080fd5b612ac985828601612a6c565b9150509250929050565b801515811461123857600080fd5b600060808284031215612af357600080fd5b6040516080810181811067ffffffffffffffff82111715612b1657612b166129e0565b604052612b22836128cd565b8152612b30602084016128cd565b6020820152604083013560408201526060830135612b4d81612ad3565b60608201529392505050565b600080600060608486031215612b6e57600080fd5b612b77846128cd565b9250602084013591506040840135612b8e81612ad3565b809150509250925092565b600060608284031215612bab57600080fd5b6040516060810181811067ffffffffffffffff82111715612bce57612bce6129e0565b604052612bda836128cd565b8152602083013560208201526040830135612bf481612ad3565b60408201529392505050565b600080600060608486031215612c1557600080fd5b612c1e846128cd565b9250612c2c602085016128cd565b9150604084013590509250925092565b600060208284031215612c4e57600080fd5b813567ffffffffffffffff811115612c6557600080fd5b6120fa84828501612a6c565b60008060408385031215612c8457600080fd5b612c8d836128cd565b91506020830135612c9d81612ad3565b809150509250929050565b60008060008060808587031215612cbe57600080fd5b612cc7856128cd565b9350612cd5602086016128cd565b925060408501359150606085013567ffffffffffffffff811115612cf857600080fd5b8501601f81018713612d0957600080fd5b612d18878235602084016129f6565b91505092959194509250565b600080600060608486031215612d3957600080fd5b612d42846128cd565b925060208401359150604084013567ffffffffffffffff811115612d6557600080fd5b612d7186828701612a6c565b9150509250925092565b60008060408385031215612d8e57600080fd5b612d97836128cd565b9150612da5602084016128cd565b90509250929050565b600181811c90821680612dc257607f821691505b60208210811415612de357634e487b7160e01b600052602260045260246000fd5b50919050565b60008251612dfb818460208701612932565b9190910192915050565b600060208284031215612e1757600080fd5b8151611b4581612ad3565b634e487b7160e01b600052601160045260246000fd5b60008219821115612e4b57612e4b612e22565b500190565b6020808252602e908201527f4552433732313a2063616c6c6572206973206e6f7420746f6b656e206f776e6560408201526d1c881b9bdc88185c1c1c9bdd995960921b606082015260800190565b8054600090600181811c9080831680612eb857607f831692505b6020808410821415612eda57634e487b7160e01b600052602260045260246000fd5b818015612eee5760018114612eff57612f2c565b60ff19861689528489019650612f2c565b60008881526020902060005b86811015612f245781548b820152908501908301612f0b565b505084890196505b50505050505092915050565b60006120fa612f478386612e9e565b84612e9e565b60008351612f5f818460208801612932565b835190830190612f73818360208801612932565b01949350505050565b600082821015612f8e57612f8e612e22565b500390565b60208082526032908201527f4552433732313a207472616e7366657220746f206e6f6e20455243373231526560408201527131b2b4bb32b91034b6b83632b6b2b73a32b960711b606082015260800190565b6000600019821415612ff957612ff9612e22565b5060010190565b634e487b7160e01b600052601260045260246000fd5b60008261302557613025613000565b500490565b60008261303957613039613000565b500690565b634e487b7160e01b600052603260045260246000fd5b6001600160a01b03858116825284166020820152604081018390526080606082018190526000906130879083018461295e565b9695505050505050565b6000602082840312156130a357600080fd5b8151611b45816128ff56fe61646472657373206973206e6f74206f776e6572206f6620746865206c616e64206e6674206f72207669657720726967687473206973206e6f742070726f7669646564a2646970667358221220d9de2ffe3509f85e28b07e4b565bc514e754d8ea40c4652da67ae1de97d113a364736f6c6343000809003368747470733a2f2f697066732e696f2f697066732f516d53663339697a5a3269534865587053574b736644457a716b45664874683666384c7558645731436367653342",
  "linkReferences": {},
  "deployedLinkReferences": {}
}